:020000040000FA
:0600000068EF50F0120051
:020006001200E6
:08000800E9CFE4FFEACFE4FFB9
:10001000F6CFE4FFF7CFE4FFF5CFE4FFF3CFE4FF43
:10002000F4CFE4FFFACFE4FF00EE00F0140EE80492
:1000300003E3EECFE4FFFBD700EE14F0120EE8046A
:1000400003E3EECFE4FFFBD7E652D9CFE6FFDACFEA
:10005000E6FFE1CFD9FFE2CFDAFFE652E652E25007
:10006000000EF350E124266E276A000E272226C0D8
:10007000DEFF27C0DDFFDECF26F0DDCF27F0050154
:1000800026506C5D27506D5904E2DECF6CF5DDCF54
:100090006DF59EA207D005012A2B000E2B232C23E1
:1000A0002D239E929EAAC9D0E250000EF350E12467
:1000B000266E276A000E272226C0DEFF27C0DDFF3E
:1000C000DECF26F0DDCF27F0050126506C5D2750EE
:1000D0006D5904E2DECF6CF5DDCF6DF59EAAACD094
:1000E000AB50020B03E1AB50040B05E0AB980000F2
:1000F000AB88AB9EAB8E6AEC4FF00001866F5DCF94
:10010000E9FF5ECFEAFF060EE926000EEA22E9CFFC
:1001100026F0EACF27F05DCFE9FF5ECFEAFF040EBD
:10012000E926000EEA222650EE24E76E2750EE2044
:10013000EA6EE7CFE9FF86C0EFFF5DCFE9FF5ECF54
:10014000EAFFEECF2AF0EFCF2BF05DCFE9FF5ECFD5
:10015000EAFF040EE926000EEA22EECF28F0EFCFE8
:1001600029F0010E2826000E292228C008F029C0F7
:1001700009F02AC00DF02BC00EF042EC50F004C084
:1001800026F005C027F05DCFE9FF5ECFEAFF040E41
:1001900026C0EBFF050E27C0EBFF5DCFE9FF5ECF6A
:1001A000EAFF040EE926000EEA22EECF26F0EFCF9A
:1001B00027F05DCFE9FF5ECFEAFF020EE926000ED1
:1001C000EA22EECF28F0EFCF29F02850261802E1DE
:1001D0002950271830E15DCFE9FF5ECFEAFFEECF6F
:1001E0002AF0EFCF2BF05DCFE9FF5ECFEAFF020EE2
:1001F000E926000EEA22EECF28F0EFCF29F0010E1B
:100200002826000E292228C008F029C009F02AC09B
:100210000DF02BC00EF042EC50F004C026F005C0EB
:1002200027F05DCFE9FF5ECFEAFF020E26C0EBFFAD
:10023000030E27C0EBFF52D79E9AE552E552E552D6
:10024000E5CFDAFFE7CFD9FFE55200EE25F0120E39
:10025000E80403E3E5CFEDFFFBD700EE13F0140E47
:10026000E80403E3E5CFEDFFFBD7E5CFFAFFE5CFE9
:10027000F4FFE5CFF3FFE5CFF5FFE5CFF7FFE5CFDF
:0C028000F6FFE5CFEAFFE5CFE9FF110033
:04028C00020052A179
:1002900000004A0F00001300000050A100005D0F95
:0602A00000000200000056
:0A02A6000F01380E006F1F0E016FEC
:1002B000480E026F250E036FB80E046F240E056FF3
:1002C0008E0E066F1C0E076F0E0E086F140E096F50
:1002D0005A0E0A6F0E0E0B6FB20E0C6F160E0D6FCC
:1002E000C60E0E6F140E0F6FF00E106F130E116FFF
:1002F000920E126F110E136F060E146F180E156FFB
:10030000600E166F230E176F600E186F130E196FA5
:100310001C0E1A6F240E1B6FFA0E1C6F1F0E1D6F22
:10032000640E1E6F220E1F6FC00E206F0B0E216F0A
:10033000220E226F230E236F6A0E246F230E256F69
:10034000F60E266F050E276FA80E286F060E296F72
:10035000D00E2A6F0A0E2B6FBA0E2C6F050E2D6F62
:10036000B20E2E6F0D0E2F6F660E306F730E316F43
:10037000DC0E326F750E336F820E346F750E356F73
:10038000EE0E366F210E376F7A0E386F040E396F0E
:10039000060E3A6F060E3B6F260E3C6F1B0E3D6F2E
:1003A0009A0E3E6F1A0E3F6F060E406F1B0E416F86
:1003B0005E0E426F040E436FE20E446F040E456FF3
:1003C0005A0E466F0C0E476F120081EC13F0830E2D
:1003D000F36EFD0E6CEC15F007E3FD0EDB507D0FA8
:1003E000146E240E145C02E3010E37D0FD0EDB50B8
:1003F0007D0FE96EEA6AD890E936EA36000EE92602
:100400000F0EEA22EE50ED1002E1020E26D0FD0E94
:10041000DB507D0FE96EEA6AD890E936EA36000EC5
:10042000E9260F0EEA22EECF14F0EFCF15F0F90E09
:10043000DBCFE6FFFA0EDBCFE6FFFB0EDBCFE6FFFE
:10044000FC0EDBCFE6FF04D015C0FAFF1450F96EA6
:10045000FBDFE552E552E552E55290EF13F07DECFB
:1004600016F0E66A98EC16F0E6EC14F002E2E16AA7
:10047000E552F8EC14F090EF13F0D9CFE6FFDACFA5
:10048000E6FFE1CFD9FFE2CFDAFFFA0EDBCFE9FFDB
:10049000FB0EDBCFEAFF300EEF6E010EE76EFA0EB9
:1004A000DBCFE9FFFB0EDBCFEAFFE750E926000ECA
:1004B000EA227C0EEF6E020EE76EFA0EDBCFE9FF4A
:1004C000FB0EDBCFEAFFE750E926000EEA22EF6AD7
:1004D000FF00000E00D0E552E5CFDAFFE7CFD9FFED
:1004E000120081EC13F00D0EE12402E3E168E65204
:1004F000E16E7EEC13F0510825E143EC17F022E1A8
:100500006A0E8EEC15F0E66EA6EC15F0E552E7509B
:10051000EE6EED6A6B0E8EEC15F0156E146AA6EC9D
:1005200015F01450EE261550ED2271EC17F0D5ECB5
:1005300015F0060E0FEC16F002E2E16AE552E16EEC
:10054000145030D0020EDB6AFDEC16F006E007EC2A
:1005500017F0070F11EC17F0F7D7D950070F80EC01
:1005600016F0D950030FA8EC13F0070F8DEC13F021
:10057000DB5014E1FF0EE76E030EDBCF14F0040E28
:100580004BEC15F06A0E99EC13F0030E040E48ECD8
:1005900014F06B0E99EC13F0DF6A02D0010EDF6EDF
:1005A000E0EC15F0000E146E0D0EE15C02E2E16A63
:1005B000E552E16E145090EF13F07DEC16F02C0E26
:1005C000E66E020E05012915E8407F0BE66E6BEC26
:1005D00017F002E2E16AE5528AEC15F0010E05011E
:1005E0002915E66E6BEC17F002E2E16AE552F8ECD1
:1005F00014F090EF13F081EC13F0F1EC47F087EC7E
:1006000013F090EF13F083EC16F051EC15F0040E9C
:10061000C6EC15F014EC17F003E013EC16F00EE145
:1006200005EC16F00BE10BEC17F003E017EC17F0FC
:1006300005E140EC16F002E1010EDB6A010EDB5031
:1006400024E114EC17F006E10BEC17F003E1020EC5
:10065000DCC4DBFF14EC17F006E117EC17F003E144
:10066000020EDDC4DBFF13EC16F006E10BEC17F015
:1006700003E1020EDEC4DBFF13EC16F006E117EC1B
:1006800017F003E1020EDFC4DBFFDF6A51EC16F066
:100690006BEC17F002E2E16AE552F8EC14F0E55277
:1006A000E552E55290EF13F09FEC16F0300804E0AD
:1006B0007EEC13F031080FE105EC16F00CE1EDECE7
:1006C00015F0300803E00BEC17F005E140EC16F0F4
:1006D00002E1010EDB6A010EDB5024E17EEC13F037
:1006E000300804E1040E0401C01103D0FB0E040124
:1006F000C015C06FEDEC15F0300803E1080EC01115
:1007000002D0F70EC015C06F836E7EEC13F0D00FD1
:10071000146EEDEC15F0D00FE82414240501296FB8
:10072000DF6A02D0010EDF6EE0EC15F0E552E55213
:1007300090EF13F081EC13F0180EE12402E3E1686E
:10074000E652E16EDE6ADD6A020EDB6AF36E030ECC
:10075000CBEC15F0120EF3CFDBFF150EF36E130E7C
:10076000CBEC15F0140EF3CFDBFF130EF36E150E6A
:10077000CBEC15F0160EF3CFDBFF100EF36E170E59
:10078000F3CFDBFFD950040FE96EDACFEAFF000E9A
:10079000EA226E0EEE6E050EED6E0A0EDB6AFD0E9F
:1007A000DB50020802E2020E01D0010EF36E0B0EC6
:1007B000F3CFDBFF090EDB6A020EF36E090E6CEC61
:1007C00015F001E3C8D0D9CF14F0DACF15F0090E37
:1007D000DB50020DD950F324E96EDA50A3EC16F089
:1007E000060E166E030E176E69EC14F0165C93EC91
:1007F00015F0186E050EE15C02E2E16AE552E16E69
:100800001850640ED0EC15F0D950120F186E000E6F
:10081000DA20196E030E1A6E69EC14F0020D1850EE
:10082000F324E96E195097EC14F0F3CF16F0F4CFDF
:1008300017F08AEC14F016C0EEFF17C0EDFF010EA2
:10084000D0EC15F0080EDB6AD950120F74EC16F0DC
:10085000166E69EC14F0020D1450F324E96E155075
:1008600097EC14F00C0EF3CFDBFF0D0EF4CFDBFF93
:10087000D9500E0F166E000EDA20176E090EDB50DF
:10088000020D1650F324E96E1750F420EA6EEECFF5
:1008900014F0EFCF15F00C0EDBCF18F00D0EDBCF00
:1008A00019F0960E185E000E195A19501518E8AE78
:1008B00002D0153404D01450185C1550195833E286
:1008C000D9500E0F1C6E000EDA201D6E090EDB5083
:1008D000020D1C50F324E96E1D50F420EA6EEECF99
:1008E0001AF0EFCF1BF0960EE76E0C0EDBCF1EF06A
:1008F0000D0EDBCF1FF0E7501E26000E1F221B50EF
:100900001F18E8AE02D01F3404D01E501A5C1F50CE
:100910001B5809E2140EF36E080E6CEC15F003E29E
:10092000080EDB2A10D0140EF36E080E6CEC15F0D6
:100930000AE28AEC14F00C0EDBCFEEFF0D0EDBCFDB
:10094000EDFF080EDB6A080EDB50140801E07CD7CF
:10095000090EDB2A31D70E0EDBCF14F00F0EDBCFE2
:1009600015F0C80EE76E100EDBCF16F0110EDBCFC0
:1009700017F0E7501626000E172217501518E8AE8C
:1009800002D0153404D01450165C155017581DE3CE
:10099000100EDBCF18F0110EDBCF19F0C80EE76E8A
:1009A0000E0EDBCF1AF00F0EDBCF1BF0E7501A262E
:1009B000000E1B221B501918E8AE02D0193404D0C7
:1009C00018501A5C19501B5805E2010EF36E0A0EFE
:1009D000F3CFDBFF0E0EDB6A0F0EDB6A100EDB6A55
:1009E000110EDB6AFD0EDB50166E176A030E0D6EDC
:1009F0000E6A16C008F017C009F042EC50F004C0AF
:100A000016F005C017F0010ED89016361736E80616
:100A1000FBE1040EDB501624146E050EDB5017208C
:100A2000156E0B0EDBCF1AF01B6A1ABE1B68020E86
:100A3000D8801A56000E1B56030E086E096A1AC09B
:100A40000DF01BC00EF003EC42F006C018F007C01A
:100A500019F0010ED89018361936E806FBE114504B
:100A60001824E96E15501920EA6E060EEECFDBFF52
:100A7000070EEDCFDBFFC5EC16F0000E145C040E84
:100A800015581AE2060EDBCFE6FF070EDBCFE6FFB6
:100A9000060E146E030E156E69EC14F0145C93ECE4
:100AA00015F0166E050EE15C02E2E16AE552E16EB8
:100AB0001650640ED0EC15F00A0EDB50146E180EB2
:100AC000E15C02E2E16AE552E16E145090EF13F04E
:100AD00054EC16F0E652EBEC14F014EC17F003E0D3
:100AE00013EC16F012E105EC16F00FE10BEC17F029
:100AF00007E017EC17F004E0EDEC15F0330805E122
:100B000040EC16F002E1030EDB6A030EDB504CE111
:100B100000EC17F0040EDB6A00EC15F007E1020EA2
:100B2000DB50030803E1E66A00EC14F000EC15F07A
:100B300007E1A2EC15F004E1010EE66E00EC14F002
:100B400000EC15F007E1020EDB0404E1020EE66E94
:100B500000EC14F004EC15F008E1020EDB50030881
:100B600004E1030EE66E00EC14F004EC15F007E16E
:100B7000A2EC15F004E1040EE66E00EC14F004ECB7
:100B800015F007E1020EDB0404E1050EE66E00EC51
:100B900014F071EC17F0040E49EC16F002E2E16A71
:100BA000E552E16E145002D01FEC17F0000E91ECEC
:100BB00016F002E2E16AE552E16E145090EF13F094
:100BC00081EC13F00F0EE12402E3E168E65226EC1B
:100BD00014F07EEC13F006E1010EDB6A0401650EF1
:100BE000F16F22D0020EDB6AFDEC16F009E00EEC8C
:100BF00017F006E007EC17F0050F11EC17F0F4D72B
:100C0000D950050F80EC16F0E3EC15F00DE1020E63
:100C1000DB500AE0D950030FA8EC13F0050F8DEC60
:100C200013F0030EDBCFF1F4010EDB5007E1DF6AB6
:100C3000E0EC15F00401010EF06F04D00401F06B3C
:100C40001FEC17F0000E146E0F0EE15C02E2E16A79
:100C5000E552E16E145090EF13F083EC16F0E6527B
:100C600087EC13F07EEC13F0510834E143EC17F0FD
:100C700031E1DF6A020ED9EC15F0410E9EEC13F063
:100C80002C0EEF6E0401C0B104D0FAEC13F0300E5C
:100C900003D0FAEC13F0310EEF6E050ED9EC15F01F
:100CA0002C0EEF6E060ED9EC15F0420EEF6E070E0D
:100CB000D9EC15F02C0EEF6EC0B304D0D0EC14F0CC
:100CC000300E03D0D0EC14F0310EEF6E090ED9ECDB
:100CD00015F0EF6A14EC17F003E013EC16F064E182
:100CE00005EC16F061E1EDEC15F0300803E00BECDB
:100CF00017F05AE1010EDF6E6EEC17F031E195EC62
:100D000016F0410804E095EC16F0420829E1050EC2
:100D100076EC13F02C0824E1060E76EC13F0300884
:100D200005E0060E76EC13F031081AE1070E76ECBA
:100D300013F016E1060E76EC13F0D00F09E1FE0E6B
:100D4000146E95EC16F0BF0F145C0401C01506D0AC
:100D500095EC16F0BF0F010F0401C011C06FDF6AE0
:100D600040EC16F013E1EDEC15F0D00F09E1FE0EAA
:100D7000146E7EEC13F0BF0F145C0401C01504D098
:100D8000C9EC16F00401C011C06FDF6ADF5005E145
:100D9000C0C483FF010EDB6A03D0DE52010EDD6E9C
:100DA000DB50300F4DEC16F0000EE552E55290EF9F
:100DB00013F07DEC16F0E66A6AC5E6FF6BC5E6FF48
:100DC00079EC13F002E2E16AE552F8EC14F090EFEE
:100DD00013F083EC16F0010EDF6EFD0EDB504108C0
:100DE0000BE1FC0EDB50310807E1DF6AEFEC16F097
:100DF00052C5EEFF53C5EDFFFD0EDB5041080BE180
:100E0000FC0EDB50320807E1EFEC16F054C5EEFFA4
:100E100055C5EDFFDF6AFD0EDB5042080BE1FC0E0D
:100E2000DB50310807E1EFEC16F056C5EEFF57C571
:100E3000EDFFDF6AFD0EDB5042080BE1FC0EDB50DC
:100E4000320807E1EFEC16F058C5EEFF59C5EDFF8B
:100E5000DF6ADF50E55290EF13F0CDEC16F002E3BD
:100E6000E168E6520CEC16F003E013EC16F00EE12C
:100E700005EC16F00BE10BEC17F003E017EC17F0A4
:100E800005E140EC16F002E1010EDB6A010EDB50D9
:100E900001E0ABD0E6EC15F0030EEFCFDBFFEDEC9D
:100EA00015F0D00FDF6E080EDB6A090EDB6A030E49
:100EB00080EC14F0030EDF2414240F01486F480E59
:100EC000E66E0F0EE66EA5D8E552E552040EF3CF9E
:100ED000DBFF050EF4CFDBFF030E80EC14F0DF0424
:100EE000B0EC14F0EF5011E1020EDB6A21EC16F0C9
:100EF00002E2E16AE552E16E1650E66A040EE66E21
:100F00009E0EA2EC13F01DE21AD0030E80EC14F03A
:100F1000DF04142460EC15F0C40EE926040EEA2266
:100F2000EE50ED1011E1020EDB6A5BEC17F0EF6A98
:100F3000E66A000EE66E9E0EA2EC13F002E2E16A93
:100F4000E552E16E145051D0020EDB6AD950080F01
:100F50002CEC17F0300EDF24E66E030E08EC15F0D3
:100F6000190E146E156A080EDBCF08F0090E17EC87
:100F700014F0660E086E096A060EDBCF0DF0070E40
:100F8000DBCF0EF003EC42F0060E06C0DBFF070ECF
:100F900007C0DBFF0A0E5FEC16F0040E5FEC16F0E4
:100FA000AAEC15F0060EDB50165C146E070EDB5033
:100FB0001758156E060E14C0DBFF070E15C0DBFFB9
:100FC000020E21EC16F002E2E16AE552E16E1650E3
:100FD000E66A2D0E9DEC14F0DCEC14F0ABEC13F093
:100FE00002E2E16AE552E16E1650010EDB0406E111
:100FF000020EF36EDB6E5BEC17F0EF6A000E146E00
:101000000A0EE15C02E2E16AE552E16E145090EFF3
:1010100013F0CDEC16F002E3E168E652E16E98ECD5
:1010200016F0F8EC3EF0E552E552F3CFDEFFF4CFD8
:10103000DDFF0EEC15F0060EDB6A070EDB6A080E0C
:10104000DB6A090EDB6A7EEC13F0FC0F60EC15F036
:10105000420EE926050EEA22020EEECFDBFF030E5A
:10106000EECFDBFF040EEECFDBFF050EEECFDBFF96
:101070007EEC13F0FC0F60EC15F0320EE926050E45
:10108000EA22EECF18F0EECF19F0EECF1AF0EFCF44
:101090001BF0DECF14F0DDCF15F0166A176A14C00E
:1010A00006F015C007F016C008F017C009F018C008
:1010B0000BF019C00CF01AC00DF01BC00EF072EC52
:1010C0004EF0060E02C0DBFF070E03C0DBFF080E6A
:1010D00004C0DBFF090E05C0DBFFB1EC15F0AAEC84
:1010E00015F0D950060F2DEC16F067EC16F01734FA
:1010F000000E171809E6D880000E1454000E15547F
:10110000000E1654000E17540BE2C5EC16F0080E34
:10111000DBCF16F0090EDBCF17F008EC14F002D08D
:101120000EEC15F0500E146EC30E156E166A176A8B
:1011300008EC14F0020EDBCF06F0030EDBCF07F055
:10114000040EDBCF08F0050EDBCF09F0A00E0B6E0E
:10115000860E0C6E010E0D6E0E6AA2EC41F0020EB0
:1011600006C0DBFF030E07C0DBFF040E08C0DBFF79
:10117000050E09C0DBFFB1EC15F014C0F3FF15C07C
:10118000F4FF0A0EE15C02E2E16AE552E16E90EFE3
:1011900013F0CDEC16F002E3E168E6520CEC16F029
:1011A00003E013EC16F005E143EC17F002E1010E49
:1011B000DB6A010EDB5001E0C2D014EC17F006E14F
:1011C000000EE66EE66A010ED3EC14F013EC16F096
:1011D00006E1000EE66EE66A020ED3EC14F0060E8F
:1011E000070EDBCF18F0176A800E1816196A0F0E5B
:1011F0001F0B17C014F018C015F019C016F006E048
:10120000D890163215321432E806FAE1020E14C0F4
:10121000DBFF060E070EDBCF15F0000E780E15165D
:101220001550156AE830E830E8301F0B146EDC0EFC
:101230001426070E1522080E14C0DBFF090E15C078
:10124000DBFFC5EC16F0800E1416070E1516D890AD
:1012500015321432E804FBE1030E14C0DBFF7C0EF0
:10126000AAEC16F0D89015321432D89015321432F8
:10127000040E14C0DBFF030EAAEC16F0050E14C01A
:10128000DBFF71EC17F0FB0EE66E9D0EA2EC13F087
:1012900002E2E16AE55285EC14F0020EDB50410FE8
:1012A0009DEC14F0F60EE66E9D0EA2EC13F002E239
:1012B000E16AE55285EC14F0040E49EC16F002E206
:1012C000E16AE5528AEC15F0EF0EE66E9D0EA2EC97
:1012D00013F002E2E16AE55285EC14F0030E49ECEA
:1012E00016F002E2E16AE5528AEC15F0E90EE66ECC
:1012F0009D0EA2EC13F002E2E16AE55285EC14F0D7
:10130000080EDBCFE6FF090E0FEC16F002E2E16AF1
:10131000E5528AEC15F0E00EE66E9D0EA2EC13F09D
:1013200002E2E16AE5528AEC15F0D5EC15F06BECBF
:1013300017F002E2E16AE552E16E145002D01FECB0
:1013400017F0000E146E0A0EE15C02E2E16AE5524B
:10135000E16E145090EF13F07DEC16F090EF13F067
:1013600054EC16F0020EDB6A030EDB6ADE52010E4D
:10137000DD6EE6EC15F0EFCF14F0300E145C1CE3DC
:101380007EEC13F0370818E343EC17F015E1010E7B
:10139000DB6A7EEC13F0D00F0F01496F490EE66E49
:1013A0000F0EE66EF8EC3EF0E552E552020EF3CF7A
:1013B000DBFF030EF4CFDBFF010EDB500CE1DF6A35
:1013C00051EC16F0030E0FEC16F002E2E16AE55262
:1013D000E16E145002D01FEC17F0000E146E040ED4
:1013E000E15C02E2E16AE552E16E145090EF13F025
:1013F0004DEC17F0BE0EE66E9D0EA2EC13F002E26D
:10140000E16AE552F8EC14F0E55290EF13F081EC4C
:1014100013F0060EE12402E3E168E6520CEC16F04C
:1014200003E013EC16F00EE105EC16F00BE10BEC0B
:1014300017F003E017EC17F005E140EC16F002E1BD
:10144000010EDB6A010EDB502CE132EC14F0050ECC
:10145000EFCFDBFF57EC16F00BE1D950020F2CEC6D
:1014600017F0D5EC15F0040E08EC15F0D1EC16F0E1
:10147000010EDB5016E1DF6A57EC16F00BE151EC80
:1014800016F0030E0FEC16F002E2E16AE552E16E8F
:10149000145007D008EC16F0430EEF6EFAEC13F080
:1014A000EF6A010EDB0404E1020EDF6EE0EC15F0E2
:1014B000000E146E060EE15C02E2E16AE552E16E96
:1014C000145090EF13F081EC13F02C0EE12402E3A2
:1014D000E168E65226EC14F0020EDB6AFDEC16F031
:1014E00006E00EEC17F003E0AFEC17F0F7D7B3EC23
:1014F00017F031E1020EDB502EE071EC14F0E3EC5A
:1015000015F006E00EEC17F003E0A5EC17F0F7D7A6
:10151000A9EC17F00EEC17F01EE153EC14F01BE0F1
:1015200071EC14F0E3EC15F009E00EEC17F006E0B6
:1015300007EC17F0180F35EC16F0F4D7D950180F48
:1015400096EC13F0EF6AE3EC15F005E153EC14F0C0
:1015500002E0010EDB6A010EDB5001E098D0D950A9
:10156000220F1DEC16F0DB503EE1D950220F2DEC7E
:1015700016F0D00ED880EE54070EED5434E3220E50
:10158000DBCF06F0230EDBCF07F0086A096A0E0EE8
:101590000B6E820E0C6E0D6A0E6A72EC4EF002C07B
:1015A00006F003C007F004C008F005C009F0E80E1B
:1015B0000626030E0722000E08220922D00E0B6E0B
:1015C000070E0C6E0D6A0E6A04EC4FF0280E06C072
:1015D000DBFF290E07C0DBFF2A0E08C0DBFF2B0E46
:1015E00009C0DBFF03D0DE52010EDD6E010EDBCF42
:1015F000E6FFD950240F70EC16F0DBCFE6FFD95090
:10160000260FA8EC13F0180FF5EC13F0010EE7CF3E
:10161000DBFFDB5039E1240EDBCF14F0250EDBCFEE
:1016200015F0260EDBCF16F0270EDBCF17F0145087
:10163000165C1550175805E3D950240FB7EC14F079
:1016400023E1220EDBCF6AF5230EDBCF6BF5260EEE
:10165000DBCFE6FF270EDBCFE6FF240EDBCFE6FF76
:10166000250EDBCFE6FF280EDBCFE6FF290EDBCF12
:10167000E6FFD8EC2BF0146E060EE15C02E2E16AA4
:10168000E552E16E145003D0DE52010EDD6E010E04
:10169000DB5002E1DF6A02D0020EDF6E46EC17F08B
:1016A0002C0EE15C02E2E16AE552E16E145090EF2B
:1016B00013F081EC13F00F0EE12402E3E168E6522F
:1016C0000CEC16F003E013EC16F032E105EC16F02A
:1016D0002FE10BEC17F007E017EC17F004E0EDEC4E
:1016E00015F0330825E16EEC17F022E1040EC6EC8C
:1016F00015F0FDEC16F00CE00EEC17F009E007EC2D
:1017000017F0030FC9EC13F0FC0FB8EC17F0F1D78A
:10171000D950030FC9EC13F0FC0FC5EC13F0E3EC48
:1017200015F006E1020EDB50040802E0010EDB6A50
:10173000010EDB5053E10BEC17F018E114EC17F03D
:1017400009E1F6EC15F006E12BEC14F033EC48F06F
:10175000E552E55213EC16F009E1F6EC15F006E15E
:101760002BEC14F040EC48F0E552E55217EC17F082
:1017700018E114EC17F009E1F6EC15F006E12BEC9A
:1017800014F04DEC48F0E552E55213EC16F009E187
:10179000F6EC15F006E12BEC14F05AEC48F0E552AB
:1017A000E552EDEC15F033081CE114EC17F009E1FB
:1017B000F6EC15F006E12BEC14F067EC48F0E5527E
:1017C000E55213EC16F00DE1F6EC15F00AE12BEC06
:1017D00014F074EC48F0E552E55203D0DE52010EED
:1017E000DD6E010EDB5002E1DF6A02D0020EDF6E19
:1017F00046EC17F00F0EE15C02E2E16AE552E16EA1
:10180000145090EF13F0D3EC16F002E3E168E652C7
:1018100026EC14F0DF6E14EC17F003E013EC16F076
:101820003BE105EC16F038E10BEC17F003E017ECA8
:1018300017F032E16EEC17F02FE195EC16F02B0863
:1018400004E095EC16F02D0827E1050E76EC13F078
:101850002C0822E1060EC6EC15F0FDEC16F00CE0AB
:101860000EEC17F009E007EC17F0060FC9EC13F0C7
:10187000FA0FB8EC17F0F1D7D950060FC9EC13F0F6
:10188000FA0FC5EC13F0E3EC15F006E1020EDB50A5
:10189000060802E0010EDB6A010EDB5001E0E6D033
:1018A00032EC14F0030EEFCFDBFF040EF6EC16F073
:1018B000050EEFCFDBFFDE52010EDD6ED950100FAB
:1018C000A8EC13F0060F8DEC13F0040EDB5041086A
:1018D0002FE1030EDB5031082BE1010EDB5028E134
:1018E0000401DC0523E1050EDB502B080DE1EDECD6
:1018F00013F00401C6270950C72396EC17F002E243
:10190000E16AE552E16E1450050EDB502D0810E13E
:10191000EDEC13F00401C65F0950C75B96EC17F0BD
:1019200002E2E16AE552E16E145002D05FEC17F07A
:10193000040EDB5041082FE1030EDB5032082BE18F
:10194000010EDB5028E10401DD0523E1050EDB502B
:101950002B080DE1EDEC13F00401CA270950CB234D
:1019600075EC17F002E2E16AE552E16E1450050EE3
:10197000DB502D0810E1EDEC13F00401CA5F0950B3
:10198000CB5B75EC17F002E2E16AE552E16E1450B0
:1019900002D05FEC17F0040EDB5042082FE1030E7B
:1019A000DB5031082BE1010EDB5028E10401DE059C
:1019B00023E1050EDB502B080DE1EDEC13F00401E3
:1019C000CE270950CF2380EC17F002E2E16AE552FE
:1019D000E16E1450050EDB502D0810E1EDEC13F014
:1019E0000401CE5F0950CF5B80EC17F002E2E16AA0
:1019F000E552E16E145002D05FEC17F0040EDB509C
:101A0000420840E1030EDB5032083CE1010EDB509E
:101A100039E10401DF0523E1050EDB502B080DE160
:101A2000EDEC13F00401D2270950D3238BEC17F00F
:101A300002E2E16AE552E16E1450050EDB502D081A
:101A400021E1EDEC13F00401D25F0950D35B8BEC84
:101A500017F002E2E16AE552E16E145013D0DF6A3A
:101A60003DEC17F04E0EEF6E030E09D008EC16F0A9
:101A70004F0EEF6EFAEC13F04B0EEF6E050ED9EC35
:101A800015F0EF6A000E146E120EE15C02E2E16ADC
:101A9000E552E16E145090EF13F083EC16F0E1EC98
:101AA00014F017EC15F0BBEC14F004EC4FF0DE5220
:101AB00006C0DEFF07C0DDFFDD5220EC15F0BBECF9
:101AC00014F004EC4FF0030E06C0DBFF040E07C059
:101AD000DBFFDF6AE0EC15F086EC16F002E2E16A6B
:101AE000E5528AEC15F050EC17F002E2E16AE5529B
:101AF000F8EC14F091EC16F002E2E16AE552E16EC6
:101B0000145090EF13F04DEC17F06CC5E6FF6DC567
:101B1000E6FF79EC13F002E2E16AE552F8EC14F02A
:101B2000E55290EF13F081EC13F01C0EE12402E378
:101B3000E168E65226EC14F0020EDB6AFDEC16F0CA
:101B400006E00EEC17F003E0AFEC17F0F7D7B3ECBC
:101B500017F018E1020EDB5015E071EC14F0E3EC25
:101B600015F006E00EEC17F003E0A5EC17F0F7D740
:101B7000A9EC17F0E3EC15F005E153EC14F002E0EA
:101B8000010EDB6A010EDB5072E156EC17F0DB5000
:101B90006EE1180EDBCF14F0190EDBCF15F01A0E24
:101BA000DBCF16F01B0EDBCF17F01650145C17506E
:101BB00015585DE2D950180FB7EC14F058E0D95021
:101BC0001A0FB7EC14F053E0180EDBCF62F5190EC4
:101BD000DBCF63F50501646B656BBBEC14F017ECB0
:101BE00015F072EC4EF002C062F503C063F504C05C
:101BF00064F505C065F51A0EDBCF66F51B0EDBCF6D
:101C000067F50501686B696BBBEC14F020EC15F00F
:101C100072EC4EF002C066F503C067F504C068F5CB
:101C200005C069F5180E190E48EC14F0750E99EC04
:101C300013F0FF0EE76E180EDBCF14F0190E4BEC0D
:101C400015F0740E99EC13F01A0E1B0E48EC14F0FC
:101C5000770E99EC13F0FF0EE76E1A0EDBCF14F03F
:101C60001B0E4BEC15F0760E99EC13F0DF6A010EAB
:101C7000DB5002E0010EDF6E46EC17F01C0EE15C5B
:101C800002E2E16AE552E16E145090EF13F081EC4C
:101C900013F0230EE12402E3E168E652E16EEBEC7F
:101CA00014F0010EDF6E14EC17F003E013EC16F0E5
:101CB0005DE105EC16F05AE10BEC17F003E017ECD0
:101CC00017F054E16EEC17F051E1040EF36E050EBF
:101CD000F3CFDBFF040EF36EDB6EFDEC16F00CE0D1
:101CE00032EC16F02C0808E032EC16F0E66ED95013
:101CF0000B0F8CEC16F0F1D7D9500B0F43EC16F00C
:101D0000C5EC13F032EC16F006E1F1EC14F003E050
:101D1000030EB8EC15F032EC16F02C0827E1F1ECCC
:101D200014F024E0040EDB2ADB50E76E050EE7CF4B
:101D3000DBFF32EC16F00CE032EC16F02C0808E079
:101D400032EC16F0E66ED950150F8CEC16F0F1D788
:101D5000D950150FFDEC13F0EF6A32EC16F006E1E6
:101D6000F1EC14F003E0040EB8EC15F0030EDB50B8
:101D700001E0D8D000EC17F0D950070FA8EC13F011
:101D80000B0F00EC16F0E76E030EE7CFDBFF060E3D
:101D9000DB5004081CE1030EDBCFE6FFD950090F2E
:101DA000A8EC13F0150FF5EC13F0030EE7CFDBFFF3
:101DB000DB5018E1090EDBCF14F00A0EDBCF15F073
:101DC0001F0E14C0DBFF200E15C0DBFF07D00A0E6C
:101DD000F36E1F0EF3CFDBFF200EDB6A210EDB6AF2
:101DE000220EDB6A030EDB5042E1EBEC14F000EC58
:101DF00015F00DE1020EDB040AE1C2EC14F004015F
:101E00001450F65D1550F75902E3030EDB6A00EC3F
:101E100015F00DE1A2EC15F00AE1C2EC14F004019A
:101E20001450F85D1550F95902E3030EDB6A04EC17
:101E300015F00DE1020EDB040AE1C2EC14F004011E
:101E40001450FA5D1550FB5902E3030EDB6A04ECF3
:101E500015F00DE1A2EC15F00AE1C2EC14F004015A
:101E60001450FC5D1550FD5902E3030EDB6A030EAE
:101E7000DB5058E1010E80EC14F0020EDB04B0ECF4
:101E800014F0EF5002E1030EDF6E00EC15F008E1F4
:101E9000010E0401C01504E1010EC011C06F836E74
:101EA00004EC15F008E1020E0401C01504E1020E75
:101EB000C011C06F836E030EDF5C34E0D9501F0F7A
:101EC0002DEC16F0EECFE6FFEECFE6FFEECFE6FF0D
:101ED000EFCFE6FF070EDBCFE6FF080E66EC15F04E
:101EE000010EDBCFE6FFA7EC2DF0146E080EE15CCF
:101EF00002E2E16AE552E16E1450DF6E010E80EC01
:101F000014F029EC15F0E00EE926040E9AEC15F019
:101F1000010E80EC14F029EC15F0E80EE926040E11
:101F20009AEC15F046EC17F0230EE15C02E2E16A50
:101F3000E552E16E1450F4D3E4DB0D0EE12402E32C
:101F4000E168E652E16E9D92F29EF29C030E05015D
:101F50002A27000E2B232C232D23D950010F2CECE4
:101F600017F088EC36F0E552E552F28EF28C9D8245
:101F7000DF6AE0EC15F086EC16F002E2E16AE55269
:101F800085EC14F050EC17F002E2E16AE55285ECC2
:101F900014F0D5EC15F0060E0FEC16F002E2E16A33
:101FA000E55285EC14F0070EDBCFE6FF080E0FECD0
:101FB00016F002E2E16AE55285EC14F0090EDBCF7F
:101FC000E6FF0A0E0FEC16F002E2E16AE5528AEC37
:101FD00015F00B0EDBCFE6FF0C0E0FEC16F002E255
:101FE000E16AE552F8EC14F0146E0D0EE15C02E2C9
:101FF000E16AE552E16E145093D383DB060EE124CF
:1020000002E3E168E652E16EEBEC14F014EC17F039
:1020100003E013EC16F00EE105EC16F00BE10BEC0F
:1020200017F003E017EC17F005E140EC16F002E1C1
:10203000030EDB6A030EDB5040E100EC17F000EC0E
:1020400015F009E1020EDB0406E1040EF6C4DBFF25
:10205000050EF7C4DBFF00EC15F009E1A2EC15F06A
:1020600006E1040EF8C4DBFF050EF9C4DBFF04EC47
:1020700015F009E1020EDB0406E1040EFAC4DBFFF1
:10208000050EFBC4DBFF04EC15F009E1A2EC15F032
:1020900006E1040EFCC4DBFF050EFDC4DBFF71ECA2
:1020A00017F0040EDBCFE6FFD5EC15F022DB02E2E1
:1020B000E16AE552E16E145002D01FEC17F0000EF9
:1020C000146E060EE15C02E2E16AE552E16E145024
:1020D00027D383EC16F0DF6AFD0EDB5041081EE1CA
:1020E000FC0EDB5031081AE1B5EC16F015E2FA0EE1
:1020F000DBCFF6F4FB0EDBCFF7F4000E0401F61590
:10210000FF0EF71585EC15F06D0E13DB0401F6518B
:10211000E66E6C0E0EDB02D0010EDF6EFD0EDB50A4
:1021200041081EE1FC0EDB5032081AE1BBEC16F050
:1021300015E2FA0EDBCFF8F4FB0EDBCFF9F4000E5C
:102140000401F815FF0EF91585EC15F06F0EF1DAA4
:102150000401F851E66E6E0EECDA02D0010EDF6E6D
:10216000FD0EDB5042081EE1FC0EDB5031081AE187
:10217000B5EC16F015E2FA0EDBCFFAF4FB0EDBCF6E
:10218000FBF4000E0401FA15FF0EFB1585EC15F0AB
:10219000710ECFDA0401FA51E66E700ECADA02D07F
:1021A000010EDF6EFD0EDB5042081EE1FC0EDB501F
:1021B00032081AE1BBEC16F015E2FA0EDBCFFCF4A4
:1021C000FB0EDBCFFDF4000E0401FC15FF0EFD1528
:1021D00085EC15F0730EADDA0401FC51E66E720E5B
:1021E000A8DA02D0010EDF6EDF50E55299D29FECE3
:1021F00016F031081EE143EC17F01BE1010EDB6A1B
:10220000380E0401C35D15E0380EC36FE66E32EC84
:1022100015F062C55AF563C55BF564C55CF565C527
:102220005DF52AC55EF52BC55FF52CC560F52DC59E
:1022300061F564DA30080AE143EC17F007E1010EBA
:10224000DB6A0401C369E66832EC15F0010EDB506D
:1022500002E1DF6A02D0010EDF6EE0EC15F0E5521C
:10226000E5525ED2D3EC16F002E3E168E6520CECE4
:1022700016F003E013EC16F043E105EC16F040E134
:10228000E6EC15F00E0EEFCFDBFF0BEC17F003E0E2
:1022900017EC17F035E16EEC17F032E1040E29DB94
:1022A000FDEC16F006E00EEC17F003E028EC17F05A
:1022B000F7D7A0EC17F0E3EC15F022E11AEC17F0D9
:1022C0001FE0D950100F1DEC16F0E6EC15F00E0EC5
:1022D000EFCFDBFF020EF6EC16F00F0EEFCFDBFFB9
:1022E000010EDB500DE1BFEC15F00F0EDBCFE6FF6A
:1022F0000E0EDBCFE6FFEDDE41EC17F0D1EC16F071
:10230000010EDB5002E1DF6A02D0010EDF6E46EC07
:1023100017F0120EE15C02E2E16AE552E16E145040
:10232000FFD1EFD90E0EE12402E3E168E652E16E3F
:10233000D7EC16F000EC2CF0E552E552E8D9E66A4D
:10234000D7EC16F043DB02E2E16AE55251DB146E92
:102350000E0EE15C02E2E16AE552E16E1450E0D15A
:10236000D0D917EC4CF0D3D9DBD1CBD91C0EE1245A
:1023700002E3E168E6526ADA030EDB6AFDEC16F06E
:102380000FE038EC16F02C080BE038EC16F0E66E97
:102390006EDBF0EC15F049EC17F0030EDB2AEED7FC
:1023A00066DBF3D938EC16F02C0827E1030EDB507E
:1023B00024E0030EDB2ADB50DCEC16F038EC16F0E0
:1023C0000DE038EC16F02C0809E038EC16F0E66E5B
:1023D00059DA49EC17F0030EDB2AF0D753DAEF6A2B
:1023E00038EC16F00AE1030EC1EC16F006E056ECEC
:1023F00017F01A0E41DB77EC16F0010EDB5002E10C
:10240000DF6A02D0020EDF6E46EC17F01C0EE15CB4
:1024100002E2E16AE552E16E145082D172D9100EE7
:10242000E12402E3E168E65211DA0F0EDB6AFDEC0B
:1024300016F00EE0E1EC16F02C080AE0E1EC16F0E4
:10244000E66E23DBCDDB49EC17F00F0EDB2AEFD76E
:102450001CDB9BD9E1EC16F014E10F0EDB5011E010
:10246000D9500C0F75D9020F58D90C0EDBCFE6FFEF
:102470000D0EDBCFE6FF3BEC16F0E76E0E0EE7CF5E
:10248000DBFF010EDB500BE171EC17F00E0E49EC97
:1024900016F002E2E16AE552E16E145003D0020E3A
:1024A000DF6E8EDB000E146E100EE15C02E2E16A5C
:1024B000E552E16E145034D1D3EC16F002E3E1683A
:1024C000E652AADB02E0AFDB26E19FDB24E1020E4D
:1024D00010DAFDEC16F02C0805E075DB03E028ECC3
:1024E00017F0F7D7A0EC17F06EDB15E1DCD913E09D
:1024F000D9500E0FA2DB0E0EDBCFE6FF0F0EDBCFA7
:10250000E6FFC9EC16F0E66EF5DB100EF3CFDBFF4D
:10251000110EF4CFDBFF010EDB500AE171EC17F076
:102520002EDBE7D802E2E16AE552E16E145002D0F8
:102530001FEC17F0000E146E120EE15C02E2E16A6D
:10254000E552E16E1450ECD0DCD81D0EE12402E31C
:10255000E168E65261DB02E066DB44E156DB42E122
:10256000C9EC16F0E76E1C0EE7CFDBFF020EC1D9F7
:10257000FDEC16F02C0805E026DB03E028EC17F054
:10258000F7D7A0EC17F00EEC17F02CE18CD92AE06D
:10259000A8D90EEC17F005E016DB03E0A5EC17F068
:1025A000F8D7A9EC17F00FDB1DE11AEC17F01AE0D1
:1025B000D950180F42DBDBCFE6FFD9501A0F90DB62
:1025C000DB5010E11A0EDBCFE6FF1B0E55DA1C0EB6
:1025D000DBCFE6FF9CEC47F0A4DB02E2E16AE552C8
:1025E000E16E1450010EDB5002E1DF6A02D0010EF1
:1025F000DF6E46EC17F01D0EE15C02E2E16AE55287
:10260000E16E14508DD050DB900EF6D9910EC5D8E6
:1026100002E2E16AE552E16E83D046DB920EECD92C
:10262000930EBBD802E2E16AE552E16E79D03CDB61
:10263000010EE76EFC0EDBCF18F0FD0E85D9176E8C
:10264000166A16C0E6FFE66EFC0EDBCFE6FFFD0E57
:1026500031D9DE6E17C0DDFF010EE76EFA0EDBCF5B
:1026600018F0FB0E71D9166E176E166A16C0E6FFCB
:10267000E66EFA0EDBCFE6FFFB0E1CD9020E14C08D
:10268000DBFF030E17C0DBFFD9CFE9FFDACFEAFF8C
:10269000EE50ED1004E1D950020F69D912E0D9CF04
:1026A000E9FFDACFEAFFFF0EEE180DE1FF0EED189D
:1026B0000AE163EC17F0FF0EEE1805E1FF0EED18CE
:1026C00002E1000E01D0010E146E040EE15C02E284
:1026D000E16AE552E16E145023D0B40EC9DB010863
:1026E00001E1010C000CD9DA31EF17F07FDBEF507C
:1026F00012009CDA8CEC26F091EF16F067DAEF50BE
:10270000120055DBE1CFD9FFE2CFDAFF120067DB21
:10271000300EEF6EA6DBEF6A120072DAD1EF16F020
:10272000E552E5CFDAFFE7CFD9FF120066DAF0EF26
:1027300015F0E66E010EE66E77EF16F0EF6E030E03
:10274000D9EF15F0E66E72DA9EEC28F091EF16F0F4
:1027500083DBD9501200DBCF15F00A0E0D6E0E6A26
:1027600014C008F015C009F042EC50F008C014F095
:1027700009C015F008C0E6FF09C0E6FF57DA8CEC87
:1027800026F0166E050EE15C12000F0129DAEF6AE1
:10279000120059DB020EDB5012006ADBE66E93DB9F
:1027A000E552E750EE6EED6A020EDBCF16F0030E37
:1027B000DBCF17F016C017F0166ADE501610146E35
:1027C000DD501710156E14C0F3FFF46E040EE15CBB
:1027D00012005FDB020EDB2A1200100EDBCF08F0C6
:1027E000110EDBCF09F0085012000ADAE552E72497
:1027F000E76E1200040ED9EF15F045DAF0EF15F090
:102800009AEC03F0E552E76E040EE7CFDBFF12000F
:102810005ADB5DDA020E14C0DBFF030E15C0DBFFCE
:10282000040E16C0DBFF050E17C0DBFF1200DBCF66
:1028300009F014C00DF015C00EF042EC50F0060E79
:1028400008C0DBFF070E09C0DBFF1200E16EDE529D
:10285000010EDD6E12000D0EDBCFE6FF0E0EDBCF9C
:10286000E6FF1200B3D9040EEFCFDBFF020EF6EF46
:1028700016F00E0FC5D9146E010EDBCFE7FF145012
:10288000E72625D3D9500E0F2FDA7BDAF0EF15F0BB
:10289000DBCF15F0000EFF0E151615C014F0156AEB
:1028A0001450E66E1200030EDB50F36E020EDB5086
:1028B000F35C1200DBCFE6FFDED9E552E7CF17F07D
:1028C000E552E7CF16F000011610146E17C015F090
:1028D00012000E6EFD0EDBCF09F084EC50F00550B7
:1028E0001200020EDB2ADB50E76E030EE7CFDBFFA0
:1028F0001200F36E030EF3CFDBFFDB50DCEF16F0BC
:10290000DB50BF0FE824146E1200E16E14502C0E41
:10291000E66E1200D9500E0F96DA090EDB50020D4A
:102920001450F324E96E1550F420EA6E12000BDA0D
:102930000B0EDBCFE6FF7AEF16F0E66E77D9D4EC1C
:1029400028F09FDAE66A1200DBCF19F0E75018266C
:10295000000E192218C0E6FF19C0E6FF3BEF16F083
:102960001424EA6ADC0FE96E040EEA22120075D91B
:10297000EE50ED101200980E0B6E3A0E0C6E0D6AB2
:102980000E6A1200070EDBCF14F0080EDBCF15F035
:102990001200FA0EDBCF14F0FB0EDBCF15F01200A5
:1029A000080ED9EF15F0E66EA5D9060EF3CFDBFFC2
:1029B000070EF4CFDBFF1200060EDBCF14F0070E7C
:1029C0001200E652E652E652E65212002FD96AECA5
:1029D00028F091EF16F0010EF36E030EF3CFDBFF3C
:1029E0001200050EDB50F36E040EDB50F35C120098
:1029F000E16E1450000E12003BDADE6EDD6A12004A
:102A0000010EDB5041081200010EDB50420812009B
:102A1000DBCFE6FFE9EC06F041EF17F0020EDB6AD0
:102A2000030EDB6A040EDB6A050EDB6A120062C568
:102A300006F063C507F064C508F065C509F012002B
:102A400066C506F067C507F068C508F069C509F0F6
:102A50001200020EDB041424E96EEA6AD890E9360B
:102A6000EA361200310EE66EE66A77EF16F0D950BC
:102A7000040F3AD9DB501200DBCFE6FF180EDBCF94
:102A8000E6FF190EDBCFE6FF1200D950020FDBD9AB
:102A90000F0EDB501200E7501416156A1450E66E44
:102AA0001200E652E652DE52010EDD6E1200EF6AAF
:102AB000E66A020EDBCFE6FF1200D00FDCEF16F065
:102AC000040DF3CFE9FFF4CFEAFF1200DBCFE6FFFE
:102AD000020EDBCFE6FF1200DBCFF4FFF350F45C15
:102AE0001200C6C4E6FFC7C4E6FF1200CAC4E6FF70
:102AF000CBC4E6FF1200CEC4E6FFCFC4E6FF12004F
:102B0000D2C4E6FFD3C4E6FF1200146E156AE85083
:102B1000E66E1200E16E1450E66A1200E66E010ED7
:102B2000E66E3BEF16F0E66EE66A0B0EDBCFE6FFD5
:102B30009CEF47F0EA22070EDBCFEEFF080EDBCF5B
:102B4000EDFF1200020EDB5002081200D950050FF3
:102B50002DEF16F0040EDBCF16F0050EDBCF17F0CD
:102B60001200020EDBCF14F0030EDBCF15F01200C3
:102B7000F36E060EF3CFDBFF030EDB6A1200100EBE
:102B8000DBCFE6FF110EDBCFE6FF1200F36E020E85
:102B9000F3CFDBFF1200F3CFDBFF360EF36E120034
:102BA000E66EFDEC4FF0E5521200050EDBCFE6FFBE
:102BB0001200E76E14D9E750E926000EEA2212004F
:102BC0005CD9EF6A1200020EFDEF16F0FC0EDBCFAF
:102BD000E9FFFD0EDBCFEAFF1200020E76EF13F0E5
:102BE0001424E96E000E1520EA6E1200D9500D0F64
:102BF000AFDD030F92DDDB50120025D91AEF17F07D
:102C00002BD999EC43F041EF17F03DD92C08120075
:102C100034D94E0E9EEF13F019DE14EF17F0DBCF10
:102C2000E6FF79EF13F06ADD42081200FA0EDBCFFF
:102C3000E6FFFB0EDBCFE6FF12008ADD040F8DEF0F
:102C400013F039D92D0E7ADDEF6A2C0EE66E040EE4
:102C5000DBCF14F0050EABEF13F0E96E000EDA20B7
:102C6000EA6E1200040EFDEF16F060DDE9EF13F0DE
:102C7000030EFDEF16F062EC4CF0E552E552120047
:102C8000030E76EF13F0DFD8040EDBCFE6FF050E60
:102C900072D1DBCFE6FF6BEF17F0E66EA0D849EFFD
:102CA00017F0EBD857EF15F02CDDE1EF14F0040E20
:102CB00027DE050EDB50CF0F53DEEF041200146E3B
:102CC000156A060EDBCF08F0070E17EF14F0EE5072
:102CD0001426EE501522EE501622EE501722120046
:102CE00037DD0E0F82DDF3D0AED8030E12004AECB2
:102CF0004CF045D13CEC47F042D103DD87EF13F0B7
:102D000048DDC5EF13F0FDDCE65212002C0EE66E36
:102D1000010EDCDE79EF13F070DDBBD8040EDB2A88
:102D20001200146E050EE15C1200040E76EF13F033
:102D3000FC0EDBCFE6FFFD0EDBCFE6FF1200E1DC91
:102D4000B0DE7EEF13F0F420EA6EEECFE6FFEFCFB9
:102D5000E6FF1200E76E30DEE7501416156A120027
:102D6000D9501A0FF5DC39EF14F013DE2D0E145C78
:102D7000010E155812000DDE910E145C010E15584F
:102D80001200DBCFE6FF020EF6D016DEDBCF15F029
:102D90001200B4DCBF0F010F1200B3DC0A0EE124F5
:102DA0001200E76E94D0ADDC120EE1241200D9CFF0
:102DB000E6FFDACFE6FF1200E76E020EE7CFDBFF99
:102DC00012000F0EFDEF16F0E66ED950040F120040
:102DD00094EC2BF0E552E552E55271EF17F0FA0E44
:102DE000DBCFE9FFFB0EDBCFEAFF1200E76EEEDE82
:102DF000E750E926000EEA221200DB5076EF13F0CE
:102E0000E5DE010EEFCFDBFFE8DE5DEF15F0DBDE88
:102E1000E66ED9501200E1DE31081200D4DE2C0833
:102E20001200B7DCB8EF17F069DC41081200D5DEFC
:102E300032081200020EDBCFE6FF030E9CD0010E1B
:102E4000DF6EE0EF15F0146E000EDA20156E120042
:102E5000BADEBADF35EF16F0E66E000EDA20E66E67
:102E60001200010EA6DE7C0EEF6E020ED9EF15F0F9
:102E7000E66E020EE66E3BEF16F0300EDF2473EFC7
:102E800013F0E5527CD0010E76EF13F099DE146E4C
:102E90001200E552E750EF6E120035DF71EF17F0C8
:102EA000030EDBCFE6FF040E0FEF16F0D950180F1C
:102EB000C4DEB0EF16F0DB50300F73EF13F0DF6AB3
:102EC000A7DEEF6A1200D950020F2DEF16F0010EA7
:102ED000E7CFDBFF1200E66A79EF13F0D1DE2C08B2
:102EE0001200DF6A6DDEE66A1200CAC4C8F4CBC401
:102EF000C9F4FCDD100EE66E6BDFF8DD79EF13F040
:102F0000CEC4CCF4CFC4CDF4F6DD200EE66E60DF87
:102F1000F2DD79EF13F0D2C4D0F4D3C4D1F4F0DDF4
:102F2000300EE66E55DFECDD79EF13F0C6C4C4F465
:102F3000C7C4C5F4D6DDE66A4BDFD3DD79EF13F005
:102F4000D950040F5ADEC5EF13F061DF0E0F35EFD5
:102F500016F0D9500E0F96EC13F0EF6A120033DE24
:102F600033DF11EF17F0D950040FCADE0EEF17F060
:102F700037DEE9EF13F0DB50E552E75C1200E55273
:062F8000E552E5521200CB
:0A2F8600B1EC30F049EC34F043ECFC
:102F90004AF0000EE66E010EE66ED8EC48F0E552FF
:102FA000E552090EE66E020EE66ED8EC48F0E552E8
:102FB000E55253EC01F005012A6B2B6B2C6B2D6B4A
:102FC00004015C6B04015D6B04015E6B04015F6BCB
:102FD0000401606B0401616B0401696B6A6B6B6BCC
:102FE0006C6B04016D6B6E6B6F6B706B0401716BBE
:102FF000726B736B746B0401756B766B776B786BAC
:103000000F014A516BE13CEC25F0E82404018E6F7E
:103010008F6B8EC4E6FF8FC4E6FF020EE66EE66A93
:10302000010EE66E9CEC47F0146E050EE15C02E2C8
:10303000E16AE552E16E1450010E0401156A8E2515
:10304000146E8F51152214C0E6FF15C0E6FF020E64
:10305000E66EE66A020EE66E9CEC47F0166E050E12
:10306000E15C02E2E16AE552E16E1650020EE66EA4
:10307000E66A010EE66E3CEC47F0E552E552E55299
:10308000F3CF8AF4F4CF8BF4020EE66EE66A020EFA
:10309000E66E3CEC47F0E552E552E552F3CF8CF496
:1030A000F4CF8DF404018E5104018A1904E1040166
:1030B0008F5104018B1911E1010E0401156A8E254F
:1030C000146E8F511522145004018C1902E1155011
:1030D0008D1903E10F01010E4A6F92D7BFEC35F055
:1030E0007D0EE66E040EE66E88EC36F0E552E55293
:1030F0000F01010E4B6F0401896B040E0401895D01
:1031000013E204018951E96EEA6AD890E936EA3699
:103110007D0EE926040EEA22EE50ED1002E10F01C9
:103120004B6B0401892BE9D70F014B5102E08EEC68
:103130004BF00F014B51D2E0380E0401C35D01E0AA
:1031400018D10401896B040E0401895D01E311D1DA
:1031500004018951040DF3CFE9FFF4CFEAFFC40E57
:10316000E926040EEA22020EE926000EEA22EE6AA1
:10317000ED6A040E040189250001706F700EE66E81
:10318000000EE66E09EC08F0E552E552F3CF67F465
:10319000F4CF68F40A0E0D6E0E6A67C408F068C4B6
:1031A00009F042EC50F008C067F409C068F404016B
:1031B000030ED8806755000E685501E3B4D00401B2
:1031C000895104E0020E0401895D47E167C479F486
:1031D00068C47AF404017B6B7C6B2C0E0B6E270E9B
:1031E0000C6E020E0D6E0E6A79C406F07AC407F0FA
:1031F0007BC408F07CC409F072EC4EF002C079F494
:1032000003C07AF404C07BF405C07CF4E80E0B6EB6
:10321000030E0C6E0D6A0E6A79C406F07AC407F0CC
:103220007BC408F07CC409F004EC4FF006C079F4CC
:1032300007C07AF408C07BF409C07CF4040189510A
:10324000E96EEA6AD890E936EA36D40EE926040E29
:10325000EA22830EEE6E050EED6E0401890504E090
:10326000030E0401895D47E167C479F468C47AF408
:1032700004017B6B7C6B680E0B6E550E0C6E010EA1
:103280000D6E0E6A79C406F07AC407F07BC408F0AC
:103290007CC409F072EC4EF002C079F403C07AF4F9
:1032A00004C07BF405C07CF4E80E0B6E030E0C6EBC
:1032B0000D6A0E6A79C406F07AC407F07BC408F080
:1032C0007CC409F004EC4FF006C079F407C07AF42E
:1032D00008C07BF409C07CF404018951E96EEA6AF4
:1032E000D890E936EA36D40EE926040EEA226A0EB0
:1032F000EE6E030EED6E04018951040DF3CFE9FF6C
:10330000F4CFEAFFC40EE926040EEA2279C4EEFFE8
:103310007AC4EDFF04018951EA6ADC0FE96E040EFC
:10332000EA22EF6A23D004018951040DF3CFE9FFAB
:10333000F4CFEAFFC40EE926040EEA22EE6AED6A33
:1033400004018951E96EEA6AD890E936EA36D40E6A
:10335000E926040EEA22EE6AED6A04018951EA6A5E
:10336000DC0FE96E040EEA22010EEF6E0401892BD8
:10337000EAD605016C6B6D6BD09EF28EF28C9D8A45
:10338000FE0EE66EE2EC4FF0E552FA0ECB6E62C531
:103390005AF563C55BF564C55CF565C55DF505016A
:1033A0005E6B5F6B606B616BB40EE66E040EE66E77
:1033B000B20EE66E040EE66E5DCFE6FF5ECFE6FF70
:1033C000EAEC45F0146E060EE15C02E2E16AE552B9
:1033D000E16E1450F3CFB6F4F4CFB7F40401B65154
:1033E000B71101E0D8D20401080ED880B255000E02
:1033F000B35501E3D0D2B4C4E6FFB5C4E6FFB2C40E
:10340000E6FFB3C4E6FF000EE66E010EE66E000EA8
:10341000E66EE66A9DEC4AF0146E080EE15C02E28C
:10342000E16AE552E16E145000C1A6F4000EE66EAA
:10343000010EE66E1BEC49F0E552E552F3CFA7F41E
:10344000F4CFA8F404C1A9F405C1AAF4000EE66EF5
:10345000010EE66E48EC49F0E552E5520401AD6F0D
:10346000120EE66E030EE66E000EE66E010EE66EBE
:1034700057EC49F0E552E552E552E552000EE66E92
:10348000010EE66E91EC49F0E552E552F3CFAEF451
:10349000F4CFAFF43CEC25F0300F0401A95D01E05E
:1034A0007AD20401526B0401AD514BE0E66A030E7F
:1034B000E66EE66AA7C4E6FFA8C4E6FF520EE66E13
:1034C000040EE66EF3EC28F0146E070EE15C02E2E7
:1034D000E16AE552E16E1450E66AA9C4E6FF520EB5
:1034E000E66E040EE66ED4EC28F0E552E552E552A5
:1034F000E552E66AAAC4E6FF520EE66E040EE66ED8
:10350000D4EC28F0E552E552E552E552E66AADC446
:10351000E6FF520EE66E040EE66ED4EC28F0E5529D
:10352000E552E552E552E66A230EE66E520EE66E6D
:10353000040EE66ED4EC28F0E552E552E552E55271
:1035400030D0E66A030EE66EE66AA7C4E6FFA8C4BA
:10355000E6FF520EE66E040EE66EF3EC28F0146EF3
:10356000070EE15C02E2E16AE552E16E1450E66AA0
:10357000A9C4E6FF520EE66E040EE66ED4EC28F007
:10358000E552E552E552E552E66AAAC4E6FF520E5C
:10359000E66E040EE66ED4EC28F0E552E552E552F4
:1035A000E5520401B06BB16B0401A46BA56B000E76
:1035B0000401A425E96E010E0401A521EA6EEF5075
:1035C000030814E0000E0401A425E96E010E0401B5
:1035D000A521EA6EEF500401B0190401B06FB1C427
:1035E000B1F40401A42B000EA523E1D70401AE51D0
:1035F0000401B01904E10401AF510401B11905E15E
:10360000020E0401A65D01E18DD00101006BE66AA6
:103610001A0EE66E000EE66E010EE66ED4EC28F091
:10362000E552E552E552E552E66A520EE66E040EA8
:10363000E66E000EE66E010EE66E6AEC28F0146E81
:10364000050EE15C02E2E16AE552E16E1450E66AC1
:10365000120EE66E030EE66E000EE66E010EE66ECC
:103660006AEC28F0146E050EE15C02E2E16AE552B4
:10367000E16E1450E66A030EE66E000EE66E010E71
:10368000E66ED4EC28F0E552E552E552E552000E24
:10369000E66E010EE66EDCEC48F0E552E552F3CF43
:1036A000AEF4F4CFAFF40201096BE66A000EE66EE9
:1036B000010EE66E090EE66E020EE66E6AEC28F06A
:1036C000146E050EE15C02E2E16AE552E16E14500F
:1036D000E66AE668E668AEC4E6FFAFC4E6FF090E38
:1036E000E66E020EE66EF3EC28F0146E070EE15C57
:1036F00002E2E16AE552E16E1450090EE66E020E36
:10370000E66E010EE66EE66AE3EC4AF0E552E5523B
:10371000E552E552010EE66EE66A6FEC4AF0E552BC
:10372000E55239D1120EE66E040EE66E120EE66E0A
:10373000030EE66EAAC4E6FFE5EC01F0146E050E7A
:10374000E15C02E2E16AE552E16E14500401AB6F04
:103750000101006B0401AB5101E093D012C4B8F435
:103760000401B96BB80EE66E040EE66E58EC4DF02F
:10377000E552E552F3CFACF40401AC5141E1E66A05
:10378000060EE66E000EE66E010EE66ED4EC28F034
:10379000E552E552E552E552E66A520EE66E040E37
:1037A000E66E000EE66E010EE66E6AEC28F0146E10
:1037B000050EE15C02E2E16AE552E16E1450E66A50
:1037C000120EE66E040EE66E000EE66E010EE66E5A
:1037D0006AEC28F0146E050EE15C02E2E16AE55243
:1037E000E16E1450E66A030EE66E000EE66E010E00
:1037F000E66ED4EC28F0E552E552E552E55240D0B1
:10380000E66A150EE66E000EE66E010EE66ED4EC6C
:1038100028F0E552E552E552E552E66A520EE66EB0
:10382000040EE66E000EE66E010EE66E6AEC28F0FF
:10383000146E050EE15C02E2E16AE552E16E14509D
:10384000E66A120EE66E040EE66E000EE66E010EDD
:10385000E66E6AEC28F0146E050EE15C02E2E16AA5
:10386000E552E16E1450E66A030EE66E000EE66E57
:10387000010EE66ED4EC28F0E552E552E552E55231
:1038800040D0E66A1A0EE66E000EE66E010EE66E97
:10389000D4EC28F0E552E552E552E552E66A520EC4
:1038A000E66E040EE66E000EE66E010EE66E6AEC43
:1038B00028F0146E050EE15C02E2E16AE552E16E69
:1038C0001450E66A120EE66E030EE66E000EE66E09
:1038D000010EE66E6AEC28F0146E050EE15C02E261
:1038E000E16AE552E16E1450E66A030EE66E000EE0
:1038F000E66E010EE66ED4EC28F0E552E552E55294
:10390000E552000EE66E010EE66EDCEC48F0E55284
:10391000E552F3CFAEF4F4CFAFF40201096BE66ADF
:10392000000EE66E010EE66E090EE66E020EE66E03
:103930006AEC28F0146E050EE15C02E2E16AE552E1
:10394000E16E1450E66AE668E668AEC4E6FFAFC40E
:10395000E6FF090EE66E020EE66EF3EC28F0146E3A
:10396000070EE15C02E2E16AE552E16E1450090ED5
:10397000E66E020EE66E010EE66EE66AE3EC4AF0D3
:10398000E552E552E552E552010EE66EE66A6FEC4D
:103990004AF0E552E5520401DC0512E10001706BCA
:1039A000700EE66E000EE66EF8EC3EF0E552E55263
:1039B000F3CF69F4F4CF6AF404016B6B6C6B05D040
:1039C0000401696B6A6B6B6B6C6B0401DD0513E1C1
:1039D0000001010E706F700EE66E000EE66EF8ECE0
:1039E0003EF0E552E552F3CF6DF4F4CF6EF40401EE
:1039F0006F6B706B05D004016D6B6E6B6F6B706BD2
:103A00000401DE0513E10001020E706F700EE66E18
:103A1000000EE66EF8EC3EF0E552E552F3CF71F49D
:103A2000F4CF72F40401736B746B05D00401716BF5
:103A3000726B736B746B0401DF0513E10001030EFD
:103A4000706F700EE66E000EE66EF8EC3EF0E5521A
:103A5000E552F3CF75F4F4CF76F40401776B786B0D
:103A600005D00401756B766B776B786B2AC52EF5E4
:103A70002BC52FF52CC530F52DC531F52EC514F00D
:103A80002FC515F030C516F031C517F0190E0B6EA5
:103A90000C6A0D6A0E6A14C006F015C007F016C055
:103AA00008F017C009F004EC4FF002C014F003C096
:103AB00015F004C016F005C017F0145015101610BC
:103AC000171075E104015E5171E1DCC463F4DDC4DB
:103AD00064F4DEC465F4DFC466F468EC21F004012C
:103AE000DC0516E10401635113E162C55AF563C5B3
:103AF0005BF564C55CF565C55DF52EC55EF52FC546
:103B00005FF530C560F531C561F50401010E606FE8
:103B10000401DD0516E10401645113E162C55AF5A3
:103B200063C55BF564C55CF565C55DF52EC55EF5E1
:103B30002FC55FF530C560F531C561F50401010E93
:103B4000606F0401DE0516E10401655113E162C5F1
:103B50005AF563C55BF564C55CF565C55DF52EC5B5
:103B60005EF52FC55FF530C560F531C561F504011F
:103B7000010E606F0401DF0516E10401665113E1D7
:103B800062C55AF563C55BF564C55CF565C55DF551
:103B90002EC55EF52FC55FF530C560F531C561F501
:103BA0000401010E606F0401010E5E6F02D004017A
:103BB0005E6B2AC52EF52BC52FF52CC530F52DC50E
:103BC00031F52EC514F02FC515F030C516F031C5EE
:103BD00017F0CD0E0B6E0C6A0D6A0E6A14C006F05B
:103BE00015C007F016C008F017C009F004EC4FF03C
:103BF00002C014F003C015F004C016F005C017F0A1
:103C000014501510161017100BE10401F00508E10F
:103C10000401615104E1CDD90401010E616F02D0AC
:103C20000401616B2AC52EF52BC52FF52CC530F587
:103C30002DC531F52EC514F02FC515F030C516F081
:103C400031C517F0FB0E0B6E0C6A0D6A0E6A14C0BC
:103C500006F015C007F016C008F017C009F004EC14
:103C60004FF002C014F003C015F004C016F005C0F8
:103C700017F014501510161017100BE1AB50020B73
:103C800003E1AB50040B05E0AB980000AB88AB9EA2
:103C9000AB8E2AC52EF52BC52FF52CC530F52DC5BD
:103CA00031F52EC514F02FC515F030C516F031C50D
:103CB00017F0E80E0B6E030E0C6E0D6A0E6A14C040
:103CC00006F015C007F016C008F017C009F004ECA4
:103CD0004FF002C014F003C015F004C016F005C088
:103CE00017F0145015101610171001E194D00401AC
:103CF000625101E08FD00401FE51FF11001101114A
:103D00001DE00401DC051AE169C4E6FF6AC4E6FFB0
:103D10006BC4E6FF6CC4E6FF310EE66E410EE66E44
:103D200020EC3DF0146E060EE15C02E2E16AE55221
:103D3000E16E1450F3CF52F5F4CF53F50501025163
:103D40000311041105111DE00401DD051AE16DC424
:103D5000E6FF6EC4E6FF6FC4E6FF70C4E6FF320EF6
:103D6000E66E410EE66E20EC3DF0146E060EE15C50
:103D700002E2E16AE552E16E1450F3CF54F5F4CF5C
:103D800055F5050106510711081109111DE004013F
:103D9000DE051AE171C4E6FF72C4E6FF73C4E6FFF4
:103DA00074C4E6FF310EE66E420EE66E20EC3DF086
:103DB000146E060EE15C02E2E16AE552E16E145017
:103DC000F3CF56F5F4CF57F505010A510B110C113D
:103DD0000D111DE00401DF051AE175C4E6FF76C48C
:103DE000E6FF77C4E6FF78C4E6FF320EE66E420EC9
:103DF000E66E20EC3DF0146E060EE15C02E2E16A34
:103E0000E552E16E1450F3CF58F5F4CF59F50401A3
:103E1000010E626F02D00401626B2AC52EF52BC51C
:103E20002FF52CC530F52DC531F55AC5E6FF5BC51C
:103E3000E6FF5CC5E6FF5DC5E6FF5EC5E6FF5FC564
:103E4000E6FF60C5E6FF61C5E6FF2AC5E6FF2BC5B4
:103E5000E6FF2CC5E6FF2DC5E6FF3CD8186E0C0E1C
:103E6000E15C02E2E16AE552E16E18505AC50BF0DE
:103E70005BC50CF05CC50DF05DC50EF004EC4FF0B9
:103E800002C014F003C015F004C016F005C017F00E
:103E9000145015101610171018E10401605114E1A8
:103EA0002EC55EF52FC55FF530C560F531C561F5EE
:103EB000EDDA06C05AF507C05BF508C05CF509C02D
:103EC0005DF50401010E606F02D00401606BD4EF58
:103ED00019F0120042EC24F0E652E652E652E652A5
:103EE000FE0E186E19681A681B68D950F20F84EC20
:103EF00024F0176ED950F60F2EEC25F01450EE5C1E
:103F00001550EE581650EE581750EE5811E2FA0EB2
:103F1000DBCF18F0FB0EDBCF19F0FC0EDBCF1AF075
:103F2000FD0EDBCF1BF0D950F60F84EC24F024D02B
:103F3000FE0E1C6E1D681E681F68D950F60F2EEC11
:103F400025F0EE501C5C186EEE501D58196EEE50A8
:103F50001E581A6EEE501F581B6ED950FA0F2EECD9
:103F600025F01850EE24146E1950EE20156E1A50DC
:103F7000EE20166E1B50EE20176E14C0DFFF010EF0
:103F800015C0DBFF020E16C0DBFF030E17C0DBFF00
:103F9000DECF06F0DECF07F0DECF08F0DDCF09F090
:103FA000DD52DD52040EE15C02E2E16AE5527AEF95
:103FB00024F042EC24F00B0EE12402E3E168E65227
:103FC000E16E080EDB6A0F015851020A6AE0030A2B
:103FD00055E0010A01E075D10401F151640808E2DD
:103FE0000001B40E726FE20E736F7469756936D09A
:103FF000640EF15D2CE0F1C472F00001736B746B20
:10400000756B0E0ED8907237733774377537E806B4
:10401000F9E1640E0B6E0C6A0D6A0E6A72C006F04E
:1040200073C007F074C008F075C009F0A2EC41F04D
:1040300006C072F007C073F008C074F009C075F0D4
:10404000200E0001735F000E745B755B07D00001EA
:10405000780E726F1E0E736F746B756B72C076F094
:1040600073C077F074C078F075C079F0640E76276D
:10407000000E77237823792371691FD10001712BFA
:10408000060E715D07E117EC4CF00401F06B0F01B7
:10409000586B18D1900E7A6F010E7B6F0F01020ED4
:1040A0000ED197EC24F00AE1D6EC24F0100EE2ECED
:1040B00024F0040EF36EDB6E050EDB6A97EC24F041
:1040C000010808E1D6EC24F0130EE2EC24F0050E12
:1040D000F1EC24F097EC24F0020808E1D6EC24F08F
:1040E000150EE2EC24F0060EF1EC24F0030E0001B4
:1040F000E76E7119E8AE02D0E73402D0E750715D87
:1041000002E2010E01D0020EF36E0A0EF3CFDBFFC6
:10411000050E7A27000E7B23CFDB02E2E16AE5522F
:10412000E16E1450020EF8EC24F0C6DB02E2E16A04
:10413000E552E16E1450090EDB6A020EF8EC24F031
:1041400084DBF3CFDEFFF4CFDDFF010EF8EC24F0CB
:10415000DECF14F0DDCF15F014C0E6FF15C0E6FF8A
:1041600074DBA4EC24F01E0E165E000E175A1750D6
:104170001518E8AE02D0153404D01450165C155052
:10418000175822E2DECF18F0DDCF19F018C0E6FF95
:1041900019C0E6FF5ADBE3DB1E0E1A26000E1B22B7
:1041A00019501B18E8AE02D01B3404D01A50185C0A
:1041B0001B50195809E2140EF36E090EE7EC24F0B7
:1041C00003E2090EDB2AC4D7140EF36E090EE7ECE6
:1041D00024F002E2090EDB6A090EDB501408ADE19F
:1041E000DECF14F0DDCF15F0166A176A15AE02D0D7
:1041F00016681768175000017519E8AE02D07535BA
:1042000008D07251145C7351155874511658755179
:1042100017583EE3DECF18F0DDCF19F01A6A1B6A9B
:1042200019AE02D01A681B681B507919E8AE02D08B
:10423000793508D07651185C7751195878511A5849
:1042400079511B5825E20F01010E586F71C014F00F
:10425000156A14BE1568D89014361536780ED880B5
:104260001456050E1556060E14C0DBFF070E15C0BA
:10427000DBFF060EDBCFE9FF070EDBCFEAFF7AC0DC
:10428000EEFF7BC0EDFF190EF36E080EF3CFDBFFE0
:10429000080EDB2A190EF36E080E99DB07E2000107
:1042A000000E7A5D040E7B5901E232D70001000E48
:1042B000D8807A55040E7B5505E20F01010E586F28
:1042C00001D0586B0B0EE15C02E2E16AE55212D3B9
:1042D000D9DA100EE12402E3E168E652E16E080E3D
:1042E000DB6A090EDB6A0A0EDB6A0B0EDB6ADE6A2A
:1042F000DD6A020EDB6A040EF36E020E68DB01E378
:10430000BFD038DBEA22EF5001E0B7D0030EDB6A02
:10431000AFDBEECF16F0EFCF17F01650145C17504E
:10432000155809E277DB9FDB1A6A1B6A6BDA6EDAD3
:10433000010E48DB06D066DA96DB1A6A1B6A6ADB76
:1043400065DA020EEA6ADB34FE0BEA36E96ED40E59
:10435000E926040EEA22EECF06F0EFCF07F0086A56
:10436000096A020ED8900636073608360936E8067E
:10437000F9E1190E0B6E0C6A0D6A0E6A72EC4EF0C2
:1043800002C006F003C007F004C008F005C009F041
:10439000E80E0B6E030E0C6E0D6A0E6A04EC4FF005
:1043A000040E06C0DBFF050E07C0DBFF060E08C0CB
:1043B000DBFF070E09C0DBFFE4DAEA22EF5051E130
:1043C000E7DA060EDBCF16F0070EDBCF17F0D95079
:1043D0000C0FE96E000EDA20EA6EEE50145CEE501F
:1043E0001558EE501658EE50175819E313DBF4DA4F
:1043F00009DA14C0EEFF15C0EDFF020EDB504E0FC0
:10440000E66EE66A62EC4CF0E552E552000902E124
:10441000B1DA01D0B6DAEA22010EEF6E12D0030E45
:10442000DB0406E1B5DAEED91450EE261550ED2284
:10443000030EDB5006E1ACDAE5D91450EE5E155000
:10444000ED5AE0D9EECFE6FFEFCFE6FF020EDB50EC
:10445000100DF350E66E94EC2BF0E552E552E55268
:104460000CD006DB14C0EEFF15C0EDFF83DAEA22A4
:10447000010EEF6E86DAEA22EF6A020EDB2A3BD7E4
:10448000100EE15C02E2E16AE55234D2FBD91C0E67
:10449000E12402E3E168E652E16E140E52C5DBFF4F
:1044A000150E53C5DBFF160E54C5DBFF170E55C5A1
:1044B000DBFF180E56C5DBFF190E57C5DBFF1A0EC2
:1044C00058C5DBFF1B0E59C5DBFF020EDB6A380E39
:1044D0000401C35D01E060D1DF6A040EDF5C01E32B
:1044E0005BD1DF50EA6ADC0FE96E040EEA22EF04CA
:1044F00001E050D1DF5091DA22DAEE50ED1001E107
:1045000049D1DF50EA6A4C0FE96E0F0EEA22130E12
:10451000EFCFDBFF06DA500EE9260F0EEA22010E7E
:10452000EFCFDBFFD950140F146E000EDA20156E9A
:10453000DF50020D1450F324E96E1550F420EA6E9A
:104540000B0EEECFDBFF0C0EEDCFDBFF0B0EDBCF48
:1045500014F00C0EDBCF15F014C0E6FF15C0E6FF1B
:104560000DEC13F0F1D91450F35C1550F45801E33D
:1045700011D10B0EDBCF18F00C0EDBCF19F018C0E9
:10458000E6FF19C0E6FF03EC13F0E9D9F350185C1D
:10459000F450195801E3FED05CDA7DD9280E0C6E78
:1045A0006B0E0D6E6E0E0E6E4E0E0F6EF5EC40F035
:1045B0005BD90B0EDBCF08F00C0EDBCF09F0F6EC6D
:1045C0003FF007C018F008C019F009C01AF00AC07F
:1045D0001BF097D9A2EC40F047D9C00E0C6EA30E89
:1045E0000D6E1B0E0E6E4B0E0F6E21DA0BEC40F0B3
:1045F00004DA97D9E00EE926040E4DD91E6A1F6A27
:10460000800E206E3F0E216EC00E076EA30E086E48
:104610001B0E096E4B0E0A6E030EDBCF0CF0040E60
:10462000DBCF0DF0050EDBCF0EF0060EDBCF0FF06B
:10463000A2EC40F007C022F008C023F009C024F02B
:104640000AC025F0FDD91EC007F01FC008F020C029
:1046500009F021C00AF00CEC40F007C01AF008C0C5
:104660001BF009C01CF00AC01DF04BD9F5EC40F05E
:10467000070E07C0DBFF080E08C0DBFF090E09C0EC
:10468000DBFF0A0E0AC0DBFF070EDBCF07F0080EC8
:10469000DBCF08F0090EDBCF09F00A0EDBCF0AF002
:1046A00021EC42F00D0E08C0DBFF0E0E09C0DBFF4F
:1046B000D0D9EA2291D90D0EDB50141803E10E0E69
:1046C000DB50151867E06BD9EE50ED1056E0010E87
:1046D000DB040BE10D0EDBCF14F00E0EDBCF15F07B
:1046E0002D0E145C010E15580FE3010EDB5002086D
:1046F00019E10D0EDBCF16F00E0EDBCF17F0910E89
:10470000165C010E17580EE257D90D0EDBCFE6FFEF
:104710000E0EDBCFE6FF010EE2D802E2E16AE552BF
:10472000E16E1450010EDB0412E139D92C0ED88051
:10473000EE54010EED540BE23FD92C0EE66E010E45
:10474000E66ECDD802E2E16AE552E16E1450010E48
:10475000DB50020812E123D9900ED880EE54010EEE
:10476000ED540BE229D9900EE66E010EE66EB7D835
:1047700002E2E16AE552E16E14506BD9EA220D0EB5
:10478000DBCFEEFF0E0EDBCFEDFF010EF36E020E60
:10479000F3CFDBFFDF2AA1D6020EDB040DE10F0E03
:1047A00062C5DBFF100E63C5DBFF110E64C5DBFFC6
:1047B000120E65C5DBFF0CD00F0E66C5DBFF100EB9
:1047C00067C5DBFF110E68C5DBFF120E69C5DBFF95
:1047D0000F0EDBCF14F0100EDBCF15F0110EDBCF78
:1047E00016F0120EDBCF17F014C006F015C007F05C
:1047F00016C008F017C009F01C0EE15C02E2E16A85
:10480000E55278D0020EDB500DEF25F0EECF1CF014
:10481000EFCF1DF01E6A1F6A1C50185C146E1D50ED
:104820001958156E1E501A58166E1F501B58176EC9
:104830000C0E14C0DBFF0D0E15C0DBFF0E0E16C0F4
:10484000DBFF0F0E17C0DBFF1200020EDBCFE6FF0F
:10485000030EDBCFE6FF0A0EDBCFE6FF3CEC47F0B2
:10486000E552E552E5521200C8D8030EDBCF14F032
:10487000040EDBCF15F0050EDBCF16F0060EDBCFF6
:1048800017F01200D9CFE6FFDACFE6FFE1CFD9FF6C
:10489000E2CFDAFF1200EA22E6D818C008F019C009
:1048A00009F0F6EC3FF007C014F008C015F009C09D
:1048B00016F00AC017F012007AC0E6FF7BC0E6FFD0
:1048C000040EDBCFE6FF050EDBCFE6FF0A0EDBCFE3
:1048D000E6FF9CEC47F0146E050EE15C1200DBCFA6
:1048E000E6FF130EDBCFE6FFA7EC2DF0146E080EEB
:1048F000E15C1200E16EE552E5CFDAFFE7CFD9FFC8
:1049000012009ED817EF25F0A9D8EE50185C146E4F
:10491000EE501958156EEE501A58166EEE501B5880
:104920001200EA6ADF34FE0BEA36E96E120071C04B
:1049300009F0030E0E6E62EC41F005501200020EFB
:10494000E926000EEA221200E552E7CF15F0E55203
:10495000E7CF14F0F3CF16F0F4CF17F01200E552C2
:10496000E7CF19F0E552E7CF18F0F3CF1AF0F4CF04
:104970001BF01200020EDB50EA6ADC0FE96E040E37
:104980001200020EDB50EA6A590FE96E0F0E120098
:10499000040EDBCF14F0050EDBCF15F01200D9505A
:1049A0000D0FE96E000EDA20EA6E1200360EF36E7D
:1049B000020EF3CFDBFF1200050EE66EE66AE66A32
:1049C000E66A1200F36E030EF3CFDBFF1200DBCFBB
:1049D000F4FFF350F45C1200EECF14F0EFCF15F0BB
:1049E0001200F36E040EF3CFDBFF050EDB6A12003C
:1049F000E66EFDEC4FF0E5521200030E07C0DBFF40
:104A0000040E08C0DBFF050E09C0DBFF060E0AC05E
:104A1000DBFF1200F7DE9FEF24F0040DF3CFE9FF78
:104A2000F4CFEAFFC40EE926040EEA22120014C0F5
:104A300007F015C008F016C009F017C00AF0120000
:104A400007C00CF008C00DF009C00EF00AC00FF04E
:104A5000120067DFE80EE926040E1200E96EFF0E71
:104A6000DA20EA6E1200EECF18F0EFCF19F0120044
:084A7000C9DEB2DF0AEF25F0F8
:084A780057EC2BF0DF6A8050BF
:104A8000010BDF128050020B01E0010EE824DF125F
:104A90008050040B01E0010E040DF350DF12DF50D3
:104AA000E552FDEF29F057EC2BF0DF6A000EF36EB4
:104AB000FD0EDBCFF4FFF350F45C08E3FD0EDB509A
:104AC000090804E3FD0EDB50300FDF6EFD0EDB50F6
:104AD000090805E2FD0EDB50F60F410FDF6EDF50D7
:104AE000E552FDEF29F057EC2BF0E652E652010EAD
:104AF000DB6AF00EF36E020EF3CFDBFFDF6A040E0B
:104B0000DF5C3EE2010EDBCF1AF0020EDBCF1BF0C2
:104B1000040EDF02F3501AC018F01BC019F005E0B4
:104B2000D89019321832E804FBE1FC0EDB5018145F
:104B3000166EFD0EDB501914176E030ED880DF546D
:104B4000040DF35016C014F017C015F003E00EEC7E
:104B50002BF0FDE11450E66EA6DFE552E66EDF5065
:104B6000E76EFA0EDBCFE9FFFB0EDBCFEAFFE75083
:104B7000E926000EEA22E552E750EF6EDF2ABFD7A2
:104B8000E552E552E552FDEF29F057EC2BF0E652E5
:104B9000E652E652E652D950010FE66E000EDA20D8
:104BA000E66EFC0EDBCFE6FFFD0EDBCFE6FF9BDF04
:104BB000E552E552E552E552DF6A040EDF5C12E28F
:104BC000D950010F146E000EDA20156EDF500F0160
:104BD0001424E96E000E1520EA6EEF50C8EC2AF09E
:104BE000DF2AEBD7000E146E050EE15C02E2E16AEB
:104BF000E552E16E1450FDEF29F057EC2BF01F0E3B
:104C0000DF6EDFCF14F0143423E2D950FA0FE96ECF
:104C1000FF0EDA20EA6EDF501F0BEECF14F0EECF5E
:104C200015F0EECF16F0EECF17F007E0D890173260
:104C3000163215321432E806F9E1010E1416156A1F
:104C4000166A176A300E1424C8EC2AF0DF06D9D78A
:104C5000000EE552D2D32BEC2BF0DDEC2AF004E66B
:104C6000100E145C000E155827E2FC0EDBCF16F078
:104C7000FD0EDBCF17F0DECF18F0DDCF19F00F0EF1
:104C8000D8801856000E1956185016C014F017C0C8
:104C900015F003E00EEC2BF0FDE1010E1416000EF2
:104CA0001516300E1424C8EC2AF0ACA2FED7DF2A69
:104CB000010ED3E3DB2AD1D7000EE552E5529DD396
:104CC0002BEC2BF0DDEC2AF004E6080E145C000E51
:104CD00015581EE2DECF14F0DDCF15F0070ED88098
:104CE0001456000E1556FD0EDB5014C0E7FFE752B8
:104CF00004E0E8427F0BE706FCE1010B300FC8EC53
:104D00002AF0ACA2FED7DF2A010EDCE3DB2ADAD7D9
:104D1000000EE552E55271D367DB0E0EE12402E38B
:104D2000E168E652E16EFA0EDBCF16F0FB0EDBCF48
:104D300017F0E4EC2AF00A0E0D6E0E6A18C008F0A7
:104D400019C009F042EC50F008C018F009C019F081
:104D50000A0E086E096A18C00DF019C00EF003ECB7
:104D600042F00650165C146E07501758156E080E68
:104D700014C0DBFF090E15C0DBFFE4EC2AF0EBECFE
:104D80002AF0640E0D6E0E6A1AC008F01BC009F0FE
:104D900042EC50F008C01AF009C01BF0640E086E17
:104DA000096A1AC00DF01BC00EF01AEC2BF0060EAB
:104DB00014C0DBFF070E15C0DBFF0A0E146E156A68
:104DC000060EDBCF08F0070E57DB060E08C0DBFF30
:104DD000070E09C0DBFFEBEC2AF0F2EC2AF0E80E3C
:104DE0000D6E030E0E6E1CC008F01DC009F042ECE3
:104DF00050F008C01CF009C01DF0E80E086E030E4C
:104E0000096E1CC00DF01DC00EF0FDDA040E14C0BA
:104E1000DBFF050E15C0DBFF640E146E156A040E71
:104E2000DBCF08F0050E28DB040E08C0DBFF050E03
:104E300009C0DBFFD7DBFA0EDBCF1EF0FB0EDBCFAA
:104E40001FF0100E0D6E270E0E6E1EC008F01FC054
:104E500009F042EC50F008C01EF009C01FF0100E1F
:104E6000086E270E096E1EC00DF01FC00EF003EC79
:104E700042F006501C5C1A6E07501D581B6E640EE3
:104E8000086E096A040EDBCF0DF0050EDBCF0EF0C5
:104E9000BADA020E14C0DBFF030E15C0DBFFE80E0A
:104EA000146E030E156E020EDBCF08F0030EE4DA6B
:104EB000020E08C0DBFF030E09C0DBFF100E146EEC
:104EC000270E156EFA0EDBCF08F0FB0ED5DA08C000
:104ED000DEFF09C0DDFF0A0EDB6A0B0EDB6A0C0E7B
:104EE000DB6A0D0EDB6ABCDBEF5006E00A0EDB2A44
:104EF0000B0EF9E3DB2AF7D7D9CF14F0DACF15F090
:104F0000A2DA14500624E96E15500720EA6EEE501E
:104F1000ED1011E10C0EDBCF16F00D0EDBCF17F00C
:104F2000050E165C000E175806E20C0EDB2A0D0E5D
:104F3000E3E3DB2AE1D7FFDA2BE2FDDA2DE298DBAF
:104F4000EECF14F0EFCF15F0000E145C000E1558E4
:104F500019E3D9CF18F0DACF19F075DA1850062412
:104F6000E96E19500720EA6E090ED880EE54000E43
:104F7000ED5408E37DDBEF50300FE66EC0DA01E35D
:104F8000DB2A53DB0C0EDB2A0D0ED7E3DB2AD5D749
:104F9000B6DA01E3DB2A80DBF90EDB5004E0AFDA9E
:104FA00001E3DB2A74DB5CDBEF6A0E0EE15C02E2FC
:104FB000E16AE552E16E21D217DA070EE12402E33D
:104FC000E168E652E16EFB0EDBCFE6FF0A0E8EDAF9
:104FD0000A0DF350E552E75CE76E020EE7CFDBFF08
:104FE000DBCFE6FFFB0EDBCFE6FF640E7FDA640D5E
:104FF000F350E552E75CE552D880E754E76E010EC6
:10500000E7CFDBFF0A0E146E0E6E010EDBCF09F048
:1050100084EC50F0010E09C0DBFF640E67DA640D0A
:10502000F350DF6E030EDB6A040EDB6A050EDB6AEB
:10503000060EDB6A24DBEF5006E0030EDB2A040ECB
:10504000F9E3DB2AF7D720DAEF5011E1050EDBCFC9
:1050500016F0060EDBCF17F0030E165C000E175885
:1050600006E2050EDB2A060EEEE3DB2AECD76BDA4E
:105070001AE269DA1CE208DAEFCF14F0000E145CD1
:105080000CE302DAEF50090808E3FED9EF50300FC5
:10509000E66E3DDA01E3DB2AC8DA050EDB2A060EEE
:1050A000E8E3DB2AE6D733DA01E3DB2AF5DAFA0EA6
:1050B000DB5007E02CDA01E3DB2A8DD9FA0EDBCFD7
:1050C000EFFFDDDAEF6A070EE15C02E2E16AE5522A
:1050D000E16E93D189D93FDAE3DAEF5006E0020EB0
:1050E000DB2A030EF9E3DB2AF7D740DAE96EDD505D
:1050F0001520EA6EEF5012E083DA01E3DB2AFA0EA4
:10510000DB501624E96EFB0EDB501720EA6EEF50E1
:10511000E66EC3D901E3DB2A88DAE7D7F90EDB5064
:1051200004E0BBD901E3DB2AB2DABADAEF6A040E93
:10513000E15C02E2E16AE552E16E5FD155D90BDA3A
:10514000AFDAEF5006E0020EDB2A030EF9E3DB2AAA
:10515000F7D70CDAF66EDD501520F76E0800F55023
:1051600013E04EDA01E3DB2AFA0EDB501624F66E6A
:10517000FB0EDB501720F76E0800F550E66E8DD958
:1051800001E3DB2A52DAE5D7F90EDB5004E085D9DA
:1051900001E3DB2A7CDA84DAEF6A040EE15C02E2E6
:1051A000E16AE552E16E29D156DA40D9EF5005E0C7
:1051B000DF2A010EFAE3DB2AF8D757D901E3DB2A0D
:1051C0000AD9FB0EDBCFEFFFFA0EDB5007E04DD91B
:1051D00001E3DB2A00D9FA0EDBCFEFFF27D9EF6A14
:1051E000E552E5520AD100D9090EE12402E3E16853
:1051F000E652E16E020EDB6A030EDB6ADE6ADD6AEE
:1052000015D9EF5005E0DF2A010EFAE3DB2AF8D7C3
:10521000FA0EFB0EDBCF15F0000EF00E151615384A
:105220000F0B146E050E14C0DBFFFA0EFB0EDBCF66
:1052300015F0000E0F0E151615C014F0156A060EA7
:1052400014C0DBFFF00EA9D9156A040EE7D9FEE100
:10525000070E14C0DBFF0F0EA0D9080E14C0DBFF31
:10526000D950050F146E000EDA20156E020EDB50B9
:105270001424E96E030EDB501520EA6EEF500BE1AB
:1052800094D9165C000E175806E2020EDB2A030EB4
:10529000E7E3DB2AE5D7E2D8C6D96CE270D902E1B0
:1052A000FF0EED1825E0B3D980D9D8801656000E30
:1052B00017561450165C155017581AE2CFD8040E22
:1052C000D8801456000E1556040E14C0DBFF27D9E3
:1052D000E8AE02D0173404D01650145C175015589D
:1052E00007E2C3D801E3DB2AD7D9040EDB2AEFD7C4
:1052F000B5D899D95DE2D9D8143422E2D950050F36
:10530000186E000EDA20196E020EDB501824E96EBA
:10531000030EDB501920EA6EEFCF17F0090EE76E8F
:105320001718E8AE02D0173403D0E750D8801754CE
:1053300007E3CCD8300FE66E98D801E3DB2A75D9A5
:10534000B4D8090EE76E1418E8AE02D0143403D0B6
:10535000E750D880145408E2B9D8410FF60FE66E32
:1053600084D801E3DB2A61D9020EDB2A030EC0E3F5
:10537000DB2ABED704D902E1FF0EED1819E047D9A8
:10538000D890155001E64FD913E2040EDB6AC7D856
:10539000E8AE02D0173404D01650145C17501558DC
:1053A00007E263D801E3DB2A77D9040EDB2AEFD7C3
:1053B000F70EDB5007E059D801E3DB2A0CD8F70ED3
:1053C000DBCFEFFF33D8EF6A090EE15C02E2E16A5E
:1053D000E552E16E12D0FC0EDB501424E96EFD0E96
:1053E000DB501520EA6E1200D9CFE6FFDACFE6FFD8
:1053F000E1CFD9FFE2CFDAFF1200E552E5CFDAFFC5
:10540000E7CFD9FF120003EC42F006501A5C186E89
:1054100007501B58196E0A0E086E096A060EDBCF7C
:105420000DF0070EDBCF0EF01AEF2BF0FC0EDBCFEA
:1054300014F0FD0EDBCF15F0DE501424E96EDD50C4
:105440001520EA6E1200020E086E096A0C0EDBCF00
:105450000DF00D0EDBCF0EF003EF42F0020EDBCFAE
:1054600014F0030EDBCF15F01200DFCF14F0DF2AAB
:10547000010EDBCF15F01200DBCF09F014C00DF0E8
:1054800015C00EF042EF50F0050EDB50D924E96E46
:10549000060EDB50DA20EA6E1200020EDBCF14F0AB
:1054A000DB2A030EDBCF15F01200D950050F156E65
:1054B000000EDA20166E020EDB501524E96E030E84
:1054C000DB501620EA6EEFCF14F01200D950050F12
:1054D000166E000EDA20176E020EDB501624E96EEF
:1054E000030EDB501720EA6EEF501200146E0E6EA2
:1054F000FB0EDBCF09F084EC50F0095012000A0ECD
:10550000DBCF14F0DB2A0B0EDBCF15F01200030EFD
:10551000DBCF14F0DB2A040EDBCF15F01200DB50DA
:10552000146E156AF80EDBCF16F0F90EDBCF17F00C
:105530001550171812000C0EDBCF14F00D0EDBCF38
:1055400015F0050EB0D0050EDBCF14F0060EDBCF44
:1055500015F0030EA8D0E652E652E652E652DE6A95
:10556000DD6A020EDB6A030EDB6A1200FA0EDBCF85
:1055700014F0FB0EDBCF15F0DE5014241200D950CE
:10558000F80FE96EFF0EDA20EA6EFF0EEE18120039
:10559000E66E14EC50F0E5521200E76EFA0EDBCF27
:1055A00014F0FB0EE75014161200020EDBCF16F0BB
:1055B000030EDBCF17F0040E1200DECF14F0DDCFA8
:1055C00015F0D89015501200FA0EDBCF18F0FB0E34
:1055D000DBCF19F01200FA0EDBCF1AF0FB0EDBCF97
:1055E0001BF01200FA0EDBCF1CF0FB0EDBCF1DF020
:1055F000120016500624E96E17500720EA6E1200BA
:10560000DFCF16F0DF2A010EDBCF17F01200F80E05
:10561000DBCF14F0F90EDBCF15F01200D890153265
:105620001432E8041200040E3ED0D5DEE552E750F5
:10563000EF6E120003EC42F00650185C166E075035
:105640001958176E080EDB50165C146E090EDB50ED
:105650001758156E12002BD8E652DE6ADD6A12006A
:105660000A0EDBCF14F00B0EDBCF15F0EBEF29F0B9
:10567000D9CF16F0DACF17F0E6DEF9EF2AF0030EF5
:10568000DBCF14F0040EDBCF15F0EBEF29F0A3DE37
:10569000F90EDBCFEFFF12009EDE300EEF6E120030
:1056A000DDDEEBEF29F0145C000E155812009CDED5
:0456B000E6521200AC
:0C56B4007BEC2FF0080EE12402E3E1681B
:1056C000E652E16E060EDF6E010EDB6A020EDB6A49
:1056D000030EDB68090EF36E040EF3CFDBFF0A0E38
:1056E000F36E050EF3CFDBFF060EDB6A070EDB6AF7
:1056F00089EC30F0FE0E77EC30F0FE0EBE15BE6F7A
:10570000826ED950040FE66E000EDA20E66E8BEC46
:105710002FF0000E146E080EE15C02E2E16AE55221
:10572000E16E145093EF2FF0E6DBE652E652E652BC
:10573000E65289EC30F0030EDF6EF0EC2FF0000E35
:105740001416F00E15161538156A0F0B146EFD0E93
:10575000DB501410E76E010EE7CFDBFFF0EC2FF00B
:10576000F00E14160F0E1516040ED89015321432C2
:10577000E804FBE1020E14C0DBFF0F0EE76EF0EC55
:105780002FF0E7501416156A040ED890143615360B
:10579000E804FBE1030E14C0DBFFFE0E040177EC0E
:1057A00030F0040EE15C02E2E16AE552E16EBBD347
:1057B000A2DBFC0EDBCFE6FFFD0EDBCFE6FF400EEB
:1057C000E66EB2DFE552E552E55270EC30F0E66A83
:1057D000010EFEEC2FF002E2E16AE552E16E145098
:1057E000F80EDBCFE6FFF90EDBCFE6FF010EE66E2B
:1057F000FEEC2FF002E2E16AE552E16E145093D321
:105800007ADBE652E652E652020EDB6A4BEC30F0EF
:10581000300EEF6EDE52010EDD6EDF6A040EDF5CCD
:1058200020E2320EDF24B0DB380819E1020EDB2A59
:10583000DB50300FE66E4BEC30F0E552E750EF6E88
:1058400063DB2C0EEF6E020EDF14E8407F0B410F7E
:105850008FEC30F0010EDF14310F8FEC30F0DF2AC7
:10586000DDD7010EDB50AAEC30F0EF6AE552E552CD
:10587000E55259D340DB080EE12402E3E168E65229
:10588000E16E010EE76EFA0EDBCF18F0FB0E65DB62
:10589000FA0EDBCFE6FFFB0E7BDBDE6E17C0DDFF13
:1058A000010EE76EF80EDBCF18F0F90E56DBF80E9E
:1058B000DBCFE6FFF90E6CDB020E14C0DBFF030E3C
:1058C00017C0DBFF020EDBCF20F0030EDBCF21F091
:1058D000226A236A21AE02D022682368FC0EDBCF45
:1058E0001CF0FD0EDBCF1DF01E6A1F6A1DAE02D03C
:1058F0001E681F68DECF18F0DDCF19F01A6A1B6A28
:1059000019AE02D01A681B6818C006F019C007F05B
:105910001AC008F01BC009F01CC00BF01DC00CF031
:105920001EC00DF01FC00EF072EC4EF002500001D0
:105930002024146E03502120156E04502220166E70
:1059400005502320176E6DDB060E16C0DBFF070E19
:1059500017C0DBFF040EDBCF06F0050EDBCF07F030
:10596000060EDBCF08F0070EDBCF09F0640E0B6EDE
:105970000C6A0D6A0E6AA2EC41F0080EE15C02E2CC
:10598000E16AE552E16ECFD2B6DA0E0EE12402E30F
:10599000E168E652E16ED950FC0FE96EFF0EDA20A5
:1059A000EA6EEE50ED1005E10A0EDB6A0B0EDB6AC3
:1059B000B6D0DE6ADD6A020EDB6A030EDB6A0A0E0F
:1059C000146E156AFC0EDBCF08F0FD0EDBCF09F07C
:1059D00014C00DF015C00EF042EC50F0060E08C0D9
:1059E000DBFF070E09C0DBFFFC0EDBCF16F0FD0E60
:1059F000DBCF17F00A0E68DB165C146E07501758E1
:105A0000156E0FDBD950040F96DBEE50ED103DE123
:105A10008CDB27DB1C6E1D6AE66E1DC0E6FF010EE7
:105A2000E76E080EDBCF1AF0090EDBCF1BF0E75054
:105A30001A26000E1B221AC0E6FF1BC0E6FF85DBFC
:105A4000E552E7CF1DF0E552E7CF1CF0186E196A5A
:105A5000086A010E096E18C00DF019C00EF0D6ECE0
:105A600041F006501C24146E07501D20156E166A56
:105A7000176A15AE02D016681768DADA0C0E16C06F
:105A8000DBFF0D0E17C0DBFF4ED0FC0EDBCF14F09A
:105A9000FD0EDBCF15F00A0E145C000E155803E264
:105AA000DE6ADD6A05D041DBD1D914C0DEFFDD6ED0
:105AB00005DACCD9020E14C0DBFF030E15C0DBFFE4
