:020000040000FA
:06000000C9EF4DF01200F3
:020006001200E6
:08000800E9CFE4FFEACFE4FFB9
:10001000F6CFE4FFF7CFE4FFF5CFE4FFF3CFE4FF43
:10002000F4CFE4FFFACFE4FF00EE00F0140EE80492
:1000300003E3EECFE4FFFBD700EE14F0120EE8046A
:1000400003E3EECFE4FFFBD7E652D9CFE6FFDACFEA
:10005000E6FFE1CFD9FFE2CFDAFFE652E652E25007
:10006000000EF350E124266E276A000E272226C0D8
:10007000DEFF27C0DDFFDECF26F0DDCF27F0050154
:1000800026506C5D27506D5904E2DECF6CF5DDCF54
:100090006DF59EA207D005012A2B000E2B232C23E1
:1000A0002D239E929EAAC9D0E250000EF350E12467
:1000B000266E276A000E272226C0DEFF27C0DDFF3E
:1000C000DECF26F0DDCF27F0050126506C5D2750EE
:1000D0006D5904E2DECF6CF5DDCF6DF59EAAACD094
:1000E000AB50020B03E1AB50040B05E0AB980000F2
:1000F000AB88AB9EAB8ECBEC4CF00001866F5DCF36
:10010000E9FF5ECFEAFF060EE926000EEA22E9CFFC
:1001100026F0EACF27F05DCFE9FF5ECFEAFF040EBD
:10012000E926000EEA222650EE24E76E2750EE2044
:10013000EA6EE7CFE9FF86C0EFFF5DCFE9FF5ECF54
:10014000EAFFEECF2AF0EFCF2BF05DCFE9FF5ECFD5
:10015000EAFF040EE926000EEA22EECF28F0EFCFE8
:1001600029F0010E2826000E292228C008F029C0F7
:1001700009F02AC00DF02BC00EF0A3EC4DF004C026
:1001800026F005C027F05DCFE9FF5ECFEAFF040E41
:1001900026C0EBFF050E27C0EBFF5DCFE9FF5ECF6A
:1001A000EAFF040EE926000EEA22EECF26F0EFCF9A
:1001B00027F05DCFE9FF5ECFEAFF020EE926000ED1
:1001C000EA22EECF28F0EFCF29F02850261802E1DE
:1001D0002950271830E15DCFE9FF5ECFEAFFEECF6F
:1001E0002AF0EFCF2BF05DCFE9FF5ECFEAFF020EE2
:1001F000E926000EEA22EECF28F0EFCF29F0010E1B
:100200002826000E292228C008F029C009F02AC09B
:100210000DF02BC00EF0A3EC4DF004C026F005C08D
:1002200027F05DCFE9FF5ECFEAFF020E26C0EBFFAD
:10023000030E27C0EBFF52D79E9AE552E552E552D6
:10024000E5CFDAFFE7CFD9FFE55200EE25F0120E39
:10025000E80403E3E5CFEDFFFBD700EE13F0140E47
:10026000E80403E3E5CFEDFFFBD7E5CFFAFFE5CFE9
:10027000F4FFE5CFF3FFE5CFF5FFE5CFF7FFE5CFDF
:0C028000F6FFE5CFEAFFE5CFE9FF110033
:04028C000200149CBC
:1002900000004A0F000013000000129C00005D0FD8
:0602A00000000200000056
:0A02A6000F01380E006F1F0E016FEC
:1002B000360E026F250E036FA80E046F240E056F15
:1002C0008E0E066F1C0E076F0E0E086F140E096F50
:1002D0005A0E0A6F0E0E0B6FB20E0C6F160E0D6FCC
:1002E000C60E0E6F140E0F6FF00E106F130E116FFF
:1002F000920E126F110E136F060E146F180E156FFB
:100300005A0E166F230E176F600E186F130E196FAB
:100310000A0E1A6F240E1B6FFA0E1C6F1F0E1D6F34
:10032000600E1E6F220E1F6FC00E206F0B0E216F0E
:100330001C0E226F230E236F640E246F230E256F75
:10034000F60E266F050E276FA80E286F060E296F72
:10035000D00E2A6F0A0E2B6FBA0E2C6F050E2D6F62
:10036000B20E2E6F0D0E2F6FA60E306F6E0E316F08
:100370001C0E326F710E336FC20E346F700E356FFC
:10038000EE0E366F210E376F7A0E386F040E396F0E
:10039000060E3A6F060E3B6F260E3C6F1B0E3D6F2E
:1003A0009A0E3E6F1A0E3F6F060E406F1B0E416F86
:1003B0005E0E426F040E436FE20E446F040E456FF3
:1003C0005A0E466F0C0E476F120015EC13F0830E99
:1003D000F36EFD0EEDEC14F007E3FD0EDB507D0F28
:1003E000146E240E145C02E3010E37D0FD0EDB50B8
:1003F0007D0FE96EEA6AD890E936EA36000EE92602
:100400000F0EEA22EE50ED1002E1020E26D0FD0E94
:10041000DB507D0FE96EEA6AD890E936EA36000EC5
:10042000E9260F0EEA22EECF14F0EFCF15F0F90E09
:10043000DBCFE6FFFA0EDBCFE6FFFB0EDBCFE6FFFE
:10044000FC0EDBCFE6FF04D015C0FAFF1450F96EA6
:10045000FBDFE552E552E552E55224EF13F002ECE2
:1004600016F0E66A26EC15F05CEC14F002E2E16AA4
:10047000E55277EC14F024EF13F0D9CFE6FFDACF92
:10048000E6FFE1CFD9FFE2CFDAFFFA0EDBCFE9FFDB
:10049000FB0EDBCFEAFF300EEF6E010EE76EFA0EB9
:1004A000DBCFE9FFFB0EDBCFEAFFE750E926000ECA
:1004B000EA227C0EEF6E020EE76EFA0EDBCFE9FF4A
:1004C000FB0EDBCFEAFFE750E926000EEA22EF6AD7
:1004D000FF00000E00D0E552E5CFDAFFE7CFD9FFED
:1004E000120015EC13F00D0EE12402E3E168E65270
:1004F000E16E12EC13F0510825E1BFEC16F022E199
:100500006A0E0FEC15F0E66E2DEC15F0E552E75093
:10051000EE6EED6A6B0E0FEC15F0156E146A2DEC95
:1005200015F01450EE261550ED22E9EC16F05CECB7
:1005300015F0060E96EC15F002E2E16AE552E16E66
:10054000145030D0020EDB6A7EEC16F006E088EC28
:1005500016F0070F92EC16F0F7D7D950070F05ECFD
:1005600016F0D950030F3CEC13F0070F21EC13F0F9
:10057000DB5014E1FF0EE76E030EDBCF14F0040E28
:10058000CCEC14F06A0E2DEC13F0030E040EE2EC2A
:1005900013F06B0E2DEC13F0DF6A02D0010EDF6E4C
:1005A00067EC15F0000E146E0D0EE15C02E2E16ADC
:1005B000E552E16E145024EF13F002EC16F02C0E0D
:1005C000E66E020E05012915E8407F0BE66EE3ECAE
:1005D00016F002E2E16AE5520BEC15F0010E05019E
:1005E0002915E66EE3EC16F002E2E16AE55277ECDB
:1005F00014F024EF13F015EC13F056EC45F01BEC5F
:1006000013F024EF13F00BEC16F0D2EC14F0040E00
:100610004DEC15F095EC16F003E09AEC15F00EE1B8
:100620008CEC15F00BE18CEC16F003E098EC16F076
:1006300005E1C2EC15F002E1010EDB6A010EDB50B0
:1006400024E195EC16F006E18CEC16F003E1020EC5
:10065000DCC4DBFF95EC16F006E198EC16F003E144
:10066000020EDDC4DBFF9AEC15F006E18CEC16F00F
:1006700003E1020EDEC4DBFF9AEC15F006E198EC14
:1006800016F003E1020EDFC4DBFFDF6AD3EC15F0E6
:10069000E3EC16F002E2E16AE55277EC14F0E55281
:1006A000E552E55224EF13F020EC16F0300804E098
:1006B00012EC13F031080FE18CEC15F00CE174EC46
:1006C00015F0300803E08CEC16F005E1C2EC15F0F3
:1006D00002E1010EDB6A010EDB5024E112EC13F0A3
:1006E000300804E1040E0401C01103D0FB0E040124
:1006F000C015C06F74EC15F0300803E1080EC0118E
:1007000002D0F70EC015C06F836E12EC13F0D00F3D
:10071000146E74EC15F0D00FE82414240501296F31
:10072000DF6A02D0010EDF6E67EC15F0E552E5528C
:1007300024EF13F015EC13F0180EE12402E3E16846
:10074000E652E16EDE6ADD6A020EDB6AF36E030ECC
:1007500052EC15F0120EF3CFDBFF150EF36E130EF5
:1007600052EC15F0140EF3CFDBFF130EF36E150EE3
:1007700052EC15F0160EF3CFDBFF100EF36E170ED2
:10078000F3CFDBFFD950040FE96EDACFEAFF000E9A
:10079000EA226E0EEE6E050EED6E0A0EDB6AFD0E9F
:1007A000DB50020802E2020E01D0010EF36E0B0EC6
:1007B000F3CFDBFF090EDB6A020EF36E090EEDECE0
:1007C00014F001E3C8D0D9CF14F0DACF15F0090E38
:1007D000DB50020DD950F324E96EDA5024EC16F008
:1007E000060E166E030E176EF4EC13F0165C13EC87
:1007F00015F0186E050EE15C02E2E16AE552E16E69
:100800001850640E57EC15F0D950120F186E000EE8
:10081000DA20196E030E1A6EF4EC13F0020D185064
:10082000F324E96E195022EC14F0F3CF16F0F4CF54
:1008300017F015EC14F016C0EEFF17C0EDFF010E17
:1008400057EC15F0080EDB6AD950120FF3EC15F0D7
:10085000166EF4EC13F0020D1450F324E96E1550EB
:1008600022EC14F00C0EF3CFDBFF0D0EF4CFDBFF08
:10087000D9500E0F166E000EDA20176E090EDB50DF
:10088000020D1650F324E96E1750F420EA6EEECFF5
:1008900014F0EFCF15F00C0EDBCF18F00D0EDBCF00
:1008A00019F0960E185E000E195A19501518E8AE78
:1008B00002D0153404D01450185C1550195833E286
:1008C000D9500E0F1C6E000EDA201D6E090EDB5083
:1008D000020D1C50F324E96E1D50F420EA6EEECF99
:1008E0001AF0EFCF1BF0960EE76E0C0EDBCF1EF06A
:1008F0000D0EDBCF1FF0E7501E26000E1F221B50EF
:100900001F18E8AE02D01F3404D01E501A5C1F50CE
:100910001B5809E2140EF36E080EEDEC14F003E21E
:10092000080EDB2A10D0140EF36E080EEDEC14F056
:100930000AE215EC14F00C0EDBCFEEFF0D0EDBCF50
:10094000EDFF080EDB6A080EDB50140801E07CD7CF
:10095000090EDB2A31D70E0EDBCF14F00F0EDBCFE2
:1009600015F0C80EE76E100EDBCF16F0110EDBCFC0
:1009700017F0E7501626000E172217501518E8AE8C
:1009800002D0153404D01450165C155017581DE3CE
:10099000100EDBCF18F0110EDBCF19F0C80EE76E8A
:1009A0000E0EDBCF1AF00F0EDBCF1BF0E7501A262E
:1009B000000E1B221B501918E8AE02D0193404D0C7
:1009C00018501A5C19501B5805E2010EF36E0A0EFE
:1009D000F3CFDBFF0E0EDB6A0F0EDB6A100EDB6A55
:1009E000110EDB6AFD0EDB50166E176A030E0D6EDC
:1009F0000E6A16C008F017C009F0A3EC4DF004C051
:100A000016F005C017F0010ED89016361736E80616
:100A1000FBE1040EDB501624146E050EDB5017208C
:100A2000156E0B0EDBCF1AF01B6A1ABE1B68020E86
:100A3000D8801A56000E1B56030E086E096A1AC09B
:100A40000DF01BC00EF0AAEC3CF006C018F007C079
:100A500019F0010ED89018361936E806FBE114504B
:100A60001824E96E15501920EA6E060EEECFDBFF52
:100A7000070EEDCFDBFF46EC16F0000E145C040E03
:100A800015581AE2060EDBCFE6FF070EDBCFE6FFB6
:100A9000060E146E030E156EF4EC13F0145C13ECDA
:100AA00015F0166E050EE15C02E2E16AE552E16EB8
:100AB0001650640E57EC15F00A0EDB50146E180E2B
:100AC000E15C02E2E16AE552E16E145024EF13F0BA
:100AD00008EC16F0E65261EC14F095EC16F003E029
:100AE0009AEC15F012E18CEC15F00FE18CEC16F09D
:100AF00007E098EC16F004E074EC15F0330805E11B
:100B0000C2EC15F002E1030EDB6A030EDB504CE190
:100B100081EC16F0040EDB6A81EC14F007E1020EA2
:100B2000DB50030803E1E66A98EC13F081EC14F063
:100B300007E122EC15F004E1010EE66E98EC13F0EB
:100B400081EC14F007E1020EDB0404E1020EE66E14
:100B500098EC13F085EC14F008E1020EDB5003086A
:100B600004E1030EE66E98EC13F085EC14F007E157
:100B700022EC15F004E1040EE66E98EC13F085EC1F
:100B800014F007E1020EDB0404E1050EE66E98ECBA
:100B900013F0E9EC16F0040ECBEC15F002E2E16A7A
:100BA000E552E16E145002D0A0EC16F0000E19ECE4
:100BB00016F002E2E16AE552E16E145024EF13F000
:100BC00015EC13F00F0EE12402E3E168E652C0ECED
:100BD00013F012EC13F006E1010EDB6A0401650E5E
:100BE000F16F22D0020EDB6A7EEC16F009E08FEC8A
:100BF00016F006E088EC16F0050F92EC16F0F4D72C
:100C0000D950050F05EC16F06AEC15F00DE1020E57
:100C1000DB500AE0D950030F3CEC13F0050F21EC38
:100C200013F0030EDBCFF1F4010EDB5007E1DF6AB6
:100C300067EC15F00401010EF06F04D00401F06BB5
:100C4000A0EC16F0000E146E0F0EE15C02E2E16AF9
:100C5000E552E16E145024EF13F00BEC16F0E6525F
:100C60001BEC13F012EC13F0510834E1BFEC16F05A
:100C700031E1DF6A020E60EC15F0410E32EC13F048
:100C80002C0EEF6E0401C0B104D092EC13F0300EC4
:100C900003D092EC13F0310EEF6E050E60EC15F000
:100CA0002C0EEF6E060E60EC15F0420EEF6E070E86
:100CB00060EC15F02C0EEF6EC0B304D04BEC14F0CA
:100CC000300E03D04BEC14F0310EEF6E090E60ECD9
:100CD00015F0EF6A95EC16F003E09AEC15F064E17C
:100CE0008CEC15F061E174EC15F0300803E08CEC4D
:100CF00016F05AE1010EDF6EE6EC16F031E11DEC64
:100D000016F0410804E01DEC16F0420829E1050E3A
:100D10000AEC13F02C0824E1060E0AEC13F030085C
:100D200005E0060E0AEC13F031081AE1070E0AEC92
:100D300013F016E1060E0AEC13F0D00F09E1FE0ED7
:100D4000146E1DEC16F0BF0F145C0401C01506D024
:100D50001DEC16F0BF0F010F0401C011C06FDF6A58
:100D6000C2EC15F013E174EC15F0D00F09E1FE0EA2
:100D7000146E12EC13F0BF0F145C0401C01504D004
:100D80004AEC16F00401C011C06FDF6ADF5005E1C4
:100D9000C0C483FF010EDB6A03D0DE52010EDD6E9C
:100DA000DB50300FCFEC15F0000EE552E55224EF8A
:100DB00013F002EC16F0E66A6AC5E6FF6BC5E6FFC3
:100DC0000DEC13F002E2E16AE55277EC14F024EF47
:100DD00013F00BEC16F0010EDF6EFD0EDB50410838
:100DE0000BE1FC0EDB50310807E1DF6A70EC16F016
:100DF00052C5EEFF53C5EDFFFD0EDB5041080BE180
:100E0000FC0EDB50320807E170EC16F054C5EEFF23
:100E100055C5EDFFDF6AFD0EDB5042080BE1FC0E0D
:100E2000DB50310807E170EC16F056C5EEFF57C5F0
:100E3000EDFFDF6AFD0EDB5042080BE1FC0EDB50DC
:100E4000320807E170EC16F058C5EEFF59C5EDFF0A
:100E5000DF6ADF50E55224EF13F04EEC16F002E3A8
:100E6000E168E65293EC15F003E09AEC15F00EE120
:100E70008CEC15F00BE18CEC16F003E098EC16F01E
:100E800005E1C2EC15F002E1010EDB6A010EDB5058
:100E900001E0ABD06DEC15F0030EEFCFDBFF74EC8F
:100EA00015F0D00FDF6E080EDB6A090EDB6A030E49
:100EB0000BEC14F0030EDF2414240F01486F480ECE
:100EC000E66E0F0EE66EA5D8E552E552040EF3CF9E
:100ED000DBFF050EF4CFDBFF030E0BEC14F0DF0499
:100EE0002FEC14F0EF5011E1020EDB6AA8EC15F0C4
:100EF00002E2E16AE552E16E1650E66A920EE66E93
:100F0000990E36EC13F01DE21AD0030E0BEC14F020
:100F1000DF041424E1EC14F0C40EE926040EEA22E6
:100F2000EE50ED1011E1020EDB6AD7EC16F0EF6A1D
:100F3000E66A8E0EE66E990E36EC13F002E2E16A76
:100F4000E552E16E145051D0020EDB6AD950080F01
:100F5000ADEC16F0300EDF24E66E030E89EC14F0D3
:100F6000190E146E156A080EDBCF08F0090EB1ECED
:100F700013F0660E086E096A060EDBCF0DF0070E41
:100F8000DBCF0EF0AAEC3CF0060E06C0DBFF070E2E
:100F900007C0DBFF0A0EDEEC15F0040EDEEC15F0E8
:100FA00031EC15F0060EDB50165C146E070EDB50AC
:100FB0001758156E060E14C0DBFF070E15C0DBFFB9
:100FC000020EA8EC15F002E2E16AE552E16E16505D
:100FD000E66A2D0E28EC14F057EC14F03FEC13F0F9
:100FE00002E2E16AE552E16E1650010EDB0406E111
:100FF000020EF36EDB6ED7EC16F0EF6A000E146E85
:101000000A0EE15C02E2E16AE552E16E145024EF5F
:1010100013F04EEC16F002E3E168E652E16E26ECC6
:1010200015F01FEC42F0E552E552F3CFDEFFF4CFAE
:10103000DDFF8FEC14F0060EDB6A070EDB6A080E8C
:10104000DB6A090EDB6A12EC13F0FC0FE1EC14F022
:10105000420EE926050EEA22020EEECFDBFF030E5A
:10106000EECFDBFF040EEECFDBFF050EEECFDBFF96
:1010700012EC13F0FC0FE1EC14F0320EE926050E31
:10108000EA22EECF18F0EECF19F0EECF1AF0EFCF44
:101090001BF0DECF14F0DDCF15F0166A176A14C00E
:1010A00006F015C007F016C008F017C009F018C008
:1010B0000BF019C00CF01AC00DF01BC00EF0D7ECED
:1010C0004BF0060E02C0DBFF070E03C0DBFF080E6D
:1010D00004C0DBFF090E05C0DBFF38EC15F031EC76
:1010E00015F0D950060FB7EC15F0E6EC15F01734F3
:1010F000000E171809E6D880000E1454000E15547F
:10110000000E1654000E17540BE246EC16F0080EB3
:10111000DBCF16F0090EDBCF17F0A0EC13F002D0F6
:101120008FEC14F0500E146EC30E156E166A176A0B
:10113000A0EC13F0020EDBCF06F0030EDBCF07F0BE
:10114000040EDBCF08F0050EDBCF09F0A00E0B6E0E
:10115000860E0C6E010E0D6E0E6A49EC3CF0020E0E
:1011600006C0DBFF030E07C0DBFF040E08C0DBFF79
:10117000050E09C0DBFF38EC15F014C0F3FF15C0F5
:10118000F4FF0A0EE15C02E2E16AE552E16E24EF4F
:1011900013F04EEC16F002E3E168E65293EC15F022
:1011A00003E09AEC15F005E1BFEC16F002E1010E48
:1011B000DB6A010EDB5001E0C2D095EC16F006E1CF
:1011C000000EE66EE66A010E4EEC14F09AEC15F095
:1011D00006E1000EE66EE66A020E4EEC14F0060E14
:1011E000070EDBCF18F0176A800E1816196A0F0E5B
:1011F0001F0B17C014F018C015F019C016F006E048
:10120000D890163215321432E806FAE1020E14C0F4
:10121000DBFF060E070EDBCF15F0000E780E15165D
:101220001550156AE830E830E8301F0B146EDC0EFC
:101230001426070E1522080E14C0DBFF090E15C078
:10124000DBFF46EC16F0800E1416070E1516D8902C
:1012500015321432E804FBE1030E14C0DBFF7C0EF0
:101260002BEC16F0D89015321432D8901532143277
:10127000040E14C0DBFF030E2BEC16F0050E14C099
:10128000DBFFE9EC16F0890EE66E990E36EC13F0F2
:1012900002E2E16AE55210EC14F0020EDB50410F5D
:1012A00028EC14F0840EE66E990E36EC13F002E290
:1012B000E16AE55210EC14F0040ECBEC15F002E2FA
:1012C000E16AE5520BEC15F07D0EE66E990E36ECF8
:1012D00013F002E2E16AE55210EC14F0030ECBECDD
:1012E00015F002E2E16AE5520BEC15F0770EE66EBE
:1012F000990E36EC13F002E2E16AE55210EC14F0BC
:10130000080EDBCFE6FF090E96EC15F002E2E16A6B
:10131000E5520BEC15F06E0EE66E990E36EC13F0FE
:1013200002E2E16AE5520BEC15F05CEC15F0E3EC3F
:1013300016F002E2E16AE552E16E145002D0A0EC30
:1013400016F0000E146E0A0EE15C02E2E16AE5524C
:10135000E16E145024EF13F002EC16F024EF13F0BA
:1013600008EC16F0020EDB6A030EDB6ADE52010E99
:10137000DD6E6DEC15F0EFCF14F0300E145C1CE355
:1013800012EC13F0370818E3BFEC16F015E1010E6C
:10139000DB6A12EC13F0D00F0F01496F490EE66EB5
:1013A0000F0EE66E1FEC42F0E552E552020EF3CF4F
:1013B000DBFF030EF4CFDBFF010EDB500CE1DF6A35
:1013C000D3EC15F0030E96EC15F002E2E16AE5525B
:1013D000E16E145002D0A0EC16F0000E146E040E54
:1013E000E15C02E2E16AE552E16E145024EF13F091
:1013F000C9EC16F0540EE66E990E36EC13F002E2CC
:10140000E16AE55277EC14F0E55224EF13F015ECA5
:1014100013F0060EE12402E3E168E65293EC15F0C6
:1014200003E09AEC15F00EE18CEC15F00BE18CEC7E
:1014300016F003E098EC16F005E1C2EC15F002E1BD
:10144000010EDB6A010EDB502CE1CCEC13F0050E33
:10145000EFCFDBFFD6EC15F00BE1D950020FADEC6E
:1014600016F05CEC15F0040E89EC14F052EC16F05A
:10147000010EDB5016E1DF6AD6EC15F00BE1D3EC80
:1014800015F0030E96EC15F002E2E16AE552E16E0A
:10149000145007D08FEC15F0430EEF6E92EC13F062
:1014A000EF6A010EDB0404E1020EDF6E67EC15F05B
:1014B000000E146E060EE15C02E2E16AE552E16E96
:1014C000145024EF13F015EC13F02C0EE12402E37A
:1014D000E168E652C0EC13F0020EDB6A7EEC16F017
:1014E00006E08FEC16F003E026EC17F0F7D72AECB5
:1014F00017F031E1020EDB502EE0FCEC13F06AEC49
:1015000015F006E08FEC16F003E01DEC17F0F7D7AE
:1015100021EC17F08FEC16F01EE1EDEC13F01BE060
:10152000FCEC13F06AEC15F009E08FEC16F006E025
:1015300088EC16F0180FBCEC15F0F4D7D950180F42
:101540002AEC13F0EF6A6AEC15F005E1EDEC13F00C
:1015500002E0010EDB6A010EDB5001E098D0D950A9
:10156000220FA4EC15F0DB503EE1D950220FB7EC6E
:1015700015F0D00ED880EE54070EED5434E3220E51
:10158000DBCF06F0230EDBCF07F0086A096A0E0EE8
:101590000B6E820E0C6E0D6A0E6AD7EC4BF002C019
:1015A00006F003C007F004C008F005C009F0E80E1B
:1015B0000626030E0722000E08220922D00E0B6E0B
:1015C000070E0C6E0D6A0E6A44EC4CF0280E06C035
:1015D000DBFF290E07C0DBFF2A0E08C0DBFF2B0E46
:1015E00009C0DBFF03D0DE52010EDD6E010EDBCF42
:1015F000E6FFD950240FEFEC15F0DBCFE6FFD95012
:10160000260F3CEC13F0180F8DEC13F0010EE7CF12
:10161000DBFFDB5039E1240EDBCF14F0250EDBCFEE
:1016200015F0260EDBCF16F0270EDBCF17F0145087
:10163000165C1550175805E3D950240F67EC14F0C9
:1016400023E1220EDBCF6AF5230EDBCF6BF5260EEE
:10165000DBCFE6FF270EDBCFE6FF240EDBCFE6FF76
:10166000250EDBCFE6FF280EDBCFE6FF290EDBCF12
:10167000E6FF23EC34F0146E060EE15C02E2E16A50
:10168000E552E16E145003D0DE52010EDD6E010E04
:10169000DB5002E1DF6A02D0020EDF6EC2EC16F010
:1016A0002C0EE15C02E2E16AE552E16E145024EF97
:1016B00013F015EC13F00F0EE12402E3E168E6529B
:1016C00093EC15F003E09AEC15F032E18CEC15F098
:1016D0002FE18CEC16F007E098EC16F004E074ECC7
:1016E00015F0330825E1E6EC16F022E1040E4DEC8E
:1016F00015F07EEC16F00CE08FEC16F009E088ECAB
:1017000016F0030F5DEC13F0FC0F2FEC17F0F1D780
:10171000D950030F5DEC13F0FC0F59EC13F06AEC99
:1017200015F006E1020EDB50040802E0010EDB6A50
:10173000010EDB5053E18CEC16F018E195EC16F03D
:1017400009E17DEC15F006E1C5EC13F098EC45F0ED
:10175000E552E5529AEC15F009E17DEC15F006E151
:10176000C5EC13F0A5EC45F0E552E55298EC16F007
:1017700018E195EC16F009E17DEC15F006E1C5ECF9
:1017800013F0B2EC45F0E552E5529AEC15F009E1A0
:101790007DEC15F006E1C5EC13F0BFEC45F0E55229
:1017A000E55274EC15F033081CE195EC16F009E1F4
:1017B0007DEC15F006E1C5EC13F0CCEC45F0E552FC
:1017C000E5529AEC15F00DE17DEC15F00AE1C5EC5F
:1017D00013F0D9EC45F0E552E55203D0DE52010E8C
:1017E000DD6E010EDB5002E1DF6A02D0020EDF6E19
:1017F000C2EC16F00F0EE15C02E2E16AE552E16E26
:10180000145024EF13F054EC16F002E3E168E652B2
:10181000C0EC13F0DF6E95EC16F003E09AEC15F0D7
:101820003BE18CEC15F038E18CEC16F003E098EC21
:1018300016F032E1E6EC16F02FE11DEC16F02B0865
:1018400004E01DEC16F02D0827E1050E0AEC13F05C
:101850002C0822E1060E4DEC15F07EEC16F00CE0A3
:101860008FEC16F009E088EC16F0060F5DEC13F033
:10187000FA0F2FEC17F0F1D7D950060F5DEC13F0EB
:10188000FA0F59EC13F06AEC15F006E1020EDB508A
:10189000060802E0010EDB6A010EDB5001E0E6D033
:1018A000CCEC13F0030EEFCFDBFF040E77EC16F059
:1018B000050EEFCFDBFFDE52010EDD6ED950100FAB
:1018C0003CEC13F0060F21EC13F0040EDB50410842
:1018D0002FE1030EDB5031082BE1010EDB5028E134
:1018E0000401DC0523E1050EDB502B080DE185EC3E
:1018F00013F00401C6270950C7230EEC17F002E2CB
:10190000E16AE552E16E1450050EDB502D0810E13E
:1019100085EC13F00401C65F0950C75B0EEC17F0AD
:1019200002E2E16AE552E16E145002D0DBEC16F0FF
:10193000040EDB5041082FE1030EDB5032082BE18F
:10194000010EDB5028E10401DD0523E1050EDB502B
:101950002B080DE185EC13F00401CA270950CB23B5
:10196000EDEC16F002E2E16AE552E16E1450050E6C
:10197000DB502D0810E185EC13F00401CA5F09501B
:10198000CB5BEDEC16F002E2E16AE552E16E145039
:1019900002D0DBEC16F0040EDB5042082FE1030E00
:1019A000DB5031082BE1010EDB5028E10401DE059C
:1019B00023E1050EDB502B080DE185EC13F004014B
:1019C000CE270950CF23F8EC16F002E2E16AE55287
:1019D000E16E1450050EDB502D0810E185EC13F07C
:1019E0000401CE5F0950CF5BF8EC16F002E2E16A29
:1019F000E552E16E145002D0DBEC16F0040EDB5021
:101A0000420840E1030EDB5032083CE1010EDB509E
:101A100039E10401DF0523E1050EDB502B080DE160
:101A200085EC13F00401D2270950D32303EC17F0FF
:101A300002E2E16AE552E16E1450050EDB502D081A
:101A400021E185EC13F00401D25F0950D35B03EC74
:101A500017F002E2E16AE552E16E145013D0DF6A3A
:101A6000B9EC16F04E0EEF6E030E09D08FEC15F0A8
:101A70004F0EEF6E92EC13F04B0EEF6E050E60EC16
:101A800015F0EF6A000E146E120EE15C02E2E16ADC
:101A9000E552E16E145024EF13F00BEC16F072ECEB
:101AA00014F098EC14F036EC14F044EC4CF0DE52E8
:101AB00006C0DEFF07C0DDFFDD52A1EC14F036ECFE
:101AC00014F044EC4CF0030E06C0DBFF040E07C01C
:101AD000DBFFDF6A67EC15F00EEC16F002E2E16A5C
:101AE000E5520BEC15F0CCEC16F002E2E16AE5529F
:101AF00077EC14F019EC16F002E2E16AE552E16EBF
:101B0000145024EF13F0C9EC16F06CC5E6FF6DC558
:101B1000E6FF0DEC13F002E2E16AE55277EC14F017
:101B2000E55224EF13F015EC13F01C0EE12402E350
:101B3000E168E652C0EC13F0020EDB6A7EEC16F0B0
:101B400006E08FEC16F003E026EC17F0F7D72AEC4E
:101B500017F018E1020EDB5015E0FCEC13F06AEC14
:101B600015F006E08FEC16F003E01DEC17F0F7D748
:101B700021EC17F06AEC15F005E1EDEC13F002E052
:101B8000010EDB6A010EDB5072E1D2EC16F0DB5085
:101B90006EE1180EDBCF14F0190EDBCF15F01A0E24
:101BA000DBCF16F01B0EDBCF17F01650145C17506E
:101BB00015585DE2D950180F67EC14F058E0D95071
:101BC0001A0F67EC14F053E0180EDBCF62F5190E14
:101BD000DBCF63F50501646B656B36EC14F098ECB4
:101BE00014F0D7EC4BF002C062F503C063F504C0FB
:101BF00064F505C065F51A0EDBCF66F51B0EDBCF6D
:101C000067F50501686B696B36EC14F0A1EC14F014
:101C1000D7EC4BF002C066F503C067F504C068F569
:101C200005C069F5180E190EE2EC13F0750E2DECD7
:101C300013F0FF0EE76E180EDBCF14F0190ECCEC8C
:101C400014F0740E2DEC13F01A0E1B0EE2EC13F0D0
:101C5000770E2DEC13F0FF0EE76E1A0EDBCF14F0AB
:101C60001B0ECCEC14F0760E2DEC13F0DF6A010E97
:101C7000DB5002E0010EDF6EC2EC16F01C0EE15CE0
:101C800002E2E16AE552E16E145024EF13F015EC24
:101C900013F0230EE12402E3E168E652E16E61EC09
:101CA00014F0010EDF6E95EC16F003E09AEC15F0DF
:101CB0005DE18CEC15F05AE18CEC16F003E098EC49
:101CC00016F054E1E6EC16F051E1040EF36E050E49
:101CD000F3CFDBFF040EF36EDB6E7EEC16F00CE050
:101CE000B4EC15F02C0808E0B4EC15F0E66ED95011
:101CF0000B0F14EC16F0F1D7D9500B0FC5EC15F003
:101D000059EC13F0B4EC15F006E16BEC14F003E0C1
:101D1000030E3FEC15F0B4EC15F02C0827E16BEC4A
:101D200014F024E0040EDB2ADB50E76E050EE7CF4B
:101D3000DBFFB4EC15F00CE0B4EC15F02C0808E077
:101D4000B4EC15F0E66ED950150F14EC16F0F1D77F
:101D5000D950150F95EC13F0EF6AB4EC15F006E1CD
:101D60006BEC14F003E0040E3FEC15F0030EDB50B7
:101D700001E0D8D081EC16F0D950070F3CEC13F0FD
:101D80000B0F87EC15F0E76E030EE7CFDBFF060EB7
:101D9000DB5004081CE1030EDBCFE6FFD950090F2E
:101DA0003CEC13F0150F8DEC13F0030EE7CFDBFFC7
:101DB000DB5018E1090EDBCF14F00A0EDBCF15F073
:101DC0001F0E14C0DBFF200E15C0DBFF07D00A0E6C
:101DD000F36E1F0EF3CFDBFF200EDB6A210EDB6AF2
:101DE000220EDB6A030EDB5042E161EC14F081EC61
:101DF00014F00DE1020EDB040AE13DEC14F00401E5
:101E00001450F65D1550F75902E3030EDB6A81ECBE
:101E100014F00DE122EC15F00AE13DEC14F00401A0
:101E20001450F85D1550F95902E3030EDB6A85EC96
:101E300014F00DE1020EDB040AE13DEC14F00401A4
:101E40001450FA5D1550FB5902E3030EDB6A85EC72
:101E500014F00DE122EC15F00AE13DEC14F0040160
:101E60001450FC5D1550FD5902E3030EDB6A030EAE
:101E7000DB5058E1010E0BEC14F0020EDB042FECEA
:101E800014F0EF5002E1030EDF6E81EC14F008E174
:101E9000010E0401C01504E1010EC011C06F836E74
:101EA00085EC14F008E1020E0401C01504E1020EF5
:101EB000C011C06F836E030EDF5C34E0D9501F0F7A
:101EC000B7EC15F0EECFE6FFEECFE6FFEECFE6FF84
:101ED000EFCFE6FF070EDBCFE6FF080EE7EC14F0CE
:101EE000010EDBCFE6FFDCEC34F0146E080EE15C93
:101EF00002E2E16AE552E16E1450DF6E010E0BEC76
:101F000014F0AAEC14F0E00EE926040E1AEC15F019
:101F1000010E0BEC14F0AAEC14F0E80EE926040E06
:101F20001AEC15F0C2EC16F0230EE15C02E2E16A55
:101F3000E552E16E145088D378DB0D0EE12402E304
:101F4000E168E652E16E9D92F29EF29C030E05015D
:101F50002A27000E2B232C232D23D950010FADEC63
:101F600016F0A8EC30F0E552E552F28EF28C9D822C
:101F7000DF6A67EC15F00EEC16F002E2E16AE5525A
:101F800010EC14F0CCEC16F002E2E16AE55210EC31
:101F900014F05CEC15F0060E96EC15F002E2E16A26
:101FA000E55210EC14F0070EDBCFE6FF080E96ECBE
:101FB00015F002E2E16AE55210EC14F0090EDBCFF5
:101FC000E6FF0A0E96EC15F002E2E16AE5520BEC30
:101FD00015F00B0EDBCFE6FF0C0E96EC15F002E2CF
:101FE000E16AE55277EC14F0146E0D0EE15C02E24A
:101FF000E16AE552E16E145027D317DB060EE124A7
:1020000002E3E168E652E16E61EC14F095EC16F043
:1020100003E09AEC15F00EE18CEC15F00BE18CEC82
:1020200016F003E098EC16F005E1C2EC15F002E1C1
:10203000030EDB6A030EDB5040E181EC16F081EC0D
:1020400014F009E1020EDB0406E1040EF6C4DBFF26
:10205000050EF7C4DBFF81EC14F009E122EC15F06A
:1020600006E1040EF8C4DBFF050EF9C4DBFF85ECC6
:1020700014F009E1020EDB0406E1040EFAC4DBFFF2
:10208000050EFBC4DBFF85EC14F009E122EC15F032
:1020900006E1040EFCC4DBFF050EFDC4DBFFE9EC2A
:1020A00016F0040EDBCFE6FF5CEC15F0B6DA02E2C8
:1020B000E16AE552E16E145002D0A0EC16F0000E79
:1020C000146E060EE15C02E2E16AE552E16E145024
:1020D000BBD20BEC16F0DF6AFD0EDB5041081EE1AF
:1020E000FC0EDB5031081AE136EC16F015E2FA0E60
:1020F000DBCFF6F4FB0EDBCFF7F4000E0401F61590
:10210000FF0EF71506EC15F06D0EA7DA0401F65177
:10211000E66E6C0EA2DA02D0010EDF6EFD0EDB5011
:1021200041081EE1FC0EDB5032081AE13CEC16F0CF
:1021300015E2FA0EDBCFF8F4FB0EDBCFF9F4000E5C
:102140000401F815FF0EF91506EC15F06F0E85DA8F
:102150000401F851E66E6E0E80DA02D0010EDF6ED9
:10216000FD0EDB5042081EE1FC0EDB5031081AE187
:1021700036EC16F015E2FA0EDBCFFAF4FB0EDBCFED
:10218000FBF4000E0401FA15FF0EFB1506EC15F02A
:10219000710E63DA0401FA51E66E700E5EDA02D057
:1021A000010EDF6EFD0EDB5042081EE1FC0EDB501F
:1021B00032081AE13CEC16F015E2FA0EDBCFFCF423
:1021C000FB0EDBCFFDF4000E0401FC15FF0EFD1528
:1021D00006EC15F0730E41DA0401FC51E66E720E46
:1021E0003CDA02D0010EDF6EDF50E5522DD220EC3A
:1021F00016F031081DE1BFEC16F01AE1010EDB6AA2
:10220000380E0401C35D14E0380EC36FE66EABDB1D
:1022100062C55AF563C55BF564C55CF565C55DF5DA
:102220002AC55EF52BC55FF52CC560F52DC561F59A
:10223000F9D9300809E1BFEC16F006E1010EDB6ABE
:102240000401C369E6688FDB010EDB5002E1DF6A3F
:1022500002D0010EDF6E67EC15F0E552E552F4D1C5
:1022600054EC16F002E3E168E65293EC15F003E05B
:102270009AEC15F042E18CEC15F03FE16DEC15F0B5
:102280000E0EEFCFDBFF8CEC16F003E098EC16F0AF
:1022900034E1E6EC16F031E1040EB6DA7EEC16F02D
:1022A00006E08FEC16F003E0A9EC16F0F7D718EC77
:1022B00017F06AEC15F021E19BEC16F01EE0D95006
:1022C000100FA4EC15F06DEC15F00E0EEFCFDBFF48
:1022D000020E77EC16F00F0EEFCFDBFF010EDB5096
:1022E0000CE1D4DB0F0EDBCFE6FF0E0EDBCFE6FFFB
:1022F000F0DEBDEC16F052EC16F0010EDB5002E100
:10230000DF6A02D0010EDF6EC2EC16F0120EE15C45
:1023100002E2E16AE552E16E145096D186D90E0EC2
:10232000E12402E3E168E652E16E58EC16F03EEC7F
:1023300034F0E552E5527FD9E66A58EC16F0BCDA83
:1023400002E2E16AE552D3DA146E0E0EE15C02E2BB
:10235000E16AE552E16E145077D167D97CEC49F01F
:102360006AD972D162D91C0EE12402E3E168E65217
:1023700007DA030EDB6A7EEC16F00EE0BFEC15F018
:102380002C080AE0BFEC15F0E66EF2DAB0DBC5EC23
:1023900016F0030EDB2AEFD7EBDA8BD9F0DB2C0833
:1023A00023E1030EDB5020E0030EDB2ADB505DEC63
:1023B00016F0E5DB0BE0E3DB2C0808E0E0DBE66E83
:1023C000FBD9C5EC16F0030EDB2AF3D7F5D9EF6A7B
:1023D000D6DB0AE1030E42EC16F006E0D2EC16F072
:1023E0001A0ECBDAF6EC15F0010EDB5002E1DF6AD3
:1023F00002D0020EDF6EC2EC16F01C0EE15C02E2AF
:10240000E16AE552E16E14501FD10FD9100EE1249C
:1024100002E3E168E652B4D90F0EDB6A7EEC16F0F7
:102420000EE062EC16F02C080AE062EC16F0E66EA4
:10243000ADDA5DDBC5EC16F00F0EDB2AEFD7A6DABE
:1024400038D962EC16F016E10F0EDB5013E0D950CC
:102450000C0F12D9020FF5D80C0EDBCFE6FF0D0ED4
:10246000DBCFE6FFC7EC49F0E552E552E76E0E0E12
:10247000E7CFDBFF010EDB500AE1E9EC16F00E0EB0
:102480008ADB02E2E16AE552E16E145003D0020EEB
:10249000DF6E1DDB000E146E100EE15C02E2E16ADD
:1024A000E552E16E1450D0D054EC16F002E3E1682E
:1024B000E65239DB02E03EDB25E12EDB23E1020EB2
:1024C000A3D97EEC16F02C0805E004DB03E0A9ECB0
:1024D00016F0F7D718EC17F0FDDA14E17ED912E008
:1024E000D9500E0F31DB0E0EDBCFE6FF0F0EDBCF28
:1024F000E6FFD0DBE66E7DDB100EF3CFDBFF110EC7
:10250000F4CFDBFF010EDB500AE1E9EC16F0BEDA96
:1025100084D802E2E16AE552E16E145002D0A0ECE8
:1025200016F0000E146E120EE15C02E2E16AE55252
:10253000E16E145089D079D81D0EE12402E3E168E0
:10254000E652F1DA02E0F6DA3EE1E6DA3CE1A2DB5D
:10255000E76E1C0EE7CFDBFF020E56D9CFDB2C084F
:1025600004E0B8DA02E0F5DBF9D718EC17F0D7DBB6
:102570002AE133D928E040D9D2DB05E0ABDA03E029
:102580001DEC17F0F9D721EC17F0A4DA1CE1D3DB2E
:102590001AE0D950180FD8DADBCFE6FFD9501A0F5E
:1025A0001EDBDB5010E11A0EDBCFE6FF1B0EE5D978
:1025B0001C0EDBCFE6FF01EC45F03BDB02E2E16AFB
:1025C000E552E16E1450010EDB5002E1DF6A02D0E9
:1025D000010EDF6ED7DB1D0EE15C02E2E16AE5521F
:1025E000E16E145031D014DB900E85D9910E69D86C
:1025F00002E2E16AE552E16E27D00ADB920E7BD956
:10260000930E5FD802E2E16AE552E16E1DD0C7DAAF
:10261000B2EF16F06CDBEF5012008FDA03EC26F00D
:1026200019EF16F05ADAEF50120042DBE1CFD9FF72
:10263000E2CFDAFF120054DB300EEF6E93DBEF6A6D
:10264000120065DA52EF16F0E552E5CFDAFFE7CF78
:10265000D9FF120059DA77EF15F0E66E010EE66E3B
:10266000F6EF15F0EF6E030E60EF15F0E66E65DA2B
:1026700015EC28F019EF16F070DBD9501200DBCF03
:1026800015F00A0E0D6E0E6A14C008F015C009F0A0
:10269000A3EC4DF008C014F009C015F008C0E6FF27
:1026A00009C0E6FF4ADA03EC26F0166E050EE15C7F
:1026B00012000F011CDAEF6A120046DB020EDB503B
:1026C0001200E66E020E98DAE66ED950020F4FDA6B
:1026D000E552E750EE6EED6A020EDBCF16F0030E08
:1026E000DBCF17F016C017F0166ADE501610146E06
:1026F000DD501710156E14C0F3FFF46E040EE15C8C
:10270000120043DB020EDB2A1200100EDBCF08F0B2
:10271000110EDBCF09F008501200F9D9E552E72479
:10272000E76E1200040E60EF15F02FDA77EF15F068
:102730009AEC03F0E552E76E040EE7CFDBFF1200E0
:10274000D950020F14DA42DA020E14C0DBFF030E76
:1027500015C0DBFF040E16C0DBFF050E17C0DBFF44
:102760001200DBCF09F014C00DF015C00EF0A3EC81
:102770004DF0060E08C0DBFF070E09C0DBFF12009C
:10278000E16EDE52010EDD6E12000D0EDBCFE6FFB4
:102790000E0EDBCFE6FF1200A0D9040EEFCFDBFF59
:1027A000020E77EF16F00E0FB2D9146E010EDBCFCA
:1027B000E7FF1450E72603D3D9500E0F14DA62DA7C
:1027C00077EF15F0DBCF15F0000EFF0E151615C0D4
:1027D00014F0156A1450E66E1200030EDB50F36E0F
:1027E000020EDB50F35C12000E6EFD0EDBCF09F023
:1027F000E5EC4DF005501200020EDB2ADB50E76ECF
:10280000030EE7CFDBFF1200F36E030EF3CFDBFF07
:10281000DB505DEF16F0DB50BF0FE824146E1200A2
:10282000E16E14502C0EE66E1200D9500E0F8CDAA9
:10283000090EDB50020D1450F324E96E1550F420FC
:10284000EA6E120001DA0B0EDBCFE6FFF9EF15F0AE
:10285000E66E73D94BEC28F090DAE66A1200142485
:10286000EA6ADC0FE96E040EEA221200980E0B6E83
:102870003A0E0C6E0D6A0E6A1200070EDBCF14F0D2
:10288000080EDBCF15F01200FA0EDBCF14F0FB0EB2
:10289000DBCF15F01200080E60EF15F0E66EA9D937
:1028A000060EF3CFDBFF070EF4CFDBFF1200060EA0
:1028B000DBCF14F0070E120040D9E1EC27F019EF3E
:1028C00016F0010EF36E030EF3CFDBFF12004FD9AB
:1028D000EE50ED101200050EDB50F36E040EDB50CF
:1028E000F35C1200E652E652E652E6521200E16E46
:1028F0001450000E1200E66E020E7ED9DE6EDD6A06
:102900001200010EDB5041081200010EDB5042089C
:102910001200DBCFE6FFE9EC06F0BDEF16F0020E89
:10292000DB6A030EDB6A040EDB6A050EDB6A12004B
:1029300062C506F063C507F064C508F065C509F017
:10294000120066C506F067C507F068C508F069C5DE
:1029500009F01200020EDB041424E96EEA6AD89032
:10296000E936EA361200310EE66EE66AF6EF15F049
:10297000D950040F38D9DB501200DBCFE6FF180E18
:10298000DBCFE6FF190EDBCFE6FF1200D950020FB6
:10299000DBD90F0EDB501200E7501416156A1450E5
:1029A000E66E1200E652E652DE52010EDD6E1200B5
:1029B000EF6AE66A020EDBCFE6FF1200D00F5DEF92
:1029C00016F0040DF3CFE9FFF4CFEAFF1200DBCFDE
:1029D000E6FF020EDBCFE6FF1200DBCFF4FFF35081
:1029E000F45C1200C6C4E6FFC7C4E6FF1200CAC406
:1029F000E6FFCBC4E6FF1200CEC4E6FFCFC4E6FF7D
:102A00001200D2C4E6FFD3C4E6FF1200146E156AAA
:102A1000E850E66E1200E16E1450E66A1200E66EAF
:102A2000010EFCEF15F0E66EE66A0B0EDBCFE6FF5B
:102A300001EF45F0EA22070EDBCFEEFF080EDBCFF9
:102A4000EDFF1200020EDB5002081200FC0EDBCF7D
:102A5000E6FFFD0EDBCFE6FF1200D950050FB7EF02
:102A600015F0040EDBCF16F0050EDBCF17F01200C9
:102A7000020EDBCF14F0030EDBCF15F01200F36E65
:102A8000060EF3CFDBFF030EDB6A1200100EDBCF66
:102A9000E6FF110EDBCFE6FF1200F36E020EF3CF5E
:102AA000DBFF1200F3CFDBFF360EF36E1200E66E93
:102AB0005EEC4DF0E5521200050EDBCFE6FF120092
:102AC000E76E0ED9E750E926000EEA22120051D92E
:102AD000EF6A1200020E7EEF16F0FC0EDBCFE9FF6C
:102AE000FD0EDBCFEAFF1200020E0AEF13F01424F2
:102AF000E96E000E1520EA6E1200D9500D0FBCDDF4
:102B0000030F9FDDDB5012001FD99BEF16F025D974
:102B100040EC3EF0BDEF16F032D92C08120029D956
:102B20004E0E32EF13F02CDE95EF16F0DBCFE6FF02
:102B30000DEF13F077DD42081200FA0EDBCFE6FF4F
:102B4000FB0EDBCFE6FF120097DD040F21EF13F041
:102B50002ED92D0E87DDEF6A2C0EE66E040EDBCF2C
:102B600014F0050E3FEF13F0040E7EEF16F0E96E41
:102B7000000EDA20EA6E12006DDD81EF13F0030E15
:102B80007EEF16F0030E0AEF13F0DED8040EDBCF53
:102B9000E6FF050E67D1DBCFE6FFE3EF16F0E66E4A
:102BA0009FD8C5EF16F0E5D8D8EF14F0040E33DE49
:102BB000050EDB50CF0F53DEEF041200146E156AC2
:102BC000060EDBCF08F0070EB1EF13F0EE5014261F
:102BD000EE501522EE501622EE50172212004CDD58
:102BE0000E0F9BDDECD0B0D8030E1200AFEC49F015
:102BF0003DD1A1EC44F03AD1E66EC7EC49F0E55284
:102C0000E552120012DD1BEF13F057DD59EF13F000
:102C10000CDD72EF14F009DDE65212002C0EE66EA8
:102C2000010ED5DE0DEF13F080DDAFD8040EDB2AE8
:102C30001200146E050EE15C1200040E0AEF13F090
:102C4000F4DCB0DE12EF13F0F420EA6EEECFE6FF14
:102C5000EFCFE6FF1200E76E2ADEE7501416156A82
:102C60001200D9501A0F08DDD3EF13F00DDE2D0E30
:102C7000145C010E1558120007DE910E145C010E53
:102C800015581200DBCFE6FF020EECD010DEDBCFD2
:102C900015F01200C7DCBF0F010F1200C6DC0A0ED0
:102CA000E1241200E76E8BD0C0DC120EE12412008A
:102CB000D9CFE6FFDACFE6FF1200E76E020EE7CFCC
:102CC000DBFF12000F0E7EEF16F0E66ED950040FF8
:102CD0001200E7EC33F0E552E552E552E9EF16F069
:102CE000FA0EDBCFE9FFFB0EDBCFEAFF1200E76E47
:102CF000F4DEE750E926000EEA221200DB500AEF6C
:102D000013F0EBDE010EEFCFDBFFEEDEDEEF14F0B3
:102D1000E1DEE66ED9501200E7DE31081200DADE9D
:102D20002C081200CADC2FEF17F07CDC41081200DF
:102D3000DBDE32081200020EDBCFE6FF030E92D07C
:102D4000010EDF6E67EF15F0146E000EDA20156EBF
:102D50001200C0DEBADFBCEF15F0E66E000EDA201E
:102D6000E66E1200010EACDE7C0EEF6E020E60EF1E
:102D700015F0300EDF2407EF13F0E55277D0010E87
:102D80000AEF13F0A4DE146E1200E552E750EF6E66
:102D9000120041DFE9EF16F0030EDBCFE6FF040E71
:102DA00096EF15F0D950180FCFDE31EF16F0DB504B
:102DB000300F07EF13F0DF6AB2DEEF6A1200010E88
:102DC000E7CFDBFF1200E66A0DEF13F0DBDE2C0825
:102DD0001200DF6A7CDEE66A1200CAC4C8F4CBC403
:102DE000C9F405DE100EE66E74DF01DE0DEF13F0A0
:102DF000CEC4CCF4CFC4CDF4FFDD200EE66E69DF87
:102E0000FBDD0DEF13F0D2C4D0F4D3C4D1F4F9DD5F
:102E1000300EE66E5EDFF5DD0DEF13F0C6C4C4F4D0
:102E2000C7C4C5F4DFDDE66A54DFDCDD0DEF13F067
:102E3000D950040F69DE59EF13F06ADF0E0FBCEFB3
:102E400015F0D9500E0F06DCEF6A120043DE3DDFAD
:102E500092EF16F0D950040FD8DE8FEF16F047DE50
:102E600081EF13F0DB50E552E75C1200E552E552CA
:042E7000E552120015
:0C2E7400D1EC2AF069EC2EF0A8EC47F03D
:102E8000000EE66E010EE66E3DEC46F0E552E552B0
:102E9000090EE66E020EE66E3DEC46F0E552E55296
:102EA00053EC01F005012A6B2B6B2C6B2D6B04018D
:102EB0005C6B04015D6B04015E6B04015F6B0401DC
:102EC000606B0401616B0401696B6A6B6B6B6C6B0B
:102ED00004016D6B6E6B6F6B706B0401716B726BC9
:102EE000736B746B0401756B766B776B786B0F018A
:102EF0004A516BE1B3EC24F0E82404018E6F8F6B30
:102F00008EC4E6FF8FC4E6FF020EE66EE66A010E8F
:102F1000E66E01EC45F0146E050EE15C02E2E16A3A
:102F2000E552E16E1450010E0401156A8E25146EEF
:102F30008F51152214C0E6FF15C0E6FF020EE66EA3
:102F4000E66A020EE66E01EC45F0166E050EE15CD7
:102F500002E2E16AE552E16E1650020EE66EE66AA2
:102F6000010EE66EA1EC44F0E552E552E552F3CFD6
:102F70008AF4F4CF8BF4020EE66EE66A020EE66E79
:102F8000A1EC44F0E552E552E552F3CF8CF4F4CFD6
:102F90008DF404018E5104018A1904E104018F515A
:102FA00004018B1911E1010E0401156A8E25146EBE
:102FB0008F511522145004018C1902E115508D19FE
:102FC00003E10F01010E4A6F92D7DFEC2FF07D0E67
:102FD000E66E040EE66EA8EC30F0E552E5520F0105
:102FE000010E4B6F0401896B040E0401895D13E22D
:102FF00004018951E96EEA6AD890E936EA367D0E15
:10300000E926040EEA22EE50ED1002E10F014B6BAF
:103010000401892BE9D70F014B5102E0F3EC48F092
:103020000F014B51D2E0380E0401C35D01E018D10D
:103030000401896B040E0401895D01E311D10401CF
:103040008951040DF3CFE9FFF4CFEAFFC40EE9265E
:10305000040EEA22020EE926000EEA22EE6AED6A6A
:10306000040E040189250001706F700EE66E000EDB
:10307000E66E09EC08F0E552E552F3CF67F4F4CFC1
:1030800068F40A0E0D6E0E6A67C408F068C409F091
:10309000A3EC4DF008C067F409C068F40401030E06
:1030A000D8806755000E685501E3B4D004018951FA
:1030B00004E0020E0401895D47E167C479F468C445
:1030C0007AF404017B6B7C6B2C0E0B6E270E0C6E5E
:1030D000020E0D6E0E6A79C406F07AC407F07BC446
:1030E00008F07CC409F0D7EC4BF002C079F403C0BF
:1030F0007AF404C07BF405C07CF4E80E0B6E030E7A
:103100000C6E0D6A0E6A79C406F07AC407F07BC4AF
:1031100008F07CC409F044EC4CF006C079F407C018
:103120007AF408C07BF409C07CF404018951E96E8B
:10313000EA6AD890E936EA36D40EE926040EEA2285
:10314000830EEE6E050EED6E0401890504E0030E9C
:103150000401895D47E167C479F468C47AF4040125
:103160007B6B7C6B680E0B6E550E0C6E010E0D6E3C
:103170000E6A79C406F07AC407F07BC408F07CC4F8
:1031800009F0D7EC4BF002C079F403C07AF404C024
:103190007BF405C07CF4E80E0B6E030E0C6E0D6A1A
:1031A0000E6A79C406F07AC407F07BC408F07CC4C8
:1031B00009F044EC4CF006C079F407C07AF408C07A
:1031C0007BF409C07CF404018951E96EEA6AD89065
:1031D000E936EA36D40EE926040EEA226A0EEE6ECD
:1031E000030EED6E04018951040DF3CFE9FFF4CF16
:1031F000EAFFC40EE926040EEA2279C4EEFF7AC47F
:10320000EDFF04018951EA6ADC0FE96E040EEA223F
:10321000EF6A23D004018951040DF3CFE9FFF4CF05
:10322000EAFFC40EE926040EEA22EE6AED6A040102
:103230008951E96EEA6AD890E936EA36D40EE92671
:10324000040EEA22EE6AED6A04018951EA6ADC0F93
:10325000E96E040EEA22010EEF6E0401892BEAD614
:1032600005016C6B6D6BD09EF28EF28C9D8AFE0E0A
:10327000E66E43EC4DF0E552FA0ECB6E62C55AF5A0
:1032800063C55BF564C55CF565C55DF505015E6B01
:103290005F6B606B616BB40EE66E040EE66EB20E91
:1032A000E66E040EE66E5DCFE6FF5ECFE6FF4FEC06
:1032B00043F0146E060EE15C02E2E16AE552E16E53
:1032C0001450F3CFB6F4F4CFB7F40401B651B711EC
:1032D00001E0D8D20401080ED880B255000EB355D3
:1032E00001E3D0D2B4C4E6FFB5C4E6FFB2C4E6FF42
:1032F000B3C4E6FF000EE66E010EE66E000EE66E4B
:10330000E66A02EC48F0146E080EE15C02E2E16A43
:10331000E552E16E145000C1A6F4000EE66E010EF7
:10332000E66E80EC46F0E552E552F3CFA7F4F4CF19
:10333000A8F404C1A9F405C1AAF4000EE66E010EBA
:10334000E66EADEC46F0E552E5520401AD6F120EAB
:10335000E66E030EE66E000EE66E010EE66EBCEC47
:1033600046F0E552E552E552E552000EE66E010EDA
:10337000E66EF6EC46F0E552E552F3CFAEF4F4CF4C
:10338000AFF4B3EC24F0300F0401A95D01E07AD270
:103390000401526B0401AD514BE0E66A030EE66E88
:1033A000E66AA7C4E6FFA8C4E6FF520EE66E040E66
:1033B000E66E6AEC28F0146E070EE15C02E2E16A48
:1033C000E552E16E1450E66AA9C4E6FF520EE66EBD
:1033D000040EE66E4BEC28F0E552E552E552E5525C
:1033E000E66AAAC4E6FF520EE66E040EE66E4BECE9
:1033F00028F0E552E552E552E552E66AADC4E6FF33
:10340000520EE66E040EE66E4BEC28F0E552E552E5
:10341000E552E552E66A230EE66E520EE66E040EA3
:10342000E66E4BEC28F0E552E552E552E55230D01D
:10343000E66A030EE66EE66AA7C4E6FFA8C4E6FFE6
:10344000520EE66E040EE66E6AEC28F0146E070E5D
:10345000E15C02E2E16AE552E16E1450E66AA9C459
:10346000E6FF520EE66E040EE66E4BEC28F0E552D7
:10347000E552E552E552E66AAAC4E6FF520EE66E50
:10348000040EE66E4BEC28F0E552E552E552E552AB
:103490000401B06BB16B0401A46BA56B000E0401B9
:1034A000A425E96E010E0401A521EA6EEF50030880
:1034B00014E0000E0401A425E96E010E0401A5210B
:1034C000EA6EEF500401B0190401B06FB1C4B1F459
:1034D0000401A42B000EA523E1D70401AE51040181
:1034E000B01904E10401AF510401B11905E1020E64
:1034F0000401A65D01E18DD00101006BE66A1A0EA0
:10350000E66E000EE66E010EE66E4BEC28F0E5521C
:10351000E552E552E552E66A520EE66E040EE66E9C
:10352000000EE66E010EE66EE1EC27F0146E050E5D
:10353000E15C02E2E16AE552E16E1450E66A120EC5
:10354000E66E030EE66E000EE66E010EE66EE1EC30
:1035500027F0146E050EE15C02E2E16AE552E16ECD
:103560001450E66A030EE66E000EE66E010EE66E7D
:103570004BEC28F0E552E552E552E552000EE66EBE
:10358000010EE66E41EC46F0E552E552F3CFAEF4A3
:10359000F4CFAFF40201096BE66A000EE66E010E8D
:1035A000E66E090EE66E020EE66EE1EC27F0146E92
:1035B000050EE15C02E2E16AE552E16E1450E66A52
:1035C000E668E668AEC4E6FFAFC4E6FF090EE66E45
:1035D000020EE66E6AEC28F0146E070EE15C02E261
:1035E000E16AE552E16E1450090EE66E020EE66ED7
:1035F000010EE66EE66A48EC48F0E552E552E55207
:10360000E552010EE66EE66AD4EC47F0E552E5526B
:1036100039D1120EE66E040EE66E120EE66E030E41
:10362000E66EAAC4E6FFE5EC01F0146E050EE15C5F
:1036300002E2E16AE552E16E14500401AB6F010150
:10364000006B0401AB5101E093D012C4B8F4040143
:10365000B96BB80EE66E040EE66EBDEC4AF0E552AC
:10366000E552F3CFACF40401AC5141E1E66A060E39
:10367000E66E000EE66E010EE66E4BEC28F0E552AB
:10368000E552E552E552E66A520EE66E040EE66E2B
:10369000000EE66E010EE66EE1EC27F0146E050EEC
:1036A000E15C02E2E16AE552E16E1450E66A120E54
:1036B000E66E040EE66E000EE66E010EE66EE1ECBE
:1036C00027F0146E050EE15C02E2E16AE552E16E5C
:1036D0001450E66A030EE66E000EE66E010EE66E0C
:1036E0004BEC28F0E552E552E552E55240D0E66A4F
:1036F000150EE66E000EE66E010EE66E4BEC28F03F
:10370000E552E552E552E552E66A520EE66E040EC7
:10371000E66E000EE66E010EE66EE1EC27F0146E2A
:10372000050EE15C02E2E16AE552E16E1450E66AE0
:10373000120EE66E040EE66E000EE66E010EE66EEA
:10374000E1EC27F0146E050EE15C02E2E16AE5525D
:10375000E16E1450E66A030EE66E000EE66E010E90
:10376000E66E4BEC28F0E552E552E552E55240D0CA
:10377000E66A1A0EE66E000EE66E010EE66E4BEC81
:1037800028F0E552E552E552E552E66A520EE66E41
:10379000040EE66E000EE66E010EE66EE1EC27F01A
:1037A000146E050EE15C02E2E16AE552E16E14502E
:1037B000E66A120EE66E030EE66E000EE66E010E6F
:1037C000E66EE1EC27F0146E050EE15C02E2E16AC0
:1037D000E552E16E1450E66A030EE66E000EE66EE8
:1037E000010EE66E4BEC28F0E552E552E552E5524B
:1037F000000EE66E010EE66E41EC46F0E552E55233
:10380000F3CFAEF4F4CFAFF40201096BE66A000E19
:10381000E66E010EE66E090EE66E020EE66EE1EC55
:1038200027F0146E050EE15C02E2E16AE552E16EFA
:103830001450E66AE668E668AEC4E6FFAFC4E6FF89
:10384000090EE66E020EE66E6AEC28F0146E070EA4
:10385000E15C02E2E16AE552E16E1450090EE66EA7
:10386000020EE66E010EE66EE66A48EC48F0E5529E
:10387000E552E552E552010EE66EE66AD4EC47F0F9
:10388000E552E5520401DC0512E10001706B700E97
:10389000E66E000EE66E1FEC42F0E552E552F3CF05
:1038A00069F4F4CF6AF404016B6B6C6B05D004010E
:1038B000696B6A6B6B6B6C6B0401DD0513E10001D6
:1038C000010E706F700EE66E000EE66E1FEC42F099
:1038D000E552E552F3CF6DF4F4CF6EF404016F6B53
:1038E000706B05D004016D6B6E6B6F6B706B0401B8
:1038F000DE0513E10001020E706F700EE66E000E21
:10390000E66E1FEC42F0E552E552F3CF71F4F4CFCE
:1039100072F40401736B746B05D00401716B726BEC
:10392000736B746B0401DF0513E10001030E706F0C
:10393000700EE66E000EE66E1FEC42F0E552E552A8
:10394000F3CF75F4F4CF76F40401776B786B05D080
:103950000401756B766B776B786B2AC52EF52BC5DA
:103960002FF52CC530F52DC531F52EC514F02FC51A
:1039700015F030C516F031C517F0190E0B6E0C6A34
:103980000D6A0E6A14C006F015C007F016C008F0E4
:1039900017C009F044EC4CF002C014F003C015F05D
:1039A00004C016F005C017F01450151016101710AB
:1039B00075E104015E5171E1DCC463F4DDC464F4BB
:1039C000DEC465F4DFC466F4DFEC20F00401DC053E
:1039D00016E10401635113E162C55AF563C55BF555
:1039E00064C55CF565C55DF52EC55EF52FC55FF553
:1039F00030C560F531C561F50401010E606F040149
:103A0000DD0516E10401645113E162C55AF563C591
:103A10005BF564C55CF565C55DF52EC55EF52FC526
:103A20005FF530C560F531C561F50401010E606FC9
:103A30000401DE0516E10401655113E162C55AF582
:103A400063C55BF564C55CF565C55DF52EC55EF5C2
:103A50002FC55FF530C560F531C561F50401010E74
:103A6000606F0401DF0516E10401665113E162C5D0
:103A70005AF563C55BF564C55CF565C55DF52EC596
:103A80005EF52FC55FF530C560F531C561F5040100
:103A9000010E606F0401010E5E6F02D004015E6BC7
:103AA0002AC52EF52BC52FF52CC530F52DC531F5C2
:103AB0002EC514F02FC515F030C516F031C517F01E
:103AC000CD0E0B6E0C6A0D6A0E6A14C006F015C09E
:103AD00007F016C008F017C009F044EC4CF002C023
:103AE00014F003C015F004C016F005C017F0145010
:103AF0001510161017100BE10401F00508E1040180
:103B0000615104E1CDD90401010E616F02D00401BD
:103B1000616B2AC52EF52BC52FF52CC530F52DC5AB
:103B200031F52EC514F02FC515F030C516F031C58E
:103B300017F0FB0E0B6E0C6A0D6A0E6A14C006F0CD
:103B400015C007F016C008F017C009F044EC4CF09F
:103B500002C014F003C015F004C016F005C017F041
:103B600014501510161017100BE1AB50020B03E1A7
:103B7000AB50040B05E0AB980000AB88AB9EAB8E5E
:103B80002AC52EF52BC52FF52CC530F52DC531F5E1
:103B90002EC514F02FC515F030C516F031C517F03D
:103BA000E80E0B6E030E0C6E0D6A0E6A14C006F062
:103BB00015C007F016C008F017C009F044EC4CF02F
:103BC00002C014F003C015F004C016F005C017F0D1
:103BD000145015101610171001E194D00401625111
:103BE00001E08FD00401FE51FF11001101111DE011
:103BF0000401DC051AE169C4E6FF6AC4E6FF6BC490
:103C0000E6FF6CC4E6FF310EE66E410EE66E65EC33
:103C100040F0146E060EE15C02E2E16AE552E16EEC
:103C20001450F3CF52F5F4CF53F5050102510311AF
:103C3000041105111DE00401DD051AE16DC4E6FF64
:103C40006EC4E6FF6FC4E6FF70C4E6FF320EE66E98
:103C5000410EE66E65EC40F0146E060EE15C02E289
:103C6000E16AE552E16E1450F3CF54F5F4CF55F507
:103C7000050106510711081109111DE00401DE05B7
:103C80001AE171C4E6FF72C4E6FF73C4E6FF74C4B0
:103C9000E6FF310EE66E420EE66E65EC40F0146E05
:103CA000060EE15C02E2E16AE552E16E1450F3CFE8
:103CB00056F5F4CF57F505010A510B110C110D11F2
:103CC0001DE00401DF051AE175C4E6FF76C4E6FFD6
:103CD00077C4E6FF78C4E6FF320EE66E420EE66E6B
:103CE00065EC40F0146E060EE15C02E2E16AE5521A
:103CF000E16E1450F3CF58F5F4CF59F50401010EDD
:103D0000626F02D00401626B2AC52EF52BC52FF518
:103D10002CC530F52DC531F55AC5E6FF5BC5E6FF6C
:103D20005CC5E6FF5DC5E6FF5EC5E6FF5FC5E6FF75
:103D300060C5E6FF61C5E6FF2AC5E6FF2BC5E6FFC5
:103D40002CC5E6FF2DC5E6FF3CD8186E0C0EE15CD5
:103D500002E2E16AE552E16E18505AC50BF05BC50C
:103D60000CF05CC50DF05DC50EF044EC4CF002C0EB
:103D700014F003C015F004C016F005C017F014507D
:103D800015101610171018E10401605114E12EC52A
:103D90005EF52FC55FF530C560F531C561F5EDDA2B
:103DA00006C05AF507C05BF508C05CF509C05DF5B3
:103DB0000401010E606F02D00401606B4BEF19F03B
:103DC0001200B9EC23F0E652E652E652E652FE0E3D
:103DD000186E19681A681B68D950F20FFBEC23F0B3
:103DE000176ED950F60FA5EC24F01450EE5C155068
:103DF000EE581650EE581750EE5811E2FA0EDBCF7F
:103E000018F0FB0EDBCF19F0FC0EDBCF1AF0FD0E25
:103E1000DBCF1BF0D950F60FFBEC23F024D0FE0EC5
:103E20001C6E1D681E681F68D950F60FA5EC24F0A3
:103E3000EE501C5C186EEE501D58196EEE501E5858
:103E40001A6EEE501F581B6ED950FA0FA5EC24F0D5
:103E50001850EE24146E1950EE20156E1A50EE20F4
:103E6000166E1B50EE20176E14C0DFFF010E15C03A
:103E7000DBFF020E16C0DBFF030E17C0DBFFDECF39
:103E800006F0DECF07F0DECF08F0DDCF09F0DD521F
:103E9000DD52040EE15C02E2E16AE552F1EF23F04B
:103EA000B9EC23F00B0EE12402E3E168E652E16E87
:103EB000080EDB6A0F015851020A6AE0030A55E056
:103EC000010A01E075D10401F151640808E2000122
:103ED000B40E726FE20E736F7469756936D0640E3A
:103EE000F15D2CE0F1C472F00001736B746B756BC3
:103EF0000E0ED8907237733774377537E806F9E1CC
:103F0000640E0B6E0C6A0D6A0E6A72C006F073C006
:103F100007F074C008F075C009F049EC3CF006C029
:103F200072F007C073F008C074F009C075F0200E7D
:103F30000001735F000E745B755B07D00001780EA3
:103F4000726F1E0E736F746B756B72C076F073C0F8
:103F500077F074C078F075C079F0640E7627000EA3
:103F600077237823792371691FD10001712B060E05
:103F7000715D07E17CEC49F00401F06B0F01586BB7
:103F800018D1900E7A6F010E7B6F0F01020E0ED1C9
:103F90000EEC24F00AE14DEC24F0100E59EC24F064
:103FA000040EF36EDB6E050EDB6A0EEC24F00108E6
:103FB00008E14DEC24F0130E59EC24F0050E68ECEA
:103FC00024F00EEC24F0020808E14DEC24F0150E6C
:103FD00059EC24F0060E68EC24F0030E0001E76EA5
:103FE0007119E8AE02D0E73402D0E750715D02E209
:103FF000010E01D0020EF36E0A0EF3CFDBFF050EA9
:104000007A27000E7B23CFDB02E2E16AE552E16E04
:104010001450020E6FEC24F0C6DB02E2E16AE552B6
:10402000E16E1450090EDB6A020E6FEC24F084DBA3
:10403000F3CFDEFFF4CFDDFF010E6FEC24F0DECF17
:1040400014F0DDCF15F014C0E6FF15C0E6FF74DBF9
:104050001BEC24F01E0E165E000E175A1750151892
:10406000E8AE02D0153404D01450165C1550175821
:1040700022E2DECF18F0DDCF19F018C0E6FF19C03C
:10408000E6FF5ADBE3DB1E0E1A26000E1B22195038
:104090001B18E8AE02D01B3404D01A50185C1B5019
:1040A000195809E2140EF36E090E5EEC24F003E2D7
:1040B000090EDB2AC4D7140EF36E090E5EEC24F051
:1040C00002E2090EDB6A090EDB501408ADE1DECF17
:1040D00014F0DDCF15F0166A176A15AE02D0166817
:1040E0001768175000017519E8AE02D0753508D071
:1040F0007251145C735115587451165875511758F4
:104100003EE3DECF18F0DDCF19F01A6A1B6A19AE54
:1041100002D01A681B681B507919E8AE02D07935B5
:1041200008D07651185C7751195878511A5879513E
:104130001B5825E20F01010E586F71C014F0156A6B
:1041400014BE1568D89014361536780ED8801456DB
:10415000050E1556060E14C0DBFF070E15C0DBFF5B
:10416000060EDBCFE9FF070EDBCFEAFF7AC0EEFFDA
:104170007BC0EDFF190EF36E080EF3CFDBFF080EC8
:10418000DB2A190EF36E080E99DB07E20001000E20
:104190007A5D040E7B5901E232D70001000ED8800F
:1041A0007A55040E7B5505E20F01010E586F01D0C0
:1041B000586B0B0EE15C02E2E16AE55212D3D9DAE8
:1041C000100EE12402E3E168E652E16E080EDB6ABC
:1041D000090EDB6A0A0EDB6A0B0EDB6ADE6ADD6A39
:1041E000020EDB6A040EF36E020E68DB01E3BFD041
:1041F00038DBEA22EF5001E0B7D0030EDB6AAFDB19
:10420000EECF16F0EFCF17F01650145C175015587C
:1042100009E277DB9FDB1A6A1B6A6BDA6EDA010E42
:1042200048DB06D066DA96DB1A6A1B6A6ADB65DA57
:10423000020EEA6ADB34FE0BEA36E96ED40EE9269A
:10424000040EEA22EECF06F0EFCF07F0086A096A03
:10425000020ED8900636073608360936E806F9E128
:10426000190E0B6E0C6A0D6A0E6AD7EC4BF002C089
:1042700006F003C007F004C008F005C009F0E80E1E
:104280000B6E030E0C6E0D6A0E6A44EC4CF0040EBD
:1042900006C0DBFF050E07C0DBFF060E08C0DBFF14
:1042A000070E09C0DBFFE4DAEA22EF5051E1E7DA5A
:1042B000060EDBCF16F0070EDBCF17F0D9500C0F30
:1042C000E96E000EDA20EA6EEE50145CEE501558DE
:1042D000EE501658EE50175819E313DBF4DA09DAEA
:1042E00014C0EEFF15C0EDFF020EDB504E0FE66E60
:1042F000E66AC7EC49F0E552E552000902E1B1DA9D
:1043000001D0B6DAEA22010EEF6E12D0030EDB0402
:1043100006E1B5DAEED91450EE261550ED22030E63
:10432000DB5006E1ACDAE5D91450EE5E1550ED5ADB
:10433000E0D9EECFE6FFEFCFE6FF020EDB50100D27
:10434000F350E66EE7EC33F0E552E552E5520CD05F
:1043500006DB14C0EEFF15C0EDFF83DAEA22010E82
:10436000EF6E86DAEA22EF6A020EDB2A3BD7100EE6
:10437000E15C02E2E16AE55234D2FBD91C0EE12491
:1043800002E3E168E652E16E140E52C5DBFF150E42
:1043900053C5DBFF160E54C5DBFF170E55C5DBFFFB
:1043A000180E56C5DBFF190E57C5DBFF1A0E58C590
:1043B000DBFF1B0E59C5DBFF020EDB6A380E040162
:1043C000C35D01E060D1DF6A040EDF5C01E35BD115
:1043D000DF50EA6ADC0FE96E040EEA22EF0401E026
:1043E00050D1DF5091DA22DAEE50ED1001E149D1DF
:1043F000DF50EA6A4C0FE96E0F0EEA22130EEFCF80
:10440000DBFF06DA500EE9260F0EEA22010EEFCF8F
:10441000DBFFD950140F146E000EDA20156EDF503A
:10442000020D1450F324E96E1550F420EA6E0B0EC1
:10443000EECFDBFF0C0EEDCFDBFF0B0EDBCF14F06E
:104440000C0EDBCF15F014C0E6FF15C0E6FFFDEC47
:1044500012F0F1D91450F35C1550F45801E311D166
:104460000B0EDBCF18F00C0EDBCF19F018C0E6FFF7
:1044700019C0E6FFF3EC12F0E9D9F350185CF450E0
:10448000195801E3FED05CDA7DD9280E0C6E6B0E54
:104490000D6E6E0E0E6E4E0E0F6E9CEC3BF05BD9E9
:1044A0000B0EDBCF08F00C0EDBCF09F09DEC3AF0E1
:1044B00007C018F008C019F009C01AF00AC01BF0B4
:1044C00097D949EC3BF047D9C00E0C6EA30E0D6E88
:1044D0001B0E0E6E4B0E0F6E21DAB2EC3AF004DAC0
:1044E00097D9E00EE926040E4DD91E6A1F6A800E88
:1044F000206E3F0E216EC00E076EA30E086E1B0EBF
:10450000096E4B0E0A6E030EDBCF0CF0040EDBCFF0
:104510000DF0050EDBCF0EF0060EDBCF0FF049ECF1
:104520003BF007C022F008C023F009C024F00AC005
:1045300025F0FDD91EC007F01FC008F020C009F00B
:1045400021C00AF0B3EC3AF007C01AF008C01BF023
:1045500009C01CF00AC01DF04BD99CEC3BF0070EC3
:1045600007C0DBFF080E08C0DBFF090E09C0DBFF38
:104570000A0E0AC0DBFF070EDBCF07F0080EDBCF09
:1045800008F0090EDBCF09F00A0EDBCF0AF0C8EC09
:104590003CF00D0E08C0DBFF0E0E09C0DBFFD0D9CA
:1045A000EA2291D90D0EDB50141803E10E0EDB50F8
:1045B000151867E06BD9EE50ED1056E0010EDB04E4
:1045C0000BE10D0EDBCF14F00E0EDBCF15F02D0E30
:1045D000145C010E15580FE3010EDB50020819E1BF
:1045E0000D0EDBCF16F00E0EDBCF17F0910E165C22
:1045F000010E17580EE257D90D0EDBCFE6FF0E0E57
:10460000DBCFE6FF010EE2D802E2E16AE552E16E9D
:104610001450010EDB0412E139D92C0ED880EE546F
:10462000010EED540BE23FD92C0EE66E010EE66E44
:10463000CDD802E2E16AE552E16E1450010EDB5082
:10464000020812E123D9900ED880EE54010EED54E9
:104650000BE229D9900EE66E010EE66EB7D802E2A3
:10466000E16AE552E16E14506BD9EA220D0EDBCF00
:10467000EEFF0E0EDBCFEDFF010EF36E020EF3CF59
:10468000DBFFDF2AA1D6020EDB040DE10F0E62C5AF
:10469000DBFF100E63C5DBFF110E64C5DBFF120EDE
:1046A00065C5DBFF0CD00F0E66C5DBFF100E67C5BE
:1046B000DBFF110E68C5DBFF120E69C5DBFF0F0EB5
:1046C000DBCF14F0100EDBCF15F0110EDBCF16F0A0
:1046D000120EDBCF17F014C006F015C007F016C09D
:1046E00008F017C009F01C0EE15C02E2E16AE55235
:1046F00078D0020EDB5084EF24F0EECF1CF0EFCF29
:104700001DF01E6A1F6A1C50185C146E1D5019584B
:10471000156E1E501A58166E1F501B58176E0C0E31
:1047200014C0DBFF0D0E15C0DBFF0E0E16C0DBFF45
:104730000F0E17C0DBFF1200020EDBCFE6FF030EE9
:10474000DBCFE6FF0A0EDBCFE6FFA1EC44F0E5523B
:10475000E552E5521200C8D8030EDBCF14F0040E68
:10476000DBCF15F0050EDBCF16F0060EDBCF17F012
:104770001200D9CFE6FFDACFE6FFE1CFD9FFE2CFD3
:10478000DAFF1200EA22E6D818C008F019C009F0D2
:104790009DEC3AF007C014F008C015F009C016F0FF
:1047A0000AC017F012007AC0E6FF7BC0E6FF040ED5
:1047B000DBCFE6FF050EDBCFE6FF0A0EDBCFE6FF21
:1047C00001EC45F0146E050EE15C1200DBCFE6FF54
:1047D000130EDBCFE6FFDCEC34F0146E080EE15C68
:1047E0001200E16EE552E5CFDAFFE7CFD9FF120004
:1047F0009ED88EEF24F0A9D8EE50185C146EEE50BF
:104800001958156EEE501A58166EEE501B581200BD
:10481000EA6ADF34FE0BEA36E96E120071C009F075
:10482000030E0E6E09EC3CF005501200020EE92654
:10483000000EEA221200E552E7CF15F0E552E7CF6D
:1048400014F0F3CF16F0F4CF17F01200E552E7CFD3
:1048500019F0E552E7CF18F0F3CF1AF0F4CF1BF0C0
:104860001200020EDB50EA6ADC0FE96E040E120041
:10487000020EDB50EA6A590FE96E0F0E1200040EA9
:10488000DBCF14F0050EDBCF15F01200D9500D0F61
:10489000E96E000EDA20EA6E1200360EF36E020E9A
:1048A000F3CFDBFF1200050EE66EE66AE66AE66A03
:1048B0001200F36E030EF3CFDBFF1200DBCFF4FF29
:1048C000F350F45C1200EECF14F0EFCF15F01200AD
:1048D000F36E040EF3CFDBFF050EDB6A1200E66E0B
:1048E0005EEC4DF0E5521200030E07C0DBFF040E34
:1048F00008C0DBFF050E09C0DBFF060E0AC0DBFFA8
:104900001200F7DE16EF24F0040DF3CFE9FFF4CF29
:10491000EAFFC40EE926040EEA22120014C007F0D2
:1049200015C008F016C009F017C00AF0120007C041
:104930000CF008C00DF009C00EF00AC00FF0120014
:1049400067DFE80EE926040E1200E96EFF0EDA209A
:10495000EA6E1200EECF18F0EFCF19F01200C9DEA8
:06496000B2DF81EF24F03C
:0A496600CEEC2AF0DF6A8050010B4E
:10497000DF128050020B01E0010EE824DF128050AC
:10498000040B01E0010E040DF350DF12DF50E5527D
:1049900074EF29F0CEEC2AF0DF6A000EF36EFD0E04
:1049A000DBCFF4FFF350F45C08E3FD0EDB500908A5
:1049B00004E3FD0EDB50300FDF6EFD0EDB50090807
:1049C00005E2FD0EDB50F60F410FDF6EDF50E552C2
:1049D00074EF29F0CEEC2AF0E652E652010EDB6AC3
:1049E000F00EF36E020EF3CFDBFFDF6A040EDF5C26
:1049F0003EE2010EDBCF1AF0020EDBCF1BF0040EFD
:104A0000DF02F3501AC018F01BC019F005E0D8906F
:104A100019321832E804FBE1FC0EDB501814166E54
:104A2000FD0EDB501914176E030ED880DF54040DF1
:104A3000F35016C014F017C015F003E085EC2AF00F
:104A4000FDE11450E66EA6DFE552E66EDF50E76E3C
:104A5000FA0EDBCFE9FFFB0EDBCFEAFFE750E926DA
:104A6000000EEA22E552E750EF6EDF2ABFD7E5528B
:104A7000E552E55274EF29F0CEEC2AF0E652E65208
:104A8000E652E652D950010FE66E000EDA20E66ECD
:104A9000FC0EDBCFE6FFFD0EDBCFE6FF9BDFE55232
:104AA000E552E552E552DF6A040EDF5C12E2D950AE
:104AB000010F146E000EDA20156EDF500F01142462
:104AC000E96E000E1520EA6EEF503FEC2AF0DF2A67
:104AD000EBD7000E146E050EE15C02E2E16AE552CE
:104AE000E16E145074EF29F0CEEC2AF01F0EDF6E49
:104AF000DFCF14F0143423E2D950FA0FE96EFF0E21
:104B0000DA20EA6EDF501F0BEECF14F0EECF15F077
:104B1000EECF16F0EECF17F007E0D890173216322E
:104B200015321432E806F9E1010E1416156A166AF8
:104B3000176A300E14243FEC2AF0DF06D9D7000E96
:104B4000E552D2D3A2EC2AF054EC2AF004E6100E7F
:104B5000145C000E155827E2FC0EDBCF16F0FD0E9C
:104B6000DBCF17F0DECF18F0DDCF19F00F0ED880B5
:104B70001856000E1956185016C014F017C015F02C
:104B800003E085EC2AF0FDE1010E1416000E151667
:104B9000300E14243FEC2AF0ACA2FED7DF2A010E1F
:104BA000D3E3DB2AD1D7000EE552E5529DD3A2EC28
:104BB0002AF054EC2AF004E6080E145C000E155896
:104BC0001EE2DECF14F0DDCF15F0070ED8801456AC
:104BD000000E1556FD0EDB5014C0E7FFE75204E04F
:104BE000E8427F0BE706FCE1010B300F3FEC2AF0B7
:104BF000ACA2FED7DF2A010EDCE3DB2ADAD7000EF7
:104C0000E552E55271D367DB0E0EE12402E3E16861
:104C1000E652E16EFA0EDBCF16F0FB0EDBCF17F09B
:104C20005BEC2AF00A0E0D6E0E6A18C008F019C06F
:104C300009F0A3EC4DF008C018F009C019F00A0EF5
:104C4000086E096A18C00DF019C00EF0AAEC3CF00D
:104C50000650165C146E07501758156E080E14C0D7
:104C6000DBFF090E15C0DBFF5BEC2AF062EC2AF0DB
:104C7000640E0D6E0E6A1AC008F01BC009F0A3EC9A
:104C80004DF008C01AF009C01BF0640E086E096AE6
:104C90001AC00DF01BC00EF091EC2AF0060E14C0E5
:104CA000DBFF070E15C0DBFF0A0E146E156A060E39
:104CB000DBCF08F0070E57DB060E08C0DBFF070E40
:104CC00009C0DBFF62EC2AF069EC2AF0E80E0D6EF9
:104CD000030E0E6E1CC008F01DC009F0A3EC4DF0D1
:104CE00008C01CF009C01DF0E80E086E030E096E26
:104CF0001CC00DF01DC00EF0FDDA040E14C0DBFF69
:104D0000050E15C0DBFF640E146E156A040EDBCFB2
:104D100008F0050E28DB040E08C0DBFF050E09C0F5
:104D2000DBFFD7DBFA0EDBCF1EF0FB0EDBCF1FF075
:104D3000100E0D6E270E0E6E1EC008F01FC009F07B
:104D4000A3EC4DF008C01EF009C01FF0100E086E55
:104D5000270E096E1EC00DF01FC00EF0AAEC3CF02D
:104D600006501C5C1A6E07501D581B6E640E086EB0
:104D7000096A040EDBCF0DF0050EDBCF0EF0BADAB8
:104D8000020E14C0DBFF030E15C0DBFFE80E146E2D
:104D9000030E156E020EDBCF08F0030EE4DA020EEE
:104DA00008C0DBFF030E09C0DBFF100E146E270ED8
:104DB000156EFA0EDBCF08F0FB0ED5DA08C0DEFF69
:104DC00009C0DDFF0A0EDB6A0B0EDB6A0C0EDB6A24
:104DD0000D0EDB6ABCDBEF5006E00A0EDB2A0B0E81
:104DE000F9E3DB2AF7D7D9CF14F0DACF15F0A2DA3E
:104DF00014500624E96E15500720EA6EEE50ED10AF
:104E000011E10C0EDBCF16F00D0EDBCF17F0050E07
:104E1000165C000E175806E20C0EDB2A0D0EE3E3BB
:104E2000DB2AE1D7FFDA2BE2FDDA2DE298DBEECFC9
:104E300014F0EFCF15F0000E145C000E155819E3B6
:104E4000D9CF18F0DACF19F075DA18500624E96EC8
:104E500019500720EA6E090ED880EE54000EED546A
:104E600008E37DDBEF50300FE66EC0DA01E3DB2AAA
:104E700053DB0C0EDB2A0D0ED7E3DB2AD5D7B6DACF
:104E800001E3DB2A80DBF90EDB5004E0AFDA01E35B
:104E9000DB2A74DB5CDBEF6A0E0EE15C02E2E16AA6
:104EA000E552E16E21D217DA070EE12402E3E16850
:104EB000E652E16EFB0EDBCFE6FF0A0E8EDA0A0D3C
:104EC000F350E552E75CE76E020EE7CFDBFFDBCF86
:104ED000E6FFFB0EDBCFE6FF640E7FDA640DF350D6
:104EE000E552E75CE552D880E754E76E010EE7CF64
:104EF000DBFF0A0E146E0E6E010EDBCF09F0E5EC3F
:104F00004DF0010E09C0DBFF640E67DA640DF3504B
:104F1000DF6E030EDB6A040EDB6A050EDB6A060E2B
:104F2000DB6A24DBEF5006E0030EDB2A040EF9E314
:104F3000DB2AF7D720DAEF5011E1050EDBCF16F0B0
:104F4000060EDBCF17F0030E165C000E175806E2B4
:104F5000050EDB2A060EEEE3DB2AECD76BDA1AE24B
:104F600069DA1CE208DAEFCF14F0000E145C0CE3EF
:104F700002DAEF50090808E3FED9EF50300FE66E71
:104F80003DDA01E3DB2AC8DA050EDB2A060EE8E388
:104F9000DB2AE6D733DA01E3DB2AF5DAFA0EDB5057
:104FA00007E02CDA01E3DB2A8DD9FA0EDBCFEFFF25
:104FB000DDDAEF6A070EE15C02E2E16AE552E16EDA
:104FC00093D189D93FDAE3DAEF5006E0020EDB2A0B
:104FD000030EF9E3DB2AF7D740DAE96EDD5015203E
:104FE000EA6EEF5012E083DA01E3DB2AFA0EDB50BF
:104FF0001624E96EFB0EDB501720EA6EEF50E66ECA
:10500000C3D901E3DB2A88DAE7D7F90EDB5004E0E5
:10501000BBD901E3DB2AB2DABADAEF6A040EE15C4B
:1050200002E2E16AE552E16E5FD155D90BDAAFDAFF
:10503000EF5006E0020EDB2A030EF9E3DB2AF7D776
:105040000CDAF66EDD501520F76E0800F55013E00F
:105050004EDA01E3DB2AFA0EDB501624F66EFB0E65
:10506000DB501720F76E0800F550E66E8DD901E38E
:10507000DB2A52DAE5D7F90EDB5004E085D901E3EB
:10508000DB2A7CDA84DAEF6A040EE15C02E2E16A90
:10509000E552E16E29D156DA40D9EF5005E0DF2A1A
:1050A000010EFAE3DB2AF8D757D901E3DB2A0AD944
:1050B000FB0EDBCFEFFFFA0EDB5007E04DD901E32B
:1050C000DB2A00D9FA0EDBCFEFFF27D9EF6AE552D2
:1050D000E5520AD100D9090EE12402E3E168E65263
:1050E000E16E020EDB6A030EDB6ADE6ADD6A15D949
:1050F000EF5005E0DF2A010EFAE3DB2AF8D7FA0EBB
:10510000FB0EDBCF15F0000EF00E151615380F0B49
:10511000146E050E14C0DBFFFA0EFB0EDBCF15F08C
:10512000000E0F0E151615C014F0156A060E14C0E9
:10513000DBFFF00EA9D9156A040EE7D9FEE1070ED0
:1051400014C0DBFF0F0EA0D9080E14C0DBFFD9502E
:10515000050F146E000EDA20156E020EDB501424BB
:10516000E96E030EDB501520EA6EEF500BE194D987
:10517000165C000E175806E2020EDB2A030EE7E368
:10518000DB2AE5D7E2D8C6D96CE270D902E1FF0E7E
:10519000ED1825E0B3D980D9D8801656000E1756E1
:1051A0001450165C155017581AE2CFD8040ED88048
:1051B0001456000E1556040E14C0DBFF27D9E8AEB6
:1051C00002D0173404D01650145C1750155807E25B
:1051D000C3D801E3DB2AD7D9040EDB2AEFD7B5D831
:1051E00099D95DE2D9D8143422E2D950050F186E4E
:1051F000000EDA20196E020EDB501824E96E030E41
:10520000DB501920EA6EEFCF17F0090EE76E171882
:10521000E8AE02D0173403D0E750D880175407E324
:10522000CCD8300FE66E98D801E3DB2A75D9B4D814
:10523000090EE76E1418E8AE02D0143403D0E7501C
:10524000D880145408E2B9D8410FF60FE66E84D81E
:1052500001E3DB2A61D9020EDB2A030EC0E3DB2A5D
:10526000BED704D902E1FF0EED1819E047D9D89056
:10527000155001E64FD913E2040EDB6AC7D8E8AE39
:1052800002D0173404D01650145C1750155807E29A
:1052900063D801E3DB2A77D9040EDB2AEFD7F70EB8
:1052A000DB5007E059D801E3DB2A0CD8F70EDBCF3F
:1052B000EFFF33D8EF6A090EE15C02E2E16AE552E2
:1052C000E16E12D0FC0EDB501424E96EFD0EDB50B3
:1052D0001520EA6E1200D9CFE6FFDACFE6FFE1CF64
:1052E000D9FFE2CFDAFF1200E552E5CFDAFFE7CFD0
:1052F000D9FF1200AAEC3CF006501A5C186E075059
:105300001B58196E0A0E086E096A060EDBCF0DF0E7
:10531000070EDBCF0EF091EF2AF0FC0EDBCF14F07E
:10532000FD0EDBCF15F0DE501424E96EDD501520A4
:10533000EA6E1200020E086E096A0C0EDBCF0DF049
:105340000D0EDBCF0EF0AAEF3CF0020EDBCF14F017
:10535000030EDBCF15F01200DFCF14F0DF2A010EB1
:10536000DBCF15F01200DBCF09F014C00DF015C033
:105370000EF0A3EF4DF0050EDB50D924E96E060EBA
:10538000DB50DA20EA6E1200020EDBCF14F0DB2ACB
:10539000030EDBCF15F01200D950050F156E000E6D
:1053A000DA20166E020EDB501524E96E030EDB5078
:1053B0001620EA6EEFCF14F01200D950050F166ECA
:1053C000000EDA20176E020EDB501624E96E030E73
:1053D000DB501720EA6EEF501200146E0E6EFB0EBB
:1053E000DBCF09F0E5EC4DF0095012000A0EDBCFDF
:1053F00014F0DB2A0B0EDBCF15F01200030EDBCF0F
:1054000014F0DB2A040EDBCF15F01200DB50146E13
:10541000156AF80EDBCF16F0F90EDBCF17F015503A
:10542000171812000C0EDBCF14F00D0EDBCF15F0A9
:10543000050EB0D0050EDBCF14F0060EDBCF15F055
:10544000030EA8D0E652E652E652E652DE6ADD6A64
:10545000020EDB6A030EDB6A1200FA0EDBCF14F0D9
:10546000FB0EDBCF15F0DE5014241200D950F80FDC
:10547000E96EFF0EDA20EA6EFF0EEE181200E66EFD
:1054800075EC4DF0E5521200E76EFA0EDBCF14F02A
:10549000FB0EE75014161200020EDBCF16F0030EBF
:1054A000DBCF17F0040E1200DECF14F0DDCF15F0C5
:1054B000D89015501200FA0EDBCF18F0FB0EDBCFA0
:1054C00019F01200FA0EDBCF1AF0FB0EDBCF1BF047
:1054D0001200FA0EDBCF1CF0FB0EDBCF1DF012002A
:1054E00016500624E96E17500720EA6E1200DFCF2F
:1054F00016F0DF2A010EDBCF17F01200F80EDBCF1B
:1055000014F0F90EDBCF15F01200D89015321432DA
:10551000E8041200040E3ED0D5DEE552E750EF6EEF
:105520001200AAEC3CF00650185C166E0750195891
:10553000176E080EDB50165C146E090EDB50175800
:10554000156E12002BD8E652DE6ADD6A12000A0ED2
:10555000DBCF14F00B0EDBCF15F062EF29F0D9CFC3
:1055600016F0DACF17F0E6DE70EF2AF0030EDBCF8D
:1055700014F0040EDBCF15F062EF29F0A3DEF90E74
:10558000DBCFEFFF12009EDE300EEF6E1200DDDE8D
:1055900062EF29F0145C000E155812009CDEE652F2
:0255A0001200F7
:0E55A200D9CFE6FFDACFE6FFE1CFD9FFE2CFA7
:1055B000DAFF0E0EE12402E3E168E652E16E050136
:1055C0002A6B2B6B2C6B2D6B0501160E266F0501BC
:1055D0003F0E276F0501400E246F0501900E256FC9
:1055E0000501400E286F060E05011E6F1F6B050199
:1055F000200E206F030E216F0501200E226F030E77
:10560000236F46EC2FF0A1DB10E295EC2FF06C0E2F
:105610001426010E1522C1EC2FF07BEC2FF0020EA8
:10562000DB2A030EF0E3DB2AEED76D0E9CEC2FF0A5
:105630006C0E9FEC2FF004011424F66F000E152061
:10564000F76F6F0E9CEC2FF06E0E9FEC2FF00401A5
:105650001424F86F000E1520F96F710E9CEC2FF0DA
:10566000700E9FEC2FF004011424FA6F000E152029
:10567000FB6F730E9CEC2FF0720E9FEC2FF0040169
:105680001424FC6F000E1520FD6F04012C0ED88031
:10569000F655010EF75504E250EC2FF0410E8BDB6E
:1056A0000401900ED880F855010EF95504E255EC2E
:1056B0002FF0410E80DB0401C80ED880FA55000E91
:1056C000FB5503E2EDDB420E76DB04015E0ED88073
:1056D000FC55010EFD5503E2E8DB420E6CDB750E56
:1056E000A6EC2FF0740EFDDAA6DB00011624146E72
:1056F000000E1720156E060E14C0DBFF070E15C036
:10570000DBFF770EA6EC2FF0760EEBDA94DB162497
:10571000146E000E1720156E080E14C0DBFF090E64
:1057200015C0DBFF080EDBCF14F0090EDBCF15F040
:10573000060EDBCF16F0070EDBCF17F01450165C09
:105740001550175808E2D950080F7CDB04E0D950F7
:10575000060F78DB26E10501300E626F750E636F70
:10576000646B656B0501E00E666F930E676F040E48
:10577000686F696BC5DB9EDBA4DBFEE11450E66E4F
:10578000750EB5DBBDDB44DB740EC5DA93DB99DB4C
:10579000FEE11450E66E770EBEDA3ADB760EA7DB3A
:1057A00028D0060EDBCF62F5070EDBCF63F50501CF
:1057B000646B656BBCDAD7EC4BF002C062F503C0DA
:1057C00063F504C064F505C065F5080EDBCF66F52A
:1057D000090EDBCF67F50501686B696B7EDBD7ECE3
:1057E0004BF002C066F503C067F504C068F505C05C
:1057F00069F50401F26B0401F36B0401F46B04011D
:10580000F56B0401E00EBC6F0401120EBD6F0401C4
:10581000BA6B04013F0EBB6F0401900EBF6F040111
:10582000070EBE6F0401800EC16F04017C0EC06FB5
:105830000401070EC26FBBC492FFBAC480FFBDC48F
:1058400093FFBCC481FFBFC494FFBEC482FFC1C428
:1058500095FFC0C483FF966EE00E7E6E7F6AA40E35
:10586000C06EC16A05016A6B6B6BAC6AAB6AAC84D3
:10587000210EAF6EB06AAC98AC8AAB8EAB88750E59
:10588000E66E89EC4CF0E5524D0EE66E68EC4CF09D
:10589000E552A282A092E66A020E8DDB0FEC4CF07C
:1058A000E552E552E552B2EC33F042EC40F0000E26
:1058B000E66EE66AE66AE7EC33F0E552E552E55259
:1058C000E5DA43DA37E206DA020E20DAFEE1C40E48
:1058D000E926040E20DB020E19DAFEE1C40EE926E9
:1058E000040EEA22020EE926000E15DB010E0EDA86
:1058F000FEE1D40EE926040E0EDBDC0EE926040ED2
:10590000EA22010EEF6EE6D9010E00DAFEE1E00EAA
:10591000E926040E00DB010EF9D9FEE1E80EE926C6
:10592000040EEA22EE6AED6A020EDB2A030EC9E3D8
:10593000DB2AC7D70401F06B0401650EF16FC4C404
:10594000E6FFC5C4E6FF100E49DAC8C4E6FFC9C4C5
:10595000E6FF200E43DACCC4E6FFCDC4E6FF300EEE
:105960003DDAD0C4E6FFD1C4E6FF400E37DA0401C9
:10597000FE6BFF6B006B016B0501026B036B046B2D
:10598000056B0501066B076B086B096B05010A6B5C
:105990000B6B0C6B0D6B05010E6B0F6B106B116BB2
:1059A0000501126B136B146B156B0501166B176BEE
:1059B000186B196B05011A6B1B6B1C6B1D6B0501BA
:1059C000526B536B0501546B556B0501566B576B4E
:1059D0000501586B596B0501296B58DAB6D901E3FB
:1059E0008BD0A3DA090E1502F3CF15F01402F3CF12
:1059F00014F0F45015260D0E3FDA320EE76E020E4B
:105A0000DBCF14F0030E9DD938086FE1020EDBCF17
:105A100008F0030EDBCF09F0081801E1095029E076
:105A2000020E081801E109501BE0010E081801E1FF
:105A300009500DE0085026E1095024E183DAFE0EFA
:105A4000EE6E040E6DDA0E0EEE6E050E1AD07ADAD8
:105A5000020EEE6E050E64DA120EEE6E050E11D019
:105A600071DA060EEE6E050E5BDA160EEE6E050EA0
:105A700008D068DA0A0EEE6E050E52DA1A0EEE6ED5
:105A8000050EED6EE6D9F3D9EBD9F1D9040EDBCFD3
:105A9000DEFFDBCFDDFF1CDA040EE76E65D90CE21A
:105AA00023D976D902E09ED9FEE1D3D98ED9D1D9B6
:105AB0006DDAF1E3DB2AEFD7040EE76E9AD908DA44
