:04000000FEEF7FF0A0
:101000000031312C30362C323032362C4E6577435D
:10101000616C6962726174696F6E00766172696198
:101020006E743D006D6F6E74683D00796561723D50
:101030000074656C3D006461793D00302C30004ED9
:031040004300006A
:1010440042EC0FF02BEC60F0E7EC5FF0310E016E38
:10105400070E026E0EEC60F0280E016E060E026E94
:101064000EEC60F07DEC52F0000E0001746F000E87
:10107400756F000E766F000E776FBB6BBA6BB96B32
:10108400B86BB76BB66B000E0101706F000E716F19
:10109400000E726F000E736F000E6C6F000E6D6F9A
:1010A400000E6E6F000E6F6F000E686F000E696F9A
:1010B400000E6A6F000E6B6F000E646F000E656F9A
:1010C400000E666F000E676FC6EF08F081EC5CF0EF
:1010D4000101FC6FD890FC3500018C6F8D6B8D374E
:1010E400086A020E076E8CC009F08DC00AF0010E6A
:1010F40037EC54F0086A020E076E010E00018C25CD
:10110400096E000E8D210A6E020E37EC54F0086A47
:10111400020E076E010ECFEC56F007C08EF108C028
:101124008FF1086A020E076E020ECFEC56F007C06C
:101134008CF108C08DF100018C5101018E1909E177
:1011440000018D5101018F19D8A4ABEF08F0ADEF68
:1011540008F0C6EF08F0010E00018C250101FC6FB8
:10116400000E00018D210101FD6F8C51FC1907E176
:101174008D51FD19D8A4C1EF08F0C3EF08F0C6EFF4
:1011840008F0010E0001A46F0001A451D8B4CDEF02
:1011940008F0CFEF08F068EF08F072EC47F09A0E11
:1011A4001B6E010E1C6ED9EC26F0010E0001FF6FC0
:1011B400B46B030EB465E1EF08F0E3EF08F0E5EF7C
:1011C40008F0FAEF08F0B451020D9A0EF324D96E28
:1011D400010EF420DA6EDE50DE10D8A4F4EF08F02D
:1011E400F6EF08F0F7EF08F0FF6BB42BDBEF08F035
:1011F400FF51D8B400EF09F002EF09F004EF09F051
:101204001EEC4AF00001FF51D8B40BEF09F00DEFCA
:1012140009F0CFEF08F0380EBD19D8A414EF09F087
:1012240016EF09F009EF0AF0B46B030EB4651DEF75
:1012340009F01FEF09F021EF09F009EF0AF0B451AA
:10124400040DF350620FD96EDA6ADE6ADD6AB451B6
:10125400040FC76FC70E1B6ED7EC48F01BC08EF08F
:101264001CC08FF08EC001F08FC002F0046A0A0E19
:10127400036E7EEC5AF001C08EF002C08FF00001C4
:101284008F5109E1040E8E5DD8A04BEF09F04DEFAC
:1012940009F0EEEF09F0B451D8B453EF09F055EF6B
:1012A40009F05EEF09F0020EB419D8A45CEF09F05E
:1012B4005EEF09F095EF09F08EC001F08FC002F0E7
:1012C400036A046A2C0E056E270E066E020E076E64
:1012D400000E086E59EC5BF001C00DF002C00EF078
:1012E40003C00FF004C010F0E80E116E030E126E6E
:1012F400000E136E000E146ECAEC57F00DC060F1B0
:101304000EC061F10FC062F110C063F10001B4516D
:10131400020D4C0EF324D96E010EF420DA6E830E06
:10132400DE6E050EDD6EB405D8B49BEF09F09DEFBB
:1013340009F0A6EF09F0030EB419D8A4A4EF09F03C
:10134400A6EF09F0DDEF09F08EC001F08FC002F0C6
:10135400036A046A680E056E550E066E010E076E6A
:10136400000E086E59EC5BF001C00DF002C00EF0E7
:1013740003C00FF004C010F0E80E116E030E126EDD
:10138400000E136E000E146ECAEC57F00DC060F11F
:101394000EC061F10FC062F110C063F10001B451DD
:1013A400020D4C0EF324D96E010EF420DA6E6A0E8F
:1013B400DE6E030EDD6EB451040DF350600FD96E72
:1013C400DA6A60C1DEFF61C1DDFFB451840FD96EFA
:1013D400DA6ADF6A06EF0AF0B451040DF350600FC5
:1013E400D96EDA6ADE6ADD6AB451020D4C0EF3245A
:1013F400D96E010EF420DA6EDE6ADD6AB451840F10
:10140400D96EDA6A010EDF6EB42B17EF09F0996B0F
:10141400000E986FD09EF28EF28C9D8A000E14EC12
:1014240060F0FA0ECB6E7CC07CF17DC07DF17EC095
:101434007EF17FC07FF1000E0101786F000E796F9D
:10144400000E7A6F000E7B6F000E066E040E076EA0
:10145400C50E086EDE0E096E010E0A6E9CEC40F09D
:1014640006C084F107C085F1010184518511D8A417
:101474003EEF0AF040EF0AF043EF0CF00001C651D2
:1014840009E1090EC55DD8A04AEF0AF04CEF0AF055
:1014940043EF0CF00E6A000E0D6E310E0F6E070E48
:1014A400106EC5C011F0C6C012F0DEC113F0DFC16A
:1014B40014F0A5EC4EF031C7B3F0310E0A6E070EEE
:1014C4000B6E1EEC5DF00AC088F10BC089F135C7C4
:1014D400B2F036C7B1F0310E016E070E026EEEECBB
:1014E4005AF00001AE6F310E096E070E0A6E000E3F
:1014F4000B6E030E0C6E07EC52F0310E0A6E070EE3
:101504000B6E8EEC5BF00AC08AF00BC08BF081ECA2
:101514005CF0300F0001B219D8A493EF0AF095EFF4
:101524000AF043EF0CF00101B26B0001AE51D8B4E4
:101534009EEF0AF0A0EF0AF0D9EF0AF0B20E016EA6
:10154400010E026E88C103F089C104F0066A030E1D
:10155400056E000E076EDCEC37F0B20E016E010E64
:10156400026EB2C003F0000E046E45EC5AF0B20EE7
:10157400016E010E026EB1C003F0000E046E45EC64
:101584005AF0B20E016E010E026EAEC003F0000EF0
:10159400046E45EC5AF0B20E016E010E026E230E7B
:1015A400036E000E046E45EC5AF0FCEF0AF0B20E26
:1015B400016E010E026E88C103F089C104F0066A4F
:1015C400030E056E000E076EDCEC37F0B20E016EF2
:1015D400010E026EB2C003F0000E046E45EC5AF028
:1015E400B20E016E010E026EB1C003F0000E046E65
:1015F40045EC5AF00101876B000E866F8B6B000E71
:101604008A6F14EF0BF0310E8A25D96E070E8B21E9
:10161400DA6EDF50FC6F8651FC19866F8751876F35
:101624008A4B8B2B310E8A25D96E070E8B21DA6EED
:10163400030EDE18D8A421EF0BF023EF0BF005EF17
:101644000BF000018A510101861909E100018B5157
:1016540001018719D8A431EF0BF033EF0BF03DEF04
:101664000BF0020E0001B319D8B43BEF0BF03DEFC1
:101674000BF0A4EF0BF0000EE8CF31F7310E016E42
:10168400070E026E1A0E036E000E046E45EC5AF03D
:10169400310E016E070E026EB20E036E010E046E61
:1016A400000E056E24EC57F0310E016E070E026E2B
:1016B400000E036E030E046E000E056E24EC57F04C
:1016C400310E016E070E026E030E036E000E046EE1
:1016D40045EC5AF0310E016E070E026EAAEC5CF076
:1016E40001C08AF002C08BF0000EE8CF28F6280E65
:1016F400016E060E026E310E036E070E046E000EAE
:10170400056E24EC57F0280E016E060E026E8AC098
:1017140003F08BC004F0FF0E066E0568000E076E22
:10172400DCEC37F00E6A010E0D6E280E0F6E060EFD
:10173400106E1CEC58F00E6A010E0D6EEFEC52F0B8
:1017440043EF0CF0000EF56F030EF66F480EF76FC3
:10175400020EF86FB15102EC55F00001B06F000EAB
:10176400E8CF31F7B051D8A4BAEF0BF0BCEF0BF0CF
:101774000BEF0CF048C2DCF10101DD6BDC0E016EF5
:10178400010E026E85EC4CF001500001AF6FAF51B9
:10179400D8A4CFEF0BF0D1EF0BF0FFEF0BF0310E2D
:1017A400016E070E026E060E036E000E046E45EC0B
:1017B4005AF0310E016E070E026EB20E036E010E68
:1017C400046E000E056E24EC57F0310E016E070E08
:1017D400026E480E036E020E046E000E056E24ECBB
:1017E40057F0310E016E070E026E030E036E000EEB
:1017F400046E45EC5AF037EF0CF0310E016E070E13
:10180400026E150E036E000E046E45EC5AF0DBEF0B
:101814000BF0310E016E070E026E1A0E036E000EEF
:10182400046E45EC5AF0310E016E070E026EB20ED4
:10183400036E010E046E000E056E24EC57F0310E9B
:10184400016E070E026E000E036E030E046E000E90
:10185400056E24EC57F0310E016E070E026E030E76
:10186400036E000E046E45EC5AF0310E016E070E45
:10187400026EAAEC5CF001C08AF002C08BF076EF35
:101884000BF000018405D8A44AEF0CF04CEF0CF0E7
:101894005AEF0CF0C76BC70E026EEFEC4BF002C0B0
:1018A40070F103C071F10101726B736B63EF0CF0A3
:1018B400000E0101706F000E716F000E726F000E4A
:1018C400736F00018505D8A46AEF0CF06CEF0CF07F
:1018D4007BEF0CF0010EC76FC70E026EEFEC4BF0FE
:1018E40002C06CF103C06DF101016E6B6F6B84EF8C
:1018F4000CF0000E01016C6F000E6D6F000E6E6F28
:10190400000E6F6F00018605D8A48BEF0CF08DEFED
:101914000CF09CEF0CF0020EC76FC70E026EEFECDA
:101924004BF002C068F103C069F101016A6B6B6B93
:10193400A5EF0CF0000E0101686F000E696F000E38
:101944006A6F000E6B6F00018705D8A4ACEF0CF032
:10195400AEEF0CF0BDEF0CF0030EC76FC70E026EB6
:10196400EFEC4BF002C064F103C065F10101666B5A
:10197400676BC6EF0CF0000E0101646F000E656F1B
:10198400000E666F000E676F74C070F075C071F062
:1019940076C072F077C073F070C02AF071C02BF07B
:1019A40072C02CF073C02DF0190E2E6E000E2F6E27
:1019B400000E306E000E316E02EC59F02A502B10DE
:1019C4002C102D10D8A4E9EF0CF0EBEF0CF097EFEE
:1019D4000DF00001B951D8A4F2EF0CF0F4EF0CF0C3
:1019E40099EF0DF084C074F185C075F186C076F16D
:1019F40087C077F140EC35F000018405D8A405EFE9
:101A04000DF007EF0DF023EF0DF001017451D8A490
:101A14000EEF0DF010EF0DF023EF0DF07CC07CF114
:101A24007DC07DF17EC07EF17FC07FF170C078F112
:101A340071C079F172C07AF173C07BF1010E0001BB
:101A4400B76F00018505D8A42AEF0DF02CEF0DF037
:101A540048EF0DF001017551D8A433EF0DF035EFC7
:101A64000DF048EF0DF07CC07CF17DC07DF17EC0AF
:101A74007EF17FC07FF170C078F171C079F172C0DE
:101A84007AF173C07BF1010E0001B76F0001860586
:101A9400D8A44FEF0DF051EF0DF06DEF0DF00101F3
:101AA4007651D8A458EF0DF05AEF0DF06DEF0DF00C
:101AB4007CC07CF17DC07DF17EC07EF17FC07FF172
:101AC40070C078F171C079F172C07AF173C07BF1A2
:101AD400010E0001B76F00018705D8A474EF0DF063
:101AE40076EF0DF092EF0DF001017751D8A47DEF60
:101AF4000DF07FEF0DF092EF0DF07CC07CF17DC016
:101B04007DF17EC07EF17FC07FF170C078F171C03D
:101B140079F172C07AF173C07BF1010E0001B76FE5
:101B2400010E0001B96F99EF0DF00001B96B74C09B
:101B340070F075C071F076C072F077C073F070C049
:101B44002AF071C02BF072C02CF073C02DF0CD0EB2
:101B54002E6E000E2F6E000E306E000E316E02ECF3
:101B640059F02A502B102C102D10D8A4BCEF0DF0D6
:101B7400BEEF0DF0D6EF0DF00001BE05D8A4C5EF01
:101B84000DF0C7EF0DF0D6EF0DF0B651D8A4CDEFA0
:101B94000DF0CFEF0DF0D8EF0DF0E8EC2AF0010EC8
:101BA4000001B66FD8EF0DF00001B66B74C070F091
:101BB40075C071F076C072F077C073F070C02AF00F
:101BC40071C02BF072C02CF073C02DF0FB0E2E6E82
:101BD400000E2F6E000E306E000E316E02EC59F0C6
:101BE4002A502B102C102D10D8A4FBEF0DF0FDEF74
:101BF4000DF010EF0EF0ABB202EF0EF004EF0EF0AA
:101C04000BEF0EF0ABA409EF0EF00BEF0EF010EF9C
:101C14000EF0AB980000AB88AB9EAB8E74C070F036
:101C240075C071F076C072F077C073F070C02AF09E
:101C340071C02BF072C02CF073C02DF0E80E2E6E24
:101C4400030E2F6E000E306E000E316E02EC59F052
:101C54002A502B102C102D10D8B433EF0EF035EF82
:101C64000EF0DBEF0EF00001B551D8A43CEF0EF0FE
:101C74003EEF0EF0DDEF0EF00101D051D111D21183
:101C8400D311D8B448EF0EF04AEF0EF064EF0EF023
:101C940000018405D8A451EF0EF053EF0EF064EF69
:101CA4000EF0310E316E70C132F071C133F072C179
:101CB40034F073C135F0410E44EC1EF031C09CF099
:101CC40032C09DF00101C851C911CA11CB11D8B459
:101CD4006EEF0EF070EF0EF08AEF0EF00001850546
:101CE400D8A477EF0EF079EF0EF08AEF0EF0320EF3
:101CF400316E6CC132F06DC133F06EC134F06FC11E
:101D040035F0410E44EC1EF031C09AF032C09BF025
:101D14000101D851D911DA11DB11D8B494EF0EF0C6
:101D240096EF0EF0B0EF0EF000018605D8A49DEFFB
:101D34000EF09FEF0EF0B0EF0EF0310E316E68C171
:101D440032F069C133F06AC134F06BC135F0420E30
:101D540044EC1EF031C092F132C093F10101C05144
:101D6400C111C211C311D8B4BAEF0EF0BCEF0EF01A
:101D7400D6EF0EF000018705D8A4C3EF0EF0C5EF2F
:101D84000EF0D6EF0EF0320E316E64C132F065C142
:101D940033F066C134F067C135F0420E44EC1EF0F6
:101DA40031C090F132C091F1010E0001B56FDDEF49
:101DB4000EF00001B56B74C070F075C071F076C0A0
:101DC40072F077C073F07CC109F07DC10AF07EC166
:101DD4000BF07FC10CF078C105F079C106F07AC12F
:101DE40007F07BC108F074C001F075C002F076C042
:101DF40003F077C004F09DEC50F001C02AF002C05B
:101E04002BF003C02CF004C02DF07CC12EF07DC15A
:101E14002FF07EC130F07FC131F002EC59F02A502E
:101E24002B102C102D10D8A41AEF0FF01CEF0FF06C
:101E34003CEF0FF00001B751D8A423EF0FF025EFCA
:101E44000FF026EF0AF070C078F171C079F172C01A
:101E54007AF173C07BF1A9EC22F056C07CF157C033
:101E64007DF158C07EF159C07FF1010E0001B76FBA
:101E740026EF0AF00001B76B26EF0AF0FEEF7FF0C1
:101E8400000E0001746F000E756F000E766F000E69
:101E9400776F160E0101F96F3F0EFA6F400E0001C5
:101EA400FE6F900E0101FB6F400EF86FF56B060E8E
:101EB400F46F030EF36F200EF26F030EF76F200E14
:101EC400F66F446A000E436E6C0E4324016E010EDD
:101ED4004420026ED9EC5FF0434A442A445009E19D
:101EE400040E435CD8A079EF0FF07BEF0FF066EFA0
:101EF4000FF0010E026E6C0E016ED9EC5FF0246ED1
:101F0400010E026E6D0E016ED9EC5FF0256E245049
:101F14000001966F25C097F0010E026E6E0E016EE1
:101F2400D9EC5FF0246E010E026E6F0E016ED9ECD7
:101F34005FF0256E24500001946F25C095F0010ECA
:101F4400026E700E016ED9EC5FF0246E010E026E0B
:101F5400710E016ED9EC5FF0256E24500001926F72
:101F640025C093F0010E026E720E016ED9EC5FF083
:101F7400246E010E026E730E016ED9EC5FF0256EB5
:101F840024500001906F25C091F02D0E965D010E36
:101F94009759D8A0D0EF0FF0D2EF0FF0DBEF0FF08E
:101FA400310E1F6E010E216E2C0E206E410E57EC69
:101FB40043F0910E0001945D010E9559D8A0E5EF10
:101FC4000FF0E7EF0FF0F0EF0FF0320E1F6E010E7F
:101FD400216E900E206E410E57EC43F00001935198
:101FE40009E1C90E925DD8A0FAEF0FF0FCEF0FF0F3
:101FF40005EF10F0310E1F6E010E216E2C0E206EB7
:10200400420E57EC43F05F0E0001905D010E9159B2
:10201400D8A00FEF10F011EF10F01AEF10F0320EFD
:102024001F6E010E216E900E206E420E57EC43F08F
:10203400010E026E740E016ED9EC5FF0246E010E77
:10204400026E750E016ED9EC5FF0256E2450376E6A
:1020540025C038F0010E026E760E016ED9EC5FF0E9
:10206400246E010E026E770E016ED9EC5FF0256EC0
:102074002450396E25C03AF03950375C3A503858FC
:10208400D8B047EF10F049EF10F05BEF10F0395083
:102094003A10D8B450EF10F052EF10F05BEF10F09C
:1020A40037503810D8A459EF10F05BEF10F0E4EF7C
:1020B40010F0300E00017C6F750E7D6F000E7E6F88
:1020C400000E7F6FE00E786F930E796F040E7A6FB7
:1020D400000E7B6F010E1B6E750E1A6E7CC00DF028
:1020E4007DC00EF07EC00FF07FC010F0980E116E10
:1020F4003A0E126E000E136E000E146ECAEC57F0F8
:102104000EC00DF00FC00EF010C00FF0106A0D508D
:102114001C6EC7EC5DF0010E1B6E740E1A6E7CC053
:102124000DF07DC00EF07EC00FF07FC010F0980E51
:10213400116E3A0E126E000E136E000E146ECAEC7F
:1021440057F00D501C6EC7EC5DF0010E1B6E770E40
:102154001A6E78C00DF079C00EF07AC00FF07BC013
:1021640010F0980E116E3A0E126E000E136E000EE1
:10217400146ECAEC57F00EC00DF00FC00EF010C074
:102184000FF0106A0D501C6EC7EC5DF0010E1B6E53
:10219400760E1A6E78C00DF079C00EF07AC00FF08A
:1021A4007BC010F0980E116E3A0E126E000E136E74
:1021B400000E146ECAEC57F00D501C6EC7EC5DF0A7
:1021C40014EF11F037C001F038C002F0036A046A5A
:1021D400980E056E3A0E066E000E076E000E086E1F
:1021E40059EC5BF001C07CF002C07DF003C07EF0CE
:1021F40004C07FF039C001F03AC002F0036A046AF7
:10220400980E056E3A0E066E000E076E000E086EEE
:1022140059EC5BF001C078F002C079F003C07AF0A9
:1022240004C07BF00001A86BA76BA66BA56BE00E46
:10223400C36F120EC26FAD6B3F0EAC6F900EAB6FDF
:10224400070EC46F800EAA6F7C0EC16F070EA96FB4
:10225400ACC092FFADC080FFC2C093FFC3C081FF7A
:10226400ABC094FFC4C082FFAAC095FFC1C083FF66
:10227400A9C096FFE00E7E6E7F6AA40EC06EC16A8E
:102284000101956B000E946FAC6AAB6AAC84210EAD
:10229400AF6EB06AAC98AC8AAB8EAB88026A000EA3
:1022A400016E1FEC60F0026A000E016E1AEC60F021
:1022B400A282A092010E016E010E026E000E46EC87
:1022C40059F00AEC5AF067EC5DF0096A000E086EEA
:1022D400000EC9EC59F0446A000E436E4350040DDD
:1022E400F350600FD96EDA6ADE6ADD6A4350040D7A
:1022F400F350620FD96EDA6ADE6ADD6AD89043342D
:10230400D96E4434DA6E4C0ED926010EDA22DE6A16
:10231400DD6A4350840FD96EDA6A010EDF6ED890FD
:102324004334D96E4434DA6E3C0ED926010EDA22D7
:10233400DE6ADD6AD8904334D96E4434DA6E440ED2
:10234400D926010EDA22DE6ADD6A434A442A445061
:1023540009E1040E435CD8A0B2EF11F0B4EF11F020
:1023640070EF11F00001BE6B650EBF6F60C008F026
:1023740061C009F0100EC9EC59F064C008F065C0E2
:1023840009F0200EC9EC59F068C008F069C009F0E2
:10239400300EC9EC59F06CC008F06DC009F0400E65
:1023A400C9EC59F0000E0101D06F000ED16F000E80
:1023B400D26F000ED36F000EC86F000EC96F000EEF
:1023C400CA6F000ECB6F000ED86F000ED96F000ECF
:1023D400DA6F000EDB6F000EC06F000EC16F000ECF
:1023E400C26F000EC36F000ECC6F000ECD6F000ED7
:1023F400CE6F000ECF6F000EC46F000EC56F000EBF
:10240400C66F000EC76F000ED46F000ED56F000E9E
:10241400D66F000ED76F000EBC6F000EBD6F000E9E
:10242400BE6F000EBF6F00019D6B000E9C6F9B6B17
:10243400000E9A6F0101936B000E926F916B000E68
:10244400906F0001C06B446A000E436E090E430294
:10245400F3CF24F0F4CF25F04402F35025260D0EDB
:102464002424416E000E2520426E320E4324016E58
:10247400000E4420026ED9EC5FF0380AD8A445EF70
:1024840012F047EF12F05DEF13F071EF12F0D00E7F
:102494003B6E010E3C6ECC0E3D6E010E3E6E8FEF18
:1024A40012F0C80E3B6E010E3C6EC40E3D6E010E62
:1024B4003E6E8FEF12F0D80E3B6E010E3C6ED40EC2
:1024C4003D6E010E3E6E8FEF12F0C00E3B6E010E9C
:1024D4003C6EBC0E3D6E010E3E6E8FEF12F043C09B
:1024E40024F044C025F02550000AD8B47CEF12F043
:1024F4008FEF12F02450000AD8B449EF12F0010A09
:10250400D8B453EF12F0030AD8B45DEF12F0010A05
:10251400D8B467EF12F08FEF12F03BC0D9FF3CC084
:10252400DAFFDE6ADE6ADE6ADD6A3DC0D9FF3EC0DC
:10253400DAFFDE6ADE6ADE6ADD6A41C03FF042C06D
:1025440040F0EBEF12F03BC0D9FF3CC0DAFFDECF26
:1025540024F0DECF25F0DECF26F0DECF27F0415089
:102564003F5C286ED8902836D8902836D8902836E4
:102574003FC001F040C002F0D9EC5FF0296E29C0E1
:102584002AF02B6A2C6A2D6A282ACEEF12F0D890F2
:102594002A362B362C362D36282EC9EF12F024502D
:1025A4002A242E6E25502B202F6E26502C20306E80
:1025B40027502D20316E3BC0D9FF3CC0DAFF2EC01E
:1025C400DEFF2FC0DEFF30C0DEFF31C0DEFF3F4A3A
:1025D400402A040E4124246E000E4220256E24500D
:1025E4003F5C25504058D8A0FAEF12F0FCEF12F0EF
:1025F400A5EF12F0040E41243F6E000E4220406EFF
:102604004CEF13F03DC0D9FF3EC0DAFFDECF24F01B
:10261400DECF25F0DECF26F0DECF27F04150F80DD7
:10262400F3CF28F03F50080DF3502824296EE00E14
:1026340029263FC001F040C002F0D9EC5FF02A6EB9
:102644002AC02BF02C6A2D6A2E6A292A2FEF13F048
:10265400D8902B362C362D362E36292E2AEF13F011
:1026640024502B242F6E25502C20306E26502D20E4
:10267400316E27502E20326E3DC0D9FF3EC0DAFFA6
:102684002FC0DEFF30C0DEFF31C0DEFF32C0DEFF10
:102694003F4A402A080E4124246E000E4220256E33
:1026A40024503F5C25504058D8A05BEF13F05DEFF9
:1026B40013F004EF13F0434A442A445009E1040E92
:1026C400435CD8A068EF13F06AEF13F028EF12F020
:1026D400446A000E436E140E246E010E256ED890CB
:1026E4004334D96E4434DA6ED890D936DA3624506D
:1026F400D9262550DA22DE6ADE6ADE6ADD6A240E15
:10270400246E010E256ED8904334D96E4434DA6EAB
:10271400D890D936DA362450D9262550DA22DE6A02
:10272400DE6ADE6ADD6A060E4302F3CF24F0F4CFDC
:1027340025F04402F3502526360E2424416E000E63
:102744002520426E010E4124016E000E4220026ECD
:10275400D9EC5FF0FF0AD8A4B2EF13F0B4EF13F092
:1027640039EF14F041C001F042C002F0D9EC5FF03F
:10277400FF0AD8A4C0EF13F0C2EF13F039EF14F03E
:1027840043504410D8B4C9EF13F0CBEF13F0D5EF96
:1027940013F0020E43184410D8A4D3EF13F0D5EF6E
:1027A40013F007EF14F0140E246E010E256ED8906A
:1027B4004334D96E4434DA6ED890D936DA3624509C
:1027C400D9262550DA22170EDE6E180EDE6E000EA4
:1027D400DE6E000EDD6E240E246E010E256ED89082
:1027E4004334D96E4434DA6ED890D936DA3624506C
:1027F400D9262550DA220B0EDE6EC00EDE6E020ED6
:10280400DE6E000EDD6E52EF15F0140E246E010E16
:10281400256ED8904334D96E4434DA6ED890D936C4
:10282400DA362450D9262550DA225B0EDE6E260EC7
:10283400DE6E000EDE6E000EDD6E240E246E010EC2
:10284400256ED8904334D96E4434DA6ED890D93694
:10285400DA362450D9262550DA22CA0EDE6E370E17
:10286400DE6E0A0EDE6E000EDD6E52EF15F0010E06
:102874004124016E000E4220026ED9EC5FF0246EFA
:1028840024C025F0266A276A286A27C028F026C0B3
:1028940027F025C026F0256A41C001F042C002F0AD
:1028A400D9EC5FF0296E295025242A6E000E2620CB
:1028B4002B6E000E27202C6E000E28202D6E140E79
:1028C4002E6E010E2F6ED8904334D96E4434DA6ED6
:1028D400D890D936DA362E50D9262F50DA222AC08B
:1028E400DEFF2BC0DEFF2CC0DEFF2DC0DEFF240E7A
:1028F400246E010E256ED8904334D96E4434DA6EBA
:10290400D890D936DA362450D9262550DA22DE6A10
:10291400DE6ADE6ADD6A020E41243F6E000E42204A
:10292400406EF5EF14F0240E246E010E256ED8903F
:102934004334D96E4434DA6ED890D936DA3624501A
:10294400D9262550DA22DECF26F0DECF27F0DECFDF
:1029540028F0DECF29F04150F80DF3CF2AF03F5094
:10296400080DF3502A242B6EF00E2B263FC001F0E5
:1029740040C002F0D9EC5FF02C6E2CC02DF02E6A12
:102984002F6A306A2B2ACCEF14F0D8902D362E36CD
:102994002F3630362B2EC7EF14F026502D24316EEF
:1029A40027502E20326E28502F20336E295030208D
:1029B400346E240E356E010E366ED8904334D96EC3
:1029C4004434DA6ED890D936DA363550D9263650B2
:1029D400DA2231C0DEFF32C0DEFF33C0DEFF34C096
:1029E400DEFF3F4A402A050E4124246E000E422099
:1029F400256E24503F5C25504058D8A004EF15F0B4
:102A040006EF15F095EF14F0050E4124016E000E4B
:102A14004220026ED9EC5FF00009D8A414EF15F03F
:102A240016EF15F052EF15F0240E246E010E256EEC
:102A3400D8904334D96E4434DA6ED890D936DA3625
:102A44002450D9262550DA22DECF26F0DECF27F017
:102A5400DECF28F0DECF29F0265000082A6E000EC3
:102A640027542B6E000E28542C6E000E29542D6E04
:102A7400240E2E6E010E2F6ED8904334D96E44343A
:102A8400DA6ED890D936DA362E50D9262F50DA227B
:102A94002AC0DEFF2BC0DEFF2CC0DEFF2DC0DEFF10
:102AA400434A442A445009E1040E435CD8A05DEF34
:102AB40015F05FEF15F06DEF13F0026A310E016E41
:102AC400D9EC5FF00001BD6F1200010E0001D66F5A
:102AD400010EDB6F56C0D9FF57C0DAFF410EDE1876
:102AE400D8B477EF15F079EF15F086EF15F056C0EE
:102AF400D9FF57C0DAFF420EDE18D8A484EF15F0D0
:102B040086EF15F042EF16F020EE01F05650D9266C
:102B14005750DA222C0EDE18D8A493EF15F095EF57
:102B240015F042EF16F020EE02F05650D926575019
:102B3400DA22310EDE18D8B4A2EF15F0A4EF15F0A6
:102B4400B3EF15F020EE02F05650D9265750DA2292
:102B5400320EDE18D8A4B1EF15F0B3EF15F042EF42
:102B640016F020EE03F05650D9265750DA222C0ED8
:102B7400DE18D8A4C0EF15F0C2EF15F042EF16F03E
:102B840020EE04F05650D9265750DA222B0EDE18C8
:102B9400D8B4CFEF15F0D1EF15F0E0EF15F020EE3B
:102BA40004F05650D9265750DA222D0EDE18D8A438
:102BB400DEEF15F0E0EF15F042EF16F020EE05F031
:102BC4005650D9265750DA222C0EDE18D8A4EDEF31
:102BD40015F0EFEF15F042EF16F0060ED76F04EF85
:102BE40016F0D7515624D96E000E5720DA6ED7C08E
:102BF4005AF0FA0E5A265A50CA0FE16EE26ADFCF33
:102C0400E7FFD72BD7515624D96E000E5720DA6E22
:102C1400DF50D8B410EF16F012EF16F021EF16F0D3
:102C2400D7515624D96E000E5720DA6E2C0EDE18BA
:102C3400D8A41FEF16F021EF16F0F3EF15F0D7C06C
:102C44005AF0FA0E5A265A50CA0FD96EDA6ADF6A57
:102C5400D7515624D96E000E5720DA6EDF50D8A40F
:102C640036EF16F038EF16F042EF16F0060ED719CD
:102C7400D8B43FEF16F041EF16F042EF16F0D66BE2
:102C8400D651D8A448EF16F04AEF16F03DEF19F0EC
:102C940056C0D9FF57C0DAFFDF50D56F20EE02F0DF
:102CA4005650D9265750DA22DF50D46F20EE04F064
:102CB4005650D9265750DA22DF50D86FCA0E1A6EF2
:102CC400D90E1B6EA1EC3DF00001D66F410ED51953
:102CD400D8A46FEF16F071EF16F01CEF17F0310E59
:102CE400D419D8A478EF16F07AEF16F01CEF17F089
:102CF400D651D8A480EF16F082EF16F01CEF17F02F
:102D04008405D8A488EF16F08AEF16F0FFEF16F0CA
:102D14002B0ED819D8A491EF16F093EF16F0C3EF49
:102D240016F0D9516227DA51632362C060F063C0A0
:102D340061F062C008F063C009F0000EC9EC59F0FC
:102D440058C0D9FF59C0DAFF300EDF6E20EE01F013
:102D54005850D9265950DA227C0EDF6E20EE02F04C
:102D64005850D9265950DA22DF6A58C008F059C0A1
:102D740009F062C00AF063C00BF0000E0C6E26EC82
:102D840032F02D0E0001D819D8A4CBEF16F0CDEFF8
:102D940016F01CEF17F0D951625FDA51635B62C021
:102DA40060F063C061F062C008F063C009F0000E17
:102DB400C9EC59F058C0D9FF59C0DAFF300EDF6EA4
:102DC40020EE01F05850D9265950DA227C0EDF6EDD
:102DD40020EE02F05850D9265950DA22DF6A58C042
:102DE40008F059C009F062C00AF063C00BF0000E8D
:102DF4000C6E26EC32F01CEF17F058C0D9FF59C006
:102E0400DAFF300EDF6E20EE01F05850D92659500B
:102E1400DA227C0EDF6E20EE02F05850D92659508B
:102E2400DA224E0EDF6E20EE03F05850D9265950A8
:102E3400DA22DF6A410E0001D519D8A424EF17F075
:102E440026EF17F0D1EF17F0320ED419D8A42DEFD6
:102E540017F02FEF17F0D1EF17F0D651D8A435EFB4
:102E640017F037EF17F0D1EF17F08505D8A43DEF31
:102E740017F03FEF17F0B4EF17F02B0ED819D8A4C2
:102E840046EF17F048EF17F078EF17F0D95166279F
:102E9400DA51672366C064F067C065F066C008F065
:102EA40067C009F0100EC9EC59F058C0D9FF59C0D9
:102EB400DAFF300EDF6E20EE01F05850D92659505B
:102EC400DA227C0EDF6E20EE02F05850D9265950DB
:102ED400DA22DF6A58C008F059C009F066C00AF067
:102EE40067C00BF0000E0C6E26EC32F02D0E0001C4
:102EF400D819D8A480EF17F082EF17F0D1EF17F0AC
:102F0400D951665FDA51675B66C064F067C065F0EB
:102F140066C008F067C009F0100EC9EC59F058C03B
:102F2400D9FF59C0DAFF300EDF6E20EE01F05850A1
:102F3400D9265950DA227C0EDF6E20EE02F058506A
:102F4400D9265950DA22DF6A58C008F059C009F06E
:102F540066C00AF067C00BF0000E0C6E26EC32F06F
:102F6400D1EF17F058C0D9FF59C0DAFF300EDF6E29
:102F740020EE01F05850D9265950DA227C0EDF6E2B
:102F840020EE02F05850D9265950DA224E0EDF6E48
:102F940020EE03F05850D9265950DA22DF6A420E47
:102FA4000001D519D8A4D9EF17F0DBEF17F086EF9D
:102FB40018F0310ED419D8A4E2EF17F0E4EF17F0AB
:102FC40086EF18F0D651D8A4EAEF17F0ECEF17F01B
:102FD40086EF18F08605D8A4F2EF17F0F4EF17F097
:102FE40069EF18F02B0ED819D8A4FBEF17F0FDEFFA
:102FF40017F02DEF18F0D9516A27DA516B236AC004
:1030040068F06BC069F06AC008F06BC009F0200E6C
:10301400C9EC59F058C0D9FF59C0DAFF300EDF6E41
:1030240020EE01F05850D9265950DA227C0EDF6E7A
:1030340020EE02F05850D9265950DA22DF6A58C0DF
:1030440008F059C009F06AC00AF06BC00BF0000E1A
:103054000C6E26EC32F02D0E0001D819D8A435EFF1
:1030640018F037EF18F086EF18F0D9516A5FDA518B
:103074006B5B6AC068F06BC069F06AC008F06BC033
:1030840009F0200EC9EC59F058C0D9FF59C0DAFF35
:10309400300EDF6E20EE01F05850D9265950DA2256
:1030A4007C0EDF6E20EE02F05850D9265950DA22F9
:1030B400DF6A58C008F059C009F06AC00AF06BC052
:1030C4000BF0000E0C6E26EC32F086EF18F058C0B0
:1030D400D9FF59C0DAFF300EDF6E20EE01F05850F0
:1030E400D9265950DA227C0EDF6E20EE02F05850B9
:1030F400D9265950DA224E0EDF6E20EE03F05850D6
:10310400D9265950DA22DF6A420E0001D519D8A413
:103114008EEF18F090EF18F06BEF19F0320ED4190F
:10312400D8A497EF18F099EF18F06BEF19F0D65177
:10313400D8A49FEF18F0A1EF18F06BEF19F08705F2
:10314400D8A4A7EF18F0A9EF18F01EEF19F02B0E72
:10315400D819D8A4B0EF18F0B2EF18F0E2EF18F0D5
:10316400D9516E27DA516F236EC06CF06FC06DF0C9
:103174006EC008F06FC009F0300EC9EC59F058C0A9
:10318400D9FF59C0DAFF300EDF6E20EE01F058503F
:10319400D9265950DA227C0EDF6E20EE02F0585008
:1031A400D9265950DA22DF6A58C008F059C009F00C
:1031B4006EC00AF06FC00BF0000E0C6E26EC32F0FD
:1031C4002D0E0001D819D8A4EAEF18F0ECEF18F08E
:1031D4006BEF19F0D9516E5FDA516F5B6EC06CF012
:1031E4006FC06DF06EC008F06FC009F0300EC9EC0E
:1031F40059F058C0D9FF59C0DAFF300EDF6E20EE07
:1032040001F05850D9265950DA227C0EDF6E20EE98
:1032140002F05850D9265950DA22DF6A58C008F013
:1032240059C009F06EC00AF06FC00BF0000E0C6EAE
:1032340026EC32F06BEF19F058C0D9FF59C0DAFF11
:10324400300EDF6E20EE01F05850D9265950DA22A4
:103254007C0EDF6E20EE02F05850D9265950DA2247
:103264004E0EDF6E20EE03F05850D9265950DA2264
:10327400DF6A6BEF19F0DB51300F58C0D9FF59C02A
:10328400DAFFDF6E20EE01F05850D9265950DA22C9
:103294007C0EDF6E20EE02F05850D9265950DA2207
:1032A4004E0EDF6E20EE03F05850D9265950DA2224
:1032B4004F0EDF6E20EE04F05850D9265950DA2212
:1032C4004B0EDF6E20EE05F05850D9265950DA2205
:1032D400DF6A000E1200516E010E3C6E000E386E55
:1032E400000E396E000E3A6E000E3B6E000E436EF9
:1032F400000E446E000E456E000E466E000E3F6ECC
:10330400000E406E000E416E000E426E000E526EB4
:10331400000E536E000E546E000E556E486A000E79
:10332400476E4A6A000E496E4B6A5150020DF350C3
:1033340031247D0F506E3104D8A4A3EF19F0A5EF0A
:1033440019F0FCEF19F0410E5118D8A4ACEF19F0A4
:10335400AEEF19F0FCEF19F02C0E526E270E536EDF
:10336400020E546E000E556E52C001F053C002F0AE
:1033740054C003F055C004F02C0E056E010E066E09
:10338400000E076E000E086E59EC5BF001C00DF0E4
:1033940002C00EF003C00FF004C010F0E80E116E6E
:1033A400030E126E000E136E000E146ECAEC57F06C
:1033B4000DC03FF00EC040F00FC041F010C042F00D
:1033C400020E486E940E476E020E4A6E980E496EB7
:1033D400026A4E0E016ED9EC5FF00009D8B4F5EF25
:1033E40019F0F8EF19F0010EF9EF19F0000E4B6E19
:1033F40033EF1BF03104D8A402EF1AF004EF1AF0F3
:103404005BEF1AF0420E5118D8A40BEF1AF00DEF2F
:103414001AF05BEF1AF02C0E526E270E536E020E4A
:10342400546E000E556E52C001F053C002F054C0E9
:1034340003F055C004F02C0E056E010E066E000E4E
:10344400076E000E086E59EC5BF001C00DF002C06F
:103454000EF003C00FF004C010F0E80E116E030E5E
:10346400126E000E136E000E146ECAEC57F00DC0EF
:103474003FF00EC040F00FC041F010C042F0020E09
:10348400486EA40E476E020E4A6EA80E496E026A7A
:103494004F0E016ED9EC5FF00009D8B454EF1AF066
:1034A40057EF1AF0010E58EF1AF0000E4B6E33EF7F
:1034B4001BF0020E3118D8A462EF1AF064EF1AF070
:1034C400C8EF1AF0410E5118D8A46BEF1AF06DEF43
:1034D4001AF0C8EF1AF0680E526E550E536E010EB4
:1034E400546E000E556E52C001F053C002F054C029
:1034F40003F055C004F0900E056E010E066E000E2A
:10350400076E000E086E59EC5BF001C00DF002C0AE
:103514000EF003C00FF004C010F0E80E116E030E9D
:10352400126E000E136E000E146ECAEC57F00DC02E
:103534003FF00EC040F00FC041F010C042F0020E48
:10354400486E9C0E476E020E4A6EA00E496E3D6A8E
:10355400026A500E016ED9EC5FF00009D8A4B5EFF1
:103564001AF0B7EF1AF0C4EF1AF0910E325C010EA4
:103574003358D8B0C0EF1AF0C2EF1AF0C4EF1AF003
:10358400010E3D6E3DC04BF033EF1BF0020E3118BF
:10359400D8A4CFEF1AF0D1EF1AF033EF1BF0420E9C
:1035A4005118D8A4D8EF1AF0DAEF1AF033EF1BF061
:1035B400680E526E550E536E010E546E000E556E0B
:1035C40052C001F053C002F054C003F055C004F0DF
:1035D400900E056E010E066E000E076E000E086E4C
:1035E40059EC5BF001C00DF002C00EF003C00FF007
:1035F40004C010F0E80E116E030E126E000E136E6E
:10360400000E146ECAEC57F00DC03FF00EC040F02F
:103614000FC041F010C042F0020E486EAC0E476E6F
:10362400020E4A6EB00E496E3E6A026A510E016E77
:10363400D9EC5FF00009D8A422EF1BF024EF1BF0B3
:1036440031EF1BF0910E325C010E3358D8B02DEFE0
:103654001BF02FEF1BF031EF1BF0010E3E6E3EC04E
:103664004BF05250531054105510D8B43CEF1BF08B
:103674003EEF1BF0E7EF1BF032C001F033C002F065
:10368400036A046A52C005F053C006F054C007F040
:1036940055C008F059EC5BF001C00DF002C00EF00B
:1036A40003C00FF004C010F0E80E116E030E126E8A
:1036B400000E136E000E146ECAEC57F00DC043F0EA
:1036C4000EC044F00FC045F010C046F04B50D8B4C3
:1036D4006EEF1BF070EF1BF097EF1BF032C021F080
:1036E40033C022F0236A246A47C025F048C026F07C
:1036F40049C027F04AC028F06CEC58F021C04CF0C7
:1037040022C04DF023C04EF024C04FF04C503F5C1B
:103714004D5040584E5041584F504258D8B095EFF4
:103724001BF097EF1BF09FEF1BF043C04CF044C01D
:103734004DF045C04EF046C04FF034C001F035C0E6
:1037440002F036C003F037C004F052C005F053C095
:1037540006F054C007F055C008F059EC5BF001C006
:103764000DF002C00EF003C00FF004C010F0E80E1C
:10377400116E030E126E000E136E000E146ECAEC60
:1037840057F00DC038F00EC039F00FC03AF010C039
:103794003BF05050040DF350620FD96EDA6A4CC0FE
:1037A400DEFF4DC0DDFF5050020D4C0EF324D96EE8
:1037B400010EF420DA6E38C0DEFF39C0DDFF505050
:1037C400840FD96EDA6ADF6A3C6A3C5012002B50CF
:1037D400800B346E2B502B24366E2AAEF4EF1BF084
:1037E400F6EF1BF0F7EF1BF036803650D8B4FDEF40
:1037F4001BF0FFEF1BF013EF1CF03628D8A405EFE5
:103804001CF007EF1CF00FEF1CF0000E286E000EEA
:10381400296E000E2A6E000E2B6E2A8E2B6A1BEF69
:103824001CF0000E286E000E296E000E2A6E000E8B
:103834002B6E2F50800B356E34503518D8B425EFCD
:103844001CF027EF1CF028EF1CF0348C2F502F2491
:10385400356E2EAE30EF1CF032EF1CF033EF1CF05F
:1038640035803550D8B439EF1CF03BEF1CF04FEFE6
:103874001CF03528D8A441EF1CF043EF1CF04BEFAB
:103884001CF0000E2C6E000E2D6E000E2E6E000E1F
:103894002F6E2E8E2F6A57EF1CF0000E2C6E000E2A
:1038A4002D6E000E2E6E000E2F6E3650355CD8B085
:1038B4005EEF1CF060EF1CF087EF1CF034AC65EF9A
:1038C4001CF067EF1CF069EF1CF0800E341A36C050
:1038D40037F035C036F037C035F028C037F02CC08B
:1038E40028F037C02CF029C037F02DC029F037C09C
:1038F4002DF02AC037F02EC02AF037C02EF02BC08E
:1039040037F02FC02BF037C02FF0376A365035C050
:1039140030F0316A305E000E315A31BE9BEF1CF03C
:10392400315009E11A0E305CD8A09BEF1CF09DEFDA
:103934001CF0D4EF1CF0285029102A102B10D8A406
:10394400A6EF1CF0A9EF1CF0010EAAEF1CF0000E6C
:10395400376E000E286E000E296E000E2A6E000EC1
:103964002B6E35C036F0DDEF1CF037A0BCEF1CF039
:10397400BEEF1CF0C4EF1CF0D89037300109376E4D
:10398400C6EF1CF0D890373228A0CBEF1CF0CDEF57
:103994001CF0CEEF1CF0378E2B342B322A32293216
:1039A4002832362A3550365CD8A0DBEF1CF0DDEF28
:1039B4001CF0B7EF1CF034BCE2EF1CF0E4EF1CF099
:1039C40024EF1DF03650D8A4EAEF1CF0ECEF1CF005
:1039D400F6EF1CF0000E286E000E296E000E2A6E03
:1039E400000E2B6E43EF1EF02C5028262D5029225A
:1039F4002E502A222F502B222BA003EF1DF005EF6F
:103A04001DF0B1EF1DF037A00AEF1DF00CEF1DF013
:103A140012EF1DF0D89037300109376E14EF1DF006
:103A2400D890373228A019EF1DF01BEF1DF01CEFC2
:103A34001DF0378E2B342B322A3229322832362A83
:103A4400B1EF1DF02C50285C2D5029582E502A58C7
:103A54002B50800A306E2F50800A3058D8B035EF82
:103A64001DF037EF1DF062EF1DF028502C5C306E16
:103A740029502D58316E2A502E58326E2B502F5803
:103A8400336EFF0E3024286EFF0E3120296EFF0E98
:103A940032202A6EFF0E33202B6E800E341A376CC0
:103AA4003750D8A458EF1DF05AEF1DF06AEF1DF0FF
:103AB400010E2826000E29222A222B226AEF1DF04D
:103AC4002C50285E2D50295A2E502A5A2F502B5AEA
:103AD400285029102A102B10D8A473EF1DF075EF6D
:103AE4001DF0AAEF1DF03750D8A47BEF1DF07DEF39
:103AF4001DF0AAEF1DF0000E286E000E296E000EB8
:103B04002A6E000E2B6E43EF1EF0D890283629360D
:103B14002A362B3637AE91EF1DF093EF1DF094EF5C
:103B24001DF0288037A099EF1DF09BEF1DF09FEF4B
:103B34001DF0D8803736A1EF1DF0D89037363650B7
:103B4400D8B4A7EF1DF0A9EF1DF0AAEF1DF03606BB
:103B54002AAEAFEF1DF0B1EF1DF087EF1DF0356A0F
:103B640037AEB7EF1DF0B9EF1DF0D1EF1DF037C040
:103B740030F07F0E3016D8B4C2EF1DF0C4EF1DF044
:103B8400C8EF1DF0010E356ED1EF1DF028A0CDEF6A
:103B94001DF0CFEF1DF0D1EF1DF0C4EF1DF0355037
:103BA400D8B4D7EF1DF0D9EF1DF004EF1EF0010ECD
:103BB4002826000E29222A222B222BA0E4EF1DF016
:103BC400E6EF1DF004EF1EF028C030F029C031F0FC
:103BD4002AC032F02BC033F0333433323232313234
:103BE400303230C028F031C029F032C02AF033C05E
:103BF4002BF03628D8B401EF1EF003EF1EF004EFCB
:103C04001EF0362A3628D8B40AEF1EF00CEF1EF048
:103C140014EF1EF03650D8A412EF1EF014EF1EF06D
:103C240025EF1EF0000E286E000E296E000E2A6E7F
:103C3400000E2B6E3650D8A422EF1EF024EF1EF097
:103C440025EF1EF0346A36A02AEF1EF02CEF1EF08A
:103C54002FEF1EF02A8E30EF1EF02A9ED8903630B9
:103C64002B6E34AE38EF1EF03AEF1EF03BEF1EF031
:103C74002B8E28C028F029C029F02AC02AF02BC096
:103C84002BF01200426E310E3118D8A44CEF1EF006
:103C94004EEF1EF0B6EF1EF0420E4218D8A455EFB8
:103CA4001EF057EF1EF083EF1EF0D80E3D6E010E8E
:103CB4003E6ED40E406E010E416E48C143F049C1C0
:103CC40044F0456A466A270E3F6E43C021F044C063
:103CD40022F045C023F046C024F0020E266EC40E26
:103CE400256E020E286EC80E276E6CEC58F021C0AB
:103CF40047F022C048F023C049F024C04AF0B6EF90
:103D04001EF0410E4218D8A48AEF1EF08CEF1EF06C
:103D1400B6EF1EF0D00E3D6E010E3E6ECC0E406E20
:103D2400010E416E44C143F045C144F0456A466A00
:103D3400150E3F6E43C021F044C022F045C023F06D
:103D440046C024F0020E266EB40E256E020E286EB6
:103D5400B80E276E6CEC58F021C047F022C048F032
:103D640023C049F024C04AF0320E3118D8A4BDEF64
:103D74001EF0BFEF1EF027EF1FF0410E4218D8A42B
:103D8400C6EF1EF0C8EF1EF0F4EF1EF0C80E3D6E35
:103D9400010E3E6EC40E406E010E416E46C143F0EC
:103DA40047C144F0456A466A1E0E3F6E43C021F087
:103DB40044C022F045C023F046C024F0020E266E13
:103DC400BC0E256E020E286EC00E276E6CEC58F0E9
:103DD40021C047F022C048F023C049F024C04AF073
:103DE40027EF1FF0420E4218D8A4FBEF1EF0FDEFA0
:103DF4001EF027EF1FF0C00E3D6E010E3E6EBC0E8E
:103E0400406E010E416E4AC143F04BC144F0456A15
:103E1400466A300E3F6E43C021F044C022F045C0D4
:103E240023F046C024F0020E266ECC0E256E020E40
:103E3400286ED00E276E6CEC58F021C047F022C0DB
:103E440048F023C049F024C04AF04A5049100BE11D
:103E5400310E475C750E4858D8A033EF1FF035EF8C
:103E64001FF0DAEF1FF0330ECC603BEF1FF03DEF95
:103E74001FF035EF1FF03DC0D9FF3EC0DAFFDECFA3
:103E840001F0DECF02F0DECF03F0DECF04F043C05A
:103E940005F044C006F045C007F046C008F059ECF0
:103EA4005BF001C047F002C048F003C049F004C011
:103EB4004AF0330ECC6061EF1FF063EF1FF05BEF4D
:103EC4001FF047C00DF048C00EF049C00FF04AC0C3
:103ED40010F0100E116E270E126E000E136E000EEF
:103EE400146ECAEC57F00DC047F00EC048F00FC076
:103EF40049F010C04AF03FC001F0026AD9EC5FF00B
:103F04003A6E3A50D8B489EF1FF08BEF1FF0A5EF4B
:103F14001FF040C0D9FF41C0DAFFDECF36F0DECF5C
:103F240037F0DECF38F0DECF39F047503624476E15
:103F340048503720486E49503820496E4A5039203D
:103F44004A6EDAEF1FF040C0D9FF41C0DAFF475094
:103F5400DE5C4850DE584950DE584A50DE58D8B02E
:103F6400B6EF1FF0B8EF1FF0D2EF1FF040C0D9FF3B
:103F740041C0DAFFDECF36F0DECF37F0DECF38F0E7
:103F8400DECF39F03650475C476E37504858486E9C
:103F940038504958496E39504A584A6EDAEF1FF082
:103FA400000E476E000E486E000E496E000E4A6EFB
:103FB4004750325C48503358495034584A50355869
:103FC400D8A0E7EF1FF0E9EF1FF0F8EF1FF047501C
:103FD400325C0101806F48503358816F4950345826
:103FE400826F4A503558836F01EF20F0000E0101B3
:103FF400806F000E816F000E826F000E836F150EAE
:10400400CC6007EF20F009EF20F001EF20F080C131
:1040140001F081C102F082C103F083C104F0D30E28
:10402400056E250E066E000E076E000E086E59EC26
:104034005BF001C080F002C081F003C082F004C0D4
:1040440083F0150ECC6029EF20F02BEF20F023EF46
:1040540020F0000E00018015806F000E8115816F25
:10406400FF0E8215826FFF0E8315836F150ECC60D1
:104074003EEF20F040EF20F038EF20F080C036F023
:1040840081C037F082C038F083C039F037C036F0D1
:1040940038C037F039C038F0396A36C080F037C0DC
:1040A40081F038C082F039C083F0150ECC605DEF2A
:1040B40020F05FEF20F057EF20F080C036F081C091
:1040C40037F082C038F083C039F037C036F038C0DA
:1040D40037F039C038F0396A36C080F037C081F023
:1040E40038C082F039C083F080C03BF081C03CF01E
:1040F4003BC031F03CC032F01200010E0001E36F0E
:10410400010EDF6F56C0D9FF57C0DAFF410EDE182B
:10411400D8B48FEF20F091EF20F09EEF20F056C03E
:10412400D9FF57C0DAFF420EDE18D8A49CEF20F066
:104134009EEF20F093EF21F020EE01F05650D926A7
:104144005750DA222C0EDE18D8A4ABEF20F0ADEFD6
:1041540020F093EF21F020EE02F05650D92657506C
:10416400DA22310EDE18D8B4BAEF20F0BCEF20F01A
:10417400CBEF20F020EE02F05650D9265750DA2229
:10418400320EDE18D8A4C9EF20F0CBEF20F093EF65
:1041940021F020EE03F05650D9265750DA222C0E87
:1041A400DE18D8A4D8EF20F0DAEF20F093EF21F056
:1041B400040EE26F040EE86FEEEF20F0E85156248F
:1041C400D96E000E5720DA6EE251CA08E825E16E76
:1041D400E26ADFCFE7FFE82BE8515624D96E000EE0
:1041E4005720DA6EDF50D8B4FAEF20F0FCEF20F05D
:1041F4000BEF21F0E8515624D96E000E5720DA6EE9
:104204002C0EDE18D8A409EF21F00BEF21F0E0EF1B
:1042140020F0E251CA08E825D96EDA6ADF6AE8516B
:104224005624D96E000E5720DA6EDF50D8A41DEF45
:1042340021F01FEF21F02BEF21F0E251E819D8B45F
:1042440026EF21F028EF21F02BEF21F0030EDE6F93
:10425400E36BE8515624D96E000E5720DA6E2C0E0B
:10426400DE18D8A438EF21F03AEF21F093EF21F0D3
:10427400E251E819D8B441EF21F043EF21F093EF74
:1042840021F0E82BE8C0E2F056EF21F0E851562483
:10429400D96E000E5720DA6EE251D408E825E16E9B
:1042A400E26ADFCFE7FFE82BE8515624D96E000E0F
:1042B4005720DA6EDF50D8B462EF21F064EF21F0BA
:1042C40073EF21F0E8515624D96E000E5720DA6EB0
:1042D4002C0EDE18D8A471EF21F073EF21F048EF13
:1042E40021F0E251D408E825D96EDA6ADF6AE85190
:1042F4005624D96E000E5720DA6EDF50D8A485EF0D
:1043040021F087EF21F093EF21F0E251E819D8B4BE
:104314008EEF21F090EF21F093EF21F0040EDE6F89
:10432400E36BE351D8A499EF21F09BEF21F091EFD7
:1043340022F056C0D9FF57C0DAFFDF50E76F20EEF6
:1043440002F05650D9265750DA22DF50D00FE46FCE
:10435400CA0E1A6EE50E1B6EA1EC3DF00001E36F70
:10436400040EDE19D8A4B9EF21F0BBEF21F0CEEF93
:1043740021F0D40E1A6EE00E1B6EA1EC3DF000018C
:10438400E325E36FE351D8A4CAEF21F0CCEF21F089
:10439400CEEF21F0CEEF21F0E351D8A4D4EF21F0F9
:1043A400D6EF21F04EEF22F0010EE36F410EE71934
:1043B400D8A4DFEF21F0E1EF21F0F5EF21F0E405DF
:1043C400D8A4E7EF21F0E9EF21F0F5EF21F0E55172
:1043D400965DE6519759D8A0F2EF21F0F4EF21F061
:1043E400F5EF21F0E36B410EE719D8A4FCEF21F0BF
:1043F400FEEF21F013EF22F0020EE419D8A405EF2A
:1044040022F007EF22F013EF22F0E551945DE6511C
:104414009559D8A010EF22F012EF22F013EF22F0FA
:10442400E36B420EE719D8A41AEF22F01CEF22F036
:1044340030EF22F0E405D8A422EF22F024EF22F09A
:1044440030EF22F0E551925DE6519359D8A02DEF5B
:1044540022F02FEF22F030EF22F0E36B420EE71947
:10446400D8A437EF22F039EF22F04EEF22F0020EFB
:10447400E419D8A440EF22F042EF22F04EEF22F0EC
:10448400E551905DE6519159D8A04BEF22F04DEFE4
:1044940022F04EEF22F0E36BE351D8A454EF22F064
:1044A40056EF22F091EF22F0E751020DF350010F85
:1044B400E425D96EDA6ADF50D8A463EF22F065EF01
:1044C40022F091EF22F0030EDF6F410EE719D8A41A
:1044D4006EEF22F070EF22F07CEF22F0C1B175EFA5
:1044E40022F077EF22F07CEF22F0C1510109C16F75
:1044F400C1C083FF420EE719D8A483EF22F085EFF1
:1045040022F091EF22F0C1B38AEF22F08CEF22F077
:1045140091EF22F0C1510209C16FC1C083FFDF5185
:10452400300F58C0D9FF59C0DAFFDF6E20EE01F01A
:104534005850D9265950DA227C0EDF6E20EE02F054
:104544005850D9265950DA22DF6A000E120020EEA4
:10455400D2F0070EDE6AE806FDE29CC0D2F09DC0F0
:10456400D3F09AC0D4F09BC0D5F092C1D6F093C1D9
:10457400D7F090C1D8F091C1D9F00001DA6B380EB0
:10458400BD19D8A4C8EF22F0CAEF22F0A3EF24F09B
:10459400E56BE551840FD96EDA6ADE04D8A4D5EF51
:1045A40022F0D7EF22F09AEF24F0E551040DF350F6
:1045B400620FD96EDA6ADE50DE10D8B4E4EF22F06E
:1045C400E6EF22F09AEF24F0E40EE525D96EDA6ADC
:1045D400010EDA22DF50DD6FE00EE525D96EDA6ACE
:1045E400010EDA22DF50E26FE551020DF350D20FD3
:1045F400D96EDA6ADECFDBF0DDCFDCF0E5EC5DF01E
:104604000001DB51055CDC510658D8B00CEF23F0F7
:104614000EEF23F09AEF24F003EC5EF00550000156
:10462400DB5D0650DC59D8B01AEF23F01CEF23F001
:104634009AEF24F0E551020D440EF324D96E010ED5
:10464400F420DA6EDECF5AF0DDCF5BF05AC001F011
:104654005BC002F0036A046A000E33EC44F001C04C
:1046640038F002C039F003C03AF004C03BF0280E21
:104674003C6E6B0E3D6E6E0E3E6E4E0E3F6EC6EC85
:1046840024F038C0DEF039C0DFF03AC0E0F03BC0BF
:10469400E1F0DEC00FF0DFC010F0E0C011F0E1C0C7
:1046A40012F0DBC001F0DCC002F0036A046A000E01
:1046B40033EC44F001C013F002C014F003C015F051
:1046C40004C016F0E1EC2CF00FC0DEF010C0DFF0F7
:1046D40011C0E0F012C0E1F0DEC028F0DFC029F024
:1046E400E0C02AF0E1C02BF0C00E2C6EA30E2D6E9C
:1046F4001B0E2E6ECB0E2F6EE9EC1BF028C0DEF0E5
:1047040029C0DFF02AC0E0F02BC0E1F0000E2C6ECF
:10471400000E2D6E800E2E6E3F0E2F6EDEC013F037
:10472400DFC014F0E0C015F0E1C016F0C00E0F6E4B
:10473400A30E106E1B0E116E4B0E126EE1EC2CF0DC
:104744000FC028F010C029F011C02AF012C02BF0BD
:10475400E9EC1BF028C038F029C039F02AC03AF03F
:104764002BC03BF00001E551020D3C0EF324D96E41
:10477400010EF420DA6EDECF5AF0DDCF5BF05AC0C2
:1047840001F05BC002F0036A046A000E33EC44F0EB
:1047940001C03CF002C03DF003C03EF004C03FF055
:1047A400C6EC24F038C0CAF039C0CBF03AC0CCF023
:1047B4003BC0CDF0CAC001F0CBC002F0CCC003F0C6
:1047C400CDC004F022EC4EF001C0E3F002C0E4F0EE
:1047D4000001E551020D440EF324D96E010EF420BC
:1047E400DA6EE351DE1809E1E451DE18D8B4FDEFC6
:1047F40023F0FFEF23F09AEF24F0E351E411D8B44F
:1048040006EF24F008EF24F08BEF24F0E205D8A49F
:104814000EEF24F010EF24F01BEF24F02D0EE35DD7
:10482400010EE459D8A019EF24F01BEF24F02FEF68
:1048340024F0020EE219D8A422EF24F024EF24F08D
:1048440040EF24F0910EE35D010EE459D8B02DEF52
:1048540024F02FEF24F040EF24F0E2C031F0E3C065
:1048640032F0E4C033F0050E346E000E356E000EE7
:10487400366E000E376EDD516DEC19F00001E20565
:10488400D8A447EF24F049EF24F065EF24F02D0E6F
:10489400E35D010EE459D8A052EF24F054EF24F064
:1048A40065EF24F0E2C031F0010E336E2C0E326E4F
:1048B400050E346E000E356E000E366E000E376E29
:1048C400DD516DEC19F0020E0001E219D8A46DEF70
:1048D40024F06FEF24F08BEF24F0910EE35D010ED2
:1048E400E459D8A078EF24F07AEF24F08BEF24F089
:1048F400E2C031F0010E336E900E326E050E346E4E
:10490400000E356E000E366E000E376EDD516DEC06
:1049140019F00001E551020D440EF324D96E010E85
:10492400F420DA6EE3C0DEFFE4C0DDFF010EDA6FCF
:10493400E52B030EE565A1EF24F0A3EF24F0CBEF04
:1049440022F0DA05D8A4A9EF24F0ABEF24F0B5EFF8
:1049540024F07CC0CEF07DC0CFF07EC0D0F07FC00C
:10496400D1F0BDEF24F078C0CEF079C0CFF07AC09A
:10497400D0F07BC0D1F0CEC056F0CFC057F0D0C03D
:1049840058F0D1C059F012003B50800B446E3B509C
:104994003B244A6E3AAED1EF24F0D3EF24F0D4EFA7
:1049A40024F04A804A50D8B4DAEF24F0DCEF24F043
:1049B400EFEF24F04A28D8A4E2EF24F0E4EF24F047
:1049C400ECEF24F0000E386E000E396E000E3A6ED5
:1049D400000E3B6E3A8EF7EF24F0000E386E000E98
:1049E400396E000E3A6E000E3B6E3F50800B441A37
:1049F4003F503F24496E3EAE02EF25F004EF25F010
:104A040005EF25F049804950D8B40BEF25F00DEFA0
:104A140025F020EF25F04928D8A413EF25F015EF51
:104A240025F01DEF25F0000E3C6E000E3D6E000ECD
:104A34003E6E000E3F6E3E8E28EF25F0000E3C6E5B
:104A4400000E3D6E000E3E6E000E3F6E4950D8B40F
:104A54002EEF25F030EF25F038EF25F04A50D8A49A
:104A640036EF25F038EF25F042EF25F0000E386ED2
:104A7400000E396E000E3A6E000E3B6ED8EF26F033
:104A84003E503802F3CF4FF0F4CF50F04F50456E04
:104A9400466A476A486A50504B6E4C6A4D6A4E6A81
:104AA4003D503902F3CF4FF0F4CF50F04F5045262C
:104AB400000E46224722482250504B26000E4C221C
:104AC4004D224E223C503A02F3CF4FF0F4CF50F037
:104AD4004F504526000E46224722482250504B266E
:104AE400000E4C224D224E2247C048F046C047F0EB
:104AF40045C046F0456A3C503902F3CF4FF0F4CF3D
:104B040050F04F50452650504622000E4722000ECA
:104B140048223D503802F3CF4FF0F4CF50F04F50BD
:104B2400452650504622000E4722000E482247C018
:104B340048F046C047F045C046F0456A3C5038024C
:104B4400F3CF4FF0F4CF50F04F504526505046224B
:104B5400000E4722000E48223E503902F3CF4FF098
:104B6400F4CF50F04F504B2650504C22000E4D22A3
:104B7400000E4E223D503A02F3CF4FF0F4CF50F0E6
:104B84004F504B2650504C22000E4D22000E4E2208
:104B94003E503A02F3CF4FF0F4CF50F04F50406EF6
:104BA4005050416E426A436A42C043F041C042F0F1
:104BB40040C041F0406A40504B2641504C22425084
:104BC4004D2243504E2245C040F046C041F047C0FC
:104BD40042F048C043F0190EF5EF25F0D890433267
:104BE400423241324032E82EF0EF25F040504B265D
:104BF40041504C2242504D2243504E2247C048F06F
:104C040046C047F045C046F0456A49504AC040F0A6
:104C1400416A4026000E4122820E40244F6EFF0E50
:104C24004120506E2BEF26F0D8904B364C364D3643
:104C34004E3648AE20EF26F022EF26F023EF26F082
:104C44004B80D89045364636473648364F06D8A06E
:104C540050064DAE30EF26F032EF26F016EF26F078
:104C6400496A48AE38EF26F03AEF26F05EEF26F0B8
:104C7400FF0E4514406EFF0E4614416EFF0E47149E
:104C8400426E7F0E4814436E405041104210431050
:104C9400D8B44FEF26F051EF26F055EF26F0010E71
:104CA400496E5EEF26F04BA05AEF26F05CEF26F03B
:104CB4005EEF26F051EF26F04950D8B464EF26F0A9
:104CC40066EF26F08AEF26F0010E4B26000E4C22EA
:104CD4004D224E224EA071EF26F073EF26F08AEF9C
:104CE40026F04BC040F04CC041F04DC042F04EC0E5
:104CF40043F04334433242324132403240C04BF0FD
:104D040041C04CF042C04DF043C04EF04F4A502ACF
:104D140050BE95EF26F0505008E14F28D8A095EFEB
:104D240026F097EF26F0A1EF26F0000E4B6E000E52
:104D34004C6E800E4D6E7F0E4E6ECEEF26F050BE42
:104D4400AEEF26F0505006E14F04D8B0ACEF26F099
:104D5400AEEF26F0B9EF26F0000E4B6E000E4C6E4F
:104D6400000E4D6E000E4E6E446ACEEF26F04FC01C
:104D74004AF0FF0E4B16FF0E4C167F0E4D16000E1A
:104D84004E164AA0C8EF26F0CAEF26F0CBEF26F065
:104D94004D8ED8904A304E6E44504E124BC038F06F
:104DA4004CC039F04DC03AF04EC03BF0120022EE38
:104DB40088F010EE25F01C0EDBCFE3FFE806FCE2E2
:104DC4004C6A4C50020DF3CF1DF0F4CF1EF01D5071
:104DD4001B24D96E1E501C20DA6EDE6ADD6A4C2A52
:104DE400050E4C64F8EF26F0FAEF26F0E3EF26F018
:104DF4004B6A4C6A486A4BC01DF0010E1D26D890C0
:104E04001D32D8901D30010B256E4BC01DF0010ED4
:104E14001D26D8901D30010B266E4B28010B276EE2
:104E2400000E4AEC5FF09AEC5FF0000E4AEC5FF083
:104E3400E5EF27F00A0E4C6022EF27F024EF27F06D
:104E44003FEF27F04C50250FD96EDA6ADF50F8ECAB
:104E54005CF04C50250FD96EDA6ADF504AEC5FF0F3
:104E64004C50250FD96EDA6ADE04D8A43CEF27F043
:104E74003EEF27F03FEF27F0482A090E4C6445EF38
:104E840027F047EF27F0D1EF27F01B0E4C604DEFD2
:104E940027F04FEF27F0D1EF27F04A6A000E496E52
:104EA4004C50250FD96EDA6ADF50F8EC5CF0000143
:104EB400C289026A000E016E24EC60F0C2C093FF46
:104EC4006AEF27F007EC60F001C049F002C04AF035
:104ED40081B86FEF27F071EF27F07DEF27F0010124
:104EE400F651495CF7514A58D8A07BEF27F07DEF83
:104EF40027F064EF27F049500101F45D4A50F55959
:104F0400D8B087EF27F089EF27F0C5EF27F0F251EB
:104F1400495CF3514A58D8B092EF27F094EF27F048
:104F2400C5EF27F0090E4C649AEF27F09CEF27F0A9
:104F3400C4EF27F0140E4C60A2EF27F0A4EF27F083
:104F4400C4EF27F04C5013081D6E010E1E6E000EA8
:104F54001F6E1D2AB1EF27F0D8901E361F361D2E66
:104F6400AEEF27F04B50020DF3CF20F0F4CF21F039
:104F740020501B24D96E21501C20DA6E1E50DE12E4
:104F84001F50DD12482A0101F651495CF7514A5875
:104F9400D8A0CFEF27F0D1EF27F0D1EF27F01B0EE9
:104FA4004C18D8A4D8EF27F0DAEF27F0E4EF27F075
:104FB4004850010B010AF8EC5CF04850010B010A5F
:104FC4004AEC5FF04C2A4C50250FD96EDA6ADE2881
:104FD400D8A4EFEF27F0F1EF27F01CEF27F04B2ACE
:104FE400030E4B64F8EF27F0FAEF27F0FBEF26F0FF
:104FF4004B6A4B50020DF3CF1DF0F4CF1EF01D5041
:105004001B24D96E1E501C20DA6EDECF1FF0DDCFBC
:1050140020F0190E1F02F3CF21F0F4CF22F020026A
:10502400F350222621C001F022C002F0046A640E6B
:10503400036E63EC55F04B50020DF3CF23F0F4CF25
:1050440024F023501B24D96E24501C20DA6E01C096
:10505400DEFF02C0DDFF4B2A030E4B6434EF28F061
:1050640036EF28F0FBEF27F0020E086E000E076EF5
:105074000A6A010E096E010E37EC54F0020E086E36
:10508400000E076E0A6A010E096E020E37EC54F028
:10509400020E086E000E076E010ECFEC56F007C02C
:1050A40044F008C045F0466A476A020E086E000ED6
:1050B400076E020ECFEC56F007C044F008C045F06E
:1050C400466A476A020E086E000E076E0A6A010EEF
:1050D400096E010E37EC54F0020E086E000E076ED6
:1050E4000A6A010E096E020E37EC54F04B6A020E86
:1050F400086E000E076E4B28CFEC56F007C044F044
:1051040008C045F0466A476A44C01DF045C01EF019
:105114000F0E1F6ED8901E321D321F2E8CEF28F0FA
:10512400010E1D14426E436A42044310D8A49DEF3D
:1051340028F09FEF28F079EF28F0FF0E4414016E59
:10514400030E4514026E000E4614036E000E47143F
:10515400046EEC0E056E010E066E000E076E000E58
:10516400086E59EC5BF0020E01240D6ED50E022080
:105174000E6EFB0E03200F6EFF0E0420106EE80E61
:10518400116E030E126E000E136E000E146E9DEC63
:105194004DF04B501D6E1E6AD8901D361E361D50A4
:1051A4001B241F6E1E501C20206E080E1F24D96E57
:1051B400000E2020DA6E0DC0DEFF0EC0DDFF4B2A8C
:1051C400010E4B64E8EF28F0EAEF28F079EF28F0BD
:1051D4001200010E0001D56F56C0D9FF57C0DAFF87
:1051E400410EDE18D8B4F9EF28F0FBEF28F008EFF1
:1051F40029F056C0D9FF57C0DAFF420EDE18D8A4F2
:1052040006EF29F008EF29F0A6EF29F020EE01F0CF
:105214005650D9265750DA222C0EDE18D8A415EF92
:1052240029F017EF29F0A6EF29F020EE02F05650EE
:10523400D9265750DA22310EDE18D8B424EF29F0DB
:1052440026EF29F044EF29F020EE02F05650D9263B
:105254005750DA22320EDE18D8B433EF29F035EF86
:1052640029F044EF29F020EE02F05650D926575089
:10527400DA22330EDE18D8A442EF29F044EF29F0E5
:10528400A6EF29F020EE03F05650D9265750DA2223
:105294002C0EDE18D8A451EF29F053EF29F0A6EF15
:1052A40029F0040ED46F68EF29F0D4515624D96E36
:1052B400000E5720DA6ED4C05AF0FC0E5A265A500B
:1052C400CA0FE16EE26ADFCFE7FFD42BD451562434
:1052D400D96E000E5720DA6EDF50D8B474EF29F07F
:1052E40076EF29F085EF29F0D4515624D96E000EBB
:1052F4005720DA6E2C0EDE18D8A483EF29F085EF40
:1053040029F057EF29F0D4C05AF0FC0E5A265A500F
:10531400CA0FD96EDA6ADF6AD4515624D96E000EE8
:105324005720DA6EDF50D8A49AEF29F09CEF29F0C9
:10533400A6EF29F0040ED419D8B4A3EF29F0A5EFF1
:1053440029F0A6EF29F0D56BD551D8A4ACEF29F0FC
:10535400AEEF29F0AFEF2AF020EE02F05650D92636
:105364005750DA22310EDE18D8A4BBEF29F0BDEF76
:1053740029F003EF2AF056C0D9FF57C0DAFF410ED7
:10538400DE18D8A4C8EF29F0CAEF29F0E0EF29F01D
:10539400CA0E1A6ED60E1B6EA1EC3DF00001D56F3D
:1053A400D551D8A4D8EF29F0DAEF29F0E0EF29F0AD
:1053B400D6C010F0D7C011F076EC5EF056C0D9FF1D
:1053C40057C0DAFF420EDE18D8A4EBEF29F0EDEF58
:1053D40029F003EF2AF0CA0E1A6ED60E1B6EA1EC4A
:1053E4003DF00001D56FD551D8A4FBEF29F0FDEFB6
:1053F40029F003EF2AF0D6C010F0D7C011F05BEC0F
:105404005EF020EE02F05650D9265750DA22320EC2
:10541400DE18D8A410EF2AF012EF2AF058EF2AF081
:1054240056C0D9FF57C0DAFF410EDE18D8A41DEFCD
:105434002AF01FEF2AF035EF2AF0CA0E1A6ED60EA4
:105444001B6EA1EC3DF00001D56FD551D8A42DEF12
:105454002AF02FEF2AF035EF2AF0D6C010F0D7C08B
:1054640011F0ACEC5EF056C0D9FF57C0DAFF420E23
:10547400DE18D8A440EF2AF042EF2AF058EF2AF0C1
:10548400CA0E1A6ED60E1B6EA1EC3DF00001D56F4C
:10549400D551D8A450EF2AF052EF2AF058EF2AF051
:1054A400D6C010F0D7C011F091EC5EF020EE02F0FF
:1054B4005650D9265750DA22330EDE18D8A465EF99
:1054C4002AF067EF2AF0B1EF2AF056C0D9FF57C08F
:1054D400DAFF410EDE18D8A472EF2AF074EF2AF036
:1054E4008AEF2AF0CA0E1A6ED60E1B6EA1EC3DF09E
:1054F4000001D56FD551D8A482EF2AF084EF2AF0A9
:105504008AEF2AF0D6C010F0D7C011F0E2EC5EF0BA
:1055140056C0D9FF57C0DAFF420EDE18D8A495EF63
:105524002AF097EF2AF0B1EF2AF0CA0E1A6ED60EBF
:105534001B6EA1EC3DF00001D56FD551D8A4A5EFA9
:105544002AF0A7EF2AF0B1EF2AF0D6C010F0D7C0A6
:1055540011F0C7EC5EF0B1EF2AF0010ED56F000137
:10556400D551D8A4B8EF2AF0BAEF2AF0D1EF2AF037
:1055740058C0D9FF59C0DAFF300EDF6E20EE01F0BB
:105584005850D9265950DA227C0EDF6E20EE02F0F4
:105594005850D9265950DA22DF6AE6EF2AF058C06B
:1055A400D9FF59C0DAFF320EDF6E20EE01F05850F9
:1055B400D9265950DA227C0EDF6E20EE02F05850C4
:1055C400D9265950DA22DF6A000E12002E6AD0EF73
:1055D4002CF0640EBF65F1EF2AF0F3EF2AF0FEEF32
:1055E4002AF0B40E01015C6FE20E5D6FFF0E5E6F78
:1055F400FF0E5F6F3FEF2BF0640EBF19D8B405EFB9
:105604002BF007EF2BF036EF2BF0BFC027F0286A02
:10561400296A2A6A0E0ED8902736283629362A3661
:10562400E82E0DEF2BF027C00DF028C00EF029C096
:105634000FF02AC010F0640E116E000E126E000EF0
:10564400136E000E146E9DEC4DF0000E0D2401013E
:105654005C6FE00E0E205D6FFF0E0F205E6FFF0E7D
:1056640010205F6F3FEF2BF0780E01015C6F1E0E70
:105674005D6F000E5E6F000E5F6F640E5C25586FE9
:10568400000E5D21596F000E5E215A6F000E5F21DE
:105694005B6F0001A269010EA36FE0EF2CF0A22B57
:1056A400060EA219D8A459EF2BF05BEF2BF062EF92
:1056B4002BF024EC5BF00001BE6BA36BE0EF2CF04D
:1056C400010E896F900E886F020EA36FE0EF2CF02D
:1056D400A251016E026A01BE0206046A030E036E41
:1056E40078EC56F001500210D8A47BEF2BF07DEF3C
:1056F4002BF084EF2BF0100E326E360E316E306AC2
:10570400040E2F6E0001A251016E026A01BE020650
:10571400046A030E036E78EC56F001040210D8A458
:1057240096EF2BF098EF2BF09FEF2BF0130E326EC9
:10573400360E316E306A050E2F6E0001A251016ED5
:10574400026A01BE0206046A030E036E78EC56F088
:10575400020E01180210D8A4B2EF2BF0B4EF2BF014
:10576400BBEF2BF0150E326E360E316E306A060E1C
:105774002F6E0001A251800A7D0FD8B0C4EF2BF028
:10578400C6EF2BF0CAEF2BF0010E366ECCEF2BF0E8
:10579400020E366E050E8827000E89232FC007F0EF
:1057A40030C008F088C009F089C00AF0365037ECE0
:1057B40054F0150E276EC60EE82EFED7272EFCD702
:1057C40000F000F02FC007F030C008F088C009F0E6
:1057D40089C00AF0365037EC54F0336A150E276E40
:1057E400C60EE82EFED7272EFCD700F000F031C0FD
:1057F40007F032C008F03650CFEC56F007C034F052
:1058040008C035F00B0E276E620EE82EFED7272E49
:10581400FCD700F000F010EF2CF0332A31C007F071
:1058240032C008F03650CFEC56F0E20E0724276E53
:10583400FF0E0820286E3450275C2850800A296EF9
:105844003550800A2958D8B02AEF2CF02CEF2CF0D0
:105854004EEF2CF031C007F032C008F03650CFECD8
:1058640056F01E0E0726000E08220750345C3550F1
:10587400800A276E0850800A2758D8B044EF2CF0CD
:1058840046EF2CF04EEF2CF0130E33644CEF2CF05B
:105894004EEF2CF00FEF2CF0140E336054EF2CF07D
:1058A40056EF2CF057EF2CF0336A140E3318D8A4AB
:1058B4005EEF2CF060EF2CF0F0EF2BF034C027F00B
:1058C40035C028F0000E28BEFF0E296E2A6E010195
:1058D4005C51275C5D5128585E5129582A50800A32
:1058E4002B6E5F51800A2B58D8A07BEF2CF07DEFF4
:1058F4002CF0B0EF2CF0000E35BEFF0E286E800A9F
:10590400276E5851345C595135585A5128585B51B7
:10591400800A2758D8B091EF2CF093EF2CF0B0EF19
:105924002CF0010E0001A36FA2C027F0286A27BE45
:105934002806D890273628362750B0082C6E2850D1
:10594400D8A0E82A01082D6E2CC0D9FF2DC0DAFF9B
:1059540088C0DEFF89C0DDFF190E2E6E2E2A190EB7
:105964002E60B7EF2CF0B9EF2CF0C3EF2CF0040E3F
:105974000001895DD8A0C1EF2CF0C3EF2CF0CCEF6F
:105984002BF000018805040E8959D8A0CCEF2CF027
:10599400CEEF2CF0E0EF2CF04DEF2BF00001A351F3
:1059A400000AD8B4EBEF2AF0010AD8B451EF2BF077
:1059B400030AD8B46AEF2BF05FEF2BF012001250F9
:1059C400800B1F6E12501224266E11AEECEF2CF0D9
:1059D400EEEF2CF0EFEF2CF026802650D8B4F5EF44
:1059E4002CF0F7EF2CF00BEF2DF02628D8A4FDEFC8
:1059F4002CF0FFEF2CF007EF2DF0000E0F6E000ED1
:105A0400106E000E116E000E126E118E126A13EFDC
:105A14002DF0000E0F6E000E106E000E116E000EB3
:105A2400126E1650800B1F1A16501624276E15AED0
:105A34001EEF2DF020EF2DF021EF2DF027802750C1
:105A4400D8B427EF2DF029EF2DF03DEF2DF02728C6
:105A5400D8A42FEF2DF031EF2DF039EF2DF0000EFB
:105A6400136E000E146E000E156E000E166E158E5B
:105A7400166A45EF2DF0000E136E000E146E000E24
:105A8400156E000E166E1350141015101610D8A4AF
:105A94004EEF2DF050EF2DF068EF2DF0000E0F6E4D
:105AA400000E106E000E116E000E126E800E11129A
:105AB4007F0E12121F5012120FC00FF010C010F000
:105AC40011C011F012C012F0A7EF2EF02650D8A486
:105AD4006EEF2DF070EF2DF07AEF2DF0000E0F6EBB
:105AE400000E106E000E116E000E126EA7EF2EF057
:105AF400275026C017F0186A175E000E185A7F0E3A
:105B04001724206E000E1820216E0FC01BF010C049
:105B14001CF011C01DF012C01EF0000E0F6E000E1E
:105B2400106E000E116E000E126E000E226E000E2C
:105B3400236E000E246E000E256E276ADAEF2DF018
:105B44002750D8B4A8EF2DF0AAEF2DF0C1EF2DF017
:105B5400D8901B361C361D361E36D8900F3610369C
:105B64001136123625AEB9EF2DF0BBEF2DF0BCEF98
:105B74002DF00F80D8902236233624362536135044
:105B84001B5C14501C5815501D5816501E58D8A094
:105B9400CEEF2DF0D0EF2DF0D9EF2DF0258C135052
:105BA4001B5E14501C5A15501D5A16501E5A272A93
:105BB400190E2764E0EF2DF0E2EF2DF0A2EF2DF0A7
:105BC4001B501C101D101E10D8B4EBEF2DF0EDEF80
:105BD4002DF005EF2EF0228005EF2EF0D8900F3631
:105BE40010361136123625AEFAEF2DF0FCEF2DF0FB
:105BF400FDEF2DF00F80D89022362336243625363B
:105C04002006D8A0210611AE0AEF2EF00CEF2EF0DC
:105C1400F0EF2DF0276A25AE12EF2EF014EF2EF0E0
:105C240038EF2EF0FF0E2214176EFF0E2314186E99
:105C3400FF0E2414196E7F0E25141A6E17501810B7
:105C440019101A10D8B429EF2EF02BEF2EF02FEFE5
:105C54002EF0010E276E38EF2EF00FA034EF2EF049
:105C640036EF2EF038EF2EF02BEF2EF02750D8B46D
:105C74003EEF2EF040EF2EF064EF2EF0010E0F26D3
:105C8400000E10221122122212A04BEF2EF04DEF23
:105C94002EF064EF2EF00FC017F010C018F011C0F2
:105CA40019F012C01AF01A341A3219321832173293
:105CB40017C00FF018C010F019C011F01AC012F07C
:105CC400204A212A21BE6FEF2EF0215008E120281E
:105CD400D8A06FEF2EF071EF2EF07CEF2EF0000EB7
:105CE400216E2068000E0F6E000E106E000E116EF5
:105CF400000E126E21BE89EF2EF0215006E1200421
:105D0400D8B087EF2EF089EF2EF095EF2EF0216AB0
:105D1400000E206E000E0F6E000E106E000E116E3F
:105D2400000E126E1F6A20C026F026A09CEF2EF0F3
:105D34009EEF2EF0A1EF2EF0118EA2EF2EF0119E09
:105D4400D8902630126E5CEF2DF01200010E000187
:105D5400CA6F56C0D9FF57C0DAFF410EDE18D8B457
:105D6400B6EF2EF0B8EF2EF0C5EF2EF056C0D9FFE7
:105D740057C0DAFF420EDE18D8A4C3EF2EF0C5EFE9
:105D84002EF001EF2FF020EE01F05650D926575097
:105D9400DA222C0EDE18D8A4D2EF2EF0D4EF2EF097
:105DA40001EF2FF020EE02F05650D9265750DA2298
:105DB400310EDE18D8B4E1EF2EF0E3EF2EF0F2EF5F
:105DC4002EF020EE02F05650D9265750DA22320E29
:105DD400DE18D8A4F0EF2EF0F2EF2EF001EF2FF042
:105DE40020EE03F05650D9265750DA22DF50D8A4BB
:105DF400FEEF2EF000EF2FF001EF2FF0CA6BCA5127
:105E0400D8A407EF2FF009EF2FF04EEF30F056C073
:105E1400D9FF57C0DAFFDF50D06F20EE02F05650A2
:105E2400D9265750DA22DF50D00FCF6FD26B000E35
:105E3400D16FD051020DF350CF25810FC96FC90E18
:105E44001B6ED7EC48F01BC0CBF01CC0CCF000019B
:105E5400D051020DF350010FCF25D96EDA6ADF500D
:105E6400D8A437EF2FF039EF2FF07BEF2FF058C085
:105E7400D9FF59C0DAFF300EDF6E20EE01F0585022
:105E8400D9265950DA227C0EDF6E20EE02F05850EB
:105E9400D9265950DA222D0EDF6E20EE03F0585029
:105EA400D9265950DA22DF6ACBC001F0CCC002F007
:105EB400046A0A0E036E7EEC5AF001C0CDF002C0F3
:105EC400CEF058C008F059C009F0CDC00AF0CEC0D9
:105ED4000BF02C0E0C6E26EC32F058C001F059C0B9
:105EE40002F03F0E036E000E046EC3EC55F04EEF4D
:105EF40030F0CF51040DF3CF5AF0D051080DF350C8
:105F0400540F5A24D96EDA6ADE50DE10D8A48DEF0D
:105F14002FF08FEF2FF0B0EF2FF058C0D9FF59C0FA
:105F2400DAFF300EDF6E20EE01F05850D9265950BA
:105F3400DA227C0EDF6E20EE02F05850D92659503A
:105F4400DA22DF6A58C001F059C002F03B0E036E3A
:105F5400000E046EC3EC55F04EEF30F0CF51300F0D
:105F6400016ED10E026ED0515DEC53F0D1C001F040
:105F7400D2C002F0046A190E036E7EEC5AF001C01E
:105F8400D3F002C0D4F0660E0001D303F3CF5AF06D
:105F9400F4CF5BF0D403F3505B265AC0D3F05BC05C
:105FA400D4F0D3C001F0D4C002F0046A0A0E036E28
:105FB4007EEC5AF001C0D3F002C0D4F0D3C05AF042
:105FC400D4C05BF0D8905B325A32D8905B325A32EC
:105FD4005AC0D3F05BC0D4F00001D351CB5DD36F72
:105FE400D451CC59D46F58C0D9FF59C0DAFF300E00
:105FF400DF6E20EE01F05850D9265950DA227C0E7B
:10600400DF6E20EE02F05850D9265950DA222D0EB8
:10601400DF6E20EE03F05850D9265950DA22DF6A99
:10602400CBC001F0CCC002F0046A0A0E036E7EEC11
:106034005AF001C0CDF002C0CEF058C008F059C0EB
:1060440009F0CDC00AF0CEC00BF02C0E0C6E26EC7D
:1060540032F058C001F059C002F02D0E036E000E4C
:10606400046E45EC5AF0D3C001F0D4C002F0046AC7
:106074000A0E036E7EEC5AF001C0CDF002C0CEF0E1
:1060840058C008F059C009F0CDC00AF0CEC00BF0DA
:10609400000E0C6E26EC32F00001CA05D8A455EFB0
:1060A40030F057EF30F06CEF30F058C0D9FF59C0E2
:1060B400DAFF320EDF6E20EE01F05850D926595027
:1060C400DA227C0EDF6E20EE02F05850D9265950A9
:1060D400DA22DF6A000E1200010E0001F36FF46B86
:1060E40081EF30F0F4515624D96E000E5720DA6E49
:1060F400F451CA0FE16EE26ADFCFE7FFF42BF451EB
:106104005624D96E000E5720DA6EDF50D8B48DEFC6
:1061140030F08FEF30F09EEF30F0F4515624D96E0A
:10612400000E5720DA6E2C0EDE18D8A49CEF30F047
:106134009EEF30F074EF30F0F451CA0FD96EDA6A82
:10614400DF6AF4515624D96E000E5720DA6E2C0EF5
:10615400DE18D8A4B0EF30F0B2EF30F056EF31F0E3
:10616400F451D8B4B8EF30F0BAEF30F056EF31F064
:10617400F42BF4C0F2F0CDEF30F0F4515624D96E84
:10618400000E5720DA6EF251D408F425E16EE26A6B
:10619400DFCFE7FFF42BF4515624D96E000E5720BD
:1061A400DA6EDF50D8B4D9EF30F0DBEF30F0EAEF3D
:1061B40030F0F4515624D96E000E5720DA6E2C0EAE
:1061C400DE18D8A4E8EF30F0EAEF30F0BFEF30F09B
:1061D400F251D408F425D96EDA6ADF6AF4515624F0
:1061E400D96E000E5720DA6E2C0EDE18D8A4FDEFFF
:1061F40030F0FFEF30F056EF31F0F251F419D8B42B
:1062040006EF31F008EF31F056EF31F0F42BF4C023
:10621400F2F01BEF31F0F4515624D96E000E5720E2
:10622400DA6EF251DE08F425E16EE26ADFCFE7FFB1
:10623400F42BF4515624D96E000E5720DA6EDF5039
:10624400D8B427EF31F029EF31F038EF31F0F451C1
:106254005624D96E000E5720DA6E2C0EDE18D8A400
:1062640036EF31F038EF31F00DEF31F0F251DE0856
:10627400F425D96EDA6ADF6AF4515624D96E000E19
:106284005720DA6EDF50D8A44AEF31F04CEF31F0EA
:1062940056EF31F0F251F419D8B453EF31F055EF11
:1062A40031F056EF31F0F36BF351D8A45CEF31F0D9
:1062B4005EEF31F0EFEF31F0CA0E1A6EEE0E1B6E88
:1062C400A1EC3DF00001F36FF351D8A46CEF31F071
:1062D4006EEF31F0A9EF31F0D10EEE5D070EEF59FC
:1062E400D8B077EF31F079EF31F0A9EF31F0EEC0AB
:1062F40001F0EFC002F0036A046A0E0E056E820E0E
:10630400066E000E076E000E086E59EC5BF0E80E88
:1063140001240D6E030E02200E6E000E03200F6E7C
:10632400000E0420106ED00E116E070E126E000EB9
:10633400136E000E146ECAEC57F00DC0E8F00EC0D8
:10634400E9F00FC0EAF010C0EBF0ABEF31F0010E52
:10635400F36FD40E1A6EF00E1B6EA1EC3DF000012B
:10636400F325F36FDE0E1A6EEC0E1B6EA1EC3DF0FE
:106374000001F325F36FF351D8A4C3EF31F0C5EF57
:1063840031F0EDEF31F0F051EC5DF151ED59D8A061
:10639400CEEF31F0D0EF31F0D9EF31F0F051F1110F
:1063A400D8A4D7EF31F0D9EF31F0EDEF31F0EEC0F2
:1063B40094F1EFC095F1E8C012F0E9C013F0F0C019
:1063C40014F0F1C015F0ECC016F0EDC017F0A9EC14
:1063D4005DF0EFEF31F0010EF36F0001F351D8A43B
:1063E400F6EF31F0F8EF31F00FEF32F058C0D9FF8B
:1063F40059C0DAFF300EDF6E20EE01F05850D92676
:106404005950DA227C0EDF6E20EE02F05850D92665
:106414005950DA22DF6A24EF32F058C0D9FF59C04C
:10642400DAFF320EDF6E20EE01F05850D9265950B3
:10643400DA227C0EDF6E20EE02F05850D926595035
:10644400DA22DF6A000E12000AC001F00BC002F06B
:10645400046A0A0E036E7EEC5AF0F60E0102F3CFC4
:106464000DF0F4CF0EF00202F3500E26FF0E0102DF
:10647400F3500E260A500D24236E0B500E20246E6A
:106484000AC001F00BC002F0046A640E036E7EECD5
:106494005AF09C0E0102F3CF0DF0F4CF0EF002027D
:1064A400F3500E26FF0E0102F3500E2623500D5E0C
:1064B40024500E5A0A500D24216E0B500E20226EC9
:1064C40021C001F022C002F0046A0A0E036E7EECC1
:1064D4005AF001C021F002C022F00AC001F00BC042
:1064E40002F0030E046EE80E036E7EEC5AF0180EF2
:1064F4000102F3CF0DF0F4CF0EF00202F3500E269A
:10650400FC0E0102F3500E26F60E0F6EFF0E106EF7
:106514000F502102F3CF11F0F4CF12F02202F35006
:10652400122610502102F35012260D501124136E1E
:106534000E501220146E2350135E2450145A0A5025
:1065440013241F6E0B501420206E1FC001F020C0B6
:1065540002F0046A640E036E7EEC5AF001C01FF070
:1065640002C020F00AC001F00BC002F0270E046E36
:10657400100E036E7EEC5AF0F00E0102F3CF0DF014
:10658400F4CF0EF00202F3500E26D80E0102F3509F
:106594000E269C0E0F6EFF0E106E0F501F02F3CFCF
:1065A40011F0F4CF12F02002F350122610501F0203
:1065B400F3501226F60E136EFF0E146E13502102C2
:1065C400F3CF15F0F4CF16F02202F3501626145030
:1065D4002102F350162611501524176E125016205E
:1065E400186E0D501724196E0E5018201A6E235071
:1065F400195E24501A5A0A5019241D6E0B501A2081
:106604001E6E1DC001F01EC002F0030E046EE80EE3
:10661400036E7EEC5AF001C01DF002C01EF00AC0E9
:1066240001F00BC002F0270E046E100E036E7EEC18
:106634005AF001C01BF002C01CF0286A000E276E3D
:10664400266A000E256E29EF33F0274A282A2750A0
:106654000824D96E28500920DA6EDF50D8A435EF0B
:1066640033F037EF33F027EF33F03BEF33F0254AC5
:10667400262A2550020DF3501B0FD96EDA6ADE501C
:10668400DE10D8A448EF33F04AEF33F055EF33F07F
:10669400265009E1050E255CD8A053EF33F055EFE1
:1066A40033F039EF33F0265007E1050E255CD8B0FE
:1066B4005EEF33F060EF33F094EF33F087EF33F0B5
:1066C4002550020DF3501B0FD96EDA6A010EDB5010
:1066D40007E10A0EDE5CD8B072EF33F074EF33F0EA
:1066E40085EF33F027500824D96E28500920DA6E3C
:1066F4002550020DF3501B0FE16EE26AE750300F94
:10670400DF6E274A282A254A262A265009E1050E43
:10671400255CD8A090EF33F092EF33F062EF33F0C2
:106724009EEF33F027500824D96E28500920DA6EE2
:10673400300EDF6E274A282A0C50D8B4A4EF33F069
:10674400A6EF33F0B0EF33F027500824D96E285069
:106754000920DA6E0CC0DFFF274A282A27500824B4
:10676400D96E28500920DA6EDF6A12002F6E1B6A78
:10677400000E1A6E020E1D6E000E1C6E150E206E9B
:10678400360E1F6E130E226E360E216E100E246E00
:10679400360E236EA60E186E010E196E1E6A020EB8
:1067A4002F64D7EF33F0D9EF33F0DDEF33F0020E7F
:1067B4002A6EDFEF33F0010E2A6E306A2FC001F02B
:1067C400026A046A030E036E78EC56F00150060860
:1067D400076E0250D8A0E82A0008086E3050020D57
:1067E400F3501A0FD96EDA6ADECF09F0DDCF0AF062
:1067F4002A5037EC54F0050E136E0F0E126EF10E84
:10680400E82EFED7122EFCD7132EFAD700002FC085
:1068140001F0026A046A030E036E78EC56F001502C
:10682400020DF3501F0FD96EDA6ADECF07F0DDCF09
:1068340008F02A50CFEC56F03050020DF3502B0FD5
:10684400D96EDA6A07C0DEFF08C0DDFF0B0E126ED8
:10685400620EE82EFED7122EFCD700F000F0296A53
:106864002FC001F0026A046A030E036E78EC56F03E
:106874000150020DF3501F0FD96EDA6ADECF07F014
:10688400DDCF08F02A50CFEC56F007C027F008C03F
:1068940028F03050020DF3502B0FD96EDA6A6A0ECD
:1068A4002724146EFF0E2820156EDE50145C15503C
:1068B400800A166EDE50800A1658D8B064EF34F0A1
:1068C40066EF34F08CEF34F0960E2724126E000E2F
:1068D4002820136E3050020DF3502B0FD96EDA6A54
:1068E4001250DE5CDE50800A166E1350800A165871
:1068F400D8B07FEF34F081EF34F08CEF34F0140E25
:10690400296087EF34F089EF34F08CEF34F0292AD2
:106914009FEF34F0140E296092EF34F094EF34F0CA
:106924009FEF34F03050020DF3502B0FD96EDA6A1A
:1069340027C0DEFF28C0DDFF296A140E2918D8A459
:10694400A6EF34F0A8EF34F032EF34F0302A010E21
:106954003064AFEF34F0B1EF34F0E0EF33F0C80E51
:106964002D24126E000E2E20136E2B50125C135029
:10697400800A146E2C50800A1458D8A0C4EF34F046
:10698400C6EF34F0DBEF34F0C80E2B24126E000E89
:106994002C20136E2D50125C1350800A146E2E504E
:1069A400800A1458D8B0D9EF34F0DBEF34F0DDEFBF
:1069B40034F0010E1E6E2C6A000E2B6E2E6A000E31
:1069C4002D6E020E126E000E136E2A50125E000E11
:1069D400135A030E1202F3CF14F0F4CF15F013027E
:1069E400F3501526D890143615362FC001F0026ADC
:1069F400046A030E036EF5EC5BF0D89001360236A0
:106A040001501824166E02501920176E14501624C3
:106A1400D96E15501720DA6EDECF25F0DDCF26F0C3
:106A2400040E265CD8B019EF35F01BEF35F03EEFBD
:106A340035F02FC001F0026A046A030E036E78EC8D
:106A440056F001500608076E0250D8A0E82A000844
:106A5400086E25C009F026C00AF02A5037EC54F01D
:106A6400050E136E0F0E126EF10EE82EFED7122EC7
:106A7400FCD7132EFAD700001E501200216A000E14
:106A8400206E2B6A2B50840FD96EDA6ADF50D8A49B
:106A94004EEF35F050EF35F092EF36F0266A2B507A
:106AA400040DF350620FD96EDA6A2B50040DF350C3
:106AB400600FE16EE26ADE50E65CDE50E658D8B064
:106AC40066EF35F068EF35F08BEF35F02B50040DA1
