:020000040000FA
:06000000CEEF4EF01200ED
:020006001200E6
:08000800E9CFE4FFEACFE4FFB9
:10001000F6CFE4FFF7CFE4FFF5CFE4FFF3CFE4FF43
:10002000F4CFE4FFFACFE4FF00EE22F0140EE80470
:1000300003E3EECFE4FFFBD700EE00F0220EE8046E
:1000400003E3EECFE4FFFBD7E652D9CFE6FFDACFEA
:10005000E6FFE1CFD9FFE2CFDAFFE652E652E25007
:10006000000EF350E124366E376A000E372236C098
:10007000DEFF37C0DDFFDECF36F0DDCF37F0050124
:1000800036506C5D37506D5904E2DECF6CF5DDCF34
:100090006DF59EA207D005012A2B000E2B232C23E1
:1000A0002D239E929EAAC9D0E250000EF350E12467
:1000B000366E376A000E372236C0DEFF37C0DDFFEE
:1000C000DECF36F0DDCF37F0050136506C5D3750AE
:1000D0006D5904E2DECF6CF5DDCF6DF59EAAACD094
:1000E000AB50020B03E1AB50040B05E0AB980000F2
:1000F000AB88AB9EAB8EB5EC4DF00001866F5DCF4B
:10010000E9FF5ECFEAFF060EE926000EEA22E9CFFC
:1001100036F0EACF37F05DCFE9FF5ECFEAFF040E9D
:10012000E926000EEA223650EE24E76E3750EE2024
:10013000EA6EE7CFE9FF86C0EFFF5DCFE9FF5ECF54
:10014000EAFFEECF3AF0EFCF3BF05DCFE9FF5ECFB5
:10015000EAFF040EE926000EEA22EECF38F0EFCFD8
:1001600039F0010E3826000E392238C02AF039C085
:100170002BF03AC02FF03BC030F0A8EC4EF026C078
:1001800036F027C037F05DCFE9FF5ECFEAFF040EFF
:1001900036C0EBFF050E37C0EBFF5DCFE9FF5ECF4A
:1001A000EAFF040EE926000EEA22EECF36F0EFCF8A
:1001B00037F05DCFE9FF5ECFEAFF020EE926000EC1
:1001C000EA22EECF38F0EFCF39F03850361802E19E
:1001D0003950371830E15DCFE9FF5ECFEAFFEECF4F
:1001E0003AF0EFCF3BF05DCFE9FF5ECFEAFF020EC2
:1001F000E926000EEA22EECF38F0EFCF39F0010EFB
:100200003826000E392238C02AF039C02BF03AC007
:100210002FF03BC030F0A8EC4EF026C036F027C0DF
:1002200037F05DCFE9FF5ECFEAFF020E36C0EBFF8D
:10023000030E37C0EBFF52D79E9AE552E552E552C6
:10024000E5CFDAFFE7CFD9FFE55200EE21F0220E2D
:10025000E80403E3E5CFEDFFFBD700EE35F0140E25
:10026000E80403E3E5CFEDFFFBD7E5CFFAFFE5CFE9
:10027000F4FFE5CFF3FFE5CFF5FFE5CFF7FFE5CFDF
:0C028000F6FFE5CFEAFFE5CFE9FF110033
:04028C0002001E9EB0
:1002900000004A0F0000130000001C9E00005D0FCC
:0602A00000000200000056
:0A02A6000F01380E006F1F0E016FEC
:1002B000360E026F250E036FA80E046F240E056F15
:1002C0008E0E066F1C0E076F0E0E086F140E096F50
:1002D0005A0E0A6F0E0E0B6FB20E0C6F160E0D6FCC
:1002E000C60E0E6F140E0F6FF00E106F130E116FFF
:1002F000920E126F110E136F060E146F180E156FFB
:100300005A0E166F230E176F600E186F130E196FAB
:100310000A0E1A6F240E1B6FFA0E1C6F1F0E1D6F34
:10032000600E1E6F220E1F6FC00E206F0B0E216F0E
:100330001C0E226F230E236F640E246F230E256F75
:10034000F60E266F050E276FA80E286F060E296F72
:10035000D00E2A6F0A0E2B6FBA0E2C6F050E2D6F62
:10036000B20E2E6F0D0E2F6F5C0E306F700E316F50
:10037000D20E326F720E336F780E346F720E356F8D
:10038000EE0E366F210E376F7A0E386F040E396F0E
:10039000060E3A6F060E3B6F260E3C6F1B0E3D6F2E
:1003A0009A0E3E6F1A0E3F6F060E406F1B0E416F86
:1003B0005E0E426F040E436FE20E446F040E456FF3
:1003C0005A0E466F0C0E476F120015EC13F0830E99
:1003D000F36EFD0EEDEC14F007E3FD0EDB507D0F28
:1003E000006E240E005C02E3010E37D0FD0EDB50E0
:1003F0007D0FE96EEA6AD890E936EA36000EE92602
:100400000F0EEA22EE50ED1002E1020E26D0FD0E94
:10041000DB507D0FE96EEA6AD890E936EA36000EC5
:10042000E9260F0EEA22EECF00F0EFCF01F0F90E31
:10043000DBCFE6FFFA0EDBCFE6FFFB0EDBCFE6FFFE
:10044000FC0EDBCFE6FF04D001C0FAFF0050F96ECE
:10045000FBDFE552E552E552E55224EF13F002ECE2
:1004600016F0E66A26EC15F05CEC14F002E2E16AA4
:10047000E55277EC14F024EF13F0D9CFE6FFDACF92
:10048000E6FFE1CFD9FFE2CFDAFFFA0EDBCFE9FFDB
:10049000FB0EDBCFEAFF300EEF6E010EE76EFA0EB9
:1004A000DBCFE9FFFB0EDBCFEAFFE750E926000ECA
:1004B000EA227C0EEF6E020EE76EFA0EDBCFE9FF4A
:1004C000FB0EDBCFEAFFE750E926000EEA22EF6AD7
:1004D000FF00000E00D0E552E5CFDAFFE7CFD9FFED
:1004E000120015EC13F00D0EE12402E3E168E65270
:1004F000E16E12EC13F0510825E1BFEC16F022E199
:100500006A0E0FEC15F0E66E2DEC15F0E552E75093
:10051000EE6EED6A6B0E0FEC15F0016E006A2DECBD
:1005200015F00050EE260150ED22E9EC16F05CECDF
:1005300015F0060E96EC15F002E2E16AE552E16E66
:10054000005030D0020EDB6A7EEC16F006E088EC3C
:1005500016F0070F92EC16F0F7D7D950070F05ECFD
:1005600016F0D950030F3CEC13F0070F21EC13F0F9
:10057000DB5014E1FF0EE76E030EDBCF00F0040E3C
:10058000CCEC14F06A0E2DEC13F0030E040EE2EC2A
:1005900013F06B0E2DEC13F0DF6A02D0010EDF6E4C
:1005A00067EC15F0000E006E0D0EE15C02E2E16AF0
:1005B000E552E16E005024EF13F002EC16F02C0E21
:1005C000E66E020E05012915E8407F0BE66EE3ECAE
:1005D00016F002E2E16AE5520BEC15F0010E05019E
:1005E0002915E66EE3EC16F002E2E16AE55277ECDB
:1005F00014F024EF13F015EC13F061EC46F01BEC53
:1006000013F024EF13F00BEC16F0D2EC14F0040E00
:100610004DEC15F095EC16F003E09AEC15F00EE1B8
:100620008CEC15F00BE18CEC16F003E098EC16F076
:1006300005E1C2EC15F002E1010EDB6A010EDB50B0
:1006400024E195EC16F006E18CEC16F003E1020EC5
:10065000DCC4DBFF95EC16F006E198EC16F003E144
:10066000020EDDC4DBFF9AEC15F006E18CEC16F00F
:1006700003E1020EDEC4DBFF9AEC15F006E198EC14
:1006800016F003E1020EDFC4DBFFDF6AD3EC15F0E6
:10069000E3EC16F002E2E16AE55277EC14F0E55281
:1006A000E552E55224EF13F020EC16F0300804E098
:1006B00012EC13F031080FE18CEC15F00CE174EC46
:1006C00015F0300803E08CEC16F005E1C2EC15F0F3
:1006D00002E1010EDB6A010EDB5024E112EC13F0A3
:1006E000300804E1040E0401C01103D0FB0E040124
:1006F000C015C06F74EC15F0300803E1080EC0118E
:1007000002D0F70EC015C06F836E12EC13F0D00F3D
:10071000006E74EC15F0D00FE82400240501296F59
:10072000DF6A02D0010EDF6E67EC15F0E552E5528C
:1007300024EF13F015EC13F0180EE12402E3E16846
:10074000E652E16EDE6ADD6A020EDB6AF36E030ECC
:1007500052EC15F0120EF3CFDBFF150EF36E130EF5
:1007600052EC15F0140EF3CFDBFF130EF36E150EE3
:1007700052EC15F0160EF3CFDBFF100EF36E170ED2
:10078000F3CFDBFFD950040FE96EDACFEAFF000E9A
:10079000EA226E0EEE6E050EED6E0A0EDB6AFD0E9F
:1007A000DB50020802E2020E01D0010EF36E0B0EC6
:1007B000F3CFDBFF090EDB6A020EF36E090EEDECE0
:1007C00014F001E3C8D0D9CF00F0DACF01F0090E60
:1007D000DB50020DD950F324E96EDA5024EC16F008
:1007E000060E026E030E036EF4EC13F0025C13ECC3
:1007F00015F0046E050EE15C02E2E16AE552E16E7D
:100800000450640E57EC15F0D950120F046E000E10
:10081000DA20056E030E066EF4EC13F0020D0450A0
:10082000F324E96E055022EC14F0F3CF02F0F4CF7C
:1008300003F015EC14F002C0EEFF03C0EDFF010E53
:1008400057EC15F0080EDB6AD950120FF3EC15F0D7
:10085000026EF4EC13F0020D0050F324E96E015027
:1008600022EC14F00C0EF3CFDBFF0D0EF4CFDBFF08
:10087000D9500E0F026E000EDA20036E090EDB5007
:10088000020D0250F324E96E0350F420EA6EEECF1D
:1008900000F0EFCF01F00C0EDBCF04F00D0EDBCF3C
:1008A00005F0960E045E000E055A05500118E8AEDC
:1008B00002D0013404D00050045C0150055833E2EA
:1008C000D9500E0F086E000EDA20096E090EDB50AB
:1008D000020D0850F324E96E0950F420EA6EEECFC1
:1008E00006F0EFCF07F0960EE76E0C0EDBCF0AF0A6
:1008F0000D0EDBCF0BF0E7500A26000E0B2207503F
:100900000B18E8AE02D00B3404D00A50065C0B5032
:10091000075809E2140EF36E080EEDEC14F003E232
:10092000080EDB2A10D0140EF36E080EEDEC14F056
:100930000AE215EC14F00C0EDBCFEEFF0D0EDBCF50
:10094000EDFF080EDB6A080EDB50140801E07CD7CF
:10095000090EDB2A31D70E0EDBCF00F00F0EDBCFF6
:1009600001F0C80EE76E100EDBCF02F0110EDBCFE8
:1009700003F0E7500226000E032203500118E8AEF0
:1009800002D0013404D00050025C015003581DE332
:10099000100EDBCF04F0110EDBCF05F0C80EE76EB2
:1009A0000E0EDBCF06F00F0EDBCF07F0E75006266A
:1009B000000E072207500518E8AE02D0053404D017
:1009C0000450065C0550075805E2010EF36E0A0E4E
:1009D000F3CFDBFF0E0EDB6A0F0EDB6A100EDB6A55
:1009E000110EDB6AFD0EDB50026E036A030E2F6EE2
:1009F000306A02C02AF003C02BF0A8EC4EF026C0EB
:100A000002F027C003F0010ED89002360336E80644
:100A1000FBE1040EDB500224006E050EDB500320C8
:100A2000016E0B0EDBCF06F0076A06BE0768020EEA
:100A3000D8800656000E0756030E2A6E2B6A06C093
:100A40002FF007C030F096EC3DF028C004F029C02C
:100A500005F0010ED89004360536E806FBE100509B
:100A60000424E96E01500520EA6E060EEECFDBFF8E
:100A7000070EEDCFDBFF46EC16F0000E005C040E17
:100A800001581AE2060EDBCFE6FF070EDBCFE6FFCA
:100A9000060E006E030E016EF4EC13F0005C13EC16
:100AA00015F0026E050EE15C02E2E16AE552E16ECC
:100AB0000250640E57EC15F00A0EDB50006E180E53
:100AC000E15C02E2E16AE552E16E005024EF13F0CE
:100AD00008EC16F0E65261EC14F095EC16F003E029
:100AE0009AEC15F012E18CEC15F00FE18CEC16F09D
:100AF00007E098EC16F004E074EC15F0330805E11B
:100B0000C2EC15F002E1030EDB6A030EDB504CE190
:100B100081EC16F0040EDB6A81EC14F007E1020EA2
:100B2000DB50030803E1E66A98EC13F081EC14F063
:100B300007E122EC15F004E1010EE66E98EC13F0EB
:100B400081EC14F007E1020EDB0404E1020EE66E14
:100B500098EC13F085EC14F008E1020EDB5003086A
:100B600004E1030EE66E98EC13F085EC14F007E157
:100B700022EC15F004E1040EE66E98EC13F085EC1F
:100B800014F007E1020EDB0404E1050EE66E98ECBA
:100B900013F0E9EC16F0040ECBEC15F002E2E16A7A
:100BA000E552E16E005002D0A0EC16F0000E19ECF8
:100BB00016F002E2E16AE552E16E005024EF13F014
:100BC00015EC13F00F0EE12402E3E168E652C0ECED
:100BD00013F012EC13F006E1010EDB6A0401650E5E
:100BE000F16F22D0020EDB6A7EEC16F009E08FEC8A
:100BF00016F006E088EC16F0050F92EC16F0F4D72C
:100C0000D950050F05EC16F06AEC15F00DE1020E57
:100C1000DB500AE0D950030F3CEC13F0050F21EC38
:100C200013F0030EDBCFF1F4010EDB5007E1DF6AB6
:100C300067EC15F00401010EF06F04D00401F06BB5
:100C4000A0EC16F0000E006E0F0EE15C02E2E16A0D
:100C5000E552E16E005024EF13F00BEC16F0E65273
:100C60001BEC13F012EC13F0510834E1BFEC16F05A
:100C700031E1DF6A020E60EC15F0410E32EC13F048
:100C80002C0EEF6E0401C0B104D092EC13F0300EC4
:100C900003D092EC13F0310EEF6E050E60EC15F000
:100CA0002C0EEF6E060E60EC15F0420EEF6E070E86
:100CB00060EC15F02C0EEF6EC0B304D04BEC14F0CA
:100CC000300E03D04BEC14F0310EEF6E090E60ECD9
:100CD00015F0EF6A95EC16F003E09AEC15F064E17C
:100CE0008CEC15F061E174EC15F0300803E08CEC4D
:100CF00016F05AE1010EDF6EE6EC16F031E11DEC64
:100D000016F0410804E01DEC16F0420829E1050E3A
:100D10000AEC13F02C0824E1060E0AEC13F030085C
:100D200005E0060E0AEC13F031081AE1070E0AEC92
:100D300013F016E1060E0AEC13F0D00F09E1FE0ED7
:100D4000006E1DEC16F0BF0F005C0401C01506D04C
:100D50001DEC16F0BF0F010F0401C011C06FDF6A58
:100D6000C2EC15F013E174EC15F0D00F09E1FE0EA2
:100D7000006E12EC13F0BF0F005C0401C01504D02C
:100D80004AEC16F00401C011C06FDF6ADF5005E1C4
:100D9000C0C483FF010EDB6A03D0DE52010EDD6E9C
:100DA000DB50300FCFEC15F0000EE552E55224EF8A
:100DB00013F002EC16F0E66A6AC5E6FF6BC5E6FFC3
:100DC0000DEC13F002E2E16AE55277EC14F024EF47
:100DD00013F00BEC16F0010EDF6EFD0EDB50410838
:100DE0000BE1FC0EDB50310807E1DF6A70EC16F016
:100DF00052C5EEFF53C5EDFFFD0EDB5041080BE180
:100E0000FC0EDB50320807E170EC16F054C5EEFF23
:100E100055C5EDFFDF6AFD0EDB5042080BE1FC0E0D
:100E2000DB50310807E170EC16F056C5EEFF57C5F0
:100E3000EDFFDF6AFD0EDB5042080BE1FC0EDB50DC
:100E4000320807E170EC16F058C5EEFF59C5EDFF0A
:100E5000DF6ADF50E55224EF13F04EEC16F002E3A8
:100E6000E168E65293EC15F003E09AEC15F00EE120
:100E70008CEC15F00BE18CEC16F003E098EC16F01E
:100E800005E1C2EC15F002E1010EDB6A010EDB5058
:100E900001E0ABD06DEC15F0030EEFCFDBFF74EC8F
:100EA00015F0D00FDF6E080EDB6A090EDB6A030E49
:100EB0000BEC14F0030EDF2400240F01486F480EE2
:100EC000E66E0F0EE66EA5D8E552E552040EF3CF9E
:100ED000DBFF050EF4CFDBFF030E0BEC14F0DF0499
:100EE0002FEC14F0EF5011E1020EDB6AA8EC15F0C4
:100EF00002E2E16AE552E16E0250E66A8D0EE66EAC
:100F00009C0E36EC13F01DE21AD0030E0BEC14F01D
:100F1000DF040024E1EC14F0C40EE926040EEA22FA
:100F2000EE50ED1011E1020EDB6AD7EC16F0EF6A1D
:100F3000E66A890EE66E9C0E36EC13F002E2E16A78
:100F4000E552E16E005051D0020EDB6AD950080F15
:100F5000ADEC16F0300EDF24E66E030E89EC14F0D3
:100F6000190E006E016A080EDBCF2AF0090EB1ECF3
:100F700013F0660E2A6E2B6A060EDBCF2FF0070EDB
:100F8000DBCF30F096EC3DF0060E28C0DBFF070EFD
:100F900029C0DBFF0A0EDEEC15F0040EDEEC15F0C6
:100FA00031EC15F0060EDB50025C006E070EDB50D4
:100FB0000358016E060E00C0DBFF070E01C0DBFF09
:100FC000020EA8EC15F002E2E16AE552E16E025071
:100FD000E66A2D0E28EC14F057EC14F03FEC13F0F9
:100FE00002E2E16AE552E16E0250010EDB0406E125
:100FF000020EF36EDB6ED7EC16F0EF6A000E006E99
:101000000A0EE15C02E2E16AE552E16E005024EF73
:1010100013F04EEC16F002E3E168E652E16E26ECC6
:1010200015F02EEC43F0E552E552F3CFDEFFF4CF9E
:10103000DDFF8FEC14F0060EDB6A070EDB6A080E8C
:10104000DB6A090EDB6A12EC13F0FC0FE1EC14F022
:10105000420EE926050EEA22020EEECFDBFF030E5A
:10106000EECFDBFF040EEECFDBFF050EEECFDBFF96
:1010700012EC13F0FC0FE1EC14F0320EE926050E31
:10108000EA22EECF04F0EECF05F0EECF06F0EFCF80
:1010900007F0DECF00F0DDCF01F0026A036A00C086
:1010A00028F001C029F002C02AF003C02BF004C0D0
:1010B0002DF005C02EF006C02FF007C030F0E2EC96
:1010C0004CF0060E24C0DBFF070E25C0DBFF080E28
:1010D00026C0DBFF090E27C0DBFF38EC15F031EC32
:1010E00015F0D950060FB7EC15F0E6EC15F0033407
:1010F000000E031809E6D880000E0054000E0154BB
:10110000000E0254000E03540BE246EC16F0080EDB
:10111000DBCF02F0090EDBCF03F0A0EC13F002D01E
:101120008FEC14F0500E006EC30E016E026A036A5B
:10113000A0EC13F0020EDBCF28F0030EDBCF29F07A
:10114000040EDBCF2AF0050EDBCF2BF0A00E2D6EA8
:10115000860E2E6E010E2F6E306A35EC3DF0020EBB
:1011600028C0DBFF030E29C0DBFF040E2AC0DBFF13
:10117000050E2BC0DBFF38EC15F000C0F3FF01C0FB
:10118000F4FF0A0EE15C02E2E16AE552E16E24EF4F
:1011900013F04EEC16F002E3E168E65293EC15F022
:1011A00003E09AEC15F005E1BFEC16F002E1010E48
:1011B000DB6A010EDB5001E0C2D095EC16F006E1CF
:1011C000000EE66EE66A010E4EEC14F09AEC15F095
:1011D00006E1000EE66EE66A020E4EEC14F0060E14
:1011E000070EDBCF04F0036A800E0416056A0F0EAB
:1011F0001F0B03C000F004C001F005C002F006E0C0
:10120000D890023201320032E806FAE1020E00C044
:10121000DBFF060E070EDBCF01F0000E780E011685
:101220000150016AE830E830E8301F0B006EDC0E38
:101230000026070E0122080E00C0DBFF090E01C0C8
:10124000DBFF46EC16F0800E0016070E0116D89054
:1012500001320032E804FBE1030E00C0DBFF7C0E2C
:101260002BEC16F0D89001320032D89001320032C7
:10127000040E00C0DBFF030E2BEC16F0050E00C0C1
:10128000DBFFE9EC16F0840EE66E9C0E36EC13F0F4
:1012900002E2E16AE55210EC14F0020EDB50410F5D
:1012A00028EC14F07F0EE66E9C0E36EC13F002E292
:1012B000E16AE55210EC14F0040ECBEC15F002E2FA
:1012C000E16AE5520BEC15F0780EE66E9C0E36ECFA
:1012D00013F002E2E16AE55210EC14F0030ECBECDD
:1012E00015F002E2E16AE5520BEC15F0720EE66EC3
:1012F0009C0E36EC13F002E2E16AE55210EC14F0B9
:10130000080EDBCFE6FF090E96EC15F002E2E16A6B
:10131000E5520BEC15F0690EE66E9C0E36EC13F000
:1013200002E2E16AE5520BEC15F05CEC15F0E3EC3F
:1013300016F002E2E16AE552E16E005002D0A0EC44
:1013400016F0000E006E0A0EE15C02E2E16AE55260
:10135000E16E005024EF13F002EC16F024EF13F0CE
:1013600008EC16F0020EDB6A030EDB6ADE52010E99
:10137000DD6E6DEC15F0EFCF00F0300E005C1CE37D
:1013800012EC13F0370818E3BFEC16F015E1010E6C
:10139000DB6A12EC13F0D00F0F01496F490EE66EB5
:1013A0000F0EE66E2EEC43F0E552E552020EF3CF3F
:1013B000DBFF030EF4CFDBFF010EDB500CE1DF6A35
:1013C000D3EC15F0030E96EC15F002E2E16AE5525B
:1013D000E16E005002D0A0EC16F0000E006E040E7C
:1013E000E15C02E2E16AE552E16E005024EF13F0A5
:1013F000C9EC16F05A0EE66E9C0E36EC13F002E2C3
:10140000E16AE55277EC14F0E55224EF13F015ECA5
:1014100013F0060EE12402E3E168E65293EC15F0C6
:1014200003E09AEC15F00EE18CEC15F00BE18CEC7E
:1014300016F003E098EC16F005E1C2EC15F002E1BD
:10144000010EDB6A010EDB502CE1CCEC13F0050E33
:10145000EFCFDBFFD6EC15F00BE1D950020FADEC6E
:1014600016F05CEC15F0040E89EC14F052EC16F05A
:10147000010EDB5016E1DF6AD6EC15F00BE1D3EC80
:1014800015F0030E96EC15F002E2E16AE552E16E0A
:10149000005007D08FEC15F0430EEF6E92EC13F076
:1014A000EF6A010EDB0404E1020EDF6E67EC15F05B
:1014B000000E006E060EE15C02E2E16AE552E16EAA
:1014C000005024EF13F015EC13F02C0EE12402E38E
:1014D000E168E652C0EC13F0020EDB6A7EEC16F017
:1014E00006E08FEC16F003E026EC17F0F7D72AECB5
:1014F00017F031E1020EDB502EE0FCEC13F06AEC49
:1015000015F006E08FEC16F003E01DEC17F0F7D7AE
:1015100021EC17F08FEC16F01EE1EDEC13F01BE060
:10152000FCEC13F06AEC15F009E08FEC16F006E025
:1015300088EC16F0180FBCEC15F0F4D7D950180F42
:101540002AEC13F0EF6A6AEC15F005E1EDEC13F00C
:1015500002E0010EDB6A010EDB5001E098D0D950A9
:10156000220FA4EC15F0DB503EE1D950220FB7EC6E
:1015700015F0D00ED880EE54070EED5434E3220E51
:10158000DBCF28F0230EDBCF29F02A6A2B6A0E0E60
:101590002D6E820E2E6E2F6A306AE2EC4CF024C063
:1015A00028F025C029F026C02AF027C02BF0E80E2D
:1015B0002826030E2922000E2A222B22D00E2D6E61
:1015C000070E2E6E2F6A306A4FEC4DF0280E28C0A1
:1015D000DBFF290E29C0DBFF2A0E2AC0DBFF2B0E02
:1015E0002BC0DBFF03D0DE52010EDD6E010EDBCF20
:1015F000E6FFD950240FEFEC15F0DBCFE6FFD95012
:10160000260F3CEC13F0180F8DEC13F0010EE7CF12
:10161000DBFFDB5039E1240EDBCF00F0250EDBCF02
:1016200001F0260EDBCF02F0270EDBCF03F00050D7
:10163000025C0150035805E3D950240F67EC14F005
:1016400023E1220EDBCF6AF5230EDBCF6BF5260EEE
:10165000DBCFE6FF270EDBCFE6FF240EDBCFE6FF76
:10166000250EDBCFE6FF280EDBCFE6FF290EDBCF12
:10167000E6FF55EC30F0006E060EE15C02E2E16A36
:10168000E552E16E005003D0DE52010EDD6E010E18
:10169000DB5002E1DF6A02D0020EDF6EC2EC16F010
:1016A0002C0EE15C02E2E16AE552E16E005024EFAB
:1016B00013F015EC13F00F0EE12402E3E168E6529B
:1016C00093EC15F003E09AEC15F032E18CEC15F098
:1016D0002FE18CEC16F007E098EC16F004E074ECC7
:1016E00015F0330825E1E6EC16F022E1040E4DEC8E
:1016F00015F07EEC16F00CE08FEC16F009E088ECAB
:1017000016F0030F5DEC13F0FC0F2FEC17F0F1D780
:10171000D950030F5DEC13F0FC0F59EC13F06AEC99
:1017200015F006E1020EDB50040802E0010EDB6A50
:10173000010EDB5053E18CEC16F018E195EC16F03D
:1017400009E17DEC15F006E1C5EC13F0A3EC46F0E1
:10175000E552E5529AEC15F009E17DEC15F006E151
:10176000C5EC13F0B0EC46F0E552E55298EC16F0FB
:1017700018E195EC16F009E17DEC15F006E1C5ECF9
:1017800013F0BDEC46F0E552E5529AEC15F009E194
:101790007DEC15F006E1C5EC13F0CAEC46F0E5521D
:1017A000E55274EC15F033081CE195EC16F009E1F4
:1017B0007DEC15F006E1C5EC13F0D7EC46F0E552F0
:1017C000E5529AEC15F00DE17DEC15F00AE1C5EC5F
:1017D00013F0E4EC46F0E552E55203D0DE52010E80
:1017E000DD6E010EDB5002E1DF6A02D0020EDF6E19
:1017F000C2EC16F00F0EE15C02E2E16AE552E16E26
:10180000005024EF13F054EC16F002E3E168E652C6
:10181000C0EC13F0DF6E95EC16F003E09AEC15F0D7
:101820003BE18CEC15F038E18CEC16F003E098EC21
:1018300016F032E1E6EC16F02FE11DEC16F02B0865
:1018400004E01DEC16F02D0827E1050E0AEC13F05C
:101850002C0822E1060E4DEC15F07EEC16F00CE0A3
:101860008FEC16F009E088EC16F0060F5DEC13F033
:10187000FA0F2FEC17F0F1D7D950060F5DEC13F0EB
:10188000FA0F59EC13F06AEC15F006E1020EDB508A
:10189000060802E0010EDB6A010EDB5001E0E6D033
:1018A000CCEC13F0030EEFCFDBFF040E77EC16F059
:1018B000050EEFCFDBFFDE52010EDD6ED950100FAB
:1018C0003CEC13F0060F21EC13F0040EDB50410842
:1018D0002FE1030EDB5031082BE1010EDB5028E134
:1018E0000401DC0523E1050EDB502B080DE185EC3E
:1018F00013F00401C6272B50C7230EEC17F002E2A9
:10190000E16AE552E16E0050050EDB502D0810E152
:1019100085EC13F00401C65F2B50C75B0EEC17F08B
:1019200002E2E16AE552E16E005002D0DBEC16F013
:10193000040EDB5041082FE1030EDB5032082BE18F
:10194000010EDB5028E10401DD0523E1050EDB502B
:101950002B080DE185EC13F00401CA272B50CB2393
:10196000EDEC16F002E2E16AE552E16E0050050E80
:10197000DB502D0810E185EC13F00401CA5F2B50F9
:10198000CB5BEDEC16F002E2E16AE552E16E00504D
:1019900002D0DBEC16F0040EDB5042082FE1030E00
:1019A000DB5031082BE1010EDB5028E10401DE059C
:1019B00023E1050EDB502B080DE185EC13F004014B
:1019C000CE272B50CF23F8EC16F002E2E16AE55265
:1019D000E16E0050050EDB502D0810E185EC13F090
:1019E0000401CE5F2B50CF5BF8EC16F002E2E16A07
:1019F000E552E16E005002D0DBEC16F0040EDB5035
:101A0000420840E1030EDB5032083CE1010EDB509E
:101A100039E10401DF0523E1050EDB502B080DE160
:101A200085EC13F00401D2272B50D32303EC17F0DD
:101A300002E2E16AE552E16E0050050EDB502D082E
:101A400021E185EC13F00401D25F2B50D35B03EC52
:101A500017F002E2E16AE552E16E005013D0DF6A4E
:101A6000B9EC16F04E0EEF6E030E09D08FEC15F0A8
:101A70004F0EEF6E92EC13F04B0EEF6E050E60EC16
:101A800015F0EF6A000E006E120EE15C02E2E16AF0
:101A9000E552E16E005024EF13F00BEC16F072ECFF
:101AA00014F098EC14F036EC14F04FEC4DF0DE52DC
:101AB00028C0DEFF29C0DDFFDD52A1EC14F036ECBA
:101AC00014F04FEC4DF0030E28C0DBFF040E29C0CC
:101AD000DBFFDF6A67EC15F00EEC16F002E2E16A5C
:101AE000E5520BEC15F0CCEC16F002E2E16AE5529F
:101AF00077EC14F019EC16F002E2E16AE552E16EBF
:101B0000005024EF13F0C9EC16F06CC5E6FF6DC56C
:101B1000E6FF0DEC13F002E2E16AE55277EC14F017
:101B2000E55224EF13F015EC13F01C0EE12402E350
:101B3000E168E652C0EC13F0020EDB6A7EEC16F0B0
:101B400006E08FEC16F003E026EC17F0F7D72AEC4E
:101B500017F018E1020EDB5015E0FCEC13F06AEC14
:101B600015F006E08FEC16F003E01DEC17F0F7D748
:101B700021EC17F06AEC15F005E1EDEC13F002E052
:101B8000010EDB6A010EDB5072E1D2EC16F0DB5085
:101B90006EE1180EDBCF00F0190EDBCF01F01A0E4C
:101BA000DBCF02F01B0EDBCF03F00250005C0350D2
:101BB00001585DE2D950180F67EC14F058E0D95085
:101BC0001A0F67EC14F053E0180EDBCF62F5190E14
:101BD000DBCF63F50501646B656B36EC14F098ECB4
:101BE00014F0E2EC4CF024C062F525C063F526C089
:101BF00064F527C065F51A0EDBCF66F51B0EDBCF4B
:101C000067F50501686B696B36EC14F0A1EC14F014
:101C1000E2EC4CF024C066F525C067F526C068F5F7
:101C200027C069F5180E190EE2EC13F0750E2DECB5
:101C300013F0FF0EE76E180EDBCF00F0190ECCECA0
:101C400014F0740E2DEC13F01A0E1B0EE2EC13F0D0
:101C5000770E2DEC13F0FF0EE76E1A0EDBCF00F0BF
:101C60001B0ECCEC14F0760E2DEC13F0DF6A010E97
:101C7000DB5002E0010EDF6EC2EC16F01C0EE15CE0
:101C800002E2E16AE552E16E005024EF13F015EC38
:101C900013F0230EE12402E3E168E652E16E61EC09
:101CA00014F0010EDF6E95EC16F003E09AEC15F0DF
:101CB0005DE18CEC15F05AE18CEC16F003E098EC49
:101CC00016F054E1E6EC16F051E1040EF36E050E49
:101CD000F3CFDBFF040EF36EDB6E7EEC16F00CE050
:101CE000B4EC15F02C0808E0B4EC15F0E66ED95011
:101CF0000B0F14EC16F0F1D7D9500B0FC5EC15F003
:101D000059EC13F0B4EC15F006E16BEC14F003E0C1
:101D1000030E3FEC15F0B4EC15F02C0827E16BEC4A
:101D200014F024E0040EDB2ADB50E76E050EE7CF4B
:101D3000DBFFB4EC15F00CE0B4EC15F02C0808E077
:101D4000B4EC15F0E66ED950150F14EC16F0F1D77F
:101D5000D950150F95EC13F0EF6AB4EC15F006E1CD
:101D60006BEC14F003E0040E3FEC15F0030EDB50B7
:101D700001E0D8D081EC16F0D950070F3CEC13F0FD
:101D80000B0F87EC15F0E76E030EE7CFDBFF060EB7
:101D9000DB5004081CE1030EDBCFE6FFD950090F2E
:101DA0003CEC13F0150F8DEC13F0030EE7CFDBFFC7
:101DB000DB5018E1090EDBCF00F00A0EDBCF01F09B
:101DC0001F0E00C0DBFF200E01C0DBFF07D00A0E94
:101DD000F36E1F0EF3CFDBFF200EDB6A210EDB6AF2
:101DE000220EDB6A030EDB5042E161EC14F081EC61
:101DF00014F00DE1020EDB040AE13DEC14F00401E5
:101E00000050F65D0150F75902E3030EDB6A81ECE6
:101E100014F00DE122EC15F00AE13DEC14F00401A0
:101E20000050F85D0150F95902E3030EDB6A85ECBE
:101E300014F00DE1020EDB040AE13DEC14F00401A4
:101E40000050FA5D0150FB5902E3030EDB6A85EC9A
:101E500014F00DE122EC15F00AE13DEC14F0040160
:101E60000050FC5D0150FD5902E3030EDB6A030ED6
:101E7000DB5058E1010E0BEC14F0020EDB042FECEA
:101E800014F0EF5002E1030EDF6E81EC14F008E174
:101E9000010E0401C01504E1010EC011C06F836E74
:101EA00085EC14F008E1020E0401C01504E1020EF5
:101EB000C011C06F836E030EDF5C34E0D9501F0F7A
:101EC000B7EC15F0EECFE6FFEECFE6FFEECFE6FF84
:101ED000EFCFE6FF070EDBCFE6FF080EE7EC14F0CE
:101EE000010EDBCFE6FF31EC31F0006E080EE15C55
:101EF00002E2E16AE552E16E0050DF6E010E0BEC8A
:101F000014F0AAEC14F0E00EE926040E1AEC15F019
:101F1000010E0BEC14F0AAEC14F0E80EE926040E06
:101F20001AEC15F0C2EC16F0230EE15C02E2E16A55
:101F3000E552E16E005088D378DB0D0EE12402E318
:101F4000E168E652E16E9D92F29EF29C030E05015D
:101F50002A27000E2B232C232D23D950010FADEC63
:101F600016F003EC35F0E552E552F28EF28C9D82CC
:101F7000DF6A67EC15F00EEC16F002E2E16AE5525A
:101F800010EC14F0CCEC16F002E2E16AE55210EC31
:101F900014F05CEC15F0060E96EC15F002E2E16A26
:101FA000E55210EC14F0070EDBCFE6FF080E96ECBE
:101FB00015F002E2E16AE55210EC14F0090EDBCFF5
:101FC000E6FF0A0E96EC15F002E2E16AE5520BEC30
:101FD00015F00B0EDBCFE6FF0C0E96EC15F002E2CF
:101FE000E16AE55277EC14F0006E0D0EE15C02E25E
:101FF000E16AE552E16E005027D317DB060EE124BB
:1020000002E3E168E652E16E61EC14F095EC16F043
:1020100003E09AEC15F00EE18CEC15F00BE18CEC82
:1020200016F003E098EC16F005E1C2EC15F002E1C1
:10203000030EDB6A030EDB5040E181EC16F081EC0D
:1020400014F009E1020EDB0406E1040EF6C4DBFF26
:10205000050EF7C4DBFF81EC14F009E122EC15F06A
:1020600006E1040EF8C4DBFF050EF9C4DBFF85ECC6
:1020700014F009E1020EDB0406E1040EFAC4DBFFF2
:10208000050EFBC4DBFF85EC14F009E122EC15F032
:1020900006E1040EFCC4DBFF050EFDC4DBFFE9EC2A
:1020A00016F0040EDBCFE6FF5CEC15F0B6DA02E2C8
:1020B000E16AE552E16E005002D0A0EC16F0000E8D
:1020C000006E060EE15C02E2E16AE552E16E00504C
:1020D000BBD20BEC16F0DF6AFD0EDB5041081EE1AF
:1020E000FC0EDB5031081AE136EC16F015E2FA0E60
:1020F000DBCFF6F4FB0EDBCFF7F4000E0401F61590
:10210000FF0EF71506EC15F06D0EA7DA0401F65177
:10211000E66E6C0EA2DA02D0010EDF6EFD0EDB5011
:1021200041081EE1FC0EDB5032081AE13CEC16F0CF
:1021300015E2FA0EDBCFF8F4FB0EDBCFF9F4000E5C
:102140000401F815FF0EF91506EC15F06F0E85DA8F
:102150000401F851E66E6E0E80DA02D0010EDF6ED9
:10216000FD0EDB5042081EE1FC0EDB5031081AE187
:1021700036EC16F015E2FA0EDBCFFAF4FB0EDBCFED
:10218000FBF4000E0401FA15FF0EFB1506EC15F02A
:10219000710E63DA0401FA51E66E700E5EDA02D057
:1021A000010EDF6EFD0EDB5042081EE1FC0EDB501F
:1021B00032081AE13CEC16F015E2FA0EDBCFFCF423
:1021C000FB0EDBCFFDF4000E0401FC15FF0EFD1528
:1021D00006EC15F0730E41DA0401FC51E66E720E46
:1021E0003CDA02D0010EDF6EDF50E5522DD220EC3A
:1021F00016F031081DE1BFEC16F01AE1010EDB6AA2
:10220000380E0401C35D14E0380EC36FE66EABDB1D
:1022100062C55AF563C55BF564C55CF565C55DF5DA
:102220002AC55EF52BC55FF52CC560F52DC561F59A
:10223000F9D9300809E1BFEC16F006E1010EDB6ABE
:102240000401C369E6688FDB010EDB5002E1DF6A3F
:1022500002D0010EDF6E67EC15F0E552E552F4D1C5
:1022600054EC16F002E3E168E65293EC15F003E05B
:102270009AEC15F042E18CEC15F03FE16DEC15F0B5
:102280000E0EEFCFDBFF8CEC16F003E098EC16F0AF
:1022900034E1E6EC16F031E1040EB6DA7EEC16F02D
:1022A00006E08FEC16F003E0A9EC16F0F7D718EC77
:1022B00017F06AEC15F021E19BEC16F01EE0D95006
:1022C000100FA4EC15F06DEC15F00E0EEFCFDBFF48
:1022D000020E77EC16F00F0EEFCFDBFF010EDB5096
:1022E0000CE1D4DB0F0EDBCFE6FF0E0EDBCFE6FFFB
:1022F000F0DEBDEC16F052EC16F0010EDB5002E100
:10230000DF6A02D0010EDF6EC2EC16F0120EE15C45
:1023100002E2E16AE552E16E005096D186D90E0ED6
:10232000E12402E3E168E652E16E58EC16F07AEC43
:1023300030F0E552E5527FD9E66A58EC16F0BCDA87
:1023400002E2E16AE552D3DA006E0E0EE15C02E2CF
:10235000E16AE552E16E005077D167D987EC4AF027
:102360006AD972D162D91C0EE12402E3E168E65217
:1023700007DA030EDB6A7EEC16F00EE0BFEC15F018
:102380002C080AE0BFEC15F0E66EF2DAB0DBC5EC23
:1023900016F0030EDB2AEFD7EBDA8BD9F0DB2C0833
:1023A00023E1030EDB5020E0030EDB2ADB505DEC63
:1023B00016F0E5DB0BE0E3DB2C0808E0E0DBE66E83
:1023C000FBD9C5EC16F0030EDB2AF3D7F5D9EF6A7B
:1023D000D6DB0AE1030E42EC16F006E0D2EC16F072
:1023E0001A0ECBDAF6EC15F0010EDB5002E1DF6AD3
:1023F00002D0020EDF6EC2EC16F01C0EE15C02E2AF
:10240000E16AE552E16E00501FD10FD9100EE124B0
:1024100002E3E168E652B4D90F0EDB6A7EEC16F0F7
:102420000EE062EC16F02C080AE062EC16F0E66EA4
:10243000ADDA5DDBC5EC16F00F0EDB2AEFD7A6DABE
:1024400038D962EC16F016E10F0EDB5013E0D950CC
:102450000C0F12D9020FF5D80C0EDBCFE6FF0D0ED4
:10246000DBCFE6FFD2EC4AF0E552E552E76E0E0E06
:10247000E7CFDBFF010EDB500AE1E9EC16F00E0EB0
:102480008ADB02E2E16AE552E16E005003D0020EFF
:10249000DF6E1DDB000E006E100EE15C02E2E16AF1
:1024A000E552E16E0050D0D054EC16F002E3E16842
:1024B000E65239DB02E03EDB25E12EDB23E1020EB2
:1024C000A3D97EEC16F02C0805E004DB03E0A9ECB0
:1024D00016F0F7D718EC17F0FDDA14E17ED912E008
:1024E000D9500E0F31DB0E0EDBCFE6FF0F0EDBCF28
:1024F000E6FFD0DBE66E7DDB100EF3CFDBFF110EC7
:10250000F4CFDBFF010EDB500AE1E9EC16F0BEDA96
:1025100084D802E2E16AE552E16E005002D0A0ECFC
:1025200016F0000E006E120EE15C02E2E16AE55266
:10253000E16E005089D079D81D0EE12402E3E168F4
:10254000E652F1DA02E0F6DA3EE1E6DA3CE1A2DB5D
:10255000E76E1C0EE7CFDBFF020E56D9CFDB2C084F
:1025600004E0B8DA02E0F5DBF9D718EC17F0D7DBB6
:102570002AE133D928E040D9D2DB05E0ABDA03E029
:102580001DEC17F0F9D721EC17F0A4DA1CE1D3DB2E
:102590001AE0D950180FD8DADBCFE6FFD9501A0F5E
:1025A0001EDBDB5010E11A0EDBCFE6FF1B0EE5D978
:1025B0001C0EDBCFE6FF0CEC46F03BDB02E2E16AEF
:1025C000E552E16E0050010EDB5002E1DF6A02D0FD
:1025D000010EDF6ED7DB1D0EE15C02E2E16AE5521F
:1025E000E16E005031D014DB900E85D9910E69D880
:1025F00002E2E16AE552E16E27D00ADB920E7BD956
:10260000930E5FD802E2E16AE552E16E1DD0C7DAAF
:10261000B2EF16F06CDBEF5012008FDA03EC26F00D
:1026200019EF16F05ADAEF50120042DBE1CFD9FF72
:10263000E2CFDAFF120054DB300EEF6E93DBEF6A6D
:10264000120065DA52EF16F0E552E5CFDAFFE7CF78
:10265000D9FF120059DA77EF15F0E66E010EE66E3B
:10266000F6EF15F0EF6E030E60EF15F0E66E65DA2B
:1026700015EC28F019EF16F070DBD9501200DBCF03
:1026800001F00A0E2F6E306A00C02AF001C02BF054
:10269000A8EC4EF02AC000F02BC001F02AC0E6FFE3
:1026A0002BC0E6FF4ADA03EC26F0026E050EE15C71
:1026B00012000F011CDAEF6A120046DB020EDB503B
:1026C0001200E66E020E98DAE66ED950020F4FDA6B
:1026D000E552E750EE6EED6A020EDBCF02F0030E1C
:1026E000DBCF03F002C003F0026ADE500210006E7E
:1026F000DD500310016E00C0F3FFF46E040EE15CC8
:10270000120043DB020EDB2A1200100EDBCF2AF090
:10271000110EDBCF2BF02A501200F9D9E552E72435
:10272000E76E1200040E60EF15F02FDA77EF15F068
:102730009AEC03F0E552E76E040EE7CFDBFF1200E0
:10274000D950020F14DA42DA020E00C0DBFF030E8A
:1027500001C0DBFF040E02C0DBFF050E03C0DBFF80
:102760001200DBCF2BF000C02FF001C030F0A8EC3E
:102770004EF0060E2AC0DBFF070E2BC0DBFF120057
:10278000E16EDE52010EDD6E12000D0EDBCFE6FFB4
:102790000E0EDBCFE6FF1200A0D9040EEFCFDBFF59
:1027A000020E77EF16F00E0FB2D9006E010EDBCFDE
:1027B000E7FF0050E72603D3D9500E0F14DA62DA90
:1027C00077EF15F0DBCF01F0000EFF0E011601C010
:1027D00000F0016A0050E66E1200030EDB50F36E4B
:1027E000020EDB50F35C1200306EFD0EDBCF2BF0DF
:1027F000EAEC4EF027501200020EDB2ADB50E76EA7
:10280000030EE7CFDBFF1200F36E030EF3CFDBFF07
:10281000DB505DEF16F0DB50BF0FE824006E1200B6
:10282000E16E00502C0EE66E1200D9500E0F8CDABD
:10283000090EDB50020D0050F324E96E0150F42024
:10284000EA6E120001DA0B0EDBCFE6FFF9EF15F0AE
:10285000E66E73D94BEC28F090DAE66A1200002499
:10286000EA6ADC0FE96E040EEA221200980E2D6E61
:102870003A0E2E6E2F6A306A1200070EDBCF00F080
:10288000080EDBCF01F01200FA0EDBCF00F0FB0EDA
:10289000DBCF01F01200080E60EF15F0E66EA9D94B
:1028A000060EF3CFDBFF070EF4CFDBFF1200060EA0
:1028B000DBCF00F0070E120040D9E1EC27F019EF52
:1028C00016F0010EF36E030EF3CFDBFF12004FD9AB
:1028D000EE50ED101200050EDB50F36E040EDB50CF
:1028E000F35C1200E652E652E652E6521200E16E46
:1028F0000050000E1200E66E020E7ED9DE6EDD6A1A
:102900001200010EDB5041081200010EDB5042089C
:102910001200DBCFE6FFE9EC06F0BDEF16F0020E89
:10292000DB6A030EDB6A040EDB6A050EDB6A12004B
:1029300062C528F063C529F064C52AF065C52BF08F
:10294000120066C528F067C529F068C52AF069C578
:102950002BF01200020EDB040024E96EEA6AD89024
:10296000E936EA361200310EE66EE66AF6EF15F049
:10297000D950040F38D9DB501200DBCFE6FF180E18
:10298000DBCFE6FF190EDBCFE6FF1200D950020FB6
:10299000DBD90F0EDB501200E7500016016A005021
:1029A000E66E1200E652E652DE52010EDD6E1200B5
:1029B000EF6AE66A020EDBCFE6FF1200D00F5DEF92
:1029C00016F0040DF3CFE9FFF4CFEAFF1200DBCFDE
:1029D000E6FF020EDBCFE6FF1200DBCFF4FFF35081
:1029E000F45C1200C6C4E6FFC7C4E6FF1200CAC406
:1029F000E6FFCBC4E6FF1200CEC4E6FFCFC4E6FF7D
:102A00001200D2C4E6FFD3C4E6FF1200006E016AD2
:102A1000E850E66E1200E16E0050E66A1200E66EC3
:102A2000010EFCEF15F0E66EE66A0B0EDBCFE6FF5B
:102A30000CEF46F0EA22070EDBCFEEFF080EDBCFED
:102A4000EDFF1200020EDB5002081200FC0EDBCF7D
:102A5000E6FFFD0EDBCFE6FF1200D950050FB7EF02
:102A600015F0040EDBCF02F0050EDBCF03F01200F1
:102A7000020EDBCF00F0030EDBCF01F01200F36E8D
:102A8000060EF3CFDBFF030EDB6A1200100EDBCF66
:102A9000E6FF110EDBCFE6FF1200F36E020EF3CF5E
:102AA000DBFF1200F3CFDBFF360EF36E1200E66E93
:102AB00063EC4EF0E5521200050EDBCFE6FF12008C
:102AC000E76E0ED9E750E926000EEA22120051D92E
:102AD000EF6A1200020E7EEF16F0FC0EDBCFE9FF6C
:102AE000FD0EDBCFEAFF1200020E0AEF13F0002406
:102AF000E96E000E0120EA6E1200D9500D0FBCDD08
:102B0000030F9FDDDB5012001FD99BEF16F025D974
:102B100063EC3FF0BDEF16F032D92C08120029D932
:102B20004E0E32EF13F02CDE95EF16F0DBCFE6FF02
:102B30000DEF13F077DD42081200FA0EDBCFE6FF4F
:102B4000FB0EDBCFE6FF120097DD040F21EF13F041
:102B50002ED92D0E87DDEF6A2C0EE66E040EDBCF2C
:102B600000F0050E3FEF13F0040E7EEF16F0E96E55
:102B7000000EDA20EA6E12006DDD81EF13F0030E15
:102B80007EEF16F0030E0AEF13F0DED8040EDBCF53
:102B9000E6FF050E67D1DBCFE6FFE3EF16F0E66E4A
:102BA0009FD8C5EF16F0E5D8D8EF14F0040E33DE49
:102BB000050EDB50CF0F53DEEF041200006E016AEA
:102BC000060EDBCF2AF0070EB1EF13F0EE50002611
:102BD000EE500122EE500222EE50032212004CDD94
:102BE0000E0F9BDDECD0B0D8030E1200BAEC4AF009
:102BF0003DD1ACEC45F03AD1E66ED2EC4AF0E5526C
:102C0000E552120012DD1BEF13F057DD59EF13F000
:102C10000CDD72EF14F009DDE65212002C0EE66EA8
:102C2000010ED5DE0DEF13F080DDAFD8040EDB2AE8
:102C30001200006E050EE15C1200040E0AEF13F0A4
:102C4000F4DCB0DE12EF13F0F420EA6EEECFE6FF14
:102C5000EFCFE6FF1200E76E2ADEE7500016016AAA
:102C60001200D9501A0F08DDD3EF13F00DDE2D0E30
:102C7000005C010E0158120007DE910E005C010E8F
:102C800001581200DBCFE6FF020EECD010DEDBCFE6
:102C900001F01200C7DCBF0F010F1200C6DC0A0EE4
:102CA000E1241200E76E8BD0C0DC120EE12412008A
:102CB000D9CFE6FFDACFE6FF1200E76E020EE7CFCC
:102CC000DBFF12000F0E7EEF16F0E66ED950040FF8
:102CD000120015EC30F0E552E552E552E9EF16F03E
:102CE000FA0EDBCFE9FFFB0EDBCFEAFF1200E76E47
:102CF000F4DEE750E926000EEA221200DB500AEF6C
:102D000013F0EBDE010EEFCFDBFFEEDEDEEF14F0B3
:102D1000E1DEE66ED9501200E7DE31081200DADE9D
:102D20002C081200CADC2FEF17F07CDC41081200DF
:102D3000DBDE32081200020EDBCFE6FF030E92D07C
:102D4000010EDF6E67EF15F0006E000EDA20016EE7
:102D50001200C0DEBADFBCEF15F0E66E000EDA201E
:102D6000E66E1200010EACDE7C0EEF6E020E60EF1E
:102D700015F0300EDF2407EF13F0E55277D0010E87
:102D80000AEF13F0A4DE006E1200E552E750EF6E7A
:102D9000120041DFE9EF16F0030EDBCFE6FF040E71
:102DA00096EF15F0D950180FCFDE31EF16F0DB504B
:102DB000300F07EF13F0DF6AB2DEEF6A1200010E88
:102DC000E7CFDBFF1200E66A0DEF13F0DBDE2C0825
:102DD0001200DF6A7CDEE66A1200CAC4C8F4CBC403
:102DE000C9F405DE100EE66E74DF01DE0DEF13F0A0
:102DF000CEC4CCF4CFC4CDF4FFDD200EE66E69DF87
:102E0000FBDD0DEF13F0D2C4D0F4D3C4D1F4F9DD5F
:102E1000300EE66E5EDFF5DD0DEF13F0C6C4C4F4D0
:102E2000C7C4C5F4DFDDE66A54DFDCDD0DEF13F067
:102E3000D950040F69DE59EF13F06ADF0E0FBCEFB3
:102E400015F0D9500E0F06DCEF6A120043DE3DDFAD
:102E500092EF16F0D950040FD8DE8FEF16F047DE50
:102E600081EF13F0DB50E552E75C1200E552E552CA
:042E7000E552120015
:0C2E7400D1EC2AF069EC2EF0B3EC48F031
:102E8000000EE66E010EE66E48EC47F0E552E552A4
:102E9000090EE66E020EE66E48EC47F0E552E5528A
:102EA00053EC01F005012A6B2B6B2C6B2D6B04018D
:102EB0005C6B04015D6B04015E6B04015F6B0401DC
:102EC000606B0401616B0401696B6A6B6B6B6C6B0B
:102ED00004016D6B6E6B6F6B706B0401716B726BC9
:102EE000736B746B0401756B766B776B786B0F018A
:102EF0004A516BE1B3EC24F0E82404018E6F8F6B30
:102F00008EC4E6FF8FC4E6FF020EE66EE66A010E8F
:102F1000E66E0CEC46F0006E050EE15C02E2E16A42
:102F2000E552E16E0050010E0401016A8E25006E2B
:102F30008F51012200C0E6FF01C0E6FF020EE66EDF
:102F4000E66A020EE66E0CEC46F0026E050EE15CDF
:102F500002E2E16AE552E16E0250020EE66EE66AB6
:102F6000010EE66EACEC45F0E552E552E552F3CFCA
:102F70008AF4F4CF8BF4020EE66EE66A020EE66E79
:102F8000ACEC45F0E552E552E552F3CF8CF4F4CFCA
:102F90008DF404018E5104018A1904E104018F515A
:102FA00004018B1911E1010E0401016A8E25006EE6
:102FB0008F510122005004018C1902E101508D193A
:102FC00003E10F01010E4A6F92D73AEC34F07D0E07
:102FD000E66E040EE66E03EC35F0E552E5520F01A5
:102FE000010E4B6F0401896B040E0401895D13E22D
:102FF00004018951E96EEA6AD890E936EA367D0E15
:10300000E926040EEA22EE50ED1002E10F014B6BAF
:103010000401892BE9D70F014B5102E0FEEC49F086
:103020000F014B51D2E0380E0401C35D01E018D10D
:103030000401896B040E0401895D01E311D10401CF
:103040008951040DF3CFE9FFF4CFEAFFC40EE9265E
:10305000040EEA22020EE926000EEA22EE6AED6A6A
:10306000040E040189250001706F700EE66E000EDB
:10307000E66E09EC08F0E552E552F3CF67F4F4CFC1
:1030800068F40A0E2F6E306A67C42AF068C42BF009
:10309000A8EC4EF02AC067F42BC068F40401030EBC
:1030A000D8806755000E685501E3B4D004018951FA
:1030B00004E0020E0401895D47E167C479F468C445
:1030C0007AF404017B6B7C6B2C0E2D6E270E2E6E1A
:1030D000020E2F6E306A79C428F07AC429F07BC4BE
:1030E0002AF07CC42BF0E2EC4CF024C079F425C02B
:1030F0007AF426C07BF427C07CF4E80E2D6E030E14
:103100002E6E2F6A306A79C428F07AC429F07BC405
:103110002AF07CC42BF04FEC4DF028C079F429C084
:103120007AF42AC07BF42BC07CF404018951E96E47
:10313000EA6AD890E936EA36D40EE926040EEA2285
:10314000830EEE6E050EED6E0401890504E0030E9C
:103150000401895D47E167C479F468C47AF4040125
:103160007B6B7C6B680E2D6E550E2E6E010E2F6ED6
:10317000306A79C428F07AC429F07BC42AF07CC470
:103180002BF0E2EC4CF024C079F425C07AF426C090
:103190007BF427C07CF4E80E2D6E030E2E6E2F6A92
:1031A000306A79C428F07AC429F07BC42AF07CC440
:1031B0002BF04FEC4DF028C079F429C07AF42AC0E6
:1031C0007BF42BC07CF404018951E96EEA6AD89043
:1031D000E936EA36D40EE926040EEA226A0EEE6ECD
:1031E000030EED6E04018951040DF3CFE9FFF4CF16
:1031F000EAFFC40EE926040EEA2279C4EEFF7AC47F
:10320000EDFF04018951EA6ADC0FE96E040EEA223F
:10321000EF6A23D004018951040DF3CFE9FFF4CF05
:10322000EAFFC40EE926040EEA22EE6AED6A040102
:103230008951E96EEA6AD890E936EA36D40EE92671
:10324000040EEA22EE6AED6A04018951EA6ADC0F93
:10325000E96E040EEA22010EEF6E0401892BEAD614
:1032600005016C6B6D6BD09EF28EF28C9D8AFE0E0A
:10327000E66E48EC4EF0E552FA0ECB6E62C55AF59A
:1032800063C55BF564C55CF565C55DF505015E6B01
:103290005F6B606B616BB40EE66E040EE66EB20E91
:1032A000E66E040EE66E5DCFE6FF5ECFE6FF5AECFB
:1032B00044F0006E060EE15C02E2E16AE552E16E66
:1032C0000050F3CFB6F4F4CFB7F40401B651B71100
:1032D00001E0D8D20401080ED880B255000EB355D3
:1032E00001E3D0D2B4C4E6FFB5C4E6FFB2C4E6FF42
:1032F000B3C4E6FF000EE66E010EE66E000EE66E4B
:10330000E66A0DEC49F0006E080EE15C02E2E16A4B
:10331000E552E16E005000C1A6F4000EE66E010E0B
:10332000E66E8BEC47F0E552E552F3CFA7F4F4CF0D
:10333000A8F404C1A9F405C1AAF4000EE66E010EBA
:10334000E66EB8EC47F0E552E5520401AD6F120E9F
:10335000E66E030EE66E000EE66E010EE66EC7EC3C
:1033600047F0E552E552E552E552000EE66E010ED9
:10337000E66E01EC48F0E552E552F3CFAEF4F4CF3F
:10338000AFF4B3EC24F0300F0401A95D01E07AD270
:103390000401526B0401AD514BE0E66A030EE66E88
:1033A000E66AA7C4E6FFA8C4E6FF520EE66E040E66
:1033B000E66E6AEC28F0006E070EE15C02E2E16A5C
:1033C000E552E16E0050E66AA9C4E6FF520EE66ED1
:1033D000040EE66E4BEC28F0E552E552E552E5525C
:1033E000E66AAAC4E6FF520EE66E040EE66E4BECE9
:1033F00028F0E552E552E552E552E66AADC4E6FF33
:10340000520EE66E040EE66E4BEC28F0E552E552E5
:10341000E552E552E66A230EE66E520EE66E040EA3
:10342000E66E4BEC28F0E552E552E552E55230D01D
:10343000E66A030EE66EE66AA7C4E6FFA8C4E6FFE6
:10344000520EE66E040EE66E6AEC28F0006E070E71
:10345000E15C02E2E16AE552E16E0050E66AA9C46D
:10346000E6FF520EE66E040EE66E4BEC28F0E552D7
:10347000E552E552E552E66AAAC4E6FF520EE66E50
:10348000040EE66E4BEC28F0E552E552E552E552AB
:103490000401B06BB16B0401A46BA56B000E0401B9
:1034A000A425E96E010E0401A521EA6EEF50030880
:1034B00014E0000E0401A425E96E010E0401A5210B
:1034C000EA6EEF500401B0190401B06FB1C4B1F459
:1034D0000401A42B000EA523E1D70401AE51040181
:1034E000B01904E10401AF510401B11905E1020E64
:1034F0000401A65D01E18DD00101006BE66A1A0EA0
:10350000E66E000EE66E010EE66E4BEC28F0E5521C
:10351000E552E552E552E66A520EE66E040EE66E9C
:10352000000EE66E010EE66EE1EC27F0006E050E71
:10353000E15C02E2E16AE552E16E0050E66A120ED9
:10354000E66E030EE66E000EE66E010EE66EE1EC30
:1035500027F0006E050EE15C02E2E16AE552E16EE1
:103560000050E66A030EE66E000EE66E010EE66E91
:103570004BEC28F0E552E552E552E552000EE66EBE
:10358000010EE66E4CEC47F0E552E552F3CFAEF497
:10359000F4CFAFF40201096BE66A000EE66E010E8D
:1035A000E66E090EE66E020EE66EE1EC27F0006EA6
:1035B000050EE15C02E2E16AE552E16E0050E66A66
:1035C000E668E668AEC4E6FFAFC4E6FF090EE66E45
:1035D000020EE66E6AEC28F0006E070EE15C02E275
:1035E000E16AE552E16E0050090EE66E020EE66EEB
:1035F000010EE66EE66A53EC49F0E552E552E552FB
:10360000E552010EE66EE66ADFEC48F0E552E5525F
:1036100039D1120EE66E040EE66E120EE66E030E41
:10362000E66EAAC4E6FFE5EC01F0006E050EE15C73
:1036300002E2E16AE552E16E00500401AB6F010164
:10364000006B0401AB5101E093D012C4B8F4040143
:10365000B96BB80EE66E040EE66EC8EC4BF0E552A0
:10366000E552F3CFACF40401AC5141E1E66A060E39
:10367000E66E000EE66E010EE66E4BEC28F0E552AB
:10368000E552E552E552E66A520EE66E040EE66E2B
:10369000000EE66E010EE66EE1EC27F0006E050E00
:1036A000E15C02E2E16AE552E16E0050E66A120E68
:1036B000E66E040EE66E000EE66E010EE66EE1ECBE
:1036C00027F0006E050EE15C02E2E16AE552E16E70
:1036D0000050E66A030EE66E000EE66E010EE66E20
:1036E0004BEC28F0E552E552E552E55240D0E66A4F
:1036F000150EE66E000EE66E010EE66E4BEC28F03F
:10370000E552E552E552E552E66A520EE66E040EC7
:10371000E66E000EE66E010EE66EE1EC27F0006E3E
:10372000050EE15C02E2E16AE552E16E0050E66AF4
:10373000120EE66E040EE66E000EE66E010EE66EEA
:10374000E1EC27F0006E050EE15C02E2E16AE55271
:10375000E16E0050E66A030EE66E000EE66E010EA4
:10376000E66E4BEC28F0E552E552E552E55240D0CA
:10377000E66A1A0EE66E000EE66E010EE66E4BEC81
:1037800028F0E552E552E552E552E66A520EE66E41
:10379000040EE66E000EE66E010EE66EE1EC27F01A
:1037A000006E050EE15C02E2E16AE552E16E005056
:1037B000E66A120EE66E030EE66E000EE66E010E6F
:1037C000E66EE1EC27F0006E050EE15C02E2E16AD4
:1037D000E552E16E0050E66A030EE66E000EE66EFC
:1037E000010EE66E4BEC28F0E552E552E552E5524B
:1037F000000EE66E010EE66E4CEC47F0E552E55227
:10380000F3CFAEF4F4CFAFF40201096BE66A000E19
:10381000E66E010EE66E090EE66E020EE66EE1EC55
:1038200027F0006E050EE15C02E2E16AE552E16E0E
:103830000050E66AE668E668AEC4E6FFAFC4E6FF9D
:10384000090EE66E020EE66E6AEC28F0006E070EB8
:10385000E15C02E2E16AE552E16E0050090EE66EBB
:10386000020EE66E010EE66EE66A53EC49F0E55292
:10387000E552E552E552010EE66EE66ADFEC48F0ED
:10388000E552E5520401DC0512E10001706B700E97
:10389000E66E000EE66E2EEC43F0E552E552F3CFF5
:1038A00069F4F4CF6AF404016B6B6C6B05D004010E
:1038B000696B6A6B6B6B6C6B0401DD0513E10001D6
:1038C000010E706F700EE66E000EE66E2EEC43F089
:1038D000E552E552F3CF6DF4F4CF6EF404016F6B53
:1038E000706B05D004016D6B6E6B6F6B706B0401B8
:1038F000DE0513E10001020E706F700EE66E000E21
:10390000E66E2EEC43F0E552E552F3CF71F4F4CFBE
:1039100072F40401736B746B05D00401716B726BEC
:10392000736B746B0401DF0513E10001030E706F0C
:10393000700EE66E000EE66E2EEC43F0E552E55298
:10394000F3CF75F4F4CF76F40401776B786B05D080
:103950000401756B766B776B786B2AC52EF52BC5DA
:103960002FF52CC530F52DC531F52EC500F02FC52E
:1039700001F030C502F031C503F0190E2D6E2E6A2C
:103980002F6A306A00C028F001C029F002C02AF076
:1039900003C02BF04FEC4DF024C000F025C001F027
:1039A00026C002F027C003F00050011002100310DF
:1039B00075E104015E5171E1DCC463F4DDC464F4BB
:1039C000DEC465F4DFC466F4DFEC20F00401DC053E
:1039D00016E10401635113E162C55AF563C55BF555
:1039E00064C55CF565C55DF52EC55EF52FC55FF553
:1039F00030C560F531C561F50401010E606F040149
:103A0000DD0516E10401645113E162C55AF563C591
:103A10005BF564C55CF565C55DF52EC55EF52FC526
:103A20005FF530C560F531C561F50401010E606FC9
:103A30000401DE0516E10401655113E162C55AF582
:103A400063C55BF564C55CF565C55DF52EC55EF5C2
:103A50002FC55FF530C560F531C561F50401010E74
:103A6000606F0401DF0516E10401665113E162C5D0
:103A70005AF563C55BF564C55CF565C55DF52EC596
:103A80005EF52FC55FF530C560F531C561F5040100
:103A9000010E606F0401010E5E6F02D004015E6BC7
:103AA0002AC52EF52BC52FF52CC530F52DC531F5C2
:103AB0002EC500F02FC501F030C502F031C503F06E
:103AC000CD0E2D6E2E6A2F6A306A00C028F001C01C
:103AD00029F002C02AF003C02BF04FEC4DF024C0B7
:103AE00000F025C001F026C002F027C003F000500E
:103AF0000110021003100BE10401F00508E10401BC
:103B0000615104E1CDD90401010E616F02D00401BD
:103B1000616B2AC52EF52BC52FF52CC530F52DC5AB
:103B200031F52EC500F02FC501F030C502F031C5CA
:103B300003F0FB0E2D6E2E6A2F6A306A00C028F04B
:103B400001C029F002C02AF003C02BF04FEC4DF069
:103B500024C000F025C001F026C002F027C003F009
:103B600000500110021003100BE1AB50020B03E1F7
:103B7000AB50040B05E0AB980000AB88AB9EAB8E5E
:103B80002AC52EF52BC52FF52CC530F52DC531F5E1
:103B90002EC500F02FC501F030C502F031C503F08D
:103BA000E80E2D6E030E2E6E2F6A306A00C028F0CC
:103BB00001C029F002C02AF003C02BF04FEC4DF0F9
:103BC00024C000F025C001F026C002F027C003F099
:103BD000005001100210031001E194D00401625161
:103BE00001E08FD00401FE51FF11001101111DE011
:103BF0000401DC051AE169C4E6FF6AC4E6FF6BC490
:103C0000E6FF6CC4E6FF310EE66E410EE66E88EC10
:103C100041F0006E060EE15C02E2E16AE552E16EFF
:103C20000050F3CF52F5F4CF53F5050102510311C3
:103C3000041105111DE00401DD051AE16DC4E6FF64
:103C40006EC4E6FF6FC4E6FF70C4E6FF320EE66E98
:103C5000410EE66E88EC41F0006E060EE15C02E279
:103C6000E16AE552E16E0050F3CF54F5F4CF55F51B
:103C7000050106510711081109111DE00401DE05B7
:103C80001AE171C4E6FF72C4E6FF73C4E6FF74C4B0
:103C9000E6FF310EE66E420EE66E88EC41F0006EF5
:103CA000060EE15C02E2E16AE552E16E0050F3CFFC
:103CB00056F5F4CF57F505010A510B110C110D11F2
:103CC0001DE00401DF051AE175C4E6FF76C4E6FFD6
:103CD00077C4E6FF78C4E6FF320EE66E420EE66E6B
:103CE00088EC41F0006E060EE15C02E2E16AE5520A
:103CF000E16E0050F3CF58F5F4CF59F50401010EF1
:103D0000626F02D00401626B2AC52EF52BC52FF518
:103D10002CC530F52DC531F55AC5E6FF5BC5E6FF6C
:103D20005CC5E6FF5DC5E6FF5EC5E6FF5FC5E6FF75
:103D300060C5E6FF61C5E6FF2AC5E6FF2BC5E6FFC5
:103D40002CC5E6FF2DC5E6FF3CD8046E0C0EE15CE9
:103D500002E2E16AE552E16E04505AC52DF05BC5FE
:103D60002EF05CC52FF05DC530F04FEC4DF024C057
:103D700000F025C001F026C002F027C003F000507B
:103D800001100210031018E10401605114E12EC566
:103D90005EF52FC55FF530C560F531C561F5EDDA2B
:103DA00028C05AF529C05BF52AC05CF52BC05DF52B
:103DB0000401010E606F02D00401606B4BEF19F03B
:103DC0001200B9EC23F0E652E652E652E652FE0E3D
:103DD000046E056806680768D950F20FFBEC23F003
:103DE000036ED950F60FA5EC24F00050EE5C0150A4
:103DF000EE580250EE580350EE5811E2FA0EDBCFA7
:103E000004F0FB0EDBCF05F0FC0EDBCF06F0FD0E61
:103E1000DBCF07F0D950F60FFBEC23F024D0FE0ED9
:103E2000086E09680A680B68D950F60FA5EC24F0F3
:103E3000EE50085C046EEE500958056EEE500A58BC
:103E4000066EEE500B58076ED950FA0FA5EC24F011
:103E50000450EE24006E0550EE20016E0650EE2058
:103E6000026E0750EE20036E00C0DFFF010E01C09E
:103E7000DBFF020E02C0DBFF030E03C0DBFFDECF61
:103E800028F0DECF29F0DECF2AF0DDCF2BF0DD5297
:103E9000DD52040EE15C02E2E16AE552F1EF23F04B
:103EA000B9EC23F00B0EE12402E3E168E652E16E87
:103EB000080EDB6A0F015851020A6AE0030A55E056
:103EC000010A01E075D10401F151640808E2000122
:103ED000B40E726FE20E736F7469756936D0640E3A
:103EE000F15D2CE0F1C472F00001736B746B756BC3
:103EF0000E0ED8907237733774377537E806F9E1CC
:103F0000640E2D6E2E6A2F6A306A72C028F073C05C
:103F100029F074C02AF075C02BF035EC3DF028C0B4
:103F200072F029C073F02AC074F02BC075F0200E17
:103F30000001735F000E745B755B07D00001780EA3
:103F4000726F1E0E736F746B756B72C076F073C0F8
:103F500077F074C078F075C079F0640E7627000EA3
:103F600077237823792371691FD10001712B060E05
:103F7000715D07E187EC4AF00401F06B0F01586BAB
:103F800018D1900E7A6F010E7B6F0F01020E0ED1C9
:103F90000EEC24F00AE14DEC24F0100E59EC24F064
:103FA000040EF36EDB6E050EDB6A0EEC24F00108E6
:103FB00008E14DEC24F0130E59EC24F0050E68ECEA
:103FC00024F00EEC24F0020808E14DEC24F0150E6C
:103FD00059EC24F0060E68EC24F0030E0001E76EA5
:103FE0007119E8AE02D0E73402D0E750715D02E209
:103FF000010E01D0020EF36E0A0EF3CFDBFF050EA9
:104000007A27000E7B23CFDB02E2E16AE552E16E04
:104010000050020E6FEC24F0C6DB02E2E16AE552CA
:10402000E16E0050090EDB6A020E6FEC24F084DBB7
:10403000F3CFDEFFF4CFDDFF010E6FEC24F0DECF17
:1040400000F0DDCF01F000C0E6FF01C0E6FF74DB49
:104050001BEC24F01E0E025E000E035A03500118E2
:10406000E8AE02D0013404D00050025C0150035885
:1040700022E2DECF04F0DDCF05F004C0E6FF05C08C
:10408000E6FF5ADBE3DB1E0E0626000E0722055074
:104090000718E8AE02D0073404D00650045C07507D
:1040A000055809E2140EF36E090E5EEC24F003E2EB
:1040B000090EDB2AC4D7140EF36E090E5EEC24F051
:1040C00002E2090EDB6A090EDB501408ADE1DECF17
:1040D00000F0DDCF01F0026A036A01AE02D002688F
:1040E0000368035000017519E8AE02D0753508D099
:1040F0007251005C73510158745102587551035844
:104100003EE3DECF04F0DDCF05F0066A076A05AEB8
:1041100002D00668076807507919E8AE02D07935F1
:1041200008D07651045C775105587851065879517A
:10413000075825E20F01010E586F71C000F0016AA7
:1041400000BE0168D89000360136780ED88000563F
:10415000050E0156060E00C0DBFF070E01C0DBFF97
:10416000060EDBCFE9FF070EDBCFEAFF7AC0EEFFDA
:104170007BC0EDFF190EF36E080EF3CFDBFF080EC8
:10418000DB2A190EF36E080E99DB07E20001000E20
:104190007A5D040E7B5901E232D70001000ED8800F
:1041A0007A55040E7B5505E20F01010E586F01D0C0
:1041B000586B0B0EE15C02E2E16AE55212D3D9DAE8
:1041C000100EE12402E3E168E652E16E080EDB6ABC
:1041D000090EDB6A0A0EDB6A0B0EDB6ADE6ADD6A39
:1041E000020EDB6A040EF36E020E68DB01E3BFD041
:1041F00038DBEA22EF5001E0B7D0030EDB6AAFDB19
:10420000EECF02F0EFCF03F00250005C03500158F4
:1042100009E277DB9FDB066A076A6BDA6EDA010E6A
:1042200048DB06D066DA96DB066A076A6ADB65DA7F
:10423000020EEA6ADB34FE0BEA36E96ED40EE9269A
:10424000040EEA22EECF28F0EFCF29F02A6A2B6A7B
:10425000020ED890283629362A362B36E806F9E1A0
:10426000190E2D6E2E6A2F6A306AE2EC4CF024C0D3
:1042700028F025C029F026C02AF027C02BF0E80E30
:104280002D6E030E2E6E2F6A306A4FEC4DF0040E29
:1042900028C0DBFF050E29C0DBFF060E2AC0DBFFAE
:1042A000070E2BC0DBFFE4DAEA22EF5051E1E7DA38
:1042B000060EDBCF02F0070EDBCF03F0D9500C0F58
:1042C000E96E000EDA20EA6EEE50005CEE50015806
:1042D000EE500258EE50035819E313DBF4DA09DA12
:1042E00000C0EEFF01C0EDFF020EDB504E0FE66E88
:1042F000E66AD2EC4AF0E552E552000902E1B1DA91
:1043000001D0B6DAEA22010EEF6E12D0030EDB0402
:1043100006E1B5DAEED90050EE260150ED22030E8B
:10432000DB5006E1ACDAE5D90050EE5E0150ED5A03
:10433000E0D9EECFE6FFEFCFE6FF020EDB50100D27
:10434000F350E66E15EC30F0E552E552E5520CD034
:1043500006DB00C0EEFF01C0EDFF83DAEA22010EAA
:10436000EF6E86DAEA22EF6A020EDB2A3BD7100EE6
:10437000E15C02E2E16AE55234D2FBD91C0EE12491
:1043800002E3E168E652E16E140E52C5DBFF150E42
:1043900053C5DBFF160E54C5DBFF170E55C5DBFFFB
:1043A000180E56C5DBFF190E57C5DBFF1A0E58C590
:1043B000DBFF1B0E59C5DBFF020EDB6A380E040162
:1043C000C35D01E060D1DF6A040EDF5C01E35BD115
:1043D000DF50EA6ADC0FE96E040EEA22EF0401E026
:1043E00050D1DF5091DA22DAEE50ED1001E149D1DF
:1043F000DF50EA6A4C0FE96E0F0EEA22130EEFCF80
:10440000DBFF06DA500EE9260F0EEA22010EEFCF8F
:10441000DBFFD950140F006E000EDA20016EDF5062
:10442000020D0050F324E96E0150F420EA6E0B0EE9
:10443000EECFDBFF0C0EEDCFDBFF0B0EDBCF00F082
:104440000C0EDBCF01F000C0E6FF01C0E6FFFDEC83
:1044500012F0F1D90050F35C0150F45801E311D18E
:104460000B0EDBCF04F00C0EDBCF05F004C0E6FF33
:1044700005C0E6FFF3EC12F0E9D9F350045CF45008
:10448000055801E3FED05CDA7DD9280E2E6E6B0E46
:104490002F6E6E0E306E4E0E316E88EC3CF05BD996
:1044A0000B0EDBCF2AF00C0EDBCF2BF089EC3BF0B0
:1044B00029C004F02AC005F02BC006F02CC007F07C
:1044C00097D935EC3CF047D9C00E2E6EA30E2F6E57
:1044D0001B0E306E4B0E316E21DA9EEC3BF004DA8F
:1044E00097D9E00EE926040E4DD90A6A0B6A800EB0
:1044F0000C6E3F0E0D6EC00E296EA30E2A6E1B0EA3
:104500002B6E4B0E2C6E030EDBCF2EF0040EDBCF8A
:104510002FF0050EDBCF30F0060EDBCF31F035EC9F
:104520003CF029C00EF02AC00FF02BC010F02CC0B8
:1045300011F0FDD90AC029F00BC02AF00CC02BF0F5
:104540000DC02CF09FEC3BF029C006F02AC007F00C
:104550002BC008F02CC009F04BD988EC3CF0070EBA
:1045600029C0DBFF080E2AC0DBFF090E2BC0DBFFD2
:104570000A0E2CC0DBFF070EDBCF29F0080EDBCFC5
:104580002AF0090EDBCF2BF00A0EDBCF2CF0B4ECB7
:104590003DF00D0E2AC0DBFF0E0E2BC0DBFFD0D985
:1045A000EA2291D90D0EDB50001803E10E0EDB500C
:1045B000011867E06BD9EE50ED1056E0010EDB04F8
:1045C0000BE10D0EDBCF00F00E0EDBCF01F02D0E58
:1045D000005C010E01580FE3010EDB50020819E1E7
:1045E0000D0EDBCF02F00E0EDBCF03F0910E025C5E
:1045F000010E03580EE257D90D0EDBCFE6FF0E0E6B
:10460000DBCFE6FF010EE2D802E2E16AE552E16E9D
:104610000050010EDB0412E139D92C0ED880EE5483
:10462000010EED540BE23FD92C0EE66E010EE66E44
:10463000CDD802E2E16AE552E16E0050010EDB5096
:10464000020812E123D9900ED880EE54010EED54E9
:104650000BE229D9900EE66E010EE66EB7D802E2A3
:10466000E16AE552E16E00506BD9EA220D0EDBCF14
:10467000EEFF0E0EDBCFEDFF010EF36E020EF3CF59
:10468000DBFFDF2AA1D6020EDB040DE10F0E62C5AF
:10469000DBFF100E63C5DBFF110E64C5DBFF120EDE
:1046A00065C5DBFF0CD00F0E66C5DBFF100E67C5BE
:1046B000DBFF110E68C5DBFF120E69C5DBFF0F0EB5
:1046C000DBCF00F0100EDBCF01F0110EDBCF02F0DC
:1046D000120EDBCF03F000C028F001C029F002C0A9
:1046E0002AF003C02BF01C0EE15C02E2E16AE55205
:1046F00078D0020EDB5084EF24F0EECF08F0EFCF3D
:1047000009F00A6A0B6A0850045C006E09500558EB
:10471000016E0A500658026E0B500758036E0C0EBD
:1047200000C0DBFF0D0E01C0DBFF0E0E02C0DBFF81
:104730000F0E03C0DBFF1200020EDBCFE6FF030EFD
:10474000DBCFE6FF0A0EDBCFE6FFACEC45F0E5522F
:10475000E552E5521200C8D8030EDBCF00F0040E7C
:10476000DBCF01F0050EDBCF02F0060EDBCF03F04E
:104770001200D9CFE6FFDACFE6FFE1CFD9FFE2CFD3
:10478000DAFF1200EA22E6D804C02AF005C02BF0B6
:1047900089EC3BF029C000F02AC001F02BC002F0E8
:1047A0002CC003F012007AC0E6FF7BC0E6FF040EC7
:1047B000DBCFE6FF050EDBCFE6FF0A0EDBCFE6FF21
:1047C0000CEC46F0006E050EE15C1200DBCFE6FF5C
:1047D000130EDBCFE6FF31EC31F0006E080EE15C2A
:1047E0001200E16EE552E5CFDAFFE7CFD9FF120004
:1047F0009ED88EEF24F0A9D8EE50045C006EEE50E7
:104800000558016EEE500658026EEE500758120021
:10481000EA6ADF34FE0BEA36E96E120071C02BF053
:10482000030E306EF5EC3CF027501200020EE92624
:10483000000EEA221200E552E7CF01F0E552E7CF81
:1048400000F0F3CF02F0F4CF03F01200E552E7CF0F
:1048500005F0E552E7CF04F0F3CF06F0F4CF07F010
:104860001200020EDB50EA6ADC0FE96E040E120041
:10487000020EDB50EA6A590FE96E0F0E1200040EA9
:10488000DBCF00F0050EDBCF01F01200D9500D0F89
:10489000E96E000EDA20EA6E1200360EF36E020E9A
:1048A000F3CFDBFF1200050EE66EE66AE66AE66A03
:1048B0001200F36E030EF3CFDBFF1200DBCFF4FF29
:1048C000F350F45C1200EECF00F0EFCF01F01200D5
:1048D000F36E040EF3CFDBFF050EDB6A1200E66E0B
:1048E00063EC4EF0E5521200030E29C0DBFF040E0C
:1048F0002AC0DBFF050E2BC0DBFF060E2CC0DBFF42
:104900001200F7DE16EF24F0040DF3CFE9FFF4CF29
:10491000EAFFC40EE926040EEA22120000C029F0C4
:1049200001C02AF002C02BF003C02CF0120029C0F5
:104930002EF02AC02FF02BC030F02CC031F0120026
:1049400067DFE80EE926040E1200E96EFF0EDA209A
:10495000EA6E1200EECF04F0EFCF05F01200C9DED0
:06496000B2DF81EF24F03C
:0A496600CEEC2AF0DF6A8050010B4E
:10497000DF128050020B01E0010EE824DF128050AC
:10498000040B01E0010E040DF350DF12DF50E5527D
:1049900074EF29F0CEEC2AF0DF6A000EF36EFD0E04
:1049A000DBCFF4FFF350F45C08E3FD0EDB500908A5
:1049B00004E3FD0EDB50300FDF6EFD0EDB50090807
:1049C00005E2FD0EDB50F60F410FDF6EDF50E552C2
:1049D00074EF29F0CEEC2AF0E652E652010EDB6AC3
:1049E000F00EF36E020EF3CFDBFFDF6A040EDF5C26
:1049F0003EE2010EDBCF06F0020EDBCF07F0040E25
:104A0000DF02F35006C004F007C005F005E0D890BF
:104A100005320432E804FBE1FC0EDB500414026EA4
:104A2000FD0EDB500514036E030ED880DF54040D19
:104A3000F35002C000F003C001F003E085EC2AF05F
:104A4000FDE10050E66EA6DFE552E66EDF50E76E50
:104A5000FA0EDBCFE9FFFB0EDBCFEAFFE750E926DA
:104A6000000EEA22E552E750EF6EDF2ABFD7E5528B
:104A7000E552E55274EF29F0CEEC2AF0E652E65208
:104A8000E652E652D950010FE66E000EDA20E66ECD
:104A9000FC0EDBCFE6FFFD0EDBCFE6FF9BDFE55232
:104AA000E552E552E552DF6A040EDF5C12E2D950AE
:104AB000010F006E000EDA20016EDF500F0100249E
:104AC000E96E000E0120EA6EEF503FEC2AF0DF2A7B
:104AD000EBD7000E006E050EE15C02E2E16AE552E2
:104AE000E16E005074EF29F0CEEC2AF01F0EDF6E5D
:104AF000DFCF00F0003423E2D950FA0FE96EFF0E49
:104B0000DA20EA6EDF501F0BEECF00F0EECF01F09F
:104B1000EECF02F0EECF03F007E0D890033202327E
:104B200001320032E806F9E1010E0016016A026A5C
:104B3000036A300E00243FEC2AF0DF06D9D7000EBE
:104B4000E552D2D3A2EC2AF054EC2AF004E6100E7F
:104B5000005C000E015827E2FC0EDBCF02F0FD0ED8
:104B6000DBCF03F0DECF04F0DDCF05F00F0ED880F1
:104B70000456000E0556045002C000F003C001F0B8
:104B800003E085EC2AF0FDE1010E0016000E01168F
:104B9000300E00243FEC2AF0ACA2FED7DF2A010E33
:104BA000D3E3DB2AD1D7000EE552E5529DD3A2EC28
:104BB0002AF054EC2AF004E6080E005C000E0158BE
:104BC0001EE2DECF00F0DDCF01F0070ED8800056E8
:104BD000000E0156FD0EDB5000C0E7FFE75204E077
:104BE000E8427F0BE706FCE1010B300F3FEC2AF0B7
:104BF000ACA2FED7DF2A010EDCE3DB2ADAD7000EF7
:104C0000E552E55271D367DB0E0EE12402E3E16861
:104C1000E652E16EFA0EDBCF02F0FB0EDBCF03F0C3
:104C20005BEC2AF00A0E2F6E306A04C02AF005C031
:104C30002BF0A8EC4EF02AC004F02BC005F00A0EB1
:104C40002A6E2B6A04C02FF005C030F096EC3DF0C0
:104C50002850025C006E29500358016E080E00C0F7
:104C6000DBFF090E01C0DBFF5BEC2AF062EC2AF0EF
:104C7000640E2F6E306A06C02AF007C02BF0A8EC35
:104C80004EF02AC006F02BC007F0640E2A6E2B6A85
:104C900006C02FF007C030F091EC2AF0060E00C0DD
:104CA000DBFF070E01C0DBFF0A0E006E016A060E75
:104CB000DBCF2AF0070E57DB060E2AC0DBFF070EFC
:104CC0002BC0DBFF62EC2AF069EC2AF0E80E2F6EB5
:104CD000030E306E08C02AF009C02BF0A8EC4EF08D
:104CE0002AC008F02BC009F0E80E2A6E030E2B6EC6
:104CF00008C02FF009C030F0FDDA040E00C0DBFF61
:104D0000050E01C0DBFF640E006E016A040EDBCFEE
:104D10002AF0050E28DB040E2AC0DBFF050E2BC08F
:104D2000DBFFD7DBFA0EDBCF0AF0FB0EDBCF0BF09D
:104D3000100E2F6E270E306E0AC02AF00BC02BF01B
:104D4000A8EC4EF02AC00AF02BC00BF0100E2A6E11
:104D5000270E2B6E0AC02FF00BC030F096EC3DF002
:104D60002850085C066E29500958076E640E2A6E9A
:104D70002B6A040EDBCF2FF0050EDBCF30F0BADA52
:104D8000020E00C0DBFF030E01C0DBFFE80E006E69
:104D9000030E016E020EDBCF2AF0030EE4DA020EE0
:104DA0002AC0DBFF030E2BC0DBFF100E006E270EA8
:104DB000016EFA0EDBCF2AF0FB0ED5DA2AC0DEFF39
:104DC0002BC0DDFF0A0EDB6A0B0EDB6A0C0EDB6A02
:104DD0000D0EDB6ABCDBEF5006E00A0EDB2A0B0E81
:104DE000F9E3DB2AF7D7D9CF00F0DACF01F0A2DA66
:104DF00000502824E96E01502920EA6EEE50ED1093
:104E000011E10C0EDBCF02F00D0EDBCF03F0050E2F
:104E1000025C000E035806E20C0EDB2A0D0EE3E3E3
:104E2000DB2AE1D7FFDA2BE2FDDA2DE298DBEECFC9
:104E300000F0EFCF01F0000E005C000E015819E306
:104E4000D9CF04F0DACF05F075DA04502824E96EE2
:104E500005502920EA6E090ED880EE54000EED545C
:104E600008E37DDBEF50300FE66EC0DA01E3DB2AAA
:104E700053DB0C0EDB2A0D0ED7E3DB2AD5D7B6DACF
:104E800001E3DB2A80DBF90EDB5004E0AFDA01E35B
:104E9000DB2A74DB5CDBEF6A0E0EE15C02E2E16AA6
:104EA000E552E16E21D217DA070EE12402E3E16850
:104EB000E652E16EFB0EDBCFE6FF0A0E8EDA0A0D3C
:104EC000F350E552E75CE76E020EE7CFDBFFDBCF86
:104ED000E6FFFB0EDBCFE6FF640E7FDA640DF350D6
:104EE000E552E75CE552D880E754E76E010EE7CF64
:104EF000DBFF0A0E006E306E010EDBCF2BF0EAEC0A
:104F00004EF0010E2BC0DBFF640E67DA640DF35028
:104F1000DF6E030EDB6A040EDB6A050EDB6A060E2B
:104F2000DB6A24DBEF5006E0030EDB2A040EF9E314
:104F3000DB2AF7D720DAEF5011E1050EDBCF02F0C4
:104F4000060EDBCF03F0030E025C000E035806E2F0
:104F5000050EDB2A060EEEE3DB2AECD76BDA1AE24B
:104F600069DA1CE208DAEFCF00F0000E005C0CE317
:104F700002DAEF50090808E3FED9EF50300FE66E71
:104F80003DDA01E3DB2AC8DA050EDB2A060EE8E388
:104F9000DB2AE6D733DA01E3DB2AF5DAFA0EDB5057
:104FA00007E02CDA01E3DB2A8DD9FA0EDBCFEFFF25
:104FB000DDDAEF6A070EE15C02E2E16AE552E16EDA
:104FC00093D189D93FDAE3DAEF5006E0020EDB2A0B
:104FD000030EF9E3DB2AF7D740DAE96EDD50012052
:104FE000EA6EEF5012E083DA01E3DB2AFA0EDB50BF
:104FF0000224E96EFB0EDB500320EA6EEF50E66EF2
:10500000C3D901E3DB2A88DAE7D7F90EDB5004E0E5
:10501000BBD901E3DB2AB2DABADAEF6A040EE15C4B
:1050200002E2E16AE552E16E5FD155D90BDAAFDAFF
:10503000EF5006E0020EDB2A030EF9E3DB2AF7D776
:105040000CDAF66EDD500120F76E0800F55013E023
:105050004EDA01E3DB2AFA0EDB500224F66EFB0E79
:10506000DB500320F76E0800F550E66E8DD901E3A2
:10507000DB2A52DAE5D7F90EDB5004E085D901E3EB
:10508000DB2A7CDA84DAEF6A040EE15C02E2E16A90
:10509000E552E16E29D156DA40D9EF5005E0DF2A1A
:1050A000010EFAE3DB2AF8D757D901E3DB2A0AD944
:1050B000FB0EDBCFEFFFFA0EDB5007E04DD901E32B
:1050C000DB2A00D9FA0EDBCFEFFF27D9EF6AE552D2
:1050D000E5520AD100D9090EE12402E3E168E65263
:1050E000E16E020EDB6A030EDB6ADE6ADD6A15D949
:1050F000EF5005E0DF2A010EFAE3DB2AF8D7FA0EBB
:10510000FB0EDBCF01F0000EF00E011601380F0B85
:10511000006E050E00C0DBFFFA0EFB0EDBCF01F0C8
:10512000000E0F0E011601C000F0016A060E00C04D
:10513000DBFFF00EA9D9016A040EE7D9FEE1070EE4
:1051400000C0DBFF0F0EA0D9080E00C0DBFFD95056
:10515000050F006E000EDA20016E020EDB500024F7
:10516000E96E030EDB500120EA6EEF500BE194D99B
:10517000025C000E035806E2020EDB2A030EE7E390
:10518000DB2AE5D7E2D8C6D96CE270D902E1FF0E7E
:10519000ED1825E0B3D980D9D8800256000E035609
:1051A0000050025C015003581AE2CFD8040ED88098
:1051B0000056000E0156040E00C0DBFF27D9E8AEF2
:1051C00002D0033404D00250005C0350015807E2BF
:1051D000C3D801E3DB2AD7D9040EDB2AEFD7B5D831
:1051E00099D95DE2D9D8003422E2D950050F046E76
:1051F000000EDA20056E020EDB500424E96E030E69
:10520000DB500520EA6EEFCF03F0090EE76E0318BE
:10521000E8AE02D0033403D0E750D880035407E34C
:10522000CCD8300FE66E98D801E3DB2A75D9B4D814
:10523000090EE76E0018E8AE02D0003403D0E75044
:10524000D880005408E2B9D8410FF60FE66E84D832
:1052500001E3DB2A61D9020EDB2A030EC0E3DB2A5D
:10526000BED704D902E1FF0EED1819E047D9D89056
:10527000015001E64FD913E2040EDB6AC7D8E8AE4D
:1052800002D0033404D00250005C0350015807E2FE
:1052900063D801E3DB2A77D9040EDB2AEFD7F70EB8
:1052A000DB5007E059D801E3DB2A0CD8F70EDBCF3F
:1052B000EFFF33D8EF6A090EE15C02E2E16AE552E2
:1052C000E16E12D0FC0EDB500024E96EFD0EDB50C7
:1052D0000120EA6E1200D9CFE6FFDACFE6FFE1CF78
:1052E000D9FFE2CFDAFF1200E552E5CFDAFFE7CFD0
:1052F000D9FF120096EC3DF02850065C046E295050
:105300000758056E0A0E2A6E2B6A060EDBCF2FF0A9
:10531000070EDBCF30F091EF2AF0FC0EDBCF00F070
:10532000FD0EDBCF01F0DE500024E96EDD500120E0
:10533000EA6E1200020E2A6E2B6A0C0EDBCF2FF0E3
:105340000D0EDBCF30F096EF3DF0020EDBCF00F01C
:10535000030EDBCF01F01200DFCF00F0DF2A010ED9
:10536000DBCF01F01200DBCF2BF000C02FF001C02B
:1053700030F0A8EF4EF0050EDB50D924E96E060E92
:10538000DB50DA20EA6E1200020EDBCF00F0DB2ADF
:10539000030EDBCF01F01200D950050F016E000E95
:1053A000DA20026E020EDB500124E96E030EDB50A0
:1053B0000220EA6EEFCF00F01200D950050F026E06
:1053C000000EDA20036E020EDB500224E96E030E9B
:1053D000DB500320EA6EEF501200006E306EFB0EC1
:1053E000DBCF2BF0EAEC4EF02B5012000A0EDBCF95
:1053F00000F0DB2A0B0EDBCF01F01200030EDBCF37
:1054000000F0DB2A040EDBCF01F01200DB50006E4F
:10541000016AF80EDBCF02F0F90EDBCF03F001508A
:10542000031812000C0EDBCF00F00D0EDBCF01F0E5
:10543000050EB0D0050EDBCF00F0060EDBCF01F07D
:10544000030EA8D0E652E652E652E652DE6ADD6A64
:10545000020EDB6A030EDB6A1200FA0EDBCF00F0ED
:10546000FB0EDBCF01F0DE5000241200D950F80F04
:10547000E96EFF0EDA20EA6EFF0EEE181200E66EFD
:105480007AEC4EF0E5521200E76EFA0EDBCF00F038
:10549000FB0EE75000161200020EDBCF02F0030EE7
:1054A000DBCF03F0040E1200DECF00F0DDCF01F001
:1054B000D89001501200FA0EDBCF04F0FB0EDBCFC8
:1054C00005F01200FA0EDBCF06F0FB0EDBCF07F083
:1054D0001200FA0EDBCF08F0FB0EDBCF09F0120052
:1054E00002502824E96E03502920EA6E1200DFCF13
:1054F00002F0DF2A010EDBCF03F01200F80EDBCF43
:1055000000F0F90EDBCF01F01200D890013200322A
:10551000E8041200040E3ED0D5DEE552E750EF6EEF
:10552000120096EC3DF02850045C026E295005589C
:10553000036E080EDB50025C006E090EDB50035850
:10554000016E12002BD8E652DE6ADD6A12000A0EE6
:10555000DBCF00F00B0EDBCF01F062EF29F0D9CFEB
:1055600002F0DACF03F0E6DE70EF2AF0030EDBCFB5
:1055700000F0040EDBCF01F062EF29F0A3DEF90E9C
:10558000DBCFEFFF12009EDE300EEF6E1200DDDE8D
:1055900062EF29F0005C000E015812009CDEE6521A
:0255A0001200F7
:0E55A200D9CFE6FFDACFE6FFE1CFD9FFE2CFA7
:1055B000DAFF0E0EE12402E3E168E652E16E050136
:1055C0002A6B2B6B2C6B2D6B0501160E266F0501BC
:1055D0003F0E276F0501400E246F0501900E256FC9
:1055E0000501400E286F060E05011E6F1F6B050199
:1055F000200E206F030E216F0501200E226F030E77
:10560000236F46EC2FF0A1DB10E295EC2FF06C0E2F
:105610000026010E0122C1EC2FF07BEC2FF0020ED0
:10562000DB2A030EF0E3DB2AEED76D0E9CEC2FF0A5
:105630006C0E9FEC2FF004010024F66F000E012089
:10564000F76F6F0E9CEC2FF06E0E9FEC2FF00401A5
:105650000024F86F000E0120F96F710E9CEC2FF002
:10566000700E9FEC2FF004010024FA6F000E012051
:10567000FB6F730E9CEC2FF0720E9FEC2FF0040169
:105680000024FC6F000E0120FD6F04012C0ED88059
:10569000F655010EF75504E250EC2FF0410E8BDB6E
:1056A0000401900ED880F855010EF95504E255EC2E
:1056B0002FF0410E80DB0401C80ED880FA55000E91
:1056C000FB5503E2EDDB420E76DB04015E0ED88073
:1056D000FC55010EFD5503E2E8DB420E6CDB750E56
:1056E000A6EC2FF0740EFDDAA6DB00010224006E9A
:1056F000000E0320016E060E00C0DBFF070E01C086
:10570000DBFF770EA6EC2FF0760EEBDA94DB0224AB
:10571000006E000E0320016E080E00C0DBFF090EB4
:1057200001C0DBFF080EDBCF00F0090EDBCF01F07C
:10573000060EDBCF02F0070EDBCF03F00050025C59
:105740000150035808E2D950080F7CDB04E0D9501F
:10575000060F78DB26E10501300E626F750E636F70
:10576000646B656B0501E00E666F930E676F040E48
:10577000686F696BC5DB9EDBA4DBFEE10050E66E63
:10578000750EB5DBBDDB44DB740EC5DA93DB99DB4C
:10579000FEE10050E66E770EBEDA3ADB760EA7DB4E
:1057A00028D0060EDBCF62F5070EDBCF63F50501CF
:1057B000646B656BBCDAE2EC4CF024C062F525C08A
:1057C00063F526C064F527C065F5080EDBCF66F5E6
:1057D000090EDBCF67F50501686B696B7EDBE2ECD8
:1057E0004CF024C066F525C067F526C068F527C0D3
:1057F00069F50401F26B0401F36B0401F46B04011D
:10580000F56B0401E00EBC6F0401120EBD6F0401C4
:10581000BA6B04013F0EBB6F0401900EBF6F040111
:10582000070EBE6F0401800EC16F04017C0EC06FB5
:105830000401070EC26FBBC492FFBAC480FFBDC48F
:1058400093FFBCC481FFBFC494FFBEC482FFC1C428
:1058500095FFC0C483FF966EE00E7E6E7F6AA40E35
:10586000C06EC16A05016A6B6B6BAC6AAB6AAC84D3
:10587000210EAF6EB06AAC98AC8AAB8EAB88750E59
:10588000E66E94EC4DF0E5524D0EE66E73EC4DF085
:10589000E552A282A092E66A020E8DDB1AEC4DF070
:1058A000E552E552E552DFEC2FF065EC41F0000ED9
:1058B000E66EE66AE66A15EC30F0E552E552E5522E
:1058C000E5DA43DA37E206DA020E20DAFEE1C40E48
:1058D000E926040E20DB020E19DAFEE1C40EE926E9
:1058E000040EEA22020EE926000E15DB010E0EDA86
:1058F000FEE1D40EE926040E0EDBDC0EE926040ED2
:10590000EA22010EEF6EE6D9010E00DAFEE1E00EAA
:10591000E926040E00DB010EF9D9FEE1E80EE926C6
:10592000040EEA22EE6AED6A020EDB2A030EC9E3D8
:10593000DB2AC7D70401F06B0401650EF16FC4C404
:10594000E6FFC5C4E6FF100E49DAC8C4E6FFC9C4C5
:10595000E6FF200E43DACCC4E6FFCDC4E6FF300EEE
:105960003DDAD0C4E6FFD1C4E6FF400E37DA0401C9
:10597000FE6BFF6B006B016B0501026B036B046B2D
:10598000056B0501066B076B086B096B05010A6B5C
:105990000B6B0C6B0D6B05010E6B0F6B106B116BB2
:1059A0000501126B136B146B156B0501166B176BEE
:1059B000186B196B05011A6B1B6B1C6B1D6B0501BA
:1059C000526B536B0501546B556B0501566B576B4E
:1059D0000501586B596B0501296B58DAB6D901E3FB
:1059E0008BD0A3DA090E0102F3CF01F00002F3CF4E
:1059F00000F0F45001260D0E3FDA320EE76E020E73
:105A0000DBCF00F0030E9DD938086FE1020EDBCF2B
:105A10002AF0030EDBCF2BF02A1801E12B5029E0EE
:105A2000020E2A1801E12B501BE0010E2A1801E199
:105A30002B500DE02A5026E12B5024E183DAFE0E94
:105A4000EE6E040E6DDA0E0EEE6E050E1AD07ADAD8
:105A5000020EEE6E050E64DA120EEE6E050E11D019
:105A600071DA060EEE6E050E5BDA160EEE6E050EA0
:105A700008D068DA0A0EEE6E050E52DA1A0EEE6ED5
:105A8000050EED6EE6D9F3D9EBD9F1D9040EDBCFD3
:105A9000DEFFDBCFDDFF1CDA040EE76E65D90CE21A
:105AA00023D976D902E09ED9FEE1D3D98ED9D1D9B6
:105AB0006DDAF1E3DB2AEFD7040EE76E9AD908DA44
