:04000000F3EF00F02A
:100008000182E1CF0BF0E2CF0CF0D9CF0DF0DACFBF
:100018000EF0E250076EE1500F6E07C010F00F505F
:100028000001E65D1050E759D8B01DEF00F01FEF52
:1000380000F023EF00F00FC0E6F010C0E7F09EA23A
:1000480028EF00F02AEF00F031EF00F0010ED02782
:10005800000ED123D223D3239E929EAA36EF00F01E
:1000680038EF00F0E9EF00F0E250076EE1500F6E54
:1000780007C010F00F50E65D1050E759D8B047EFB1
:1000880000F049EF00F0DEEF00F00FC0E6F010C01E
:10009800E7F0DEEF00F0ABB254EF00F056EF00F0FF
:1000A8005DEF00F0ABA45BEF00F05DEF00F062EFF6
:1000B80000F0AB980000AB88AB9EAB8E97EC66F077
:1000C8000001F76F20EE04F04E50D9264F50DA2287
:1000D800DECF07F0DDCF08F007504E24096E085038
:1000E8004F200A6E060E0924D96E000E0A20DA6E19
:1000F800F7C0DFFF20EE04F04E50D9264F50DA2229
:10010800DECF07F0DDCF08F0010E0724026E000EE7
:100118000820036E4EC0D9FF4FC0DAFFDECF04F0CF
:10012800DDCF05F0DDEC61F020EE04F04E50D9266D
:100138004F50DA2202C0DEFF03C0DDFF20EE02F0DE
:100148004E50D9264F50DA2210EE04F04E50E126D8
:100158004F50E222DE50E61807E1DE50E618D8A438
:10016800B8EF00F0BAEF00F0DEEF00F020EE02F09A
:100178004E50D9264F50DA22DECF07F0DDCF08F0F7
:10018800010E0724026E000E0820036E4EC0D9FF30
:100198004FC0DAFFDECF04F0DDCF05F0DDEC61F013
:1001A80020EE02F04E50D9264F50DA2202C0DEFF70
:1001B80003C0DDFF61EC66F00009D8A4E6EF00F0AB
:1001C800E8EF00F04FEF00F09E9A0EC0DAFF0DC086
:1001D800D9FF0CC0E2FF0BC0E1FF01921100BCEF98
:0201E8005AF0CB
:101000000030322C30372C323032362C5843382EC8
:101010003130207265666163746F72656420766535
:101020007273696F6E20302E310076617269616E65
:10103000743D006D6F6E74683D00796561723D00AE
:1010400074656C3D006461793D00302C30004E4386
:10105000000046EC0FF09BEC66F01DEC66F0310EE4
:10106000116E070E126E8AEC66F0280E116E060ED7
:10107000126E8AEC66F02CEC51F0000E0001D06F7D
:10108000000ED16F000ED26F000ED36FF66B010110
:10109000956B0001F56B0101946B0001F46BF36B30
:1010A000000E0101546F000E556F000E566F000EBA
:1010B000576F000E506F000E516F000E526F000EF2
:1010C000536F000E4C6F000E4D6F000E4E6F000EF2
:1010D0004F6F000E486F000E496F000E4A6F000EF2
:1010E0004B6FD1EF08F069EC62F00101FE6FD89010
:1010F000FE350001DC6FDD6BDD37186A020E176EFE
:10110000DCC019F0DDC01AF0010EF7EC59F0186AD6
:10111000020E176E010E0001DC25196E000EDD2196
:101120001A6E020EF7EC59F0186A020E176E010ED5
:101130008AEC5DF017C07CF118C07DF1186A020ED0
:10114000176E020E8AEC5DF017C07AF118C07BF1C1
:101150000001DC5101017C1909E10001DD510101AF
:101160007D19D8A4B6EF08F0B8EF08F0D1EF08F079
:10117000010E0001DC250101FE6F000E0001DD21E2
:101180000101FF6F7A51FE1907E17B51FF19D8A4C5
:10119000CCEF08F0CEEF08F0D1EF08F0010E00011F
:1011A000E96F0001E951D8B4D8EF08F0DAEF08F0A0
:1011B00073EF08F0F3EC4BF0960E2B6E010E2C6ED5
:1011C000B9EC20F0010E506E4A6A030E4A64EBEF50
:1011D00008F0EDEF08F0EFEF08F004EF09F04A50E7
:1011E000020D960EF324D96E010EF420DA6EDE5055
:1011F000DE10D8A4FEEF08F000EF09F001EF09F0CF
:10120000506A4A2AE5EF08F05050D8B40AEF09F0C6
:101210000CEF09F00EEF09F05BEC4FF05050D8B432
:1012200014EF09F016EF09F0DAEF08F0380E0001BC
:10123000F819D8A41EEF09F020EF09F010EF0AF01A
:101240004A6A030E4A6427EF09F029EF09F02BEFF1
:1012500009F010EF0AF04A50040DF350C20FD96E96
:10126000DA6ADE6ADD6A4A50040F4D6E4D0E2B6E4F
:1012700014EC4EF02BC044F02CC045F044C011F0EB
:1012800045C012F0146A0A0E136EFBEC5FF011C039
:1012900044F012C045F0455009E1040E445CD8A06A
:1012A00054EF09F056EF09F0F5EF09F04A50D8B4C1
:1012B0005CEF09F05EEF09F067EF09F0020E4A18E3
:1012C000D8A465EF09F067EF09F09DEF09F044C07D
:1012D00011F045C012F0136A146A2C0E156E270E19
:1012E000166E020E176E000E186E0FEC61F011C034
:1012F0001DF012C01EF013C01FF014C020F0E80E45
:10130000216E030E226E000E236E000E246E38EC4A
:101310005DF01DC044F11EC045F11FC046F120C064
:1013200047F14A50020D300EF324D96E010EF4201D
:10133000DA6E830EDE6E050EDD6E4A04D8B4A3EFBE
:1013400009F0A5EF09F0AEEF09F0030E4A18D8A492
:10135000ACEF09F0AEEF09F0E4EF09F044C011F092
:1013600045C012F0136A146A680E156E550E166E9B
:10137000010E176E000E186E0FEC61F011C01DF01B
:1013800012C01EF013C01FF014C020F0E80E216E32
:10139000030E226E000E236E000E246E38EC5DF0FC
:1013A0001DC044F11EC045F11FC046F120C047F1E9
:1013B0004A50020D300EF324D96E010EF420DA6E7D
:1013C0006A0EDE6E030EDD6E4A50040DF350C00F40
:1013D000D96EDA6A44C1DEFF45C1DDFF4A50D80F3D
:1013E000D96EDA6ADF6A0DEF0AF04A50040DF35045
:1013F000C00FD96EDA6ADE6ADD6A4A50020D300E1D
:10140000F324D96E010EF420DA6EDE6ADD6A4A50EA
:10141000D80FD96EDA6A010EDF6E4A2A21EF09F081
:101420000001E76B000EE66FD09EF28EF28C9D8A73
:10143000800E126E7A0E116E92EC65F0FA0ECB6E83
:10144000D4C060F1D5C061F1D6C062F1D7C063F1FC
:10145000000E01015C6F000E5D6F000E5E6F000EEE
:101460005F6F4EC016F04FC017F0DC0E186E010E05
:10147000196EDA0E1A6E010E1B6E1AEC45F016C0CC
:1014800070F117C071F1010170517111D8A44BEFC7
:101490000AF04DEF0AF048EF0CF0DD5109E1090EBA
:1014A000DC5DD8A056EF0AF058EF0AF048EF0CF0D8
:1014B0001E6A000E1D6E310E1F6E070E206EDCC1FF
:1014C00021F0DDC122F0DAC123F0DBC124F062ECAF
:1014D00054F031C7F1F0310E1A6E070E1B6E07EC97
:1014E00063F01AC076F11BC077F135C749F036C7F3
:1014F00048F0310E116E070E126EA4EC60F0476ECC
:10150000310E196E070E1A6E000E1B6E030E1C6E46
:1015100042EC58F0310E1A6E070E1B6E44EC61F06F
:101520001AC074F11BC075F169EC62F0300F4918F4
:10153000D8A49DEF0AF09FEF0AF048EF0CF00101EC
:10154000AE6B4750D8B4A7EF0AF0A9EF0AF0E2EF6C
:101550000AF0AE0E116E010E126E76C113F077C155
:1015600014F0166A030E156E000E176E8EEC3CF02A
:10157000AE0E116E010E126E49C013F0000E146E05
:10158000C2EC5FF0AE0E116E010E126E48C013F089
:10159000000E146EC2EC5FF0AE0E116E010E126EF4
:1015A00047C013F0000E146EC2EC5FF0AE0E116E69
:1015B000010E126E230E136E000E146EC2EC5FF05D
:1015C00005EF0BF0AE0E116E010E126E76C113F028
:1015D00077C114F0166A030E156E000E176E8EECAE
:1015E0003CF0AE0E116E010E126E49C013F0000EEB
:1015F000146EC2EC5FF0AE0E116E010E126E48C09A
:1016000013F0000E146EC2EC5FF00101736B000E5C
:10161000726F796B000E786F1DEF0BF0310E78252D
:10162000D96E070E7921DA6EDF50FE6F7251FE1906
:10163000726F7351736F784B792B310E7825D96E99
:10164000070E7921DA6E030EDE18D8A42AEF0BF00C
:101650002CEF0BF00EEF0BF07451721907E175517E
:101660007319D8A436EF0BF038EF0BF042EF0BF004
:10167000020E0001F119D8B440EF0BF042EF0BF06D
:10168000A9EF0BF0000EE8CF31F7310E116E070E07
:10169000126E1A0E136E000E146EC2EC5FF0310E55
:1016A000116E070E126EAE0E136E010E146E000E4A
:1016B000156EE4EC5CF0310E116E070E126E000E2A
:1016C000136E030E146E000E156EE4EC5CF0310E1A
:1016D000116E070E126E030E136E000E146EC2EC26
:1016E0005FF0310E116E070E126E92EC62F011C0B7
:1016F00074F112C075F1000EE8CF28F6280E116EB5
:10170000060E126E310E136E070E146E000E156E5D
:10171000E4EC5CF0280E116E060E126E74C113F02C
:1017200075C114F0FF0E166E1568000E176E8EEC64
:101730003CF01E6A010E1D6E280E1F6E060E206EF6
:10174000DBEC5DF01E6A010E1D6E5DEC56F048EF9D
:101750000CF0000EBC6F030EBD6F640EBE6F020E68
:10176000BF6F48505BEC5AF00001F06F000EE8CFFD
:1017700031F7F051D8A4BFEF0BF0C1EF0BF010EF31
:101780000CF064C2D8F10101D96BD80E116E010EB4
:10179000126EBEEC51F011500001EF6FEF51D8A462
:1017A000D4EF0BF0D6EF0BF004EF0CF0310E116E0E
:1017B000070E126E060E136E000E146EC2EC5FF072
:1017C000310E116E070E126EAE0E136E010E146EF8
:1017D000000E156EE4EC5CF0310E116E070E126E09
:1017E000640E136E020E146E000E156EE4EC5CF0C7
:1017F000310E116E070E126E030E136E000E146E74
:10180000C2EC5FF03CEF0CF0310E116E070E126E61
:10181000150E136E000E146EC2EC5FF0E0EF0BF0CD
:10182000310E116E070E126E1A0E136E000E146E2C
:10183000C2EC5FF0310E116E070E126EAE0E136E1B
:10184000010E146E000E156EE4EC5CF0310E116E9C
:10185000070E126E000E136E030E146E000E156E40
:10186000E4EC5CF0310E116E070E126E030E136E77
:10187000000E146EC2EC5FF0310E116E070E126E88
:1018800092EC62F011C074F112C075F17BEF0BF0B5
:101890000001D805D8A44FEF0CF051EF0CF05FEF2A
:1018A0000CF04D6A4D0E126E5CEC53F012C054F108
:1018B00013C055F10101566B576B68EF0CF0000E29
:1018C0000101546F000E556F000E566F000E576FDA
:1018D0000001D905D8A46FEF0CF071EF0CF080EF88
:1018E0000CF0010E4D6E4D0E126E5CEC53F012C0FA
:1018F00050F113C051F10101526B536B89EF0CF0A1
:10190000000E0101506F000E516F000E526F000E5D
:10191000536F0001DA05D8A490EF0CF092EF0CF0B1
:10192000A1EF0CF0020E4D6E4D0E126E5CEC53F0FA
:1019300012C04CF113C04DF101014E6B4F6BAAEF79
:101940000CF0000E01014C6F000E4D6F000E4E6F3B
:10195000000E4F6F0001DB05D8A4B1EF0CF0B3EF20
:101960000CF0C2EF0CF0030E4D6E4D0E126E5CECDF
:1019700053F012C048F113C049F101014A6B4B6B9F
:10198000CBEF0CF0000E0101486F000E496F000E06
:101990004A6F000E4B6FD0C03EF0D1C03FF0D2C0B6
:1019A00040F0D3C041F03EC060F03FC061F040C0A5
:1019B00062F041C063F0190E0001646F000E656FA4
:1019C000000E666F000E676FC2EC5EF000016051A2
:1019D000611162116311D8A4F0EF0CF0F2EF0CF07A
:1019E0009DEF0DF0F551D8A4F8EF0CF0FAEF0CF0E4
:1019F0009EEF0DF0D8C058F1D9C059F1DAC05AF1B4
:101A0000DBC05BF164EC37F00001D805D8A40BEF24
:101A10000DF00DEF0DF029EF0DF001015851D8A494
:101A200014EF0DF016EF0DF029EF0DF0D4C060F1BA
:101A3000D5C061F1D6C062F1D7C063F13EC05CF1A0
:101A40003FC05DF140C05EF141C05FF1010E000199
:101A5000F46F0001D905D8A430EF0DF032EF0DF08E
:101A60004EEF0DF001015951D8A439EF0DF03BEFC5
:101A70000DF04EEF0DF0D4C060F1D5C061F1D6C0CD
:101A800062F1D7C063F13EC05CF13FC05DF140C080
:101A90005EF141C05FF1010E0001F46F0001DA0553
:101AA000D8A455EF0DF057EF0DF073EF0DF00101D5
:101AB0005A51D8A45EEF0DF060EF0DF073EF0DF00A
:101AC000D4C060F1D5C061F1D6C062F1D7C063F176
:101AD0003EC05CF13FC05DF140C05EF141C05FF1CE
:101AE000010E0001F46F0001DB05D8A47AEF0DF0C0
:101AF0007CEF0DF098EF0DF001015B51D8A483EF5E
:101B00000DF085EF0DF098EF0DF0D4C060F1D5C069
:101B100061F1D6C062F1D7C063F13EC05CF13FC055
:101B20005DF140C05EF141C05FF1010E0001F46F54
:101B3000010E0001F56F9EEF0DF0F56BD0C03EF089
:101B4000D1C03FF0D2C040F0D3C041F03EC060F001
:101B50003FC061F040C062F041C063F0CD0E646FE1
:101B6000000E656F000E666F000E676FC2EC5EF0D0
:101B700000016051611162116311D8A4C2EF0DF030
:101B8000C4EF0DF0DBEF0DF04B04D8A4CAEF0DF05D
:101B9000CCEF0DF0DBEF0DF0F351D8A4D2EF0DF048
:101BA000D4EF0DF0DCEF0DF042EC29F0010E000156
:101BB000F36FDCEF0DF0F36BD0C03EF0D1C03FF01F
:101BC000D2C040F0D3C041F03EC060F03FC061F0F1
:101BD00040C062F041C063F0FB0E646F000E656FA1
:101BE000000E666F000E676FC2EC5EF00001605180
:101BF000611162116311D8A400EF0EF002EF0EF034
:101C000015EF0EF0ABB207EF0EF009EF0EF010EF8C
:101C10000EF0ABA40EEF0EF010EF0EF015EF0EF07D
:101C2000AB980000AB88AB9EAB8ED0C03EF0D1C06D
:101C30003FF0D2C040F0D3C041F03EC060F03FC0A2
:101C400061F040C062F041C063F0E80E0001646FD3
:101C5000030E656F000E666F000E676FC2EC5EF0DC
:101C600000016051611162116311D8B43AEF0EF0B6
:101C70003CEF0EF0E1EF0EF0F251D8A442EF0EF07F
:101C800044EF0EF0E2EF0EF00101CC51CD11CE1178
:101C9000CF11D8B44EEF0EF050EF0EF06AEF0EF009
:101CA0000001D805D8A457EF0EF059EF0EF06AEFF7
:101CB0000EF0310E396E54C13AF055C13BF056C1A9
:101CC0003CF057C13DF0410E71EC1EF039C084F17B
:101CD0003AC085F10101C451C511C611C711D8B46C
:101CE00074EF0EF076EF0EF090EF0EF00001D905D4
:101CF000D8A47DEF0EF07FEF0EF090EF0EF0320ED5
:101D0000396E50C13AF051C13BF052C13CF053C161
:101D10003DF0410E71EC1EF039C082F13AC083F102
:101D20000101D451D511D611D711D8B49AEF0EF0C4
:101D30009CEF0EF0B6EF0EF00001DA05D8A4A3EF89
:101D40000EF0A5EF0EF0B6EF0EF0310E396E4CC16D
:101D50003AF04DC13BF04EC13CF04FC13DF0420E58
:101D600071EC1EF039C080F13AC081F10101BC5123
:101D7000BD11BE11BF11D8B4C0EF0EF0C2EF0EF00E
:101D8000DCEF0EF00001DB05D8A4C9EF0EF0CBEFBD
:101D90000EF0DCEF0EF0320E396E48C13AF049C158
:101DA0003BF04AC13CF04BC13DF0420E71EC1EF0DD
:101DB00039C07EF13AC07FF1010E0001F26FE2EF0F
:101DC0000EF0F26BD0C03EF0D1C03FF0D2C040F078
:101DD000D3C041F060C119F061C11AF062C11BF0BB
:101DE00063C11CF05CC115F05DC116F05EC117F057
:101DF0005FC118F0D0C011F0D1C012F0D2C013F002
:101E0000D3C014F0D7EC56F011C060F012C061F0EE
:101E100013C062F014C063F060C164F061C165F08A
:101E200062C166F063C167F0C2EC5EF00001605110
:101E3000611162116311D8A420EF0FF022EF0FF0AF
:101E400041EF0FF0F451D8A428EF0FF02AEF0FF074
:101E500031EF0AF03EC05CF13FC05DF140C05EF181
:101E600041C05FF10EEC25F08DC060F18EC061F1D4
:101E70008FC062F190C063F1010E0001F46F31EF89
:101E80000AF0F46B31EF0AF0F3EF00F0000E0001FE
:101E9000D06F000ED16F000ED26F000ED36F160EF2
:101EA0000101F56F3F0EF66F400EF86F900EF76F61
:101EB000400EF46FF16B060EF06F030EEF6F200E05
:101EC000EE6F030EF36F200EF26F0001806B000EB9
:101ED0007F6F6C0E7F25116E010E8021126E49EC12
:101EE00066F000017F4B802B805109E1040E7F5D7D
:101EF000D8A07DEF0FF07FEF0FF069EF0FF0010E2C
:101F0000126E6C0E116E49EC66F00001606F010EEE
:101F1000126E6D0E116E49EC66F00001616F60513A
:101F2000E46F61C0E5F0010E126E6E0E116E49ECA9
:101F300066F00001606F010E126E6F0E116E49ECBB
:101F400066F00001616F6051E26F61C0E3F0010E65
:101F5000126E700E116E49EC66F00001606F010E9A
:101F6000126E710E116E49EC66F00001616F6051E6
:101F7000E06F61C0E1F0010E126E720E116E49EC5D
:101F800066F00001606F010E126E730E116E49EC67
:101F900066F00001616F6051DE6F61C0DFF02D0EF1
:101FA000E45D010EE559D8A0D8EF0FF0DAEF0FF09D
:101FB000E3EF0FF0310E2F6E010E316E2C0E306EEE
:101FC000410ED6EC47F0910E0001E25D010EE3599F
:101FD000D8A0EDEF0FF0EFEF0FF0F8EF0FF0320EAB
:101FE0002F6E010E316E900E306E410ED6EC47F022
:101FF0000001E15109E1C90EE05DD8A002EF10F047
:1020000004EF10F00DEF10F0310E2F6E010E316E57
:102010002C0E306E420ED6EC47F05F0E0001DE5DF6
:10202000010EDF59D8A017EF10F019EF10F022EFD2
:1020300010F0320E2F6E010E316E900E306E420E89
:10204000D6EC47F0010E126E740E116E49EC66F07C
:102050000001606F010E126E750E116E49EC66F094
:102060000001616F6051736F61C074F0010E126EF8
:10207000760E116E49EC66F00001606F010E126E73
:10208000770E116E49EC66F00001616F6051756F5B
:1020900061C076F07551735D76517459D8B053EFC5
:1020A00010F055EF10F067EF10F075517611D8B4BD
:1020B0005CEF10F05EEF10F067EF10F073517411E9
:1020C000D8A465EF10F067EF10F0F0EF10F0300ECD
:1020D000D46F750ED56F000ED66F000ED76FE00E61
:1020E0000101646F930E656F040E666F000E676FDB
:1020F000010E2B6E750E2A6ED4C01DF0D5C01EF0D9
:10210000D6C01FF0D7C020F0980E216E3A0E226E76
:10211000000E236E000E246E38EC5DF01EC01DF024
:102120001FC01EF020C01FF0206A1D502C6EFAEC5C
:1021300063F0010E2B6E740E2A6ED4C01DF0D5C054
:102140001EF0D6C01FF0D7C020F0980E216E3A0EB8
:10215000226E000E236E000E246E38EC5DF01D50D2
:102160002C6EFAEC63F0010E2B6E770E2A6E64C1B2
:102170001DF065C11EF066C11FF067C120F0980E0A
:10218000216E3A0E226E000E236E000E246E38EC85
:102190005DF01EC01DF01FC01EF020C01FF0206AA1
:1021A0001D502C6EFAEC63F0010E2B6E760E2A6E2B
:1021B00064C11DF065C11EF066C11FF067C120F04B
:1021C000980E216E3A0E226E000E236E000E246EC3
:1021D00038EC5DF01D502C6EFAEC63F020EF11F03E
:1021E00073C011F074C012F0136A146A980E156E61
:1021F0003A0E166E000E176E000E186E0FEC61F0A0
:1022000011C0D4F012C0D5F013C0D6F014C0D7F06E
:1022100075C011F076C012F0136A146A980E156E2C
:102220003A0E166E000E176E000E186E0FEC61F06F
:1022300011C064F112C065F113C066F114C067F1FA
:102240000101936B926B916B906BE00E0001FD6F3F
:10225000120EFC6FEE6B3F0EED6F900EEC6F070EE3
:102260004C6E800EEB6F7C0EFB6F070EEA6FEDC0BD
:1022700092FFEEC080FFFCC093FFFDC081FFECC069
:1022800094FF4CC082FFEBC095FFFBC083FFEAC008
:1022900096FFE00E7E6E7F6AA40EC06EC16A0101D9
:1022A000876B000E866FAC6AAB6AAC84210EAF6E92
:1022B000B06AAC98AC8AAB8EAB88126AB00E116E65
:1022C0007BEC66F0126A800E116E73EC66F0A282EF
:1022D000A092010E116E010E126E000E87EC5FF0DF
:1022E00034EC60F0BBEC63F0196A000E186E000E5F
:1022F00048EC5FF00001806B000E7F6F7F51040D92
:10230000F350C00FD96EDA6ADE6ADD6A7F51040DC0
:10231000F350C20FD96EDA6ADE6ADD6AD8907F3573
:10232000D96E8035DA6E300ED926010EDA22DE6AD9
:10233000DD6A7F51D80FD96EDA6A010EDF6ED89050
:102340007F35D96E8035DA6E200ED926010EDA225D
:10235000DE6ADD6AD8907F35D96E8035DA6E280E58
:10236000D926010EDA22DE6ADD6A7F4B802B80518E
:1023700009E1040E7F5DD8A0C0EF11F0C2EF11F0AB
:102380007EEF11F04B6A650EF96FC0C018F0C1C046
:1023900019F0100E48EC5FF0C4C018F0C5C019F079
:1023A000200E48EC5FF0C8C018F0C9C019F0300E1C
:1023B00048EC5FF0CCC018F0CDC019F0400E48ECEE
:1023C0005FF0000E0101CC6F000ECD6F000ECE6FDE
:1023D000000ECF6F000EC46F000EC56F000EC66FEB
:1023E000000EC76F000ED46F000ED56F000ED66FB3
:1023F000000ED76F000EBC6F000EBD6F000EBE6FDB
:10240000000EBF6F000EC86F000EC96F000ECA6FBE
:10241000000ECB6F000EC06F000EC16F000EC26FBA
:10242000000EC36F000ED06F000ED16F000ED26F82
:10243000000ED36F000EB86F000EB96F000EBA6FAA
:10244000000EBB6F856B000E846F836B000E826F76
:10245000816B000E806F7F6B000E7E6F0001FA6B48
:10246000806B000E7F6F090E7F03F3CF60F0F4CF17
:1024700061F08003F35061270D0E60257D6F000E23
:1024800061217E6F320E7F25116E000E8021126E4B
:1024900049EC66F0380AD8A450EF12F052EF12F06F
:1024A0006BEF13F07CEF12F0CC0E776F010E786FAC
:1024B000C80E796F010E7A6F9BEF12F0C40E776F22
:1024C000010E786FC00E796F010E7A6F9BEF12F0DC
:1024D000D40E776F010E786FD00E796F010E7A6F80
:1024E0009BEF12F0BC0E776F010E786FB80E796F0C
:1024F000010E7A6F9BEF12F07FC060F080C061F038
:1025000000016151000AD8B488EF12F09BEF12F07D
:102510006051000AD8B454EF12F0010AD8B45EEF4B
:1025200012F0030AD8B468EF12F0010AD8B472EFBF
:1025300012F09BEF12F077C0D9FF78C0DAFFDE6AA5
:10254000DE6ADE6ADD6A79C0D9FF7AC0DAFFDE6A48
:10255000DE6ADE6ADD6A7DC07BF07EC07CF0F8EF6B
:1025600012F077C0D9FF78C0DAFFDECF60F0DECF9F
:1025700061F0DECF62F0DECF63F07D517B5D646F92
:10258000D8906437D8906437D89064377BC011F006
:102590007CC012F049EC66F00001656F65C066F022
:1025A000676B686B696B642BDBEF12F0D890663752
:1025B000673768376937642FD6EF12F060516625A8
:1025C0006A6F615167216B6F625168216C6F635153
:1025D00069216D6F77C0D9FF78C0DAFF6AC0DEFF6E
:1025E0006BC0DEFF6CC0DEFF6DC0DEFF7B4B7C2B63
:1025F000040E7D25606F000E7E21616F60517B5D52
:1026000061517C59D8A007EF13F009EF13F0B1EF37
:1026100012F0040E7D257B6F000E7E217C6F5AEF39
:1026200013F079C0D9FF7AC0DAFFDECF60F0DECFD9
:1026300061F0DECF62F0DECF63F07D51F80DF3CFB5
:1026400064F07B51080DF3506425656FE00E65273B
:102650007BC011F07CC012F049EC66F00001666F9F
:1026600066C067F0686B696B6A6B652B3DEF13F0B2
:10267000D8906737683769376A37652F38EF13F0B6
:10268000605167256B6F615168216C6F62516921E0
:102690006D6F63516A216E6F79C0D9FF7AC0DAFF1E
:1026A0006BC0DEFF6CC0DEFF6DC0DEFF6EC0DEFF04
:1026B0007B4B7C2B080E7D25606F000E7E21616FA9
:1026C00060517B5D61517C59D8A069EF13F06BEFCD
:1026D00013F011EF13F000017F4B802B805109E1C3
:1026E000040E7F5DD8A077EF13F079EF13F033EF8E
:1026F00012F0806B000E7F6F000E606F010E616F35
:10270000D8907F35D96E8035DA6ED890D936DA36E2
:102710006051D9266151DA22DE6ADE6ADE6ADD6A3C
:10272000100E606F010E616FD8907F35D96E8035C5
:10273000DA6ED890D936DA366051D9266151DA226C
:10274000DE6ADE6ADE6ADD6A060E7F03F3CF60F0C2
:10275000F4CF61F08003F3506127360E60257D6F62
:10276000000E61217E6F010E7D25116E000E7E210F
:10277000126E49EC66F0FF0AD8A4C1EF13F0C3EF64
:1027800013F049EF14F07DC011F07EC012F049EC57
:1027900066F0FF0AD8A4CFEF13F0D1EF13F049EFA2
:1027A00014F000017F518011D8B4D9EF13F0DBEFA2
:1027B00013F0E5EF13F0020E7F198011D8A4E3EFB8
:1027C00013F0E5EF13F017EF14F0000E606F010E39
:1027D000616FD8907F35D96E8035DA6ED890D93652
:1027E000DA366051D9266151DA22170EDE6E180EE4
:1027F000DE6E000EDE6E000EDD6E100E606F010EDE
:10280000616FD8907F35D96E8035DA6ED890D93621
:10281000DA366051D9266151DA220B0EDE6EC00E17
:10282000DE6E020EDE6E000EDD6E67EF15F0000E3E
:10283000606F010E616FD8907F35D96E8035DA6E8A
:10284000D890D936DA366051D9266151DA225B0E3A
:10285000DE6E260EDE6E000EDE6E000EDD6E100EDB
:10286000606F010E616FD8907F35D96E8035DA6E5A
:10287000D890D936DA366051D9266151DA22CA0E9B
:10288000DE6E370EDE6E0A0EDE6E000EDD6E67EF58
:1028900015F0010E00017D25116E000E7E21126ED5
:1028A00049EC66F00001606F60C061F0626B636BC1
:1028B000646B63C064F062C063F061C062F0616B1E
:1028C0007DC011F07EC012F049EC66F00001656F2A
:1028D00065516125666F000E6221676F000E6321EE
:1028E000686F000E6421696F000E6A6F010E6B6FD6
:1028F000D8907F35D96E8035DA6ED890D936DA36F1
:102900006A51D9266B51DA2266C0DEFF67C0DEFF4E
:1029100068C0DEFF69C0DEFF100E606F010E616FE0
:10292000D8907F35D96E8035DA6ED890D936DA36C0
:102930006051D9266151DA22DE6ADE6ADE6ADD6A1A
:10294000020E7D257B6F000E7E217C6F09EF15F056
:10295000100E606F010E616FD8907F35D96E803593
:10296000DA6ED890D936DA366051D9266151DA223A
:10297000DECF62F0DECF63F0DECF64F0DECF65F055
:102980007D51F80DF3CF66F07B51080DF3506625AD
:10299000676FF00E67277BC011F07CC012F049EC26
:1029A00066F00001686F68C069F06A6B6B6B6C6BF6
:1029B000672BE0EF14F0D89069376A376B376C37C4
:1029C000672FDBEF14F0625169256D6F63516A2147
:1029D0006E6F64516B216F6F65516C21706F100EBB
:1029E000716F010E726FD8907F35D96E8035DA6EB7
:1029F000D890D936DA367151D9267251DA226DC0A3
:102A0000DEFF6EC0DEFF6FC0DEFF70C0DEFF7B4BFF
:102A10007C2B050E7D25606F000E7E21616F60515D
:102A20007B5D61517C59D8A018EF15F01AEF15F0B5
:102A3000A8EF14F0050E7D25116E000E7E21126E9A
:102A400049EC66F00009D8A428EF15F02AEF15F03C
:102A500067EF15F0100E0001606F010E616FD890E6
:102A60007F35D96E8035DA6ED890D936DA36605136
:102A7000D9266151DA22DECF62F0DECF63F0DECFFD
:102A800064F0DECF65F062510008666F000E63559A
:102A9000676F000E6455686F000E6555696F100E04
:102AA0006A6F010E6B6FD8907F35D96E8035DA6E04
:102AB000D890D936DA366A51D9266B51DA2266C0F7
:102AC000DEFF67C0DEFF68C0DEFF69C0DEFF000119
:102AD0007F4B802B805109E1040E7F5DD8A073EFFE
:102AE00015F075EF15F07CEF13F0126A310E116ED0
:102AF00049EC66F00001F86F1200010E00019D6FB5
:102B0000010EA26F8DC0D9FF8EC0DAFF410EDE1814
:102B1000D8B48DEF15F08FEF15F09CEF15F08DC048
:102B2000D9FF8EC0DAFF420EDE18D8A49AEF15F056
:102B30009CEF15F058EF16F020EE01F08D51D926DC
:102B40008E51DA222C0EDE18D8A4A9EF15F0ABEFC7
:102B500015F058EF16F020EE02F08D51D9268E5167
:102B6000DA22310EDE18D8B4B8EF15F0BAEF15F04E
:102B7000C9EF15F020EE02F08D51D9268E51DA22E0
:102B8000320EDE18D8A4C7EF15F0C9EF15F058EFD4
:102B900016F020EE03F08D51D9268E51DA222C0E3C
:102BA000DE18D8A4D6EF15F0D8EF15F058EF16F0D0
:102BB00020EE04F08D51D9268E51DA222B0EDE182C
:102BC000D8B4E5EF15F0E7EF15F0F6EF15F020EECD
:102BD00004F08D51D9268E51DA222D0EDE18D8A49C
:102BE000F4EF15F0F6EF15F058EF16F020EE05F0C3
:102BF0008D51D9268E51DA222C0EDE18D8A403EF7F
:102C000016F005EF16F058EF16F0060E9E6F1AEF4D
:102C100016F09E518D25D96E000E8E21DA6E9EC063
:102C20003BF0FA0E3B263B50910FE16EE26ADFCF9C
:102C3000E7FF9E2B9E518D25D96E000E8E21DA6EF8
:102C4000DF50D8B426EF16F028EF16F037EF16F065
:102C50009E518D25D96E000E8E21DA6E2C0EDE1857
:102C6000D8A435EF16F037EF16F009EF16F09EC036
:102C70003BF0FA0E3B263B50910FD96EDA6ADF6AC1
:102C80009E518D25D96E000E8E21DA6EDF50D8A4AC
:102C90004CEF16F04EEF16F058EF16F0060E9E1998
:102CA000D8B455EF16F057EF16F058EF16F09D6BAD
:102CB0009D51D8A45EEF16F060EF16F05BEF19F0AF
:102CC0008DC0D9FF8EC0DAFFDF509C6F20EE02F07E
:102CD0008D51D9268E51DA22DF509B6F20EE04F001
:102CE0008D51D9268E51DA22DF509F6F910E2A6EB8
:102CF000A00E2B6E1EEC43F000019D6F410E9C193F
:102D0000D8A485EF16F087EF16F034EF17F0310EE8
:102D10009B19D8A48EEF16F090EF16F034EF17F051
:102D20009D51D8A496EF16F098EF16F034EF17F0F7
:102D3000D805D8A49EEF16F0A0EF16F017EF17F005
:102D40002B0E9F19D8A4A7EF16F0A9EF16F0DAEF13
:102D500016F0A051C227A151C323C2C0C0F0C3C006
:102D6000C1F0C2C018F0C3C019F0000E48EC5FF00B
:102D70008FC0D9FF90C0DAFF300EDF6E000120EE69
:102D800001F08F51D9269051DA227C0EDF6E20EEB1
:102D900002F08F51D9269051DA22DF6A8FC018F0E5
:102DA00090C019F0C2C01AF0C3C01BF0000E1C6E18
:102DB00043EC34F02D0E00019F19D8A4E2EF16F079
:102DC000E4EF16F034EF17F0A051C25FA151C35BDE
:102DD000C2C0C0F0C3C0C1F0C2C018F0C3C019F077
:102DE000000E48EC5FF08FC0D9FF90C0DAFF300EC4
:102DF000DF6E000120EE01F08F51D9269051DA22CA
:102E00007C0EDF6E20EE02F08F51D9269051DA222F
:102E1000DF6A8FC018F090C019F0C2C01AF0C3C0AA
:102E20001BF0000E1C6E43EC34F034EF17F08FC033
:102E3000D9FF90C0DAFF300EDF6E20EE01F08F5127
:102E4000D9269051DA227C0EDF6E20EE02F08F51EF
:102E5000D9269051DA224E0EDF6E20EE03F08F510C
:102E6000D9269051DA22DF6A410E00019C19D8A4BC
:102E70003CEF17F03EEF17F0EBEF17F0320E9B1917
:102E8000D8A445EF17F047EF17F0EBEF17F09D517F
:102E9000D8A44DEF17F04FEF17F0EBEF17F0D9056F
:102EA000D8A455EF17F057EF17F0CEEF17F02B0E11
:102EB0009F19D8A45EEF17F060EF17F091EF17F0AD
:102EC000A051C627A151C723C6C0C4F0C7C0C5F0D2
:102ED000C6C018F0C7C019F0100E48EC5FF08FC0E4
:102EE000D9FF90C0DAFF300EDF6E000120EE01F056
:102EF0008F51D9269051DA227C0EDF6E20EE02F03F
:102F00008F51D9269051DA22DF6A8FC018F090C015
:102F100019F0C6C01AF0C7C01BF0000E1C6E43ECBF
:102F200034F02D0E00019F19D8A499EF17F09BEFF4
:102F300017F0EBEF17F0A051C65FA151C75BC6C0F9
:102F4000C4F0C7C0C5F0C6C018F0C7C019F0100E55
:102F500048EC5FF08FC0D9FF90C0DAFF300EDF6E13
:102F6000000120EE01F08F51D9269051DA227C0E1B
:102F7000DF6E20EE02F08F51D9269051DA22DF6AFF
:102F80008FC018F090C019F0C6C01AF0C7C01BF06F
:102F9000000E1C6E43EC34F0EBEF17F08FC0D9FF3E
:102FA00090C0DAFF300EDF6E20EE01F08F51D9268F
:102FB0009051DA227C0EDF6E20EE02F08F51D9267E
:102FC0009051DA224E0EDF6E20EE03F08F51D9269B
:102FD0009051DA22DF6A420E00019C19D8A4F3EF67
:102FE00017F0F5EF17F0A2EF18F0310E9B19D8A4E7
:102FF000FCEF17F0FEEF17F0A2EF18F09D51D8A4E8
:1030000004EF18F006EF18F0A2EF18F0DA05D8A4D4
:103010000CEF18F00EEF18F085EF18F02B0E9F193B
:10302000D8A415EF18F017EF18F048EF18F0A051DA
:10303000CA27A151CB23CAC0C8F0CBC0C9F0CAC0AF
:1030400018F0CBC019F0200E48EC5FF08FC0D9FF0C
:1030500090C0DAFF300EDF6E000120EE01F08F51DC
:10306000D9269051DA227C0EDF6E20EE02F08F51CD
:10307000D9269051DA22DF6A8FC018F090C019F07B
:10308000CAC01AF0CBC01BF0000E1C6E43EC34F02B
:103090002D0E00019F19D8A450EF18F052EF18F030
:1030A000A2EF18F0A051CA5FA151CB5BCAC0C8F013
:1030B000CBC0C9F0CAC018F0CBC019F0200E48EC44
:1030C0005FF08FC0D9FF90C0DAFF300EDF6E0001D5
:1030D00020EE01F08F51D9269051DA227C0EDF6E5E
:1030E00020EE02F08F51D9269051DA22DF6A8FC08C
:1030F00018F090C019F0CAC01AF0CBC01BF0000E37
:103100001C6E43EC34F0A2EF18F08FC0D9FF90C0D2
:10311000DAFF300EDF6E20EE01F08F51D92690518C
:10312000DA227C0EDF6E20EE02F08F51D92690510C
:10313000DA224E0EDF6E20EE03F08F51D926905129
:10314000DA22DF6A420E00019C19D8A4AAEF18F017
:10315000ACEF18F089EF19F0320E9B19D8A4B3EF39
:1031600018F0B5EF18F089EF19F09D51D8A4BBEF16
:1031700018F0BDEF18F089EF19F0DB05D8A4C3EF04
:1031800018F0C5EF18F03CEF19F02B0E9F19D8A4DA
:10319000CCEF18F0CEEF18F0FFEF18F0A051CE27CB
:1031A000A151CF23CEC0CCF0CFC0CDF0CEC018F00F
:1031B000CFC019F0300E48EC5FF08FC0D9FF90C03F
:1031C000DAFF300EDF6E000120EE01F08F51D926BC
:1031D0009051DA227C0EDF6E20EE02F08F51D9265C
:1031E0009051DA22DF6A8FC018F090C019F0CEC07B
:1031F0001AF0CFC01BF0000E1C6E43EC34F02D0E05
:1032000000019F19D8A407EF19F009EF19F089EF11
:1032100019F0A051CE5FA151CF5BCEC0CCF0CFC092
:10322000CDF0CEC018F0CFC019F0300E48EC5FF0F2
:103230008FC0D9FF90C0DAFF300EDF6E000120EEA4
:1032400001F08F51D9269051DA227C0EDF6E20EEEC
:1032500002F08F51D9269051DA22DF6A8FC018F020
:1032600090C019F0CEC01AF0CFC01BF0000E1C6E3B
:1032700043EC34F089EF19F08FC0D9FF90C0DAFF2A
:10328000300EDF6E20EE01F08F51D9269051DA22F8
:103290007C0EDF6E20EE02F08F51D9269051DA229B
:1032A0004E0EDF6E20EE03F08F51D9269051DA22B8
:1032B000DF6A89EF19F0A251300F8FC0D9FF90C09B
:1032C000DAFFDF6E20EE01F08F51D9269051DA221D
:1032D0007C0EDF6E20EE02F08F51D9269051DA225B
:1032E0004E0EDF6E20EE03F08F51D9269051DA2278
:1032F0004F0EDF6E20EE04F08F51D9269051DA2266
:103300004B0EDF6E20EE05F08F51D9269051DA2258
:10331000DF6A000E12000001886F010E0001736F5A
:10332000000E6F6F000E706F000E716F000E726FE7
:10333000000E7A6F000E7B6F000E7C6F000E7D6FAB
:10334000000E766F000E776F000E786F000E796FAB
:10335000000E896F000E8A6F000E8B6F000E8C6F4F
:103360007F6B000E7E6F816B000E806F826B8851C9
:10337000020DF35068257D0F876F6805D8A4C3EF51
:1033800019F0C5EF19F01EEF1AF0410E8819D8A4F4
:10339000CCEF19F0CEEF19F01EEF1AF02C0E896F5A
:1033A000270E8A6F020E8B6F000E8C6F89C011F092
:1033B0008AC012F08BC013F08CC014F02C0E156E66
:1033C000010E166E000E176E000E186E0FEC61F0F7
:1033D00011C01DF012C01EF013C01FF014C020F069
:1033E000E80E216E030E226E000E236E000E246E78
:1033F00038EC5DF01DC076F01EC077F01FC078F08D
:1034000020C079F0020E00017F6F940E7E6F020ED5
:10341000816F980E806F126A4E0E116E49EC66F045
:103420000009D8B416EF1AF019EF1AF0010E1AEFCE
:103430001AF0000E0001826F5BEF1BF06805D8A444
:1034400024EF1AF026EF1AF07FEF1AF0420E8819D7
:10345000D8A42DEF1AF02FEF1AF07FEF1AF02C0EF0
:10346000896F270E8A6F020E8B6F000E8C6F89C0DA
:1034700011F08AC012F08BC013F08CC014F02C0E27
:10348000156E010E166E000E176E000E186E0FEC04
:1034900061F011C01DF012C01EF013C01FF014C067
:1034A00020F0E80E216E030E226E000E236E000E39
:1034B000246E38EC5DF01DC076F01EC077F01FC0A2
:1034C00078F020C079F0020E00017F6FA40E7E6FAD
:1034D000020E816FA80E806F126A4F0E116E49ECBA
:1034E00066F00009D8B477EF1AF07AEF1AF0010EFF
:1034F0007BEF1AF0000E0001826F5BEF1BF0020EF3
:103500006819D8A486EF1AF088EF1AF0EEEF1AF0D7
:10351000410E8819D8A48FEF1AF091EF1AF0EEEF50
:103520001AF0680E896F550E8A6F010E8B6F000EB0
:103530008C6F89C011F08AC012F08BC013F08CC060
:1035400014F0900E156E010E166E000E176E000E22
:10355000186E0FEC61F011C01DF012C01EF013C008
:103560001FF014C020F0E80E216E030E226E000E34
:10357000236E000E246E38EC5DF01DC076F01EC088
:1035800077F01FC078F020C079F0020E00017F6F45
:103590009C0E7E6F020E816FA00E806F746B126A9C
:1035A000500E116E49EC66F00009D8A4DAEF1AF05B
:1035B000DCEF1AF0EAEF1AF0910E0001695D010EDE
:1035C0006A59D8B0E6EF1AF0E8EF1AF0EAEF1AF00D
:1035D000010E746F74C082F05BEF1BF0020E68196D
:1035E000D8A4F5EF1AF0F7EF1AF05BEF1BF0420EDC
:1035F0008819D8A4FEEF1AF000EF1BF05BEF1BF068
:10360000680E896F550E8A6F010E8B6F000E8C6FDE
:1036100089C011F08AC012F08BC013F08CC014F076
:10362000900E156E010E166E000E176E000E186EBF
:103630000FEC61F011C01DF012C01EF013C01FF09E
:1036400014C020F0E80E216E030E226E000E236ED1
:10365000000E246E38EC5DF01DC076F01EC077F0D1
:103660001FC078F020C079F0020E00017F6FAC0E11
:103670007E6F020E816FB00E806F756B126A510EF5
:10368000116E49EC66F00009D8A449EF1BF04BEF2E
:103690001BF059EF1BF0910E0001695D010E6A5994
:1036A000D8B055EF1BF057EF1BF059EF1BF0010E90
:1036B000756F75C082F0000189518A118B118C11D0
:1036C000D8B465EF1BF067EF1BF013EF1CF069C077
:1036D00011F06AC012F0136A146A89C015F08AC02A
:1036E00016F08BC017F08CC018F00FEC61F011C011
:1036F0001DF012C01EF013C01FF014C020F0E80E21
:10370000216E030E226E000E236E000E246E38EC26
:103710005DF01DC07AF01EC07BF01FC07CF020C0A1
:103720007DF000018251D8B498EF1BF09AEF1BF0A6
:10373000C2EF1BF069C031F06AC032F0336A346AFC
:103740007EC035F07FC036F080C037F081C038F0E1
:103750002BEC5EF031C083F032C084F033C085F0D2
:1037600034C086F000018351765D845177598551CC
:10377000785986517959D8B0C0EF1BF0C2EF1BF0D1
:10378000CAEF1BF07AC083F07BC084F07CC085F068
:103790007DC086F06BC011F06CC012F06DC013F0EC
:1037A0006EC014F089C015F08AC016F08BC017F0F7
:1037B0008CC018F00FEC61F011C01DF012C01EF0AB
:1037C00013C01FF014C020F0E80E216E030E226E0D
:1037D000000E236E000E246E38EC5DF01DC06FF0FD
:1037E0001EC070F01FC071F020C072F00001875140
:1037F000040DF350C20FD96EDA6A83C0DEFF84C0B5
:10380000DDFF8751020D300EF324D96E010EF42036
:10381000DA6E6FC0DEFF70C0DDFF8751D80FD96E42
:10382000DA6ADF6A736B7351120000016351800B17
:10383000686F635163256A6F62AF21EF1CF023EF5D
:103840001CF024EF1CF06A816A51D8B42AEF1CF0F6
:103850002CEF1CF040EF1CF06A29D8A432EF1CF0CA
:1038600034EF1CF03CEF1CF0000E606F000E616F37
:10387000000E626F000E636F628F636B48EF1CF087
:10388000000E606F000E616F000E626F000E636FBE
:103890006751800B696F68516919D8B452EF1CF0F9
:1038A00054EF1CF055EF1CF0688D67516725696F68
:1038B00066AF5DEF1CF05FEF1CF060EF1CF06981FC
:1038C0006951D8B466EF1CF068EF1CF07CEF1CF077
:1038D0006929D8A46EEF1CF070EF1CF078EF1CF093
:1038E000000E646F000E656F000E666F000E676F4E
:1038F000668F676B84EF1CF0000E646F000E656FBF
:10390000000E666F000E676F6A51695DD8B08BEF6D
:103910001CF08DEF1CF0B4EF1CF068AD92EF1CF0C2
:1039200094EF1CF096EF1CF0800E681B6AC06BF0E1
:1039300069C06AF06BC069F060C06BF064C060F091
:103940006BC064F061C06BF065C061F06BC065F086
:1039500062C06BF066C062F06BC066F063C06BF073
:1039600067C063F06BC067F06B6B6A5169C038F079
:10397000396A385E000E395A39BEC8EF1CF039502A
:1039800009E11A0E385CD8A0C8EF1CF0CAEF1CF091
:1039900001EF1DF06051611162116311D8A4D3EFE2
:1039A0001CF0D6EF1CF0010ED7EF1CF0000E6B6F71
:1039B000000E606F000E616F000E626F000E636F8D
:1039C00069C06AF00AEF1DF06BA1E9EF1CF0EBEFA4
:1039D0001CF0F1EF1CF0D8906B3101096B6FF3EF25
:1039E0001CF0D8906B3360A1F8EF1CF0FAEF1CF0DC
:1039F000FBEF1CF06B8F63356333623361336033ED
:103A00006A2B69516A5DD8A008EF1DF00AEF1DF01E
:103A1000E4EF1CF068BD0FEF1DF011EF1DF051EF4A
:103A20001DF06A51D8A417EF1DF019EF1DF023EF18
:103A30001DF0000E606F000E616F000E626F000ED1
:103A4000636F70EF1EF0645160276551612366510A
:103A500062236751632363A130EF1DF032EF1DF045
:103A6000DEEF1DF06BA137EF1DF039EF1DF03FEFDA
:103A70001DF0D8906B3101096B6F41EF1DF0D890AC
:103A80006B3360A146EF1DF048EF1DF049EF1DF0CC
:103A90006B8F633563336233613360336A2BDEEFE0
:103AA0001DF06451605D6551615966516259635101
:103AB000800A386E6751800A3858D8B062EF1DF01E
:103AC00064EF1DF08FEF1DF06051645D386E615141
:103AD0006559396E625166593A6E635167593B6E4A
:103AE000FF0E3824606FFF0E3920616FFF0E3A2001
:103AF000626FFF0E3B20636F800E681B6B6D6B5116
:103B0000D8A485EF1DF087EF1DF097EF1DF0010E93
:103B10006027000E61236223632397EF1DF0645139
:103B2000605F6551615B6651625B6751635B6051C9
:103B3000611162116311D8A4A0EF1DF0A2EF1DF076
:103B4000D7EF1DF06B51D8A4A8EF1DF0AAEF1DF020
:103B5000D7EF1DF0000E606F000E616F000E626FF8
:103B6000000E636F70EF1EF0D890603761376237D8
:103B700063376BAFBEEF1DF0C0EF1DF0C1EF1DF05E
:103B800060816BA1C6EF1DF0C8EF1DF0CCEF1DF0FA
:103B9000D8806B37CEEF1DF0D8906B376A51D8B410
:103BA000D4EF1DF0D6EF1DF0D7EF1DF06A0762AF1E
:103BB000DCEF1DF0DEEF1DF0B4EF1DF0696B6BAFB5
:103BC000E4EF1DF0E6EF1DF0FEEF1DF06BC038F0E6
:103BD0007F0E3816D8B4EFEF1DF0F1EF1DF0F5EFC2
:103BE0001DF0010E696FFEEF1DF060A1FAEF1DF0F0
:103BF000FCEF1DF0FEEF1DF0F1EF1DF06951D8B4A0
:103C000004EF1EF006EF1EF031EF1EF0010E6027EC
:103C1000000E61236223632363A111EF1EF013EFF3
:103C20001EF031EF1EF060C038F061C039F062C0A4
:103C30003AF063C03BF03B343B323A3239323832EF
:103C400038C060F039C061F03AC062F03BC063F048
:103C50006A29D8B42EEF1EF030EF1EF031EF1EF0BF
:103C60006A2B6A29D8B437EF1EF039EF1EF041EF06
:103C70001EF06A51D8A43FEF1EF041EF1EF052EF44
:103C80001EF0000E606F000E616F000E626F000E7E
:103C9000636F6A51D8A44FEF1EF051EF1EF052EF40
:103CA0001EF0686B6AA157EF1EF059EF1EF05CEF33
:103CB0001EF0628F5DEF1EF0629FD8906A31636FD5
:103CC00068AF65EF1EF067EF1EF068EF1EF0638FC0
:103CD00060C060F061C061F062C062F063C063F018
:103CE00012000001746F310E3918D8A47AEF1EF05B
:103CF0007CEF1EF0E5EF1EF0420E00017419D8A40F
:103D000084EF1EF086EF1EF0B2EF1EF0D40E6F6F40
:103D1000010E706FD00E726F010E736F2CC175F0B3
:103D20002DC176F0776B786B270E716F75C031F00F
:103D300076C032F077C033F078C034F0020E366EC1
:103D4000C40E356E020E386EC80E376E2BEC5EF068
:103D500031C079F032C07AF033C07BF034C07CF0EF
:103D6000E5EF1EF0410E7419D8A4B9EF1EF0BBEFB9
:103D70001EF0E5EF1EF0CC0E6F6F010E706FC80ED7
:103D8000726F010E736F28C175F029C176F0776BE1
:103D9000786B150E716F75C031F076C032F077C058
:103DA00033F078C034F0020E366EB40E356E020E6B
:103DB000386EB80E376E2BEC5EF031C079F032C041
:103DC0007AF033C07BF034C07CF0320E3918D8A4BE
:103DD000ECEF1EF0EEEF1EF057EF1FF0410E00016A
:103DE0007419D8A4F6EF1EF0F8EF1EF024EF1FF0C0
:103DF000C40E6F6F010E706FC00E726F010E736F85
:103E00002AC175F02BC176F0776B786B1E0E716F3F
:103E100075C031F076C032F077C033F078C034F03E
:103E2000020E366EBC0E356E020E386EC00E376E48
:103E30002BEC5EF031C079F032C07AF033C07BF009
:103E400034C07CF057EF1FF0420E7419D8A42BEF4A
:103E50001FF02DEF1FF057EF1FF0BC0E6F6F010E1C
:103E6000706FB80E726F010E736F2EC175F02FC197
:103E700076F0776B786B300E716F75C031F076C06D
:103E800032F077C033F078C034F0020E366ECC0ECC
:103E9000356E020E386ED00E376E2BEC5EF031C0F0
:103EA00079F032C07AF033C07BF034C07CF000018E
:103EB0007C517B110BE1310E795D750E7A59D8A0DA
:103EC00064EF1FF066EF1FF00CEF20F0330ECC60B4
:103ED0006CEF1FF06EEF1FF066EF1FF06FC0D9FFA1
:103EE00070C0DAFFDECF11F0DECF12F0DECF13F0BC
:103EF000DECF14F075C015F076C016F077C017F05D
:103F000078C018F00FEC61F011C079F012C07AF0AF
:103F100013C07BF014C07CF0330ECC6092EF1FF026
:103F200094EF1FF08CEF1FF079C01DF07AC01EF0E7
:103F30007BC01FF07CC020F0100E216E270E226E79
:103F4000000E236E000E246E38EC5DF01DC079F07B
:103F50001EC07AF01FC07BF020C07CF071C011F051
:103F6000126A49EC66F000016C6F6C51D8B4BBEF7B
:103F70001FF0BDEF1FF0D7EF1FF072C0D9FF73C065
:103F8000DAFFDECF68F0DECF69F0DECF6AF0DECF99
:103F90006BF079516825796F7A5169217A6F7B517D
:103FA0006A217B6F7C516B217C6F0CEF20F072C01B
:103FB000D9FF73C0DAFF7951DE5C7A51DE587B514C
:103FC000DE587C51DE58D8B0E8EF1FF0EAEF1FF062
:103FD00004EF20F072C0D9FF73C0DAFFDECF68F0C3
:103FE000DECF69F0DECF6AF0DECF6BF06851795D2D
:103FF000796F69517A597A6F6A517B597B6F6B512E
:104000007C597C6F0CEF20F0000E796F000E7A6FF8
:10401000000E7B6F000E7C6F79513A5C7A513B58F1
:104020007B513C587C513D58D8A019EF20F01BEF34
:1040300020F030EF20F079513A5C01016C6F000103
:104040007A513B5801016D6F00017B513C580101D1
:104050006E6F00017C513D5801016F6F39EF20F008
:10406000000E01016C6F000E6D6F000E6E6F000E82
:104070006F6F150ECC603FEF20F041EF20F039EF6D
:1040800020F06CC111F06DC112F06EC113F06FC160
:1040900014F0D30E156E250E166E000E176E000E60
:1040A000186E0FEC61F011C068F112C069F113C015
:1040B0006AF114C06BF1150ECC6061EF20F063EF74
:1040C00020F05BEF20F0000E01016815686F000E14
:1040D0006915696FFF0E6A156A6FFF0E6B156B6FBE
:1040E000150ECC6076EF20F078EF20F070EF20F026
:1040F00068C168F069C169F06AC16AF06BC16BF0B0
:1041000069C068F06AC069F06BC06AF000016B6B4F
:1041100068C068F169C069F16AC06AF16BC06BF18F
:10412000150ECC6096EF20F098EF20F090EF20F085
:1041300068C168F069C169F06AC16AF06BC16BF06F
:1041400069C068F06AC069F06BC06AF000016B6B0F
:1041500068C068F169C069F16AC06AF16BC06BF14F
:1041600068C16DF069C16EF06DC039F06EC03AF093
:10417000120022EEA4F010EE60F01C0EDBCFE3FF85
:10418000E806FCE20001876B8751020DF3CF2DF0AA
:10419000F4CF2EF02D502B24D96E2E502C20DA6E19
:1041A000DE6ADD6A872B050E8765D9EF20F0DBEF2D
:1041B00020F0C4EF20F0866B876B836B86C02DF0F8
:1041C000010E2D26D8902D32D8902D30010B606F26
:1041D00086C02DF0010E2D26D8902D30010B616F79
:1041E0008629010B626F000EABEC65F0FBEC65F00D
:1041F000000EABEC65F0D7EF21F00A0E876103EFFC
:1042000021F005EF21F022EF21F08751600FD96EE8
:10421000DA6ADF50E1EC62F000018751600FD96E7D
:10422000DA6ADF50ABEC65F000018751600FD96EA0
:10423000DA6ADE04D8A41FEF21F021EF21F022EF8B
:1042400021F0832B090E876528EF21F02AEF21F05A
:10425000C1EF21F01B0E876130EF21F032EF21F02A
:10426000C1EF21F0856B000E846F8751600FD96E0E
:10427000DA6ADF50E1EC62F00001FC89126A000E9C
:10428000116E90EC66F0FCC093FF4DEF21F083ECD3
:1042900066F011C084F012C085F081B852EF21F0B1
:1042A00054EF21F063EF21F00101F2510001845D30
:1042B0000101F35100018559D8A061EF21F063EFAE
:1042C00021F047EF21F0000184510101F05D000170
:1042D00085510101F159D8B070EF21F072EF21F052
:1042E000B2EF21F0EE510001845D0101EF510001B8
:1042F0008559D8B07EEF21F080EF21F0B2EF21F0A8
:10430000090E876586EF21F088EF21F0B1EF21F0EB
:10431000140E87618EEF21F090EF21F0B1EF21F0C4
:10432000875113082D6E010E2E6E000E2F6E2D2A52
:104330009DEF21F0D8902E362F362D2E9AEF21F0BA
:1043400000018651020DF3CF30F0F4CF31F0305040
:104350002B24D96E31502C20DA6E2E50DE122F50C5
:10436000DD12832B0101F2510001845D0101F35143
:1043700000018559D8A0BFEF21F0C1EF21F0C1EFB6
:1043800021F01B0E8719D8A4C8EF21F0CAEF21F045
:10439000D5EF21F08351010B010AE1EC62F000013D
:1043A0008351010B010AABEC65F00001872B000182
:1043B0008751600FD96EDA6ADE28D8A4E2EF21F0C7
:1043C000E4EF21F0FDEF20F0862B030E8665EBEF86
:1043D00021F0EDEF21F0DCEF20F0866B8651020D2D
:1043E000F3CF2DF0F4CF2EF02D502B24D96E2E507C
:1043F0002C20DA6EDECF2FF0DDCF30F0190E2F0239
:10440000F3CF31F0F4CF32F03002F350322631C026
:1044100011F032C012F0146A640E136E1CEC5BF0E3
:1044200000018651020DF3CF33F0F4CF34F0335056
:104430002B24D96E34502C20DA6E11C0DEFF12C04E
:10444000DDFF862B030E866528EF22F02AEF22F08F
:10445000EEEF21F0020E186E000E176E1A6A010EB2
:10446000196E010EF7EC59F0020E186E000E176E61
:104470001A6A010E196E020EF7EC59F0020E186E50
:10448000000E176E010E8AEC5DF017C07FF018C0A9
:1044900080F00001816B826B020E186E000E176EA9
:1044A000020E8AEC5DF017C07FF018C080F00001AA
:1044B000816B826B020E186E000E176E1A6A010E67
:1044C000196E010EF7EC59F0020E186E000E176E01
:1044D0001A6A010E196E020EF7EC59F00001866B94
:1044E000020E186E000E176E86298AEC5DF017C05A
:1044F0007FF018C080F00001816B826B7FC02DF0CF
:1045000080C02EF00F0E2F6ED8902E322D322F2E0F
:1045100084EF22F0010E2D147D6F7E6B7D057E11E0
:10452000D8A495EF22F097EF22F070EF22F0FF0E63
:104530007F15116E030E8015126E000E8115136E1D
:10454000000E8215146EEC0E156E010E166E000E26
:10455000176E000E186E0FEC61F0020E11241D6E26
:10456000D50E12201E6EFB0E13201F6EFF0E1420A0
:10457000206EE80E216E030E226E000E236E000EDA
:10458000246ED7EC52F0000186512D6E2E6AD89021
:104590002D362E362D502B242F6E2E502C20306E83
:1045A000080E2F24D96E000E3020DA6E1DC0DEFFFB
:1045B0001EC0DDFF862B010E8665E1EF22F0E3EFE2
:1045C00022F070EF22F01200010E0001AA6F010E1E
:1045D000A66F8DC0D9FF8EC0DAFF410EDE18D8B4A9
:1045E000F4EF22F0F6EF22F003EF23F08DC0D9FFB5
:1045F0008EC0DAFF420EDE18D8A401EF23F003EFDD
:1046000023F0F8EF23F020EE01F08D51D9268E51E2
:10461000DA222C0EDE18D8A410EF23F012EF23F0CC
:10462000F8EF23F020EE02F08D51D9268E51DA22D8
:10463000310EDE18D8B41FEF23F021EF23F030EF56
:1046400023F020EE02F08D51D9268E51DA22320E5F
:10465000DE18D8A42EEF23F030EF23F0F8EF23F08C
:1046600020EE03F08D51D9268E51DA222C0EDE1861
:10467000D8A43DEF23F03FEF23F0F8EF23F0040E32
:10468000A96F040EAF6F53EF23F0AF518D25D96E94
:10469000000E8E21DA6EA9519108AF25E16EE26A13
:1046A000DFCFE7FFAF2BAF518D25D96E000E8E21E6
:1046B000DA6EDF50D8B45FEF23F061EF23F070EFD4
:1046C00023F0AF518D25D96E000E8E21DA6E2C0E9F
:1046D000DE18D8A46EEF23F070EF23F045EF23F03F
:1046E000A9519108AF25D96EDA6ADF6AAF518D25DD
:1046F000D96E000E8E21DA6EDF50D8A482EF23F03F
:1047000084EF23F090EF23F0A951AF19D8B48BEFC9
:1047100023F08DEF23F090EF23F0030EA56FAA6B2B
:10472000AF518D25D96E000E8E21DA6E2C0EDE185B
:10473000D8A49DEF23F09FEF23F0F8EF23F0A951C9
:10474000AF19D8B4A6EF23F0A8EF23F0F8EF23F0C9
:10475000AF2BAFC0A9F0BBEF23F0AF518D25D96EC1
:10476000000E8E21DA6EA9519B08AF25E16EE26A38
:10477000DFCFE7FFAF2BAF518D25D96E000E8E2115
:10478000DA6EDF50D8B4C7EF23F0C9EF23F0D8EFCB
:1047900023F0AF518D25D96E000E8E21DA6E2C0ECE
:1047A000DE18D8A4D6EF23F0D8EF23F0ADEF23F036
:1047B000A9519B08AF25D96EDA6ADF6AAF518D2502
:1047C000D96E000E8E21DA6EDF50D8A4EAEF23F006
:1047D000ECEF23F0F8EF23F0A951AF19D8B4F3EFC1
:1047E00023F0F5EF23F0F8EF23F0040EA56FAA6B8A
:1047F000AA51D8A4FEEF23F000EF24F0F6EF24F046
:104800008DC0D9FF8EC0DAFFDF50AE6F20EE02F010
:104810008D51D9268E51DA22DF50D00FAB6F910E19
:104820002A6EAC0E2B6E1EEC43F00001AA6F040E34
:10483000A519D8A41EEF24F020EF24F033EF24F0C4
:104840009B0E2A6EA70E2B6E1EEC43F00001AA25CC
:10485000AA6FAA51D8A42FEF24F031EF24F033EF40
:1048600024F033EF24F0AA51D8A439EF24F03BEF21
:1048700024F0B3EF24F0010EAA6F410EAE19D8A4B4
:1048800044EF24F046EF24F05AEF24F0AB05D8A40F
:104890004CEF24F04EEF24F05AEF24F0AC51E45DDD
:1048A000AD51E559D8A057EF24F059EF24F05AEF55
:1048B00024F0AA6B410EAE19D8A461EF24F063EF87
:1048C00024F078EF24F0020EAB19D8A46AEF24F09C
:1048D0006CEF24F078EF24F0AC51E25DAD51E35978
:1048E000D8A075EF24F077EF24F078EF24F0AA6BCE
:1048F000420EAE19D8A47FEF24F081EF24F095EF9B
:1049000024F0AB05D8A487EF24F089EF24F095EFCD
:1049100024F0AC51E05DAD51E159D8A092EF24F004
:1049200094EF24F095EF24F0AA6B420EAE19D8A4B0
:104930009CEF24F09EEF24F0B3EF24F0020EAB19AD
:10494000D8A4A5EF24F0A7EF24F0B3EF24F0AC51E6
:10495000DE5DAD51DF59D8A0B0EF24F0B2EF24F006
:10496000B3EF24F0AA6BAA51D8A4B9EF24F0BBEF9F
:1049700024F0F6EF24F0AE51020DF350550FAB25A5
:10498000D96EDA6ADF50D8A4C8EF24F0CAEF24F059
:10499000F6EF24F0030EA66F410EAE19D8A4D3EFA4
:1049A00024F0D5EF24F0E1EF24F0FBB1DAEF24F0AE
:1049B000DCEF24F0E1EF24F0FB510109FB6FFBC0B9
:1049C00083FF420EAE19D8A4E8EF24F0EAEF24F0FA
:1049D000F6EF24F0FBB3EFEF24F0F1EF24F0F6EF65
:1049E00024F0FB510209FB6FFBC083FFA651300F7F
:1049F0008FC0D9FF90C0DAFFDF6E20EE01F08F513B
:104A0000D9269051DA227C0EDF6E20EE02F08F5113
:104A1000D9269051DA22DF6A000E120020EE99F0BA
:104A2000070EDE6AE806FDE284C199F085C19AF0BE
:104A300082C19BF083C19CF080C19DF081C19EF03A
:104A40007EC19FF07FC1A0F00001A16B380EF81964
:104A5000D8A42DEF25F02FEF25F00BEF27F0AC6B4E
:104A6000AC51D80FD96EDA6ADE04D8A43AEF25F03B
:104A70003CEF25F002EF27F0AC51040DF350C20FCC
:104A8000D96EDA6ADE50DE10D8B449EF25F04BEF6C
:104A900025F002EF27F0E20EAC25D96EDA6A010E9E
:104AA000DA22DF50A46FDE0EAC25D96EDA6A010E71
:104AB000DA22DF50A96FAC51020DF350990FD96E75
:104AC000DA6ADECFA2F0DDCFA3F018EC64F00001CB
:104AD000A251155CA3511658D8B071EF25F073EFB1
:104AE00025F002EF27F036EC64F015500001A25DCE
:104AF0001650A359D8B07FEF25F081EF25F002EFD3
:104B000027F0AC51020D280EF324D96E010EF420CB
:104B1000DA6EDECF3CF0DDCF3DF03CC011F03DC0A1
:104B200012F0136A146A000EB2EC48F011C06CF077
:104B300012C06DF013C06EF014C06FF0280E0001AB
:104B4000706F6B0E716F6E0E726F4E0E736F2EEC78
:104B500027F06CC0A5F06DC0A6F06EC0A7F06FC0C6
:104B6000A8F0A5C01FF0A6C020F0A7C021F0A8C0E3
:104B700022F0A2C011F0A3C012F0136A146A000E52
:104B8000B2EC48F011C023F012C024F013C025F09D
:104B900014C026F045EC2DF01FC0A5F020C0A6F0F3
:104BA00021C0A7F022C0A8F0A5C060F0A6C061F0A7
:104BB000A7C062F0A8C063F0C00E0001646FA30E2E
:104BC000656F1B0E666FCB0E676F15EC1CF060C037
:104BD000A5F061C0A6F062C0A7F063C0A8F0000E07
:104BE0000001646F000E656F800E666F3F0E676F89
:104BF000A5C023F0A6C024F0A7C025F0A8C026F0C9
:104C0000C00E1F6EA30E206E1B0E216E4B0E226E69
:104C100045EC2DF01FC060F020C061F021C062F0B3
:104C200022C063F015EC1CF060C06CF061C06DF048
:104C300062C06EF063C06FF00001AC51020D200E37
:104C4000F324D96E010EF420DA6EDECF3CF0DDCF16
:104C50003DF03CC011F03DC012F0136A146A000E22
:104C6000B2EC48F011C070F012C071F013C072F0D5
:104C700014C073F02EEC27F06CC091F06DC092F070
:104C80006EC093F06FC094F091C011F092C012F01A
:104C900093C013F094C014F0DFEC53F011C0AAF0ED
:104CA00012C0ABF00001AC51020D280EF324D96EF6
:104CB000010EF420DA6EAA51DE1809E1AB51DE18BC
:104CC000D8B465EF26F067EF26F002EF27F0AA517F
:104CD000AB11D8B46EEF26F070EF26F0F3EF26F0AC
:104CE000A905D8A476EF26F078EF26F083EF26F01A
:104CF0002D0EAA5D010EAB59D8A081EF26F083EFEF
:104D000026F097EF26F0020EA919D8A48AEF26F014
:104D10008CEF26F0A8EF26F0910EAA5D010EAB599C
:104D2000D8B095EF26F097EF26F0A8EF26F0A9C0AF
:104D300068F0AAC069F0ABC06AF0050E6B6F000E98
:104D40006C6F000E6D6F000E6E6FA4518BEC19F03E
:104D50000001A905D8A4AFEF26F0B1EF26F0CDEF02
:104D600026F02D0EAA5D010EAB59D8A0BAEF26F0A1
:104D7000BCEF26F0CDEF26F0A9C068F0010E6A6FF7
:104D80002C0E696F050E6B6F000E6C6F000E6D6F51
:104D9000000E6E6FA4518BEC19F0020E0001A919E0
:104DA000D8A4D5EF26F0D7EF26F0F3EF26F0910E3A
:104DB000AA5D010EAB59D8A0E0EF26F0E2EF26F095
:104DC000F3EF26F0A9C068F0010E6A6F900E696FCC
:104DD000050E6B6F000E6C6F000E6D6F000E6E6F28
:104DE000A4518BEC19F00001AC51020D280EF324F4
:104DF000D96E010EF420DA6EAAC0DEFFABC0DDFF73
:104E0000010EA16FAC2B030EAC6509EF27F00BEF81
:104E100027F030EF25F0A105D8A411EF27F013EF0C
:104E200027F01DEF27F0D4C095F0D5C096F0D6C07E
:104E300097F0D7C098F025EF27F064C195F065C1D1
:104E400096F066C197F067C198F095C08DF096C056
:104E50008EF097C08FF098C090F0120000016F5153
:104E6000800B786F6F516F257E6F6EAF3AEF27F032
:104E70003CEF27F03DEF27F07E817E51D8B443EF21
:104E800027F045EF27F058EF27F07E29D8A44BEF05
:104E900027F04DEF27F055EF27F0000E6C6F000E56
:104EA0006D6F000E6E6F000E6F6F6E8F60EF27F0EC
:104EB000000E6C6F000E6D6F000E6E6F000E6F6F48
:104EC0007351800B781B735173257D6F72AF6BEF3D
:104ED00027F06DEF27F06EEF27F07D817D51D8B47C
:104EE00074EF27F076EF27F089EF27F07D29D8A41B
:104EF0007CEF27F07EEF27F086EF27F0000E706F33
:104F0000000E716F000E726F000E736F728F91EF53
:104F100027F0000E706F000E716F000E726F000EA2
:104F2000736F7D51D8B497EF27F099EF27F0A1EF79
:104F300027F07E51D8A49FEF27F0A1EF27F0ABEF29
:104F400027F0000E6C6F000E6D6F000E6E6F000E7E
:104F50006F6F41EF29F072516C03F3CF83F0F4CF00
:104F600084F08351796F7A6B7B6B7C6B84517F6F9C
:104F7000806B816B826B71516D03F3CF83F0F4CF43
:104F800084F083517927000E7A237B237C2384517C
:104F90007F27000E80238123822370516E03F3CF7D
:104FA00083F0F4CF84F083517927000E7A237B239A
:104FB0007C2384517F27000E8023812382237BC0A2
:104FC0007CF07AC07BF079C07AF0796B70516D0318
:104FD000F3CF83F0F4CF84F08351792784517A237F
:104FE000000E7B23000E7C2371516C03F3CF83F002
:104FF000F4CF84F08351792784517A23000E7B23E8
:10500000000E7C237BC07CF07AC07BF079C07AF004
:10501000796B70516C03F3CF83F0F4CF84F083513C
:10502000792784517A23000E7B23000E7C23725152
:105030006D03F3CF83F0F4CF84F083517F27845145
:105040008023000E8123000E822371516E03F3CF63
:1050500083F0F4CF84F083517F2784518023000EA6
:105060008123000E822372516E03F3CF83F0F4CFBD
:1050700084F08351746F8451756F766B776B76C053
:1050800077F075C076F074C075F0746B74517F273B
:1050900075518023765181237751822379C074F032
:1050A0007AC075F07BC076F07CC077F0190E5EEFA9
:1050B00028F0D8907733763375337433E82E59EF70
:1050C00028F074517F2775518023765181237751C1
:1050D00082237BC07CF07AC07BF079C07AF0796B58
:1050E0007D517EC074F0756B7427000E7523820E9F
:1050F0007425836FFF0E7521846F94EF28F0D8908C
:105100007F378037813782377CAF89EF28F08BEF8C
:1051100028F08CEF28F07F81D89079377A377B3769
:105120007C378307D8A0840781AF99EF28F09BEFE5
:1051300028F07FEF28F07D6B7CAFA1EF28F0A3EF84
:1051400028F0C7EF28F0FF0E7915746FFF0E7A155F
:10515000756FFF0E7B15766F7F0E7C15776F745120
:10516000751176117711D8B4B8EF28F0BAEF28F09E
:10517000BEEF28F0010E7D6FC7EF28F07FA1C3EFCF
:1051800028F0C5EF28F0C7EF28F0BAEF28F07D51DE
:10519000D8B4CDEF28F0CFEF28F0F3EF28F0010ED0
:1051A0007F27000E80238123822382A1DAEF28F05B
:1051B000DCEF28F0F3EF28F07FC074F080C075F0CA
:1051C00081C076F082C077F07735773376337533E8
:1051D000743374C07FF075C080F076C081F077C002
:1051E00082F0834B842B84BFFEEF28F0845108E1CA
:1051F0008329D8A0FEEF28F000EF29F00AEF29F06C
:10520000000E7F6F000E806F800E816F7F0E826FA9
:1052100037EF29F084BF17EF29F0845106E18305A9
:10522000D8B015EF29F017EF29F022EF29F0000E82
:105230007F6F000E806F000E816F000E826F786BA3
:1052400037EF29F083C07EF0FF0E7F17FF0E801727
:105250007F0E8117000E82177EA131EF29F033EF08
:1052600029F034EF29F0818FD8907E31826F785108
:1052700082137FC06CF080C06DF081C06EF082C080
:105280006FF012000001626B36EF2BF0640EF965CF
:105290004CEF29F04EEF29F059EF29F0B40E01013F
:1052A000406FE20E416FFF0E426FFF0E436F9AEFA9
:1052B00029F0640EF919D8B460EF29F062EF29F0F3
:1052C00091EF29F0F9C037F0386A396A3A6A0E0E60
:1052D000D8903736383639363A36E82E68EF29F026
:1052E00037C01DF038C01EF039C01FF03AC020F0A2
:1052F000640E216E000E226E000E236E000E246ED0
:10530000D7EC52F0000E1D240101406FE00E1E206C
:10531000416FFF0E1F20426FFF0E2020436F9AEF58
:1053200029F0780E0101406F1E0E416F000E426F92
:10533000000E436F640E40253C6F000E41213D6F0F
:10534000000E42213E6F000E43213F6F4668010E62
:105350000001E86F45EF2BF0462A060E4618D8A448
:10536000B4EF29F0B6EF29F0BDEF29F0DAEC60F0E8
:105370004B6A0001E86B45EF2BF0010E436E900E77
:10538000426E020EE86F45EF2BF04650116E126A26
:1053900011BE1206146A030E136E8DEC5CF01150F0
:1053A0001210D8A4D6EF29F0D8EF29F0E0EF29F0B9
:1053B000100E0001666F360E656F646B040E636F2E
:1053C0004650116E126A11BE1206146A030E136E55
:1053D0008DEC5CF011041210D8A4F1EF29F0F3EF7A
:1053E00029F0FBEF29F0130E0001666F360E656F92
:1053F000646B050E636F4650116E126A11BE120681
:10540000146A030E136E8DEC5CF0020E111812106C
:10541000D8A40DEF2AF00FEF2AF017EF2AF0150E9F
:105420000001666F360E656F646B060E636F465043
:10543000800A7D0FD8B01FEF2AF021EF2AF026EF67
:105440002AF0010E00016A6F29EF2AF0020E000116
:105450006A6F050E4226000E432263C017F064C037
:1054600018F042C019F043C01AF06A51F7EC59F035
:105470001A0E376EF80EE82EFED7372EFCD700F046
:1054800000F063C017F064C018F042C019F043C0C8
:105490001AF000016A51F7EC59F00001676B1A0E1F
:1054A000376EF80EE82EFED7372EFCD700F000F04E
:1054B00065C017F066C018F000016A518AEC5DF013
:1054C00017C068F018C069F00D0E376EFC0EE82E9C
:1054D000FED7372EFCD76EEF2AF0672B65C017F08A
:1054E00066C018F000016A518AEC5DF0E20E1724E4
:1054F000376EFF0E1820386E00016851375C385047
:10550000800A396E6951800A3958D8B08AEF2AF07A
:105510008CEF2AF0AFEF2AF065C017F066C018F0E4
:105520006A518AEC5DF01E0E1726000E18221750E5
:105530000001685D6951800A376E1850800A37583B
:10554000D8B0A5EF2AF0A7EF2AF0AFEF2AF0130E9C
:105550006765ADEF2AF0AFEF2AF06DEF2AF0140E79
:105560006761B5EF2AF0B7EF2AF0B8EF2AF0676B62
:10557000140E6719D8A4BFEF2AF0C1EF2AF04FEF3D
:105580002AF068C037F069C038F0000E38BEFF0E50
:10559000396E3A6E01014051375C415138584251E1
:1055A00039583A50800A3B6E4351800A3B58D8A084
:1055B000DCEF2AF0DEEF2AF017EF2BF0000E0001EF
:1055C00069BFFF0E386E800A376E01013C51000141
:1055D000685D01013D510001695901013E51385892
:1055E0003F51800A3758D8B0F8EF2AF0FAEF2AF086
:1055F00017EF2BF0010E0001E86F46C037F0386A54
:1056000037BE3806D890373638363750AC08606F1A
:105610003850D8A0E82A0108616F60C0D9FF61C086
:10562000DAFF42C0DEFF43C0DDFF190E626F0001EA
:10563000622B190E62611FEF2BF021EF2BF02AEF86
:105640002BF0040E435CD8A028EF2BF02AEF2BF0B0
:1056500029EF2AF04204040E4358D8A032EF2BF071
:1056600034EF2BF045EF2BF0A7EF29F0E851000ABB
:10567000D8B446EF29F0010AD8B4ACEF29F0030AF8
:10568000D8B4C5EF29F0B9EF29F01200010E0001DE
:105690009C6F8DC0D9FF8EC0DAFF410EDE18D8B4E2
:1056A00054EF2BF056EF2BF063EF2BF08DC0D9FFAA
:1056B0008EC0DAFF420EDE18D8A461EF2BF063EF44
:1056C0002BF001EF2CF020EE01F08D51D9268E51F8
:1056D000DA222C0EDE18D8A470EF2BF072EF2BF02C
:1056E00001EF2CF020EE02F08D51D9268E51DA22F6
:1056F000310EDE18D8B47FEF2BF081EF2BF09FEF47
:105700002BF020EE02F08D51D9268E51DA22320E86
:10571000DE18D8B48EEF2BF090EF2BF09FEF2BF02C
:1057200020EE02F08D51D9268E51DA22330EDE188A
:10573000D8A49DEF2BF09FEF2BF001EF2CF020EE83
:1057400003F08D51D9268E51DA222C0EDE18D8A402
:10575000ACEF2BF0AEEF2BF001EF2CF0040E9B6FB3
:10576000C3EF2BF09B518D25D96E000E8E21DA6E82
:105770009BC03BF0FC0E3B263B50910FE16EE26A72
:10578000DFCFE7FF9B2B9B518D25D96E000E8E211D
:10579000DA6EDF50D8B4CFEF2BF0D1EF2BF0E0EF83
:1057A0002BF09B518D25D96E000E8E21DA6E2C0EBA
:1057B000DE18D8A4DEEF2BF0E0EF2BF0B2EF2BF0E9
:1057C0009BC03BF0FC0E3B263B50910FD96EDA6A32
:1057D000DF6A9B518D25D96E000E8E21DA6EDF5067
:1057E000D8A4F5EF2BF0F7EF2BF001EF2CF0040E1F
:1057F0009B19D8B4FEEF2BF000EF2CF001EF2CF04A
:105800009C6B9C51D8A407EF2CF009EF2CF00CEF07
:105810002DF020EE02F08D51D9268E51DA22310E74
:10582000DE18D8A416EF2CF018EF2CF05EEF2CF059
:105830008DC0D9FF8EC0DAFF410EDE18D8A423EF49
:105840002CF025EF2CF03BEF2CF0910E2A6E9D0EE4
:105850002B6E1EEC43F000019C6F9C51D8A433EFDB
:105860002CF035EF2CF03BEF2CF09DC020F09EC0CB
:1058700021F0F7EC64F08DC0D9FF8EC0DAFF420E44
:10588000DE18D8A446EF2CF048EF2CF05EEF2CF099
:10589000910E2A6E9D0E2B6E1EEC43F000019C6F44
:1058A0009C51D8A456EF2CF058EF2CF05EEF2CF062
:1058B0009DC020F09EC021F0DDEC64F0000120EEE0
:1058C00002F08D51D9268E51DA22320EDE18D8A47C
:1058D0006CEF2CF06EEF2CF0B4EF2CF08DC0D9FFF4
:1058E0008EC0DAFF410EDE18D8A479EF2CF07BEFE2
:1058F0002CF091EF2CF0910E2A6E9D0E2B6E1EEC6B
:1059000043F000019C6F9C51D8A489EF2CF08BEFE1
:105910002CF091EF2CF09DC020F09EC021F02BECDC
:1059200065F08DC0D9FF8EC0DAFF420EDE18D8A414
:105930009CEF2CF09EEF2CF0B4EF2CF0910E2A6E21
:105940009D0E2B6E1EEC43F000019C6F9C51D8A461
:10595000ACEF2CF0AEEF2CF0B4EF2CF09DC020F0AB
:105960009EC021F011EC65F0000120EE02F08D5197
:10597000D9268E51DA22330EDE18D8A4C2EF2CF0CD
:10598000C4EF2CF00EEF2DF08DC0D9FF8EC0DAFFE2
:10599000410EDE18D8A4CFEF2CF0D1EF2CF0E7EFBA
:1059A0002CF0910E2A6E9D0E2B6E1EEC43F0000122
:1059B0009C6F9C51D8A4DFEF2CF0E1EF2CF0E7EFC7
:1059C0002CF09DC020F09EC021F05FEC65F08DC0F2
:1059D000D9FF8EC0DAFF420EDE18D8A4F2EF2CF009
:1059E000F4EF2CF00EEF2DF0910E2A6E9D0E2B6E23
:1059F0001EEC43F000019C6F9C51D8A402EF2DF0E7
:105A000004EF2DF00EEF2DF09DC020F09EC021F090
:105A100045EC65F00EEF2DF0010E9C6F00019C51DE
:105A2000D8A415EF2DF017EF2DF02EEF2DF08FC02D
:105A3000D9FF90C0DAFF300EDF6E20EE01F08F51FB
:105A4000D9269051DA227C0EDF6E20EE02F08F51C3
:105A5000D9269051DA22DF6A43EF2DF08FC0D9FFAB
:105A600090C0DAFF320EDF6E20EE01F08F51D926A2
:105A70009051DA227C0EDF6E20EE02F08F51D92693
:105A80009051DA22DF6A000E12002250800B2F6E36
:105A900022502224366E21AE50EF2DF052EF2DF021
:105AA00053EF2DF036803650D8B459EF2DF05BEF20
:105AB0002DF06FEF2DF03628D8A461EF2DF063EFB5
:105AC0002DF06BEF2DF0000E1F6E000E206E000EFD
:105AD000216E000E226E218E226A77EF2DF0000ECD
:105AE0001F6E000E206E000E216E000E226E2650DC
:105AF000800B2F1A26502624376E25AE82EF2DF00C
:105B000084EF2DF085EF2DF037803750D8B48BEF30
:105B10002DF08DEF2DF0A1EF2DF03728D8A493EFC5
:105B20002DF095EF2DF09DEF2DF0000E236E000E61
:105B3000246E000E256E000E266E258E266AA9EFB5
:105B40002DF0000E236E000E246E000E256E000E4A
:105B5000266E2350241025102610D8A4B2EF2DF065
:105B6000B4EF2DF0CCEF2DF0000E1F6E000E206E66
:105B7000000E216E000E226E800E21127F0E221268
:105B80002F5022121FC01FF020C020F021C021F092
:105B900022C022F00BEF2FF03650D8A4D2EF2DF018
:105BA000D4EF2DF0DEEF2DF0000E1F6E000E206EF4
:105BB000000E216E000E226E0BEF2FF0375036C014
:105BC00027F0286A275E000E285A7F0E2724306EA1
:105BD000000E2820316E1FC02BF020C02CF021C0F9
:105BE0002DF022C02EF0000E1F6E000E206E000E53
:105BF000216E000E226E000E326E000E336E000E0D
:105C0000346E000E356E376A3EEF2EF03750D8B442
:105C10000CEF2EF00EEF2EF025EF2EF0D8902B3655
:105C20002C362D362E36D8901F3620362136223689
:105C300035AE1DEF2EF01FEF2EF020EF2EF01F805F
:105C4000D890323633363436353623502B5C2450D8
:105C50002C5825502D5826502E58D8A032EF2EF013
:105C600034EF2EF03DEF2EF0358C23502B5E245078
:105C70002C5A25502D5A26502E5A372A190E376481
:105C800044EF2EF046EF2EF006EF2EF02B502C10A6
:105C90002D102E10D8B44FEF2EF051EF2EF069EFEB
:105CA0002EF0328069EF2EF0D8901F362036213644
:105CB000223635AE5EEF2EF060EF2EF061EF2EF063
:105CC0001F80D89032363336343635363006D8A079
:105CD000310621AE6EEF2EF070EF2EF054EF2EF065
:105CE000376A35AE76EF2EF078EF2EF09CEF2EF07F
:105CF000FF0E3214276EFF0E3314286EFF0E34147D
:105D0000296E7F0E35142A6E2750281029102A106C
:105D1000D8B48DEF2EF08FEF2EF093EF2EF0010E12
:105D2000376E9CEF2EF01FA098EF2EF09AEF2EF01A
:105D30009CEF2EF08FEF2EF03750D8B4A2EF2EF05C
:105D4000A4EF2EF0C8EF2EF0010E1F26000E202229
:105D50002122222222A0AFEF2EF0B1EF2EF0C8EFC9
:105D60002EF01FC027F020C028F021C029F022C04B
:105D70002AF02A342A3229322832273227C01FF04B
:105D800028C020F029C021F02AC022F0304A312A50
:105D900031BED3EF2EF0315008E13028D8A0D3EF38
:105DA0002EF0D5EF2EF0E0EF2EF0000E316E3068C1
:105DB000000E1F6E000E206E000E216E000E226E71
:105DC00031BEEDEF2EF0315006E13004D8B0EBEFEC
:105DD0002EF0EDEF2EF0F9EF2EF0316A000E306E5E
:105DE000000E1F6E000E206E000E216E000E226E41
:105DF0002F6A30C036F036A000EF2FF002EF2FF000
:105E000005EF2FF0218E06EF2FF0219ED89036302F
:105E1000226EC0EF2DF01200010E0001916F8DC0B7
:105E2000D9FF8EC0DAFF410EDE18D8B41AEF2FF07A
:105E30001CEF2FF029EF2FF08DC0D9FF8EC0DAFFB5
:105E4000420EDE18D8A427EF2FF029EF2FF065EFD0
:105E50002FF020EE01F08D51D9268E51DA222C0E32
:105E6000DE18D8A436EF2FF038EF2FF065EF2FF0C3
:105E700020EE02F08D51D9268E51DA22310EDE1835
:105E8000D8B445EF2FF047EF2FF056EF2FF020EE6C
:105E900002F08D51D9268E51DA22320EDE18D8A4A6
:105EA00054EF2FF056EF2FF065EF2FF020EE03F0B8
:105EB0008D51D9268E51DA22DF50D8A462EF2FF00F
:105EC00064EF2FF065EF2FF0916B9151D8A46BEF39
:105ED0002FF06DEF2FF0B2EF30F08DC0D9FF8EC0F4
:105EE000DAFFDF50976F20EE02F08D51D9268E51E8
:105EF000DA22DF50D00F966F996B000E986F975192
:105F0000020DF3509625810FFF6FFF0E2B6E14ECE0
:105F10004EF02BC092F02CC093F000019751020D6F
:105F2000F350550F9625D96EDA6ADF50D8A49BEF4F
:105F30002FF09DEF2FF0DFEF2FF08FC0D9FF90C033
:105F4000DAFF300EDF6E20EE01F08F51D92690512E
:105F5000DA227C0EDF6E20EE02F08F51D9269051AE
:105F6000DA222D0EDF6E20EE03F08F51D9269051EC
:105F7000DA22DF6A92C011F093C012F0146A0A0E9E
:105F8000136EFBEC5FF011C094F012C095F08FC05F
:105F900018F090C019F094C01AF095C01BF02C0EA8
:105FA0001C6E43EC34F08FC011F090C012F04E0E16
:105FB000136E000E146ED8EC5BF0B2EF30F0965119
:105FC000040DF3CF3BF09751080DF350B40F3B2471
:105FD000D96EDA6ADE50DE10D8A4F1EF2FF0F3EFBD
:105FE0002FF014EF30F08FC0D9FF90C0DAFF300EE1
:105FF000DF6E20EE01F08F51D9269051DA227C0E0F
:10600000DF6E20EE02F08F51D9269051DA22DF6A3E
:106010008FC011F090C012F04A0E136E000E146E75
:10602000D8EC5BF0B2EF30F09651300F116E980E55
:10603000126E9751B8EC58F098C011F099C012F058
:10604000146A190E136EFBEC5FF011C09AF012C0C7
:106050009BF0660E00019A03F3CF3BF0F4CF3CF0C7
:106060009B03F3503C263BC09AF03CC09BF09AC087
:1060700011F09BC012F0146A0A0E136EFBEC5FF075
:1060800011C09AF012C09BF09AC03BF09BC03CF04C
:10609000D8903C323B32D8903C323B323BC09AF0F5
:1060A0003CC09BF000019A51925D9A6F9B519359AD
:1060B0009B6F8FC0D9FF90C0DAFF300EDF6E20EEED
:1060C00001F08F51D9269051DA227C0EDF6E20EE3E
:1060D00002F08F51D9269051DA222D0EDF6E20EE7C
:1060E00003F08F51D9269051DA22DF6A92C011F065
:1060F00093C012F0146A0A0E136EFBEC5FF011C02D
:1061000094F012C095F08FC018F090C019F094C0B0
:106110001AF095C01BF02C0E1C6E43EC34F08FC0AF
:1061200011F090C012F02D0E136E000E146EC2EC22
:106130005FF09AC011F09BC012F0146A0A0E136E41
:10614000FBEC5FF011C094F012C095F08FC018F016
:1061500090C019F094C01AF095C01BF0000E1C6E90
:1061600043EC34F000019105D8A4B9EF30F0BBEF57
:1061700030F0D0EF30F08FC0D9FF90C0DAFF320E90
:10618000DF6E20EE01F08F51D9269051DA227C0E7D
:10619000DF6E20EE02F08F51D9269051DA22DF6AAD
:1061A000000E12008FC0D9FF90C0DAFF300EDF6EF4
:1061B000000120EE01F08F51D9269051DA227C0E99
:1061C000DF6E20EE02F08F51D9269051DA22DF6A7D
:1061D0008DC0D9FF8EC0DAFF510EDE18D8A4F3EFC0
:1061E00030F0F5EF30F064EF31F020EE01F08D513A
:1061F000D9268E51DA22DF50D8A401EF31F003EF17
:1062000031F064EF31F020EE02F08F51D926905139
:10621000DA22410EDF6E20EE03F08F51D926905125
:10622000DA222C0EDF6EFBB118EF31F01AEF31F0ED
:1062300024EF31F020EE04F08F51D9269051DA226C
:10624000300EDF6E2CEF31F020EE04F08F51D926A6
:106250009051DA22310EDF6E20EE05F08F51D926F3
:106260009051DA222C0EDF6E20EE06F08F51D926E7
:106270009051DA22420EDF6E20EE07F08F51D926C0
:106280009051DA222C0EDF6EFBB349EF31F04BEF69
:1062900031F055EF31F020EE08F08F51D9269051B2
:1062A000DA22300EDF6E5DEF31F020EE08F08F5114
:1062B000D9269051DA22310EDF6E20EE09F08F518F
:1062C000D9269051DA22DF6A8DC0D9FF8EC0DAFF5D
:1062D000410EDE18D8B46FEF31F071EF31F07EEF80
:1062E00031F08DC0D9FF8EC0DAFF420EDE18D8A47F
:1062F0007CEF31F07EEF31F089EF32F020EE01F0EB
:106300008D51D9268E51DA222C0EDE18D8A48BEFAF
:1063100031F08DEF31F089EF32F020EE02F08D5147
:10632000D9268E51DA22300EDE18D8B49AEF31F029
:106330009CEF31F0ABEF31F020EE02F08D51D92619
:106340008E51DA22310EDE18D8A4A9EF31F0ABEF6E
:1063500031F089EF32F0010E3B6E20EE03F08D51EB
:10636000D9268E51DA222C0EDE18D8A4BAEF31F0DD
:10637000BCEF31F03FEF32F020EE04F08D51D92622
:106380008E51DA22410EDE18D8B4C9EF31F0CBEFCE
:1063900031F0DAEF31F020EE04F08D51D9268E5134
:1063A000DA22420EDE18D8A4D8EF31F0DAEF31F05D
:1063B0003FEF32F020EE05F08D51D9268E51DA22D2
:1063C0002C0EDE18D8A4E7EF31F0E9EF31F03FEF03
:1063D00032F020EE06F08D51D9268E51DA22300EA1
:1063E000DE18D8B4F6EF31F0F8EF31F007EF32F005
:1063F00020EE06F08D51D9268E51DA22310EDE18AC
:10640000D8A405EF32F007EF32F03FEF32F020EE84
:1064100007F08D51D9268E51DA22DF50D8A413EF20
:1064200032F015EF32F03FEF32F020EE06F08D51F2
:10643000D9268E51DA22DF50396ED00E3926D8A4F3
:1064400024EF32F026EF32F034EF32F020EE04F099
:106450008D51D9268E51DA22DF50396E39503F08DE
:10646000FB15FB6F3EEF32F020EE04F08D51D92684
:106470008E51DA22DF50C00FFB11FB6F3B6A20EE1A
:1064800003F08D51D9268E51DA22DF50D8A44BEF7C
:1064900032F04DEF32F073EF32F020EE02F08D511A
:1064A000D9268E51DA22DF50396ED00E3926D8A483
:1064B0005CEF32F05EEF32F06AEF32F08DC0D9FF60
:1064C0008EC0DAFFDF50396E39503F08FB15FB6F85
:1064D00072EF32F08DC0D9FF8EC0DAFFDF50C00FEF
:1064E000FB11FB6F3B6A3B50D8A479EF32F07BEF96
:1064F00032F080EF32F0FBC083FF3A6A82EF32F075
:10650000010E3A6E3A50300F8FC0D9FF90C0DAFFBB
:10651000DF6E000E1200010E0001BA6FBB6B9EEF22
:1065200032F0BB518D25D96E000E8E21DA6EBB5133
:10653000910FE16EE26ADFCFE7FFBB2BBB518D25E8
:10654000D96E000E8E21DA6EDF50D8B4AAEF32F089
:10655000ACEF32F0BBEF32F0BB518D25D96E000E9F
:106560008E21DA6E2C0EDE18D8A4B9EF32F0BBEF14
:1065700032F091EF32F0BB51910FD96EDA6ADF6AD7
:10658000BB518D25D96E000E8E21DA6E2C0EDE18D1
:10659000D8A4CDEF32F0CFEF32F073EF33F0BB5130
:1065A000D8B4D5EF32F0D7EF32F073EF33F0BB2B26
:1065B000BBC0B9F0EAEF32F0BB518D25D96E000EA9
:1065C0008E21DA6EB9519B08BB25E16EE26ADFCFFE
:1065D000E7FFBB2BBB518D25D96E000E8E21DA6EE5
:1065E000DF50D8B4F6EF32F0F8EF32F007EF33F0C7
:1065F000BB518D25D96E000E8E21DA6E2C0EDE1861
:10660000D8A405EF33F007EF33F0DCEF32F0B951E7
:106610009B08BB25D96EDA6ADF6ABB518D25D96E1E
:10662000000E8E21DA6E2C0EDE18D8A41AEF33F08D
:106630001CEF33F073EF33F0B951BB19D8B423EF2B
:1066400033F025EF33F073EF33F0BB2BBBC0B9F061
:1066500038EF33F0BB518D25D96E000E8E21DA6EE6
:10666000B951A508BB25E16EE26ADFCFE7FFBB2B7E
:10667000BB518D25D96E000E8E21DA6EDF50D8B455
:1066800044EF33F046EF33F055EF33F0BB518D2537
:10669000D96E000E8E21DA6E2C0EDE18D8A453EFC0
:1066A00033F055EF33F02AEF33F0B951A508BB258D
:1066B000D96EDA6ADF6ABB518D25D96E000E8E2144
:1066C000DA6EDF50D8A467EF33F069EF33F073EF81
:1066D00033F0B951BB19D8B470EF33F072EF33F027
:1066E00073EF33F0BA6BBA51D8A479EF33F07BEF84
:1066F00033F00CEF34F0910E2A6EB50E2B6E1EECBB
:1067000043F00001BA6FBA51D8A489EF33F08BEF90
:1067100033F0C6EF33F0D10EB55D070EB659D8B0E1
:1067200094EF33F096EF33F0C6EF33F0B5C011F0CD
:10673000B6C012F0136A146A0E0E156E820E166E33
:10674000000E176E000E186E0FEC61F0E80E1124AB
:106750001D6E030E12201E6E000E13201F6E000E03
:106760001420206ED00E216E070E226E000E236EB6
:10677000000E246E38EC5DF01DC0AFF01EC0B0F00E
:106780001FC0B1F020C0B2F0C8EF33F0010EBA6FF5
:106790009B0E2A6EB70E2B6E1EEC43F00001BA253D
:1067A000BA6FA50E2A6EB30E2B6E1EEC43F00001DD
:1067B000BA25BA6FBA51D8A4E0EF33F0E2EF33F064
:1067C0000AEF34F0B751B35DB851B459D8A0EBEF2C
:1067D00033F0EDEF33F0F6EF33F0B751B811D8A442
:1067E000F4EF33F0F6EF33F00AEF34F0B5C086F192
:1067F000B6C087F1AFC022F0B0C023F0B7C024F01C
:10680000B8C025F0B3C026F0B4C027F0DCEC63F0CC
:106810000CEF34F0010EBA6F0001BA51D8A413EF97
:1068200034F015EF34F02CEF34F08FC0D9FF90C066
:10683000DAFF300EDF6E20EE01F08F51D926905135
:10684000DA227C0EDF6E20EE02F08F51D9269051B5
:10685000DA22DF6A41EF34F08FC0D9FF90C0DAFF4F
:10686000320EDF6E20EE01F08F51D9269051DA22E0
:106870007C0EDF6E20EE02F08F51D9269051DA2285
:10688000DF6A000E12001AC011F01BC012F0146A69
:106890000A0E136EFBEC5FF0F60E1102F3CF1DF043
:1068A000F4CF1EF01202F3501E26FF0E1102F35019
:1068B0001E261A501D24336E1B501E20346E1AC023
:1068C00011F01BC012F0146A640E136EFBEC5FF043
:1068D0009C0E1102F3CF1DF0F4CF1EF01202F35004
:1068E0001E26FF0E1102F3501E2633501D5E34503B
