:04000000F3EF00F02A
:100008000182E1CF0BF0E2CF0CF0D9CF0DF0DACFBF
:100018000EF0E250076EE1500F6E07C010F00F505F
:100028000001E45D1050E559D8B01DEF00F01FEF56
:1000380000F023EF00F00FC0E4F010C0E5F09EA23E
:1000480028EF00F02AEF00F031EF00F0010ECC2786
:10005800000ECD23CE23CF239E929EAA36EF00F02A
:1000680038EF00F0E9EF00F0E250076EE1500F6E54
:1000780007C010F00F50E45D1050E559D8B047EFB5
:1000880000F049EF00F0DEEF00F00FC0E4F010C020
:10009800E5F0DEEF00F0ABB254EF00F056EF00F001
:1000A8005DEF00F0ABA45BEF00F05DEF00F062EFF6
:1000B80000F0AB980000AB88AB9EAB8E13EC67F0FA
:1000C8000001F46F20EE04F04E50D9264F50DA228A
:1000D800DECF07F0DDCF08F007504E24096E085038
:1000E8004F200A6E060E0924D96E000E0A20DA6E19
:1000F800F4C0DFFF20EE04F04E50D9264F50DA222C
:10010800DECF07F0DDCF08F0010E0724026E000EE7
:100118000820036E4EC0D9FF4FC0DAFFDECF04F0CF
:10012800DDCF05F059EC62F020EE04F04E50D926F0
:100138004F50DA2202C0DEFF03C0DDFF20EE02F0DE
:100148004E50D9264F50DA2210EE04F04E50E126D8
:100158004F50E222DE50E61807E1DE50E618D8A438
:10016800B8EF00F0BAEF00F0DEEF00F020EE02F09A
:100178004E50D9264F50DA22DECF07F0DDCF08F0F7
:10018800010E0724026E000E0820036E4EC0D9FF30
:100198004FC0DAFFDECF04F0DDCF05F059EC62F096
:1001A80020EE02F04E50D9264F50DA2202C0DEFF70
:1001B80003C0DDFFDDEC66F00009D8A4E6EF00F02F
:1001C800E8EF00F04FEF00F09E9A0EC0DAFF0DC086
:1001D800D9FF0CC0E2FF0BC0E1FF019211002BEF29
:0201E8005BF0CA
:101000000030322C30372C323032362C5843382EC8
:101010003130207265666163746F72656420766535
:101020007273696F6E20302E310076617269616E65
:10103000743D006D6F6E74683D00796561723D00AE
:1010400074656C3D006461793D00302C30004E4386
:10105000000049EC0FF017EC67F099EC66F0310EE8
:10106000116E070E126E06EC67F0280E116E060E5A
:10107000126E06EC67F087EC51F0000E0001CC6FA9
:10108000000ECD6F000ECE6F000ECF6F01019C6B76
:101090009B6B0001F36B01019A6B0001F26BF16B2A
:1010A000000E01015C6F000E5D6F000E5E6F000EA2
:1010B0005F6F000E586F000E596F000E5A6F000ED2
:1010C0005B6F000E546F000E556F000E566F000ED2
:1010D000576F000E506F000E516F000E526F000ED2
:1010E000536FD1EF08F0E5EC62F00101FE6FD8908C
:1010F000FE350001DA6FDB6BDB37186A020E176E04
:10110000DAC019F0DBC01AF0010EC7EC5AF0186A09
:10111000020E176E010E0001DA25196E000EDB219A
:101120001A6E020EC7EC5AF0186A020E176E010E04
:1011300054EC5EF017C082F118C083F1186A020EF9
:10114000176E020E54EC5EF017C080F118C081F1EA
:101150000001DA510101821909E10001DB510101AD
:101160008319D8A4B6EF08F0B8EF08F0D1EF08F073
:10117000010E0001DA250101FE6F000E0001DB21E6
:101180000101FF6F8051FE1907E18151FF19D8A4B9
:10119000CCEF08F0CEEF08F0D1EF08F0010E00011F
:1011A000E76F0001E751D8B4D8EF08F0DAEF08F0A4
:1011B00073EF08F04EEC4CF09D0E2B6E010E2C6E72
:1011C0001DEC21F0010E506E4A6A030E4A64EBEFEB
:1011D00008F0EDEF08F0EFEF08F004EF09F04A50E7
:1011E000020D9D0EF324D96E010EF420DA6EDE504E
:1011F000DE10D8A4FEEF08F000EF09F001EF09F0CF
:10120000506A4A2AE5EF08F05050D8B40AEF09F0C6
:101210000CEF09F00EEF09F0B6EC4FF05050D8B4D7
:1012200014EF09F016EF09F0DAEF08F0380E0001BC
:10123000F519D8A41EEF09F020EF09F010EF0AF01D
:101240004A6A030E4A6427EF09F029EF09F02BEFF1
:1012500009F010EF0AF04A50040DF350BE0FD96E9A
:10126000DA6ADE6ADD6A4A50040F4D6E4D0E2B6E4F
:101270006FEC4EF02BC044F02CC045F044C011F090
:1012800045C012F0146A0A0E136E77EC60F011C0BC
:1012900044F012C045F0455009E1040E445CD8A06A
:1012A00054EF09F056EF09F0F5EF09F04A50D8B4C1
:1012B0005CEF09F05EEF09F067EF09F0020E4A18E3
:1012C000D8A465EF09F067EF09F09DEF09F044C07D
:1012D00011F045C012F0136A146A2C0E156E270E19
:1012E000166E020E176E000E186E8BEC61F011C0B8
:1012F0001DF012C01EF013C01FF014C020F0E80E45
:10130000216E030E226E000E236E000E246E02EC80
:101310005EF01DC04CF11EC04DF11FC04EF120C04B
:101320004FF14A50020D380EF324D96E010EF4200D
:10133000DA6E830EDE6E050EDD6E4A04D8B4A3EFBE
:1013400009F0A5EF09F0AEEF09F0030E4A18D8A492
:10135000ACEF09F0AEEF09F0E4EF09F044C011F092
:1013600045C012F0136A146A680E156E550E166E9B
:10137000010E176E000E186E8BEC61F011C01DF09F
:1013800012C01EF013C01FF014C020F0E80E216E32
:10139000030E226E000E236E000E246E02EC5EF031
:1013A0001DC04CF11EC04DF11FC04EF120C04FF1C9
:1013B0004A50020D380EF324D96E010EF420DA6E75
:1013C0006A0EDE6E030EDD6E4A50040DF350BC0F44
:1013D000D96EDA6A4CC1DEFF4DC1DDFF4A50D40F31
:1013E000D96EDA6ADF6A0DEF0AF04A50040DF35045
:1013F000BC0FD96EDA6ADE6ADD6A4A50020D380E19
:10140000F324D96E010EF420DA6EDE6ADD6A4A50EA
:10141000D40FD96EDA6A010EDF6E4A2A21EF09F085
:101420000001E56B000EE46FD09EF28EF28C9D8A77
:10143000800E126E7A0E116E0EEC66F0FA0ECB6E06
:10144000D0C068F1D1C069F1D2C06AF1D3C06BF1EC
:10145000000E0101646F000E656F000E666F000ED6
:10146000676F4EC016F04FC017F0FB0E186EE10EFE
:10147000196E010E1A6E79EC45F016C078F117C09E
:1014800079F1010178517911D8A449EF0AF04BEFB5
:101490000AF04BEF0CF00001FC5109E1090EFB5D75
:1014A000D8A055EF0AF057EF0AF04BEF0CF01E6A88
:1014B000000E1D6E310E1F6E070E206EFBC021F058
:1014C000FCC022F0E1C123F0E2C124F0BDEC54F0F5
:1014D00031C7EFF0310E1A6E070E1B6E83EC63F00E
:1014E0001AC07CF11BC07DF135C749F036C748F002
:1014F000310E116E070E126E20EC61F0476E310E48
:10150000196E070E1A6E000E1B6E030E1C6E9DECFC
:1015100058F0310E1A6E070E1B6EC0EC61F01AC047
:10152000D8F01BC0D9F0E5EC62F0300F4918D8A410
:101530009CEF0AF09EEF0AF04BEF0CF00101B56B47
:101540004750D8B4A6EF0AF0A8EF0AF0E1EF0AF08E
:10155000B50E116E010E126E7CC113F07DC114F038
:10156000166A030E156E000E176EF2EC3CF0B50E07
:10157000116E010E126E49C013F0000E146E3EEC97
:1015800060F0B50E116E010E126E48C013F0000E21
:10159000146E3EEC60F0B50E116E010E126E47C077
:1015A00013F0000E146E3EEC60F0B50E116E010EDD
:1015B000126E230E136E000E146E3EEC60F004EFFC
:1015C0000BF0B50E116E010E126E7CC113F07DC1D1
:1015D00014F0166A030E156E000E176EF2EC3CF056
:1015E000B50E116E010E126E49C013F0000E146E8E
:1015F0003EEC60F0B50E116E010E126E48C013F095
:10160000000E146E3EEC60F001017B6B000E7A6FF1
:101610007F6B000E7E6F1CEF0BF0310E7E25D96EB6
:10162000070E7F21DA6EDF50FE6F7A51FE197A6F56
:101630007B517B6F7E4B7F2B310E7E25D96E070E43
:101640007F21DA6E030EDE18D8A429EF0BF02BEF02
:101650000BF00DEF0BF00001D85101017A1909E1EF
:101660000001D95101017B19D8A439EF0BF03BEFF0
:101670000BF045EF0BF0020E0001EF19D8B443EF69
:101680000BF045EF0BF0ACEF0BF0000EE8CF31F7AD
:10169000310E116E070E126E1A0E136E000E146EBE
:1016A0003EEC60F0310E116E070E126EB50E136E29
:1016B000010E146E000E156EAEEC5DF0310E116E63
:1016C000070E126E000E136E030E146E000E156ED2
:1016D000AEEC5DF0310E116E070E126E030E136E3E
:1016E000000E146E3EEC60F0310E116E070E126E9D
:1016F0000EEC63F011C0D8F012C0D9F0000EE8CFA4
:1017000028F6280E116E060E126E310E136E070E9D
:10171000146E000E156EAEEC5DF0280E116E060E06
:10172000126ED8C013F0D9C014F0FF0E166E1568F3
:10173000000E176EF2EC3CF01E6A010E1D6E280EB4
:101740001F6E060E206EA5EC5EF01E6A010E1D6E69
:10175000B8EC56F04BEF0CF0000EB76F030EB86FFD
:101760005C0EB96F020EBA6F485061EC5AF000017E
:10177000EE6F000EE8CF31F7EE51D8A4C2EF0BF0B8
:10178000C4EF0BF013EF0CF05CC2DFF10101E06B72
:10179000DF0E116E010E126E19EC52F011500001A5
:1017A000ED6FED51D8A4D7EF0BF0D9EF0BF007EFA9
:1017B0000CF0310E116E070E126E060E136E000E37
:1017C000146E3EEC60F0310E116E070E126EB50E07
:1017D000136E010E146E000E156EAEEC5DF0310E40
:1017E000116E070E126E5C0E136E020E146E000E5A
:1017F000156EAEEC5DF0310E116E070E126E030E1B
:10180000136E000E146E3EEC60F03FEF0CF0310EE4
:10181000116E070E126E150E136E000E146E3EEC56
:1018200060F0E3EF0BF0310E116E070E126E1A0E20
:10183000136E000E146E3EEC60F0310E116E070E4A
:10184000126EB50E136E010E146E000E156EAEEC18
:101850005DF0310E116E070E126E000E136E030E48
:10186000146E000E156EAEEC5DF0310E116E070EAB
:10187000126E030E136E000E146E3EEC60F0310E0D
:10188000116E070E126E0EEC63F011C0D8F012C08C
:10189000D9F07EEF0BF00001D405D8A452EF0CF084
:1018A00054EF0CF062EF0CF04D6A4D0E126EB7EC77
:1018B00053F012C05CF113C05DF101015E6B5F6B10
:1018C0006BEF0CF0000E01015C6F000E5D6F000EFF
:1018D0005E6F000E5F6F0001D505D8A472EF0CF0AB
:1018E00074EF0CF083EF0CF0010E4D6E4D0E126E86
:1018F000B7EC53F012C058F113C059F101015A6B03
:101900005B6B8CEF0CF0000E0101586F000E596FED
:10191000000E5A6F000E5B6F0001D605D8A493EF3E
:101920000CF095EF0CF0A4EF0CF0020E4D6E4D0E86
:10193000126EB7EC53F012C054F113C055F101010F
:10194000566B576BADEF0CF0000E0101546F000E9B
:10195000556F000E566F000E576F0001D705D8A4C3
:10196000B4EF0CF0B6EF0CF0C5EF0CF0030E4D6EBB
:101970004D0E126EB7EC53F012C050F113C051F17E
:101980000101526B536BCEEF0CF0000E0101506F52
:10199000000E516F000E526F000E536FCCC03EF020
:1019A000CDC03FF0CEC040F0CFC041F03EC060F0AF
:1019B0003FC061F040C062F041C063F0190E000109
:1019C000646F000E656F000E666F000E676F3EEC71
:1019D0005FF000016051611162116311D8A4F3EF4F
:1019E0000CF0F5EF0CF0A0EF0DF0F351D8A4FBEFE5
:1019F0000CF0FDEF0CF0A1EF0DF0D4C060F1D5C0FC
:101A000061F1D6C062F1D7C063F1C8EC37F00001D4
:101A1000D405D8A40EEF0DF010EF0DF02CEF0DF063
:101A200001016051D8A417EF0DF019EF0DF02CEF64
:101A30000DF0D0C068F1D1C069F1D2C06AF1D3C055
:101A40006BF13EC064F13FC065F140C066F141C03A
:101A500067F1010E0001F26F0001D505D8A433EF44
:101A60000DF035EF0DF051EF0DF001016151D8A4EB
:101A70003CEF0DF03EEF0DF051EF0DF0D0C068F1EE
:101A8000D1C069F1D2C06AF1D3C06BF13EC064F13C
:101A90003FC065F140C066F141C067F1010E000131
:101AA000F26F0001D605D8A458EF0DF05AEF0DF0F3
:101AB00076EF0DF001016251D8A461EF0DF063EFF4
:101AC0000DF076EF0DF0D0C068F1D1C069F1D2C051
:101AD0006AF1D3C06BF13EC064F13FC065F140C014
:101AE00066F141C067F1010E0001F26F0001D705F8
:101AF000D8A47DEF0DF07FEF0DF09BEF0DF001010D
:101B00006351D8A486EF0DF088EF0DF09BEF0DF038
:101B1000D0C068F1D1C069F1D2C06AF1D3C06BF115
:101B20003EC064F13FC065F140C066F141C067F15D
:101B3000010E0001F26F010E0001F36FA1EF0DF035
:101B4000F36BCCC03EF0CDC03FF0CEC040F0CFC074
:101B500041F03EC060F03FC061F040C062F041C063
:101B600063F0CD0E646F000E656F000E666F000EA1
:101B7000676F3EEC5FF0000160516111621163110B
:101B8000D8A4C5EF0DF0C7EF0DF0DEEF0DF04B045C
:101B9000D8A4CDEF0DF0CFEF0DF0DEEF0DF0F15149
:101BA000D8A4D5EF0DF0D7EF0DF0DFEF0DF0A6ECD8
:101BB00029F0010E0001F16FDFEF0DF0F16BCCC0E9
:101BC0003EF0CDC03FF0CEC040F0CFC041F03EC0AF
:101BD00060F03FC061F040C062F041C063F0FB0EB6
:101BE000646F000E656F000E666F000E676F3EEC4F
:101BF0005FF000016051611162116311D8A403EF1D
:101C00000EF005EF0EF018EF0EF0ABB20AEF0EF08B
:101C10000CEF0EF013EF0EF0ABA411EF0EF013EF7C
:101C20000EF018EF0EF0AB980000AB88AB9EAB8EB9
:101C3000CCC03EF0CDC03FF0CEC040F0CFC041F0B0
:101C40003EC060F03FC061F040C062F041C063F050
:101C5000E80E0001646F030E656F000E666F000EE4
:101C6000676F3EEC5FF0000160516111621163111A
:101C7000D8B43DEF0EF03FEF0EF0E4EF0EF0F05170
:101C8000D8A445EF0EF047EF0EF0E5EF0EF001019E
:101C9000D351D411D511D611D8B451EF0EF053EF62
:101CA0000EF06DEF0EF00001D405D8A45AEF0EF03F
:101CB0005CEF0EF06DEF0EF0310E606F5CC161F005
:101CC0005DC162F05EC163F05FC164F0410E32EC51
:101CD0001CF060C08AF161C08BF10101CB51CC11C5
:101CE000CD11CE11D8B477EF0EF079EF0EF093EF5F
:101CF0000EF00001D505D8A480EF0EF082EF0EF0B3
:101D000093EF0EF0320E606F58C161F059C162F06E
:101D10005AC163F05BC164F0410E32EC1CF060C04C
:101D200088F161C089F10101DB51DC11DD11DE11A7
:101D3000D8B49DEF0EF09FEF0EF0B9EF0EF000015A
:101D4000D605D8A4A6EF0EF0A8EF0EF0B9EF0EF06E
:101D5000310E606F54C161F055C162F056C163F03D
:101D600057C164F0420E32EC1CF060C086F161C0D5
:101D700087F10101C351C411C511C611D8B4C3EF15
:101D80000EF0C5EF0EF0DFEF0EF00001D705D8A47E
:101D9000CCEF0EF0CEEF0EF0DFEF0EF0320E606FF4
:101DA00050C161F051C162F052C163F053C164F09F
:101DB000420E32EC1CF060C084F161C085F1010E6E
:101DC0000001F06FE5EF0EF0F06BCCC03EF0CDC03F
:101DD0003FF0CEC040F0CFC041F068C119F069C1FA
:101DE0001AF06AC11BF06BC11CF064C115F065C12B
:101DF00016F066C117F067C118F0CCC011F0CDC065
:101E000012F0CEC013F0CFC014F032EC57F011C076
:101E100060F012C061F013C062F014C063F068C1DA
:101E200064F069C165F06AC166F06BC167F03EECB1
:101E30005FF000016051611162116311D8A423EFBA
:101E40000FF025EF0FF044EF0FF0F251D8A42BEF75
:101E50000FF02DEF0FF031EF0AF03EC064F13FC0FC
:101E600065F140C066F141C067F172EC25F085C0B4
:101E700068F186C069F187C06AF188C06BF1010E14
:101E80000001F26F31EF0AF0F26B31EF0AF0F3EF7D
:101E900000F0000E0001CC6F000ECD6F000ECE6F73
:101EA000000ECF6F160E0101FA6F3F0EFB6F400E52
:101EB000FD6F900EFC6F400EF96FF66B060EF56F1E
:101EC000030EF46F200EF36F030EF86F200EF76F02
:101ED0000001806B000E7F6F6C0E7F25116E010E6E
:101EE0008021126EC5EC66F000017F4B802B805183
:101EF00009E1040E7F5DD8A080EF0FF082EF0FF0B4
:101F00006CEF0FF0010E126E6C0E116EC5EC66F0E8
:101F10000001606F010E126E6D0E116EC5EC66F061
:101F20000001616F6051E26F61C0E3F0010E126E5B
:101F30006E0E116EC5EC66F00001606F010E126E40
:101F40006F0E116EC5EC66F00001616F6051E06FBD
:101F500061C0E1F0010E126E700E116EC5EC66F0FC
:101F60000001606F010E126E710E116EC5EC66F00D
:101F70000001616F6051DE6F61C0DFF0010E126E13
:101F8000720E116EC5EC66F00001606F010E126EEC
:101F9000730E116EC5EC66F00001616F6051DC6F6D
:101FA00061C0DDF02D0EE25D010EE359D8A0DBEF3C
:101FB0000FF0DDEF0FF0E6EF0FF0310E2F6E010E98
:101FC000316E2C0E306E410E34EC48F0910E000153
:101FD000E05D010EE159D8A0F0EF0FF0F2EF0FF045
:101FE000FBEF0FF0320E2F6E010E316E900E306E41
:101FF000410E34EC48F00001DF5109E1C90EDE5D0D
:10200000D8A005EF10F007EF10F010EF10F0310E30
:102010002F6E010E316E2C0E306E420E34EC48F0F5
:102020005F0E0001DC5D010EDD59D8A01AEF10F043
:102030001CEF10F025EF10F0320E2F6E010E316EF6
:10204000900E306E420E34EC48F0010E126E740E9B
:10205000116EC5EC66F00001606F010E126E750E18
:10206000116EC5EC66F00001616F6051736F61C065
:1020700074F0010E126E760E116EC5EC66F0000162
:10208000606F010E126E770E116EC5EC66F00001E6
:10209000616F6051756F61C076F07551735D7651F7
:1020A0007459D8B056EF10F058EF10F06AEF10F0F6
:1020B00075517611D8B45FEF10F061EF10F06AEF50
:1020C00010F073517411D8A468EF10F06AEF10F09B
:1020D000F3EF10F0300ED06F750ED16F000ED26F8F
:1020E000000ED36FE00E01016C6F930E6D6F040E46
:1020F0006E6F000E6F6F010E2B6E750E2A6ED0C0C4
:102100001DF0D1C01EF0D2C01FF0D3C020F0980E39
:10211000216E3A0E226E000E236E000E246E02EC2B
:102120005EF01EC01DF01FC01EF020C01FF0206A10
:102130001D502C6E76EC64F0010E2B6E740E2A6E20
:10214000D0C01DF0D1C01EF0D2C01FF0D3C020F00F
:10215000980E216E3A0E226E000E236E000E246E33
:1021600002EC5EF01D502C6E76EC64F0010E2B6ECE
:10217000770E2A6E6CC11DF06DC11EF06EC11FF08E
:102180006FC120F0980E216E3A0E226E000E236E63
:10219000000E246E02EC5EF01EC01DF01FC01EF08B
:1021A00020C01FF0206A1D502C6E76EC64F0010EEA
:1021B0002B6E760E2A6E6CC11DF06DC11EF06EC1C5
:1021C0001FF06FC120F0980E216E3A0E226E000EA5
:1021D000236E000E246E02EC5EF01D502C6E76EC29
:1021E00064F023EF11F073C011F074C012F0136AA1
:1021F000146A980E156E3A0E166E000E176E000ECB
:10220000186E8BEC61F011C0D0F012C0D1F013C089
:10221000D2F014C0D3F075C011F076C012F0136A7A
:10222000146A980E156E3A0E166E000E176E000E9A
:10223000186E8BEC61F011C06CF112C06DF113C01F
:102240006EF114C06FF10101996B986B976B966BEF
:10225000E00E0001FA6F120EF96FEC6B3F0EEB6FA0
:10226000900EEA6F070E4C6E800EE96F7C0EF86FD1
:10227000070EE86FEBC092FFECC080FFF9C093FF40
:10228000FAC081FFEAC094FF4CC082FFE9C095FF0D
:10229000F8C083FFE8C096FFE00E7E6E7F6AA40E52
:1022A000C06EC16A01018D6B000E8C6FAC6AAB6AA7
:1022B000AC84210EAF6EB06AAC98AC8AAB8EAB88A2
:1022C000126AB00E116EF7EC66F0126A800E116E93
:1022D000EFEC66F0A282A092010E116E010E126E5A
:1022E000000E03EC60F0B0EC60F037EC64F0196ABB
:1022F000000E186E000EC4EC5FF00001806B000E43
:102300007F6F7F51040DF350BC0FD96EDA6ADE6A1D
:10231000DD6A7F51040DF350BE0FD96EDA6ADE6AB2
:10232000DD6AD8907F35D96E8035DA6E380ED926C1
:10233000010EDA22DE6ADD6A7F51D40FD96EDA6AC5
:10234000010EDF6ED8907F35D96E8035DA6E280E9B
:10235000D926010EDA22DE6ADD6AD8907F35D96E81
:102360008035DA6E300ED926010EDA22DE6ADD6A99
:102370007F4B802B805109E1040E7F5DD8A0C3EF15
:1023800011F0C5EF11F081EF11F04B6A650EF66F99
:10239000BCC018F0BDC019F0100EC4EC5FF0C0C096
:1023A00018F0C1C019F0200EC4EC5FF0C4C018F0E2
:1023B000C5C019F0300EC4EC5FF0C8C018F0C9C039
:1023C00019F0400EC4EC5FF0000E0101D36F000E57
:1023D000D46F000ED56F000ED66F000ECB6F000EBF
:1023E000CC6F000ECD6F000ECE6F000EDB6F000EB7
:1023F000DC6F000EDD6F000EDE6F000EC36F000E8F
:10240000C46F000EC56F000EC66F000ECF6F000EBA
:10241000D06F000ED16F000ED26F000EC76F000E8E
:10242000C86F000EC96F000ECA6F000ED76F000E86
:10243000D86F000ED96F000EDA6F000EBF6F000E5E
:10244000C06F000EC16F000EC26F8B6B000E8A6FE3
:10245000896B000E886F876B000E866F856B000E90
:10246000846F0001F76B806B000E7F6F090E7F0396
:10247000F3CF60F0F4CF61F08003F35061270D0ECD
:1024800060257D6F000E61217E6F320E7F25116EFB
:10249000000E8021126EC5EC66F0380AD8A453EF06
:1024A00012F055EF12F06EEF13F07FEF12F0D30E33
:1024B000776F010E786FCF0E796F010E7A6F9EEFF6
:1024C00012F0CB0E776F010E786FC70E796F010E89
:1024D0007A6F9EEF12F0DB0E776F010E786FD70EDA
:1024E000796F010E7A6F9EEF12F0C30E776F010EB7
:1024F000786FBF0E796F010E7A6F9EEF12F07FC07A
:1025000060F080C061F000016151000AD8B48BEF27
:1025100012F09EEF12F06051000AD8B457EF12F09B
:10252000010AD8B461EF12F0030AD8B46BEF12F0CD
:10253000010AD8B475EF12F09EEF12F077C0D9FF00
:1025400078C0DAFFDE6ADE6ADE6ADD6A79C0D9FF4A
:102550007AC0DAFFDE6ADE6ADE6ADD6A7DC07BF0A1
:102560007EC07CF0FBEF12F077C0D9FF78C0DAFFB5
:10257000DECF60F0DECF61F0DECF62F0DECF63F061
:102580007D517B5D646FD8906437D8906437D89064
:1025900064377BC011F07CC012F0C5EC66F000011E
:1025A000656F65C066F0676B686B696B642BDEEF07
:1025B00012F0D8906637673768376937642FD9EFDC
:1025C00012F0605166256A6F615167216B6F62512D
:1025D00068216C6F635169216D6F77C0D9FF78C036
:1025E000DAFF6AC0DEFF6BC0DEFF6CC0DEFF6DC0CD
:1025F000DEFF7B4B7C2B040E7D25606F000E7E2161
:10260000616F60517B5D61517C59D8A00AEF13F076
:102610000CEF13F0B4EF12F0040E7D257B6F000E6B
:102620007E217C6F5DEF13F079C0D9FF7AC0DAFFAD
:10263000DECF60F0DECF61F0DECF62F0DECF63F0A0
:102640007D51F80DF3CF64F07B51080DF3506425F4
:10265000656FE00E65277BC011F07CC012F0C5EC01
:1026600066F00001666F66C067F0686B696B6A6B45
:10267000652B40EF13F0D8906737683769376A37B2
:10268000652F3BEF13F0605167256B6F6151682137
:102690006C6F625169216D6F63516A216E6F79C0F1
:1026A000D9FF7AC0DAFF6BC0DEFF6CC0DEFF6DC001
:1026B000DEFF6EC0DEFF7B4B7C2B080E7D25606F3E
:1026C000000E7E21616F60517B5D61517C59D8A005
:1026D0006CEF13F06EEF13F014EF13F000017F4B6B
:1026E000802B805109E1040E7F5DD8A07AEF13F0B2
:1026F0007CEF13F036EF12F0806B000E7F6F000E50
:10270000606F010E616FD8907F35D96E8035DA6EBB
:10271000D890D936DA366051D9266151DA22DE6A8C
:10272000DE6ADE6ADD6A100E606F010E616FD8909E
:102730007F35D96E8035DA6ED890D936DA36605169
:10274000D9266151DA22DE6ADE6ADE6ADD6A060EA9
:102750007F03F3CF60F0F4CF61F08003F350612783
:10276000360E60257D6F000E61217E6F010E7D2586
:10277000116E000E7E21126EC5EC66F0FF0AD8A421
:10278000C4EF13F0C6EF13F04CEF14F07DC011F05E
:102790007EC012F0C5EC66F0FF0AD8A4D2EF13F0A9
:1027A000D4EF13F04CEF14F000017F518011D8B436
:1027B000DCEF13F0DEEF13F0E8EF13F0020E7F19F9
:1027C0008011D8A4E6EF13F0E8EF13F01AEF14F03D
:1027D000000E606F010E616FD8907F35D96E803525
:1027E000DA6ED890D936DA366051D9266151DA22BC
:1027F000170EDE6E180EDE6E000EDE6E000EDD6E43
:10280000100E606F010E616FD8907F35D96E8035E4
:10281000DA6ED890D936DA366051D9266151DA228B
:102820000B0EDE6EC00EDE6E020EDE6E000EDD6E74
:102830006AEF15F0000E606F010E616FD8907F3562
:10284000D96E8035DA6ED890D936DA366051D9260D
:102850006151DA225B0EDE6E260EDE6E000EDE6E3B
:10286000000EDD6E100E606F010E616FD8907F3527
:10287000D96E8035DA6ED890D936DA366051D926DD
:102880006151DA22CA0EDE6E370EDE6E0A0EDE6E81
:10289000000EDD6E6AEF15F0010E00017D25116E50
:1028A000000E7E21126EC5EC66F00001606F60C004
:1028B00061F0626B636B646B63C064F062C063F071
:1028C00061C062F0616B7DC011F07EC012F0C5EC9A
:1028D00066F00001656F65516125666F000E62212B
:1028E000676F000E6321686F000E6421696F000E30
:1028F0006A6F010E6B6FD8907F35D96E8035DA6EB6
:10290000D890D936DA366A51D9266B51DA2266C0A8
:10291000DEFF67C0DEFF68C0DEFF69C0DEFF100EAD
:10292000606F010E616FD8907F35D96E8035DA6E99
:10293000D890D936DA366051D9266151DA22DE6A6A
:10294000DE6ADE6ADD6A020E7D257B6F000E7E2167
:102950007C6F0CEF15F0100E606F010E616FD89058
:102960007F35D96E8035DA6ED890D936DA36605137
:10297000D9266151DA22DECF62F0DECF63F0DECFFE
:1029800064F0DECF65F07D51F80DF3CF66F07B513A
:10299000080DF3506625676FF00E67277BC011F0B6
:1029A0007CC012F0C5EC66F00001686F68C069F089
:1029B0006A6B6B6B6C6B672BE3EF14F0D890693725
:1029C0006A376B376C37672FDEEF14F06251692579
:1029D0006D6F63516A216E6F64516B216F6F65512A
:1029E0006C21706F100E716F010E726FD8907F3571
:1029F000D96E8035DA6ED890D936DA367151D9264B
:102A00007251DA226DC0DEFF6EC0DEFF6FC0DEFFE6
:102A100070C0DEFF7B4B7C2B050E7D25606F000EAA
:102A20007E21616F60517B5D61517C59D8A01BEFA5
:102A300015F01DEF15F0ABEF14F0050E7D25116EAE
:102A4000000E7E21126EC5EC66F00009D8A42BEFB3
:102A500015F02DEF15F06AEF15F0100E0001606F04
:102A6000010E616FD8907F35D96E8035DA6ED890BF
:102A7000D936DA366051D9266151DA22DECF62F0DA
:102A8000DECF63F0DECF64F0DECF65F06251000888
:102A9000666F000E6355676F000E6455686F000E19
:102AA0006555696F100E6A6F010E6B6FD8907F3598
:102AB000D96E8035DA6ED890D936DA366A51D92691
:102AC0006B51DA2266C0DEFF67C0DEFF68C0DEFF42
:102AD00069C0DEFF00017F4B802B805109E1040EAD
:102AE0007F5DD8A076EF15F078EF15F07FEF13F04B
:102AF000126A310E116EC5EC66F00001F56F12001E
:102B0000010E0001986F010E9D6F88C0D9FF89C02A
:102B1000DAFF410EDE18D8B490EF15F092EF15F001
:102B20009FEF15F088C0D9FF89C0DAFF420EDE188A
:102B3000D8A49DEF15F09FEF15F05BEF16F020EE97
:102B400001F08851D9268951DA222C0EDE18D8A43A
:102B5000ACEF15F0AEEF15F05BEF16F020EE02F0E3
:102B60008851D9268951DA22310EDE18D8B4BBEF4C
:102B700015F0BDEF15F0CCEF15F020EE02F0885106
:102B8000D9268951DA22320EDE18D8A4CAEF15F000
:102B9000CCEF15F05BEF16F020EE03F08851D9264C
:102BA0008951DA222C0EDE18D8A4D9EF15F0DBEF0C
:102BB00015F05BEF16F020EE04F08851D92689510C
:102BC000DA222B0EDE18D8B4E8EF15F0EAEF15F094
:102BD000F9EF15F020EE04F08851D9268951DA2258
:102BE0002D0EDE18D8A4F7EF15F0F9EF15F05BEF16
:102BF00016F020EE05F08851D9268951DA222C0EE4
:102C0000DE18D8A406EF16F008EF16F05BEF16F00A
:102C1000060E996F1DEF16F099518825D96E000E9A
:102C20008921DA6E99C03DF0FA0E3D263D508C0F99
:102C3000E16EE26ADFCFE7FF992B99518825D96EC3
:102C4000000E8921DA6EDF50D8B429EF16F02BEF91
:102C500016F03AEF16F099518825D96E000E8921A9
:102C6000DA6E2C0EDE18D8A438EF16F03AEF16F014
:102C70000CEF16F099C03DF0FA0E3D263D508C0F3A
:102C8000D96EDA6ADF6A99518825D96E000E8921DA
:102C9000DA6EDF50D8A44FEF16F051EF16F05BEF6D
:102CA00016F0060E9919D8B458EF16F05AEF16F030
:102CB0005BEF16F0986B9851D8A461EF16F063EFB4
:102CC00016F05EEF19F088C0D9FF89C0DAFFDF5037
:102CD000976F20EE02F08851D9268951DA22DF5011
:102CE000966F20EE04F08851D9268951DA22DF5000
:102CF0009A6F8C0E2A6E9B0E2B6E80EC42F00001B8
:102D0000986F410E9719D8A488EF16F08AEF16F045
:102D100037EF17F0310E9619D8A491EF16F093EF14
:102D200016F037EF17F09851D8A499EF16F09BEFF3
:102D300016F037EF17F0D405D8A4A1EF16F0A3EFE3
:102D400016F01AEF17F02B0E9A19D8A4AAEF16F066
:102D5000ACEF16F0DDEF16F09B51BE279C51BF2360
:102D6000BEC0BCF0BFC0BDF0BEC018F0BFC019F0FF
:102D7000000EC4EC5FF08AC0D9FF8BC0DAFF300EC2
:102D8000DF6E000120EE01F08A51D9268B51DA2244
:102D90007C0EDF6E20EE02F08A51D9268B51DA22AA
:102DA000DF6A8AC018F08BC019F0BEC01AF0BFC02D
:102DB0001BF0000E1C6EA7EC34F02D0E00019A19CA
:102DC000D8A4E5EF16F0E7EF16F037EF17F09B51B8
:102DD000BE5F9C51BF5BBEC0BCF0BFC0BDF0BEC0FB
:102DE00018F0BFC019F0000EC4EC5FF08AC0D9FF24
:102DF0008BC0DAFF300EDF6E000120EE01F08A5149
:102E0000D9268B51DA227C0EDF6E20EE02F08A5139
:102E1000D9268B51DA22DF6A8AC018F08BC019F0EC
:102E2000BEC01AF0BFC01BF0000E1C6EA7EC34F041
:102E300037EF17F08AC0D9FF8BC0DAFF300EDF6E94
:102E400020EE01F08A51D9268B51DA227C0EDF6EFA
:102E500020EE02F08A51D9268B51DA224E0EDF6E17
:102E600020EE03F08A51D9268B51DA22DF6A410E17
:102E700000019719D8A43FEF17F041EF17F0EEEFDC
:102E800017F0320E9619D8A448EF17F04AEF17F052
:102E9000EEEF17F09851D8A450EF17F052EF17F05B
:102EA000EEEF17F0D505D8A458EF17F05AEF17F04A
:102EB000D1EF17F02B0E9A19D8A461EF17F063EF3A
:102EC00017F094EF17F09B51C2279C51C323C2C047
:102ED000C0F0C3C0C1F0C2C018F0C3C019F0100EDA
:102EE000C4EC5FF08AC0D9FF8BC0DAFF300EDF6E12
:102EF000000120EE01F08A51D9268B51DA227C0E96
:102F0000DF6E20EE02F08A51D9268B51DA22DF6A79
:102F10008AC018F08BC019F0C2C01AF0C3C01BF0F1
:102F2000000E1C6EA7EC34F02D0E00019A19D8A4E7
:102F30009CEF17F09EEF17F0EEEF17F09B51C25F7A
:102F40009C51C35BC2C0C0F0C3C0C1F0C2C018F086
:102F5000C3C019F0100EC4EC5FF08AC0D9FF8BC05B
:102F6000DAFF300EDF6E000120EE01F08A51D92623
:102F70008B51DA227C0EDF6E20EE02F08A51D926C8
:102F80008B51DA22DF6A8AC018F08BC019F0C2C0F8
:102F90001AF0C3C01BF0000E1C6EA7EC34F0EEEF6D
:102FA00017F08AC0D9FF8BC0DAFF300EDF6E20EE3B
:102FB00001F08A51D9268B51DA227C0EDF6E20EE89
:102FC00002F08A51D9268B51DA224E0EDF6E20EEA6
:102FD00003F08A51D9268B51DA22DF6A420E0001B2
:102FE0009719D8A4F6EF17F0F8EF17F0A5EF18F03F
:102FF000310E9619D8A4FFEF17F001EF18F0A5EFE6
:1030000018F09851D8A407EF18F009EF18F0A5EFC1
:1030100018F0D605D8A40FEF18F011EF18F088EFCC
:1030200018F02B0E9A19D8A418EF18F01AEF18F010
:103030004BEF18F09B51C6279C51C723C6C0C4F064
:10304000C7C0C5F0C6C018F0C7C019F0200EC4EC48
:103050005FF08AC0D9FF8BC0DAFF300EDF6E00014F
:1030600020EE01F08A51D9268B51DA227C0EDF6ED8
:1030700020EE02F08A51D9268B51DA22DF6A8AC00B
:1030800018F08BC019F0C6C01AF0C7C01BF0000EB4
:103090001C6EA7EC34F02D0E00019A19D8A453EF42
:1030A00018F055EF18F0A5EF18F09B51C65F9C5132
:1030B000C75BC6C0C4F0C7C0C5F0C6C018F0C7C063
:1030C00019F0200EC4EC5FF08AC0D9FF8BC0DAFF84
:1030D000300EDF6E000120EE01F08A51D9268B51AF
:1030E000DA227C0EDF6E20EE02F08A51D9268B5157
:1030F000DA22DF6A8AC018F08BC019F0C6C01AF055
:10310000C7C01BF0000E1C6EA7EC34F0A5EF18F042
:103110008AC0D9FF8BC0DAFF300EDF6E20EE01F0DF
:103120008A51D9268B51DA227C0EDF6E20EE02F016
:103130008A51D9268B51DA224E0EDF6E20EE03F033
:103140008A51D9268B51DA22DF6A420E0001971983
:10315000D8A4ADEF18F0AFEF18F08CEF19F0320EE5
:103160009619D8A4B6EF18F0B8EF18F08CEF19F054
:103170009851D8A4BEEF18F0C0EF18F08CEF19F0FA
:10318000D705D8A4C6EF18F0C8EF18F03FEF19F034
:103190002B0E9A19D8A4CFEF18F0D1EF18F002EF48
:1031A00019F09B51CA279C51CB23CAC0C8F0CBC091
:1031B000C9F0CAC018F0CBC019F0300EC4EC5FF0F3
:1031C0008AC0D9FF8BC0DAFF300EDF6E000120EE1F
:1031D00001F08A51D9268B51DA227C0EDF6E20EE67
:1031E00002F08A51D9268B51DA22DF6A8AC018F0A0
:1031F0008BC019F0CAC01AF0CBC01BF0000E1C6EB9
:10320000A7EC34F02D0E00019A19D8A40AEF19F09A
:103210000CEF19F08CEF19F09B51CA5F9C51CB5BFE
:10322000CAC0C8F0CBC0C9F0CAC018F0CBC019F0F2
:10323000300EC4EC5FF08AC0D9FF8BC0DAFF300ECD
:10324000DF6E000120EE01F08A51D9268B51DA227F
:103250007C0EDF6E20EE02F08A51D9268B51DA22E5
:10326000DF6A8AC018F08BC019F0CAC01AF0CBC050
:103270001BF0000E1C6EA7EC34F08CEF19F08AC026
:10328000D9FF8BC0DAFF300EDF6E20EE01F08A51DD
:10329000D9268B51DA227C0EDF6E20EE02F08A51A5
:1032A000D9268B51DA224E0EDF6E20EE03F08A51C2
:1032B000D9268B51DA22DF6A8CEF19F09D51300F3D
:1032C0008AC0D9FF8BC0DAFFDF6E20EE01F08A5191
:1032D000D9268B51DA227C0EDF6E20EE02F08A5165
:1032E000D9268B51DA224E0EDF6E20EE03F08A5182
:1032F000D9268B51DA224F0EDF6E20EE04F08A5170
:10330000D9268B51DA224B0EDF6E20EE05F08A5162
:10331000D9268B51DA22DF6A000E12000001806F7D
:10332000010E00016B6F000E676F000E686F000EDC
:10333000696F000E6A6F000E776F000E786F000ED7
:10334000796F000E7A6F000E6E6F000E6F6F000EB9
:10335000706F000E716F000E816F000E826F000E95
:10336000836F000E846F7C6B000E7B6F7E6B000E94
:103370007D6F726B8051020DF35060257D0F7F6F62
:103380006005D8A4C6EF19F0C8EF19F021EF1AF0C4
:10339000410E8019D8A4CFEF19F0D1EF19F021EF29
:1033A0001AF02C0E816F270E826F020E836F000EB3
:1033B000846F81C011F082C012F083C013F084C00A
:1033C00014F02C0E156E010E166E000E176E000E08
:1033D000186E8BEC61F011C01DF012C01EF013C00E
:1033E0001FF014C020F0E80E216E030E226E000EB6
:1033F000236E000E246E02EC5EF01DC06EF01EC047
:103400006FF01FC070F020C071F0020E00017C6FE1
:10341000940E7B6F020E7E6F960E7D6F126A4E0EBB
:10342000116EC5EC66F00009D8B419EF1AF01CEF64
:103430001AF0010E1DEF1AF0000E0001726F5EEF20
:103440001BF06005D8A427EF1AF029EF1AF082EFDD
:103450001AF0420E8019D8A430EF1AF032EF1AF0A9
:1034600082EF1AF02C0E816F270E826F020E836F8F
:10347000000E846F81C011F082C012F083C013F07F
:1034800084C014F02C0E156E010E166E000E176E11
:10349000000E186E8BEC61F011C01DF012C01EF012
:1034A00013C01FF014C020F0E80E216E030E226E30
:1034B000000E236E000E246E02EC5EF01DC06EF056
:1034C0001EC06FF01FC070F020C071F0020E00012E
:1034D0007C6F9C0E7B6F020E7E6F9E0E7D6F126A5C
:1034E0004F0E116EC5EC66F00009D8B47AEF1AF0F1
:1034F0007DEF1AF0010E7EEF1AF0000E0001726FE0
:103500005EEF1BF0020E6019D8A489EF1AF08BEF62
:103510001AF0F1EF1AF0410E8019D8A492EF1AF0C8
:1035200094EF1AF0F1EF1AF0680E816F550E826F6A
:10353000010E836F000E846F81C011F082C012F003
:1035400083C013F084C014F0900E156E010E166E39
:10355000000E176E000E186E8BEC61F011C01DF09E
:1035600012C01EF013C01FF014C020F0E80E216E30
:10357000030E226E000E236E000E246E02EC5EF02F
:103580001DC06EF01EC06FF01FC070F020C071F043
:10359000020E00017C6F980E7B6F020E7E6F9A0EFA
:1035A0007D6F6C6B126A500E116EC5EC66F00009EF
:1035B000D8A4DDEF1AF0DFEF1AF0EDEF1AF0910E5C
:1035C0000001615D010E6259D8B0E9EF1AF0EBEF2E
:1035D0001AF0EDEF1AF0010E6C6F6CC072F05EEF36
:1035E0001BF0020E6019D8A4F8EF1AF0FAEF1AF0E7
:1035F0005EEF1BF0420E8019D8A401EF1BF003EF21
:103600001BF05EEF1BF0680E816F550E826F010E8E
:10361000836F000E846F81C011F082C012F083C0EE
:1036200013F084C014F0900E156E010E166E000E8D
:10363000176E000E186E8BEC61F011C01DF012C0F9
:103640001EF013C01FF014C020F0E80E216E030E10
:10365000226E000E236E000E246E02EC5EF01DC082
:103660006EF01EC06FF01FC070F020C071F0020E2F
:1036700000017C6FA00E7B6F020E7E6FA20E7D6F2D
:103680006D6B126A510E116EC5EC66F00009D8A47C
:103690004CEF1BF04EEF1BF05CEF1BF0910E0001A6
:1036A000615D010E6259D8B058EF1BF05AEF1BF064
:1036B0005CEF1BF0010E6D6F6DC072F00001815167
:1036C000821183118411D8B468EF1BF06AEF1BF0EC
:1036D00030EF1CF061C011F062C012F0136A146A7E
:1036E00081C015F082C016F083C017F084C018F0B6
:1036F0008BEC61F011C01DF012C01EF013C01FF062
:1037000014C020F0E80E216E030E226E000E236E10
:10371000000E246E02EC5EF01DC077F01EC078F043
:103720001FC079F020C07AF000017251D8B49BEF2D
:103730001BF09DEF1BF0DFEF1BF07BC015F07CC092
:1037400016F07DC017F07EC018F0A2EC5CF0000906
:10375000D8B4ADEF1BF0AFEF1BF0C7EF1BF061C0AB
:103760002BF062C02CF07BC02DF07CC02EF07DC011
:103770002FF07EC030F013EC59F02BC073F02CC04A
:1037800074F02DC075F02EC076F0CFEF1BF077C02F
:1037900073F078C074F079C075F07AC076F00001EB
:1037A00073516E5D74516F597551705976517159DD
:1037B000D8B0DDEF1BF0DFEF1BF0E7EF1BF077C0B9
:1037C00073F078C074F079C075F07AC076F063C099
:1037D00011F064C012F065C013F066C014F081C02F
:1037E00015F082C016F083C017F084C018F08BEC7F
:1037F00061F011C01DF012C01EF013C01FF014C004
:1038000020F0E80E216E030E226E000E236E000ED5
:10381000246E02EC5EF01DC067F01EC068F01FC091
:1038200069F020C06AF000017F51040DF350BE0F13
:10383000D96EDA6A73C0DEFF74C0DDFF7F51020DFE
:10384000380EF324D96E010EF420DA6E67C0DEFF65
:1038500068C0DDFF7F51D40FD96EDA6ADF6A6B6B07
:103860006B5112000001716F310E00016019D8A474
:103870003CEF1CF03EEF1CF0C9EF1CF0420E71193A
:10388000D8A445EF1CF047EF1CF08AEF1CF0DB0ECC
:103890006C6F010E6D6FD70E6F6F010E706F34C1BC
:1038A00072F035C173F0270E6E6F020E166EAC0EFD
:1038B000156E020E186EAE0E176EA2EC5CF00009CB
:1038C000D8B465EF1CF067EF1CF07FEF1CF072C0FE
:1038D0002BF073C02CF0020E2E6EAC0E2D6E020E6D
:1038E000306EAE0E2F6E13EC59F02BC074F02CC05E
:1038F00075F02DC076F02EC077F0C9EF1CF0310EB8
:103900000001746F750E756F000E766F000E776F85
:10391000C9EF1CF0410E7119D8A491EF1CF093EF80
:103920001CF0C9EF1CF0D30E6C6F010E6D6FCF0E43
:103930006F6F010E706F30C172F031C173F0150EF0
:103940006E6F020E166EA40E156E020E186EA60E87
:10395000176EA2EC5CF00009D8B4B1EF1CF0B3EF25
:103960001CF07FEF1CF072C02BF073C02CF0020E25
:103970002E6EA40E2D6E020E306EA60E2F6E13EC60
:1039800059F02BC074F02CC075F02DC076F02EC00D
:1039900077F0320E00016019D8A4D1EF1CF0D3EFFC
:1039A0001CF05EEF1DF0410E7119D8A4DAEF1CF087
:1039B000DCEF1CF01FEF1DF0CB0E6C6F010E6D6F76
:1039C000C70E6F6F010E706F32C172F033C173F0AA
:1039D0001E0E6E6F020E166EA80E156E020E186E7B
:1039E000AA0E176EA2EC5CF00009D8B4FAEF1CF036
:1039F000FCEF1CF014EF1DF072C02BF073C02CF024
:103A0000020E2E6EA80E2D6E020E306EAA0E2F6EB6
:103A100013EC59F02BC074F02CC075F02DC076F06B
:103A20002EC077F05EEF1DF0310E0001746F750E41
:103A3000756F000E766F000E776F5EEF1DF0420E11
:103A40007119D8A426EF1DF028EF1DF05EEF1DF0D0
:103A5000C30E6C6F010E6D6FBF0E6F6F010E706F36
:103A600036C172F037C173F0300E6E6F020E166EF3
:103A7000B00E156E020E186EB20E176EA2EC5CF050
:103A80000009D8B446EF1DF048EF1DF014EF1DF00B
:103A900072C02BF073C02CF0020E2E6EB00E2D6E85
:103AA000020E306EB20E2F6E13EC59F02BC074F074
:103AB0002CC075F02DC076F02EC077F00001775144
:103AC00076110BE1310E745D750E7559D8A06BEF50
:103AD0001DF06DEF1DF014EF1EF0330ECC6073EF90
:103AE0001DF075EF1DF06DEF1DF072C011F073C089
:103AF00012F0000E12BEFF0E136E146E6CC0D9FFD2
:103B00006DC0DAFFDECF15F0DECF16F0DECF17F096
:103B1000DECF18F08BEC61F011C074F012C075F0BC
:103B200013C076F014C077F0330ECC609AEF1DF01E
:103B30009CEF1DF094EF1DF074C01DF075C01EF0D9
:103B400076C01FF077C020F0100E216E270E226E77
:103B5000000E236E000E246E02EC5EF01DC074F0A9
:103B60001EC075F01FC076F020C077F06EC011F057
:103B7000126AC5EC66F00001696F6951D8B4C3EFF1
:103B80001DF0C5EF1DF0DFEF1DF06FC0D9FF70C055
:103B9000DAFFDECF65F0DECF66F0DECF67F0DECF96
:103BA00068F074516525746F75516621756F765193
:103BB0006721766F77516821776F14EF1EF06FC021
:103BC000D9FF70C0DAFF7451DE5C7551DE58765152
:103BD000DE587751DE58D8B0F0EF1DF0F2EF1DF04F
:103BE0000CEF1EF06FC0D9FF70C0DAFFDECF65F0BA
:103BF000DECF66F0DECF67F0DECF68F06551745D32
:103C0000746F66517559756F67517659766F685143
:103C10007759776F14EF1EF0000E746F000E756FFA
:103C2000000E766F000E776F7451615D75516259A9
:103C30007651635977516459D8A021EF1EF023EFD4
:103C40001EF038EF1EF07451615D0101746F0001C8
:103C5000755162590101756F000176516359010177
:103C6000766F0001775164590101776F41EF1EF0C3
:103C7000000E0101746F000E756F000E766F000E5E
:103C8000776F150ECC6047EF1EF049EF1EF041EF45
:103C90001EF074C111F075C112F076C113F077C136
:103CA00014F0D30E156E250E166E000E176E000E54
:103CB000186E8BEC61F011C070F112C071F113C07D
:103CC00072F114C073F1150ECC6069EF1EF06BEF4A
:103CD0001EF063EF1EF0000E01017015706F000EF4
:103CE0007115716FFF0E7215726FFF0E7315736F82
:103CF000150ECC607EEF1EF080EF1EF078EF1EF008
:103D000070C165F071C166F072C167F073C168F08F
:103D100066C065F067C066F068C067F00001686B58
:103D200065C070F166C071F167C072F168C073F16F
:103D3000150ECC609EEF1EF0A0EF1EF098EF1EF067
:103D400070C165F071C166F072C167F073C168F04F
:103D500066C065F067C066F068C067F00001686B18
:103D600065C070F166C071F167C072F168C073F12F
:103D700070C16AF071C16BF06AC060F06BC061F035
:103D8000120000016351800B686F635163256A6FF5
:103D900062AFCDEF1EF0CFEF1EF0D0EF1EF06A81C4
:103DA0006A51D8B4D6EF1EF0D8EF1EF0ECEF1EF03B
:103DB0006A29D8A4DEEF1EF0E0EF1EF0E8EF1EF057
:103DC000000E606F000E616F000E626F000E636F79
:103DD000628F636BF4EF1EF0000E606F000E616F78
:103DE000000E626F000E636F6751800B696F685140
:103DF0006919D8B4FEEF1EF000EF1FF001EF1FF0BD
:103E0000688D67516725696F66AF09EF1FF00BEF8B
:103E10001FF00CEF1FF069816951D8B412EF1FF049
:103E200014EF1FF028EF1FF06929D8A41AEF1FF034
:103E30001CEF1FF024EF1FF0000E646F000E656F83
:103E4000000E666F000E676F668F676B30EF1FF0B6
:103E5000000E646F000E656F000E666F000E676FD8
:103E60006A51695DD8B037EF1FF039EF1FF060EF8E
:103E70001FF068AD3EEF1FF040EF1FF042EF1FF064
:103E8000800E681B6AC06BF069C06AF06BC069F095
:103E900060C06BF064C060F06BC064F061C06BF038
:103EA00065C061F06BC065F062C06BF066C062F027
:103EB0006BC066F063C06BF067C063F06BC067F007
:103EC0006B6B6A5169C038F0396A385E000E395A36
:103ED00039BE74EF1FF0395009E11A0E385CD8A0D2
:103EE00074EF1FF076EF1FF0ADEF1FF0605161111E
:103EF00062116311D8A47FEF1FF082EF1FF0010E53
:103F000083EF1FF0000E6B6F000E606F000E616F8D
:103F1000000E626F000E636F69C06AF0B6EF1FF0AB
:103F20006BA195EF1FF097EF1FF09DEF1FF0D8905A
:103F30006B3101096B6F9FEF1FF0D8906B3360A15D
:103F4000A4EF1FF0A6EF1FF0A7EF1FF06B8F6335F4
:103F500063336233613360336A2B69516A5DD8A081
:103F6000B4EF1FF0B6EF1FF090EF1FF068BDBBEF8E
:103F70001FF0BDEF1FF0FDEF1FF06A51D8A4C3EF93
:103F80001FF0C5EF1FF0CFEF1FF0000E606F000EA7
:103F9000616F000E626F000E636F1CEF21F06451C1
:103FA000602765516123665162236751632363A1D2
:103FB000DCEF1FF0DEEF1FF08AEF20F06BA1E3EFE4
:103FC0001FF0E5EF1FF0EBEF1FF0D8906B31010908
:103FD0006B6FEDEF1FF0D8906B3360A1F2EF1FF025
:103FE000F4EF1FF0F5EF1FF06B8F6335633362332F
:103FF000613360336A2B8AEF20F06451605D655154
:104000006159665162596351800A386E6751800A5E
:104010003858D8B00EEF20F010EF20F03BEF20F032
:104020006051645D386E61516559396E62516659EF
:104030003A6E635167593B6EFF0E3824606FFF0E76
:104040003920616FFF0E3A20626FFF0E3B20636FD5
:10405000800E681B6B6D6B51D8A431EF20F033EFED
:1040600020F043EF20F0010E6027000E6123622351
:10407000632343EF20F06451605F6551615B6651DB
:10408000625B6751635B6051611162116311D8A477
:104090004CEF20F04EEF20F083EF20F06B51D8A4CE
:1040A00054EF20F056EF20F083EF20F0000E606F09
:1040B000000E616F000E626F000E636F1CEF21F047
:1040C000D89060376137623763376BAF6AEF20F0A3
:1040D0006CEF20F06DEF20F060816BA172EF20F0AB
:1040E00074EF20F078EF20F0D8806B377AEF20F073
:1040F000D8906B376A51D8B480EF20F082EF20F06F
:1041000083EF20F06A0762AF88EF20F08AEF20F09B
:1041100060EF20F0696B6BAF90EF20F092EF20F032
:10412000AAEF20F06BC038F07F0E3816D8B49BEFA2
:1041300020F09DEF20F0A1EF20F0010E696FAAEFB3
:1041400020F060A1A6EF20F0A8EF20F0AAEF20F069
:104150009DEF20F06951D8B4B0EF20F0B2EF20F01D
:10416000DDEF20F0010E6027000E61236223632340
:1041700063A1BDEF20F0BFEF20F0DDEF20F060C0C5
:1041800038F061C039F062C03AF063C03BF03B34B4
:104190003B323A323932383238C060F039C061F0DF
:1041A0003AC062F03BC063F06A29D8B4DAEF20F07D
:1041B000DCEF20F0DDEF20F06A2B6A29D8B4E3EFC2
:1041C00020F0E5EF20F0EDEF20F06A51D8A4EBEFFE
:1041D00020F0EDEF20F0FEEF20F0000E606F000EFB
:1041E000616F000E626F000E636F6A51D8A4FBEF1F
:1041F00020F0FDEF20F0FEEF20F0686B6AA103EFE6
:1042000021F005EF21F008EF21F0628F09EF21F096
:10421000629FD8906A31636F68AF11EF21F013EF9E
:1042200021F014EF21F0638F60C060F061C061F095
:1042300062C062F063C063F0120022EE9CF010EEE8
:1042400060F01C0EDBCFE3FFE806FCE20001876BA9
:104250008751020DF3CF2DF0F4CF2EF02D502B24EB
:10426000D96E2E502C20DA6EDE6ADD6A872B050EA1
:1042700087653DEF21F03FEF21F028EF21F0866BBD
:10428000876B836B86C02DF0010E2D26D8902D32C2
:10429000D8902D30010B606F86C02DF0010E2D26B9
:1042A000D8902D30010B616F8629010B626F000ED3
:1042B00027EC66F077EC66F0000E27EC66F03BEF3B
:1042C00022F00A0E876167EF21F069EF21F086EF97
:1042D00021F08751600FD96EDA6ADF505DEC63F030
:1042E00000018751600FD96EDA6ADF5027EC66F063
:1042F00000018751600FD96EDA6ADE04D8A483EF1B
:1043000021F085EF21F086EF21F0832B090E8765E0
:104310008CEF21F08EEF21F025EF22F01B0E87614C
:1043200094EF21F096EF21F025EF22F0856B000E3F
:10433000846F8751600FD96EDA6ADF505DEC63F0ED
:104340000001F989126A000E116E0CEC67F0F9C0D9
:1043500093FFB1EF21F0FFEC66F011C084F012C0C2
:1043600085F081B8B6EF21F0B8EF21F0C7EF21F06A
:104370000101F7510001845D0101F85100018559E7
:10438000D8A0C5EF21F0C7EF21F0ABEF21F000017D
:1043900084510101F55D000185510101F659D8B044
:1043A000D4EF21F0D6EF21F016EF22F0F351000107
:1043B000845D0101F45100018559D8B0E2EF21F08C
:1043C000E4EF21F016EF22F0090E8765EAEF21F005
:1043D000ECEF21F015EF22F0140E8761F2EF21F0DF
:1043E000F4EF21F015EF22F0875113082D6E010E26
:1043F0002E6E000E2F6E2D2A01EF22F0D8902E3651
:104400002F362D2EFEEF21F000018651020DF3CF45
:1044100030F0F4CF31F030502B24D96E31502C20B5
:10442000DA6E2E50DE122F50DD12832B0101F75170
:104430000001845D0101F85100018559D8A023EFE6
:1044400022F025EF22F025EF22F01B0E8719D8A4C9
:104450002CEF22F02EEF22F039EF22F08351010BE6
:10446000010A5DEC63F000018351010B010A27ECA6
:1044700066F00001872B00018751600FD96EDA6A60
:10448000DE28D8A446EF22F048EF22F061EF21F0B9
:10449000862B030E86654FEF22F051EF22F040EF9E
:1044A00021F0866B8651020DF3CF2DF0F4CF2EF064
:1044B0002D502B24D96E2E502C20DA6EDECF2FF00B
:1044C000DDCF30F0190E2F02F3CF31F0F4CF32F000
:1044D0003002F350322631C011F032C012F0146AAB
:1044E000640E136E8BEC5BF000018651020DF3CF6E
:1044F00033F0F4CF34F033502B24D96E34502C20C9
:10450000DA6E11C0DEFF12C0DDFF862B030E86655A
:104510008CEF22F08EEF22F052EF22F0020E186E96
:10452000000E176E1A6A010E196E010EC7EC5AF0D2
:10453000020E186E000E176E1A6A010E196E020E28
:10454000C7EC5AF0020E186E000E176E010E54ECF6
:104550005EF017C07FF018C080F00001816B826BA5
:10456000020E186E000E176E020E54EC5EF017C0AD
:104570007FF018C080F00001816B826B020E186E14
:10458000000E176E1A6A010E196E010EC7EC5AF072
:10459000020E186E000E176E1A6A010E196E020EC8
:1045A000C7EC5AF00001866B020E186E000E176EF3
:1045B000862954EC5EF017C07FF018C080F000012F
:1045C000816B826B7FC02DF080C02EF00F0E2F6E9E
:1045D000D8902E322D322F2EE8EF22F0010E2D141E
:1045E0007D6F7E6B7D057E11D8A4F9EF22F0FBEF85
:1045F00022F0D4EF22F0FF0E7F15116E030E80150E
:10460000126E000E8115136E000E8215146EEC0EE4
:10461000156E010E166E000E176E000E186E8BECE6
:1046200061F0020E11241D6ED50E12201E6EFB0EBF
:1046300013201F6EFF0E1420206EE80E216E030E55
:10464000226E000E236E000E246E32EC53F0000139
:1046500086512D6E2E6AD8902D362E362D502B2455
:104660002F6E2E502C20306E080E2F24D96E000E87
:104670003020DA6E1DC0DEFF1EC0DDFF862B010E6E
:10468000866545EF23F047EF23F0D4EF22F01200C8
:10469000010E0001A56F010EA36F88C0D9FF89C06C
:1046A000DAFF410EDE18D8B458EF23F05AEF23F0AA
:1046B00067EF23F088C0D9FF89C0DAFF420EDE1809
:1046C000D8A465EF23F067EF23F05CEF24F020EE31
:1046D00001F08851D9268951DA222C0EDE18D8A48F
:1046E00074EF23F076EF23F05CEF24F020EE02F07D
:1046F0008851D9268951DA22310EDE18D8B483EFD9
:1047000023F085EF23F094EF23F020EE02F08851A0
:10471000D9268951DA22320EDE18D8A492EF23F07E
:1047200094EF23F05CEF24F020EE03F08851D926BB
:104730008951DA222C0EDE18D8A4A1EF23F0A3EFC2
:1047400023F05CEF24F0040EA46F040EAA6FB7EF01
:1047500023F0AA518825D96E000E8921DA6EA45162
:104760008C08AA25E16EE26ADFCFE7FFAA2BAA51E7
:104770008825D96E000E8921DA6EDF50D8B4C3EFD8
:1047800023F0C5EF23F0D4EF23F0AA518825D96E8A
:10479000000E8921DA6E2C0EDE18D8A4D2EF23F099
:1047A000D4EF23F0A9EF23F0A4518C08AA25D96EE9
:1047B000DA6ADF6AAA518825D96E000E8921DA6E7D
:1047C000DF50D8A4E6EF23F0E8EF23F0F4EF23F076
:1047D000A451AA19D8B4EFEF23F0F1EF23F0F4EFCE
:1047E00023F0030EA06FA56BAA518825D96E000E89
:1047F0008921DA6E2C0EDE18D8A401EF24F003EF25
:1048000024F05CEF24F0A451AA19D8B40AEF24F0E4
:104810000CEF24F05CEF24F0AA2BAAC0A4F01FEF49
:1048200024F0AA518825D96E000E8921DA6EA45190
:104830009608AA25E16EE26ADFCFE7FFAA2BAA510C
:104840008825D96E000E8921DA6EDF50D8B42BEF9F
:1048500024F02DEF24F03CEF24F0AA518825D96EE6
:10486000000E8921DA6E2C0EDE18D8A43AEF24F05F
:104870003CEF24F011EF24F0A4519608AA25D96E3C
:10488000DA6ADF6AAA518825D96E000E8921DA6EAC
:10489000DF50D8A44EEF24F050EF24F05CEF24F06A
:1048A000A451AA19D8B457EF24F059EF24F05CEFC3
:1048B00024F0040EA06FA56BA551D8A462EF24F0DC
:1048C00064EF24F05AEF25F088C0D9FF89C0DAFFE1
:1048D000DF50A96F20EE02F08851D9268951DA22E3
:1048E000DF50D00FA66F8C0E2A6EA70E2B6E80ECB9
:1048F00042F00001A56F040EA019D8A482EF24F0A5
:1049000084EF24F097EF24F0960E2A6EA10E2B6E02
:1049100080EC42F00001A525A56FA551D8A493EF26
:1049200024F095EF24F097EF24F097EF24F0A551B1
:10493000D8A49DEF24F09FEF24F017EF25F0010E8F
:10494000A56F410EA919D8A4A8EF24F0AAEF24F06E
:10495000BEEF24F0A605D8A4B0EF24F0B2EF24F007
:10496000BEEF24F0A751E25DA851E359D8A0BBEFF8
:1049700024F0BDEF24F0BEEF24F0A56B410EA91981
:10498000D8A4C5EF24F0C7EF24F0DCEF24F0020E2A
:10499000A619D8A4CEEF24F0D0EF24F0DCEF24F059
:1049A000A751E05DA851E159D8A0D9EF24F0DBEF81
:1049B00024F0DCEF24F0A56B420EA919D8A4E3EF94
:1049C00024F0E5EF24F0F9EF24F0A605D8A4EBEFEE
:1049D00024F0EDEF24F0F9EF24F0A751DE5DA851AB
:1049E000DF59D8A0F6EF24F0F8EF24F0F9EF24F027
:1049F000A56B420EA919D8A400EF25F002EF25F00F
:104A000017EF25F0020EA619D8A409EF25F00BEF39
:104A100025F017EF25F0A751DC5DA851DD59D8A08E
:104A200014EF25F016EF25F017EF25F0A56BA55133
:104A3000D8A41DEF25F01FEF25F05AEF25F0A9515E
:104A4000020DF350510FA625D96EDA6ADF50D8A4B3
:104A50002CEF25F02EEF25F05AEF25F0030EA36F73
:104A6000410EA919D8A437EF25F039EF25F045EF0D
:104A700025F0F8B13EEF25F040EF25F045EF25F0A9
:104A8000F8510109F86FF8C083FF420EA919D8A4A4
:104A90004CEF25F04EEF25F05AEF25F0F8B353EF29
:104AA00025F055EF25F05AEF25F0F8510209F86F7F
:104AB000F8C083FFA351300F8AC0D9FF8BC0DAFF43
:104AC000DF6E20EE01F08A51D9268B51DA227C0E5E
:104AD000DF6E20EE02F08A51D9268B51DA22DF6A8E
:104AE000000E120020EE93F0070EDE6AE806FDE2EB
:104AF0008AC193F08BC194F088C195F089C196F07A
:104B000086C197F087C198F084C199F085C19AF069
:104B100000019B6B380EF519D8A491EF25F093EFA7
:104B200025F06FEF27F0A66BA651D40FD96EDA6A85
:104B3000DE04D8A49EEF25F0A0EF25F066EF27F065
:104B4000A651040DF350BE0FD96EDA6ADE50DE10A6
:104B5000D8B4ADEF25F0AFEF25F066EF27F0E70E04
:104B6000A625D96EDA6A010EDA22DF509E6FE30EB7
:104B7000A625D96EDA6A010EDA22DF50A36FA6519C
:104B8000020DF350930FD96EDA6ADECF9CF0DDCFC1
:104B90009DF094EC64F000019C51155C9D511658F9
:104BA000D8B0D5EF25F0D7EF25F066EF27F0B2ECBF
:104BB00064F0155000019C5D16509D59D8B0E3EF8C
:104BC00025F0E5EF25F066EF27F0A651020D300E37
:104BD000F324D96E010EF420DA6EDECF89F0DDCF3A
:104BE0008AF089C011F08AC012F0136A146A000EAC
:104BF00010EC49F011C06CF012C06DF013C06EF0F3
:104C000014C06FF0280E0001706F6B0E716F6E0E86
:104C1000726F4E0E736F92EC27F06CC09FF06DC0F8
:104C2000A0F06EC0A1F06FC0A2F09FC01FF0A0C0A6
:104C300020F0A1C021F0A2C022F09CC011F09DC0C4
:104C400012F0136A146A000E10EC49F011C023F040
:104C500012C024F013C025F014C026F0A9EC2DF0EA
:104C60001FC09FF020C0A0F021C0A1F022C0A2F080
:104C70009FC060F0A0C061F0A1C062F0A2C063F06C
:104C8000C00E0001646FA30E656F1B0E666FCB0E26
:104C9000676FC1EC1EF060C09FF061C0A0F062C001
:104CA000A1F063C0A2F0000E0001646F000E656FFA
:104CB000800E666F3F0E676F9FC023F0A0C024F088
:104CC000A1C025F0A2C026F0C00E1F6EA30E206E5C
:104CD0001B0E216E4B0E226EA9EC2DF01FC060F052
:104CE00020C061F021C062F022C063F0C1EC1EF070
:104CF00060C06CF061C06DF062C06EF063C06FF0B8
:104D00000001A651020D280EF324D96E010EF420E5
:104D1000DA6EDECF89F0DDCF8AF089C011F08AC06B
:104D200012F0136A146A000E10EC49F011C070F012
:104D300012C071F013C072F014C073F092EC27F03F
:104D40006CC08BF06DC08CF06EC08DF06FC08EF0BB
:104D50008BC011F08CC012F08DC013F08EC014F017
:104D60003AEC54F011C0A4F012C0A5F00001A65115
:104D7000020D300EF324D96E010EF420DA6EA45128
:104D8000DE1809E1A551DE18D8B4C9EF26F0CBEF43
:104D900026F066EF27F0A451A511D8B4D2EF26F083
:104DA000D4EF26F057EF27F0A305D8A4DAEF26F0CA
:104DB000DCEF26F0E7EF26F02D0EA45D010EA559DD
:104DC000D8A0E5EF26F0E7EF26F0FBEF26F0020E85
:104DD000A319D8A4EEEF26F0F0EF26F00CEF27F0A1
:104DE000910EA45D010EA559D8B0F9EF26F0FBEFA6
:104DF00026F00CEF27F0A3C060F0A4C061F0A5C0BE
:104E000062F0050E636F000E646F000E656F000E9A
:104E1000666F9E518EEC19F00001A305D8A413EF24
:104E200027F015EF27F031EF27F02D0EA45D010ECE
:104E3000A559D8A01EEF27F020EF27F031EF27F07B
:104E4000A3C060F0010E626F2C0E616F050E636FE0
:104E5000000E646F000E656F000E666F9E518EEC43
:104E600019F0020E0001A319D8A439EF27F03BEF87
:104E700027F057EF27F0910EA45D010EA559D8A099
:104E800044EF27F046EF27F057EF27F0A3C060F07C
:104E9000010E626F900E616F050E636F000E646FFE
:104EA000000E656F000E666F9E518EEC19F00001CA
:104EB000A651020D300EF324D96E010EF420DA6EE5
:104EC000A4C0DEFFA5C0DDFF010E9B6FA62B030E65
:104ED000A6656DEF27F06FEF27F094EF25F09B05A7
:104EE000D8A475EF27F077EF27F081EF27F0D0C037
:104EF0008FF0D1C090F0D2C091F0D3C092F089EF82
:104F000027F06CC18FF06DC190F06EC191F06FC150
:104F100092F08FC085F090C086F091C087F092C06B
:104F200088F0120000016F51800B786F6F516F2570
:104F30007E6F6EAF9EEF27F0A0EF27F0A1EF27F076
:104F40007E817E51D8B4A7EF27F0A9EF27F0BCEF00
:104F500027F07E29D8A4AFEF27F0B1EF27F0B9EF03
:104F600027F0000E6C6F000E6D6F000E6E6F000E5E
:104F70006F6F6E8FC4EF27F0000E6C6F000E6D6FB9
:104F8000000E6E6F000E6F6F7351800B781B7351A4
:104F900073257D6F72AFCFEF27F0D1EF27F0D2EFFF
:104FA00027F07D817D51D8B4D8EF27F0DAEF27F0D4
:104FB000EDEF27F07D29D8A4E0EF27F0E2EF27F00E
:104FC000EAEF27F0000E706F000E716F000E726F27
:104FD000000E736F728FF5EF27F0000E706F000EEA
:104FE000716F000E726F000E736F7D51D8B4FBEFBE
:104FF00027F0FDEF27F005EF28F07E51D8A403EF4E
:1050000028F005EF28F00FEF28F0000E6C6F000E6F
:105010006D6F000E6E6F000E6F6FA5EF29F072516D
:105020006C03F3CF83F0F4CF84F08351796F7A6B04
:105030007B6B7C6B84517F6F806B816B826B71515A
:105040006D03F3CF83F0F4CF84F083517927000E02
:105050007A237B237C2384517F27000E80238123A6
:10506000822370516E03F3CF83F0F4CF84F0835129
:105070007927000E7A237B237C2384517F27000E1F
:105080008023812382237BC07CF07AC07BF079C0AF
:105090007AF0796B70516D03F3CF83F0F4CF84F025
:1050A0008351792784517A23000E7B23000E7C23C1
:1050B00071516C03F3CF83F0F4CF84F083517927DF
:1050C00084517A23000E7B23000E7C237BC07CF06E
:1050D0007AC07BF079C07AF0796B70516C03F3CFB2
:1050E00083F0F4CF84F08351792784517A23000E22
:1050F0007B23000E7C2372516D03F3CF83F0F4CF3A
:1051000084F083517F2784518023000E8123000E79
:10511000822371516E03F3CF83F0F4CF84F0835177
:105120007F2784518023000E8123000E8223725139
:105130006E03F3CF83F0F4CF84F08351746F845106
:10514000756F766B776B76C077F075C076F074C04C
:1051500075F0746B74517F277551802376518123CC
:105160007751822379C074F07AC075F07BC076F0F5
:105170007CC077F0190EC2EF28F0D89077337633E1
:1051800075337433E82EBDEF28F074517F277551C5
:10519000802376518123775182237BC07CF07AC0B3
:1051A0007BF079C07AF0796B7D517EC074F0756BBD
:1051B0007427000E7523820E7425836FFF0E7521F0
:1051C000846FF8EF28F0D8907F37803781378237A7
:1051D0007CAFEDEF28F0EFEF28F0F0EF28F07F81C3
:1051E000D89079377A377B377C378307D8A0840704
:1051F00081AFFDEF28F0FFEF28F0E3EF28F07D6BA3
:105200007CAF05EF29F007EF29F02BEF29F0FF0E17
:105210007915746FFF0E7A15756FFF0E7B15766F1B
:105220007F0E7C15776F7451751176117711D8B494
:105230001CEF29F01EEF29F022EF29F0010E7D6FFF
:105240002BEF29F07FA127EF29F029EF29F02BEF91
:1052500029F01EEF29F07D51D8B431EF29F033EF5A
:1052600029F057EF29F0010E7F27000E80238123BC
:10527000822382A13EEF29F040EF29F057EF29F079
:105280007FC074F080C075F081C076F082C077F086
:105290007735773376337533743374C07FF075C0E8
:1052A00080F076C081F077C082F0834B842B84BF7E
:1052B00062EF29F0845108E18329D8A062EF29F038
:1052C00064EF29F06EEF29F0000E7F6F000E806F03
:1052D000800E816F7F0E826F9BEF29F084BF7BEF82
:1052E00029F0845106E18305D8B079EF29F07BEFEE
:1052F00029F086EF29F0000E7F6F000E806F000E00
:10530000816F000E826F786B9BEF29F083C07EF077
:10531000FF0E7F17FF0E80177F0E8117000E82177A
:105320007EA195EF29F097EF29F098EF29F0818F72
:10533000D8907E31826F785182137FC06CF080C02C
:105340006DF081C06EF082C06FF012000001626BE0
:105350009AEF2BF0640EF665B0EF29F0B2EF29F06A
:10536000BDEF29F0B40E0101486FE20E496FFF0E48
:105370004A6FFF0E4B6FFEEF29F0640EF619D8B49A
:10538000C4EF29F0C6EF29F0F5EF29F0F6C037F0A9
:10539000386A396A3A6A0E0ED89037363836393656
:1053A0003A36E82ECCEF29F037C01DF038C01EF099
:1053B00039C01FF03AC020F0640E216E000E226E3C
:1053C000000E236E000E246E32EC53F0000E1D24EE
:1053D0000101486FE00E1E20496FFF0E1F204A6F2B
:1053E000FF0E20204B6FFEEF29F0780E0101486F71
:1053F0001E0E496F000E4A6F000E4B6F640E48255B
:10540000446F000E4921456F000E4A21466F000E81
:105410004B21476F4668010E0001E66FA9EF2BF0A4
:10542000462A060E4618D8A418EF2AF01AEF2AF0DA
:1054300021EF2AF056EC61F04B6A0001E66BA9EF10
:105440002BF0010E436E900E426E020EE66FA9EF36
:105450002BF04650116E126A11BE1206146A030E2A
:10546000136E57EC5DF011501210D8A43AEF2AF0E9
:105470003CEF2AF044EF2AF0100E0001666F360E62
:10548000656F646B040E636F4650116E126A11BE35
:105490001206146A030E136E57EC5DF0110412101D
:1054A000D8A455EF2AF057EF2AF05FEF2AF0130E39
:1054B0000001666F360E656F646B050E636F4650B4
:1054C000116E126A11BE1206146A030E136E57ECA7
:1054D0005DF0020E11181210D8A471EF2AF073EFCC
:1054E0002AF07BEF2AF0150E0001666F360E656F0D
:1054F000646B060E636F4650800A7D0FD8B083EF51
:105500002AF085EF2AF08AEF2AF0010E00016A6F77
:105510008DEF2AF0020E00016A6F050E4226000E82
:10552000432263C017F064C018F042C019F043C0B2
:105530001AF06A51C7EC5AF01A0E376EF80EE82EC0
:10554000FED7372EFCD700F000F063C017F064C020
:1055500018F042C019F043C01AF000016A51C7ECBC
:105560005AF00001676B1A0E376EF80EE82EFED760
:10557000372EFCD700F000F065C017F066C018F0B9
:1055800000016A5154EC5EF017C068F018C069F071
:105590000D0E376EFC0EE82EFED7372EFCD7D2EF5D
:1055A0002AF0672B65C017F066C018F000016A5139
:1055B00054EC5EF0E20E1724376EFF0E1820386EA2
:1055C00000016851375C3850800A396E6951800A91
:1055D0003958D8B0EEEF2AF0F0EF2AF013EF2BF0A5
:1055E00065C017F066C018F06A5154EC5EF01E0EEC
:1055F0001726000E182217500001685D6951800AB5
:10560000376E1850800A3758D8B009EF2BF00BEFDF
:105610002BF013EF2BF0130E676511EF2BF013EF48
:105620002BF0D1EF2AF0140E676119EF2BF01BEF6E
:105630002BF01CEF2BF0676B140E6719D8A423EF27
:105640002BF025EF2BF0B3EF2AF068C037F069C0DC
:1056500038F0000E38BEFF0E396E3A6E0101485127
:10566000375C495138584A5139583A50800A3B6E94
:105670004B51800A3B58D8A040EF2BF042EF2BF063
:105680007BEF2BF0000E000169BFFF0E386E800A21
:10569000376E010144510001685D0101455100016F
:1056A00069590101465138584751800A3758D8B0D6
:1056B0005CEF2BF05EEF2BF07BEF2BF0010E000187
:1056C000E66F46C037F0386A37BE3806D8903736AE
:1056D00038363750B308606F3850D8A0E82A010830
:1056E000616F60C0D9FF61C0DAFF42C0DEFF43C016
:1056F000DDFF190E626F0001622B190E626183EFEC
:105700002BF085EF2BF08EEF2BF0040E435CD8A02E
:105710008CEF2BF08EEF2BF08DEF2AF04204040E6D
:105720004358D8A096EF2BF098EF2BF0A9EF2BF071
:105730000BEF2AF0E651000AD8B4AAEF29F0010ACB
:10574000D8B410EF2AF0030AD8B429EF2AF01DEFDD
:105750002AF01200010E0001976F88C0D9FF89C09E
:10576000DAFF410EDE18D8B4B8EF2BF0BAEF2BF009
:10577000C7EF2BF088C0D9FF89C0DAFF420EDE18D0
:10578000D8A4C5EF2BF0C7EF2BF065EF2CF020EE7F
:1057900001F08851D9268951DA222C0EDE18D8A4BE
:1057A000D4EF2BF0D6EF2BF065EF2CF020EE02F0CB
:1057B0008851D9268951DA22310EDE18D8B4E3EFA8
:1057C0002BF0E5EF2BF003EF2CF020EE02F08851E8
:1057D000D9268951DA22320EDE18D8B4F2EF2BF036
:1057E000F4EF2BF003EF2CF020EE02F08851D926D5
:1057F0008951DA22330EDE18D8A401EF2CF003EF22
:105800002CF065EF2CF020EE03F08851D926895159
:10581000DA222C0EDE18D8A410EF2CF012EF2CF0A8
:1058200065EF2CF0040E966F27EF2CF0965188252B
:10583000D96E000E8921DA6E96C03DF0FC0E3D2631
:105840003D508C0FE16EE26ADFCFE7FF962B965159
:105850008825D96E000E8921DA6EDF50D8B433EF77
:105860002CF035EF2CF044EF2CF096518825D96EB2
:10587000000E8921DA6E2C0EDE18D8A442EF2CF02F
:1058800044EF2CF016EF2CF096C03DF0FC0E3D26B8
:105890003D508C0FD96EDA6ADF6A96518825D96E31
:1058A000000E8921DA6EDF50D8A459EF2CF05BEF9F
:1058B0002CF065EF2CF0040E9619D8B462EF2CF0A2
:1058C00064EF2CF065EF2CF0976B9751D8A46BEF39
:1058D0002CF06DEF2CF070EF2DF020EE02F08851DF
:1058E000D9268951DA22310EDE18D8A47AEF2CF0AD
:1058F0007CEF2CF0C2EF2CF088C0D9FF89C0DAFF12
:10590000410EDE18D8A487EF2CF089EF2CF09FEF22
:105910002CF08C0E2A6E980E2B6E80EC42F000015B
:10592000976F9751D8A497EF2CF099EF2CF09FEF39
:105930002CF098C020F099C021F073EC65F088C07D
:10594000D9FF89C0DAFF420EDE18D8A4AAEF2CF0E6
:10595000ACEF2CF0C2EF2CF08C0E2A6E980E2B6E52
:1059600080EC42F00001976F9751D8A4BAEF2CF069
:10597000BCEF2CF0C2EF2CF098C020F099C021F0C1
:1059800059EC65F0000120EE02F08851D9268951CA
:10599000DA22320EDE18D8A4D0EF2CF0D2EF2CF0A1
:1059A00018EF2DF088C0D9FF89C0DAFF410EDE184C
:1059B000D8A4DDEF2CF0DFEF2CF0F5EF2CF08C0EFF
:1059C0002A6E980E2B6E80EC42F00001976F975173
:1059D000D8A4EDEF2CF0EFEF2CF0F5EF2CF098C001
:1059E00020F099C021F0A7EC65F088C0D9FF89C0EC
:1059F000DAFF420EDE18D8A400EF2DF002EF2DF0F2
:105A000018EF2DF08C0E2A6E980E2B6E80EC42F063
:105A10000001976F9751D8A410EF2DF012EF2DF0E1
:105A200018EF2DF098C020F099C021F08DEC65F0B2
:105A3000000120EE02F08851D9268951DA22330E76
:105A4000DE18D8A426EF2DF028EF2DF072EF2DF000
:105A500088C0D9FF89C0DAFF410EDE18D8A433EF21
:105A60002DF035EF2DF04BEF2DF08C0E2A6E980EA9
:105A70002B6E80EC42F00001976F9751D8A443EF52
:105A80002DF045EF2DF04BEF2DF098C020F099C090
:105A900021F0DBEC65F088C0D9FF89C0DAFF420E47
:105AA000DE18D8A456EF2DF058EF2DF072EF2DF040
:105AB0008C0E2A6E980E2B6E80EC42F00001976FD0
:105AC0009751D8A466EF2DF068EF2DF072EF2DF00E
:105AD00098C020F099C021F0C1EC65F072EF2DF074
:105AE000010E976F00019751D8A479EF2DF07BEF4D
:105AF0002DF092EF2DF08AC0D9FF8BC0DAFF300E67
:105B0000DF6E20EE01F08A51D9268B51DA227C0E0D
:105B1000DF6E20EE02F08A51D9268B51DA22DF6A3D
:105B2000A7EF2DF08AC0D9FF8BC0DAFF320EDF6EEF
:105B300020EE01F08A51D9268B51DA227C0EDF6EDD
:105B400020EE02F08A51D9268B51DA22DF6A000E4C
:105B500012002250800B2F6E22502224366E21AE6E
:105B6000B4EF2DF0B6EF2DF0B7EF2DF036803650B4
:105B7000D8B4BDEF2DF0BFEF2DF0D3EF2DF03628C8
:105B8000D8A4C5EF2DF0C7EF2DF0CFEF2DF0000E0C
:105B90001F6E000E206E000E216E000E226E218EF2
:105BA000226ADBEF2DF0000E1F6E000E206E000E3D
:105BB000216E000E226E2650800B2F1A26502624AE
:105BC000376E25AEE6EF2DF0E8EF2DF0E9EF2DF082
:105BD00037803750D8B4EFEF2DF0F1EF2DF005EF0F
:105BE0002EF03728D8A4F7EF2DF0F9EF2DF001EFC4
:105BF0002EF0000E236E000E246E000E256E000E99
:105C0000266E258E266A0DEF2EF0000E236E000EF6
:105C1000246E000E256E000E266E235024102510D3
:105C20002610D8A416EF2EF018EF2EF030EF2EF03D
:105C3000000E1F6E000E206E000E216E000E226EF2
:105C4000800E21127F0E22122F5022121FC01FF031
:105C500020C020F021C021F022C022F06FEF2FF0F1
:105C60003650D8A436EF2EF038EF2EF042EF2EF05B
:105C7000000E1F6E000E206E000E216E000E226EB2
:105C80006FEF2FF0375036C027F0286A275E000EDE
:105C9000285A7F0E2724306E000E2820316E1FC038
:105CA0002BF020C02CF021C02DF022C02EF0000ED1
:105CB0001F6E000E206E000E216E000E226E000E72
:105CC000326E000E336E000E346E000E356E376A83
:105CD000A2EF2EF03750D8B470EF2EF072EF2EF006
:105CE00089EF2EF0D8902B362C362D362E36D890C4
:105CF0001F3620362136223635AE81EF2EF083EF67
:105D00002EF084EF2EF01F80D890323633363436A2
:105D1000353623502B5C24502C5825502D582650B6
:105D20002E58D8A096EF2EF098EF2EF0A1EF2EF07F
:105D3000358C23502B5E24502C5A25502D5A26503A
:105D40002E5A372A190E3764A8EF2EF0AAEF2EF03C
:105D50006AEF2EF02B502C102D102E10D8B4B3EF6C
:105D60002EF0B5EF2EF0CDEF2EF03280CDEF2EF0ED
:105D7000D8901F3620362136223635AEC2EF2EF0AF
:105D8000C4EF2EF0C5EF2EF01F80D8903236333698
:105D9000343635363006D8A0310621AED2EF2EF09B
:105DA000D4EF2EF0B8EF2EF0376A35AEDAEF2EF0E2
:105DB000DCEF2EF000EF2FF0FF0E3214276EFF0EF7
:105DC0003314286EFF0E3414296E7F0E35142A6E9C
:105DD0002750281029102A10D8B4F1EF2EF0F3EF35
:105DE0002EF0F7EF2EF0010E376E00EF2FF01FA010
:105DF000FCEF2EF0FEEF2EF000EF2FF0F3EF2EF081
:105E00003750D8B406EF2FF008EF2FF02CEF2FF01B
:105E1000010E1F26000E20222122222222A013EF93
:105E20002FF015EF2FF02CEF2FF01FC027F020C020
:105E300028F021C029F022C02AF02A342A3229323F
:105E40002832273227C01FF028C020F029C021F0B7
:105E50002AC022F0304A312A31BE37EF2FF03150BC
:105E600008E13028D8A037EF2FF039EF2FF044EFBA
:105E70002FF0000E316E3068000E1F6E000E206E87
:105E8000000E216E000E226E31BE51EF2FF0315008
:105E900006E13004D8B04FEF2FF051EF2FF05DEF57
:105EA0002FF0316A000E306E000E1F6E000E206E55
:105EB000000E216E000E226E2F6A30C036F036A022
:105EC00064EF2FF066EF2FF069EF2FF0218E6AEF6D
:105ED0002FF0219ED8903630226E24EF2EF0120043
:105EE000010E00018C6F88C0D9FF89C0DAFF410E16
:105EF000DE18D8B47EEF2FF080EF2FF08DEF2FF06B
:105F000088C0D9FF89C0DAFF420EDE18D8A48BEF13
:105F10002FF08DEF2FF0C9EF2FF020EE01F0885118
:105F2000D9268951DA222C0EDE18D8A49AEF2FF048
:105F30009CEF2FF0C9EF2FF020EE02F08851D92608
:105F40008951DA22310EDE18D8B4A9EF2FF0ABEF69
:105F50002FF0BAEF2FF020EE02F08851D9268951A8
:105F6000DA22320EDE18D8A4B8EF2FF0BAEF2FF0F5
:105F7000C9EF2FF020EE03F08851D9268951DA229B
:105F8000DF50D8A4C6EF2FF0C8EF2FF0C9EF2FF0E5
:105F90008C6B8C51D8A4CFEF2FF0D1EF2FF016EFF0
:105FA00031F088C0D9FF89C0DAFFDF50946F20EE4E
:105FB00002F08851D9268951DA22DF50D00F936F31
:105FC000906B000E8F6F9451020DF3509325810F4B
:105FD000FE6FFE0E2B6E6FEC4EF02BC08DF02CC0C2
:105FE0008EF000019451020DF350510F9325D96E9C
:105FF000DA6ADF50D8A4FFEF2FF001EF30F043EF63
:1060000030F08AC0D9FF8BC0DAFF300EDF6E20EE91
:1060100001F08A51D9268B51DA227C0EDF6E20EEF8
:1060200002F08A51D9268B51DA222D0EDF6E20EE36
:1060300003F08A51D9268B51DA22DF6A8DC011F024
:106040008EC012F0146A0A0E136E77EC60F011C065
:1060500091F012C092F08AC018F08BC019F091C074
:106060001AF092C01BF02C0E1C6EA7EC34F08AC004
:1060700011F08BC012F04E0E136E000E146E47EC32
:106080005CF016EF31F09351040DF3CF89F0945189
:10609000080DF350B00F8925D96EDA6ADE50DE1094
:1060A000D8A455EF30F057EF30F078EF30F08AC0D9
:1060B000D9FF8BC0DAFF300EDF6E20EE01F08A517F
:1060C000D9268B51DA227C0EDF6E20EE02F08A5147
:1060D000D9268B51DA22DF6A8AC011F08BC012F008
:1060E0004A0E136E000E146E47EC5CF016EF31F0A2
:1060F0009351300F116E8F0E126E945187EC59F040
:106100008FC011F090C012F0146A190E136E77EC64
:1061100060F011C095F012C096F0660E0001950374
:10612000F3CF89F0F4CF8AF09603F3508A2789C021
:1061300095F08AC096F095C011F096C012F0146ADE
:106140000A0E136E77EC60F011C095F012C096F055
:1061500095C089F096C08AF00001D8908A338933BF
:10616000D8908A33893389C095F08AC096F09551CA
:106170008D5D956F96518E59966F8AC0D9FF8BC0F1
:10618000DAFF300EDF6E20EE01F08A51D9268B51F6
:10619000DA227C0EDF6E20EE02F08A51D9268B5176
:1061A000DA222D0EDF6E20EE03F08A51D9268B51B4
:1061B000DA22DF6A8DC011F08EC012F0146A0A0E66
:1061C000136E77EC60F011C091F012C092F08AC0AB
:1061D00018F08BC019F091C01AF092C01BF02C0E71
:1061E0001C6EA7EC34F08AC011F08BC012F02D0E9B
:1061F000136E000E146E3EEC60F095C011F096C068
:1062000012F0146A0A0E136E77EC60F011C091F070
:1062100012C092F08AC018F08BC019F091C01AF029
:1062200092C01BF0000E1C6EA7EC34F000018C0530
:10623000D8A41DEF31F01FEF31F034EF31F08AC0F8
:10624000D9FF8BC0DAFF320EDF6E20EE01F08A51EB
:10625000D9268B51DA227C0EDF6E20EE02F08A51B5
:10626000D9268B51DA22DF6A000E12008AC0D9FFCC
:106270008BC0DAFF300EDF6E000120EE01F08A5194
:10628000D9268B51DA227C0EDF6E20EE02F08A5185
:10629000D9268B51DA22DF6A88C0D9FF89C0DAFF9C
:1062A000510EDE18D8A457EF31F059EF31F0C8EF96
:1062B00031F020EE01F08851D9268951DA22DF50E1
:1062C000D8A465EF31F067EF31F0C8EF31F020EE80
:1062D00002F08A51D9268B51DA22410EDF6E20EE70
:1062E00003F08A51D9268B51DA222C0EDF6EF8B1D9
:1062F0007CEF31F07EEF31F088EF31F020EE04F0EA
:106300008A51D9268B51DA22300EDF6E90EF31F0B0
:1063100020EE04F08A51D9268B51DA22310EDF6E3D
:1063200020EE05F08A51D9268B51DA222C0EDF6E31
:1063300020EE06F08A51D9268B51DA22420EDF6E0A
:1063400020EE07F08A51D9268B51DA222C0EDF6E0F
:10635000F8B3ADEF31F0AFEF31F0B9EF31F020EE3F
:1063600008F08A51D9268B51DA22300EDF6EC1EF48
:1063700031F020EE08F08A51D9268B51DA22310E05
:10638000DF6E20EE09F08A51D9268B51DA22DF6ABE
:1063900088C0D9FF89C0DAFF410EDE18D8B4D3EF28
:1063A00031F0D5EF31F0E2EF31F088C0D9FF89C08C
:1063B000DAFF420EDE18D8A4E0EF31F0E2EF31F060
:1063C000EDEF32F020EE01F08851D9268951DA2222
:1063D0002C0EDE18D8A4EFEF31F0F1EF31F0EDEF35
:1063E00032F020EE02F08851D9268951DA22300E9F
:1063F000DE18D8B4FEEF31F000EF32F00FEF32F0DC
:1064000020EE02F08851D9268951DA22310EDE18A9
:10641000D8A40DEF32F00FEF32F0EDEF32F0010EB5
:106420008A6F20EE03F08851D9268951DA222C0E8A
:10643000DE18D8A41EEF32F020EF32F0A3EF32F0D6
:1064400020EE04F08851D9268951DA22410EDE1857
:10645000D8B42DEF32F02FEF32F03EEF32F020EED5
:1064600004F08851D9268951DA22420EDE18D8A4C8
:106470003CEF32F03EEF32F0A3EF32F020EE05F0C9
:106480008851D9268951DA222C0EDE18D8A44BEF78
:1064900032F04DEF32F0A3EF32F020EE06F08851EB
:1064A000D9268951DA22300EDE18D8B45AEF32F0EC
:1064B0005CEF32F06BEF32F020EE06F08851D92617
:1064C0008951DA22310EDE18D8A469EF32F06BEF71
:1064D00032F0A3EF32F020EE07F08851D92689512F
:1064E000DA22DF50D8A477EF32F079EF32F0A3EF61
:1064F00032F020EE06F08851D9268951DA22DF5099
:106500003D6ED00E3D26D8A488EF32F08AEF32F0EF
:1065100098EF32F020EE04F08851D9268951DA2222
:10652000DF503D6E3D503F08F815F86FA2EF32F096
:1065300020EE04F08851D9268951DA22DF50C00FAD
:10654000F811F86F8A6B20EE03F08851D926895133
:10655000DA22DF50D8A4AFEF32F0B1EF32F0D7EF4C
:1065600032F020EE02F08851D9268951DA22DF502C
:106570003D6ED00E3D26D8A4C0EF32F0C2EF32F00F
:10658000CEEF32F088C0D9FF89C0DAFFDF503D6E10
:106590003D503F08F815F86FD6EF32F088C0D9FFAC
:1065A00089C0DAFFDF50C00FF811F86F8A6B8A518B
:1065B000D8A4DDEF32F0DFEF32F0E4EF32F0F8C0D4
:1065C00083FF896BE6EF32F0010E896F8951300F3E
:1065D0008AC0D9FF8BC0DAFFDF6E000E1200010EF9
:1065E0000001B56FB66B02EF33F0B6518825D96E56
:1065F000000E8921DA6EB6518C0FE16EE26ADFCFB0
:10660000E7FFB62BB6518825D96E000E8921DA6EC8
:10661000DF50D8B40EEF33F010EF33F01FEF33F04C
:10662000B6518825D96E000E8921DA6E2C0EDE183F
:10663000D8A41DEF33F01FEF33F0F5EF32F0B65171
:106640008C0FD96EDA6ADF6AB6518825D96E000ED2
:106650008921DA6E2C0EDE18D8A431EF33F033EF37
:1066600033F0D7EF33F0B651D8B439EF33F03BEF16
:1066700033F0D7EF33F0B62BB6C0B4F04EEF33F0B3
:10668000B6518825D96E000E8921DA6EB45196086C
:10669000B625E16EE26ADFCFE7FFB62BB65188255B
:1066A000D96E000E8921DA6EDF50D8B45AEF33F07C
:1066B0005CEF33F06BEF33F0B6518825D96E000EE6
:1066C0008921DA6E2C0EDE18D8A469EF33F06BEF57
:1066D00033F040EF33F0B4519608B625D96EDA6A3C
:1066E000DF6AB6518825D96E000E8921DA6E2C0E2C
:1066F000DE18D8A47EEF33F080EF33F0D7EF33F01D
:10670000B451B619D8B487EF33F089EF33F0D7EF2F
:1067100033F0B62BB6C0B4F09CEF33F0B6518825F9
:10672000D96E000E8921DA6EB451A008B625E16E4B
:10673000E26ADFCFE7FFB62BB6518825D96E000E8F
:106740008921DA6EDF50D8B4A8EF33F0AAEF33F026
:10675000B9EF33F0B6518825D96E000E8921DA6E73
:106760002C0EDE18D8A4B7EF33F0B9EF33F08EEF6C
:1067700033F0B451A008B625D96EDA6ADF6AB65193
:106780008825D96E000E8921DA6EDF50D8A4CBEFB0
:1067900033F0CDEF33F0D7EF33F0B451B619D8B4AE
:1067A000D4EF33F0D6EF33F0D7EF33F0B56BB5510C
:1067B000D8A4DDEF33F0DFEF33F070EF34F08C0E60
:1067C0002A6EB00E2B6E80EC42F00001B56FB55111
:1067D000D8A4EDEF33F0EFEF33F02AEF34F0D10E21
:1067E000B05D070EB159D8B0F8EF33F0FAEF33F0DF
:1067F0002AEF34F0B0C011F0B1C012F0136A146A7D
:106800000E0E156E820E166E000E176E000E186EAE
:106810008BEC61F0E80E11241D6E030E12201E6E2B
:10682000000E13201F6E000E1420206ED00E216E5D
:10683000070E226E000E236E000E246E02EC5EF038
:106840001DC0AAF01EC0ABF01FC0ACF020C0ADF060
:106850002CEF34F0010EB56F960E2A6EB20E2B6E31
:1068600080EC42F00001B525B56FA00E2A6EAE0E89
:106870002B6E80EC42F00001B525B56FB551D8A460
:1068800044EF34F046EF34F06EEF34F0B251AE5DC9
:10689000B351AF59D8A04FEF34F051EF34F05AEF65
:1068A00034F0B251B311D8A458EF34F05AEF34F0A9
:1068B0006EEF34F0B0C08CF1B1C08DF1AAC022F0FF
:1068C000ABC023F0B2C024F0B3C025F0AEC026F0B8
:1068D000AFC027F058EC64F070EF34F0010EB56FE4
:1068E0000001B551D8A477EF34F079EF34F090EF90
