:020000040000FA
:0600000065EF4DF0120057
:020006001200E6
:08000800E9CFE4FFEACFE4FFB9
:10001000F6CFE4FFF7CFE4FFF5CFE4FFF3CFE4FF43
:10002000F4CFE4FFFACFE4FF00EE00F0140EE80492
:1000300003E3EECFE4FFFBD700EE14F0120EE8046A
:1000400003E3EECFE4FFFBD7E652D9CFE6FFDACFEA
:10005000E6FFE1CFD9FFE2CFDAFFE652E652E25007
:10006000000EF350E124266E276A000E272226C0D8
:10007000DEFF27C0DDFFDECF26F0DDCF27F0050154
:1000800026506C5D27506D5904E2DECF6CF5DDCF54
:100090006DF59EA207D005012A2B000E2B232C23E1
:1000A0002D239E929EAAC9D0E250000EF350E12467
:1000B000266E276A000E272226C0DEFF27C0DDFF3E
:1000C000DECF26F0DDCF27F0050126506C5D2750EE
:1000D0006D5904E2DECF6CF5DDCF6DF59EAAACD094
:1000E000AB50020B03E1AB50040B05E0AB980000F2
:1000F000AB88AB9EAB8E4CEC4CF000018A6F5ECFB0
:10010000E9FF5FCFEAFF060EE926000EEA22E9CFFB
:1001100026F0EACF27F05ECFE9FF5FCFEAFF040EBB
:10012000E926000EEA222650EE24E76E2750EE2044
:10013000EA6EE7CFE9FF8AC0EFFF5ECFE9FF5FCF4E
:10014000EAFFEECF2AF0EFCF2BF05ECFE9FF5FCFD3
:10015000EAFF040EE926000EEA22EECF28F0EFCFE8
:1001600029F0010E2826000E292228C008F029C0F7
:1001700009F02AC00DF02BC00EF03FEC4DF004C08A
:1001800026F005C027F05ECFE9FF5FCFEAFF040E3F
:1001900026C0EBFF050E27C0EBFF5ECFE9FF5FCF68
:1001A000EAFF040EE926000EEA22EECF26F0EFCF9A
:1001B00027F05ECFE9FF5FCFEAFF020EE926000ECF
:1001C000EA22EECF28F0EFCF29F02850261802E1DE
:1001D0002950271830E15ECFE9FF5FCFEAFFEECF6D
:1001E0002AF0EFCF2BF05ECFE9FF5FCFEAFF020EE0
:1001F000E926000EEA22EECF28F0EFCF29F0010E1B
:100200002826000E292228C008F029C009F02AC09B
:100210000DF02BC00EF03FEC4DF004C026F005C0F1
:1002200027F05ECFE9FF5FCFEAFF020E26C0EBFFAB
:10023000030E27C0EBFF52D79E9AE552E552E552D6
:10024000E5CFDAFFE7CFD9FFE55200EE25F0120E39
:10025000E80403E3E5CFEDFFFBD700EE13F0140E47
:10026000E80403E3E5CFEDFFFBD7E5CFFAFFE5CFE9
:10027000F4FFE5CFF3FFE5CFF5FFE5CFF7FFE5CFDF
:0C028000F6FFE5CFEAFFE5CFE9FF110033
:04028C0002004C9B85
:10029000000060000000130000004A9B00005E0F99
:0602A00000000200000056
:0A02A6000F013C0E006F1F0E016FE8
:1002B0001A0E026F250E036F920E046F240E056F47
:1002C000920E066F1C0E076F120E086F140E096F48
:1002D0005E0E0A6F0E0E0B6FB60E0C6F160E0D6FC4
:1002E000CA0E0E6F140E0F6FF40E106F130E116FF7
:1002F000920E126F110E136F0A0E146F180E156FF7
:100300004C0E166F230E176F600E186F130E196FB9
:10031000F60E1A6F230E1B6FFA0E1C6F1F0E1D6F49
:10032000580E1E6F220E1F6FC40E206F0B0E216F12
:100330000E0E226F230E236F560E246F230E256F91
:10034000F60E266F050E276FA80E286F060E296F72
:10035000D00E2A6F0A0E2B6FBA0E2C6F050E2D6F62
:10036000B60E2E6F0D0E2F6F360E306F6E0E316F74
:10037000AC0E326F700E336F520E346F700E356FDD
:10038000E80E366F210E376F7A0E386F040E396F14
:10039000060E3A6F060E3B6F2A0E3C6F1B0E3D6F2A
:1003A0009E0E3E6F1A0E3F6F0A0E406F1B0E416F7E
:1003B0005E0E426F040E436FE20E446F040E456FF3
:1003C0005E0E466F0C0E476F1200F9EC12F0830EB2
:1003D000F36EFD0E9FEC14F007E3FD0EDB507D0F76
:1003E000146E240E145C02E3010E37D0FD0EDB50B8
:1003F0007D0FE96EEA6AD890E936EA36000EE92602
:100400000F0EEA22EE50ED1002E1020E26D0FD0E94
:10041000DB507D0FE96EEA6AD890E936EA36000EC5
:10042000E9260F0EEA22EECF14F0EFCF15F0F90E09
:10043000DBCFE6FFFA0EDBCFE6FFFB0EDBCFE6FFFE
:10044000FC0EDBCFE6FF04D015C0FAFF1450F96EA6
:10045000FBDFE552E552E552E55202EF13F0B3EC53
:1004600015F0E66ADCEC14F019EC14F002E2E16A33
:10047000E5522FEC14F002EF13F0D9CFE6FFDACFFC
:10048000E6FFE1CFD9FFE2CFDAFFFA0EDBCFE9FFDB
:10049000FB0EDBCFEAFF300EEF6E010EE76EFA0EB9
:1004A000DBCFE9FFFB0EDBCFEAFFE750E926000ECA
:1004B000EA227C0EEF6E020EE76EFA0EDBCFE9FF4A
:1004C000FB0EDBCFEAFFE750E926000EEA22EF6AD7
:1004D000FF00000E00D0E552E5CFDAFFE7CFD9FFED
:1004E0001200F9EC12F00D0EE12402E3E168E6528D
:1004F000E16EF0EC12F0510825E172EC16F022E109
:100500006A0EC1EC14F0E66EE3EC14F0E552E7502D
:10051000EE6EED6A6B0EC1EC14F0156E146AE3EC2E
:1005200014F01450EE261550ED229CEC16F017EC4A
:1005300015F0060E51EC15F002E2E16AE552E16EAB
:10054000145030D0020EDB6A2CEC16F006E036ECCC
:1005500016F0070F40EC16F0F7D7D950070FB6EC9E
:1005600015F0D950030F1AEC13F0070FFFEC12F03F
:10057000DB5014E1FF0EE76E030EDBCF14F0040E28
:100580007EEC14F06A0E0BEC13F0030E040E9FECDD
:1005900013F06B0E0BEC13F0DF6A02D0010EDF6E6E
:1005A00022EC15F0000E146E0D0EE15C02E2E16A21
:1005B000E552E16E145002EF13F0B3EC15F02C0E7F
:1005C000E66E020E05012915E8407F0BE66E96ECFB
:1005D00016F002E2E16AE552BDEC14F0010E0501ED
:1005E0002915E66E96EC16F002E2E16AE5522FEC70
:1005F00014F002EF13F0F9EC12F0F8EC44F0F3EC25
:1006000012F002EF13F0B9EC15F084EC14F0040EC4
:1006100003EC15F043EC16F003E055EC15F00EE199
:1006200047EC15F00BE13AEC16F003E046EC16F05F
:1006300005E178EC15F002E1010EDB6A010EDB50FA
:1006400024E143EC16F006E13AEC16F003E1020E69
:10065000DCC4DBFF43EC16F006E146EC16F003E1E8
:10066000020EDDC4DBFF55EC15F006E13AEC16F0A6
:1006700003E1020EDEC4DBFF55EC15F006E146ECAB
:1006800016F003E1020EDFC4DBFFDF6A93EC15F026
:1006900096EC16F002E2E16AE5522FEC14F0E55216
:1006A000E552E55202EF13F0CEEC15F0300804E00D
:1006B000F0EC12F031080FE147EC15F00CE12FECF3
:1006C00015F0300803E03AEC16F005E178EC15F08F
:1006D00002E1010EDB6A010EDB5024E1F0EC12F0C6
:1006E000300804E1040E0401C01103D0FB0E040124
:1006F000C015C06F2FEC15F0300803E1080EC011D3
:1007000002D0F70EC015C06F836EF0EC12F0D00F60
:10071000146E2FEC15F0D00FE82414240501296F76
:10072000DF6A02D0010EDF6E22EC15F0E552E552D1
:1007300002EF13F0F9EC12F0180EE12402E3E16885
:10074000E652E16EDE6ADD6A020EDB6AF36E030ECC
:1007500008EC15F0120EF3CFDBFF150EF36E130E3F
:1007600008EC15F0140EF3CFDBFF130EF36E150E2D
:1007700008EC15F0160EF3CFDBFF100EF36E170E1C
:10078000F3CFDBFFD950040FE96EDACFEAFF000E9A
:10079000EA226E0EEE6E050EED6E0A0EDB6AFD0E9F
:1007A000DB50020802E2020E01D0010EF36E0B0EC6
:1007B000F3CFDBFF090EDB6A020EF36E090E9FEC2E
:1007C00014F001E3C8D0D9CF14F0DACF15F0090E38
:1007D000DB50020DD950F324E96EDA50D2EC15F05B
:1007E000060E166E030E176EB1EC13F0165CC9EC14
:1007F00014F0186E050EE15C02E2E16AE552E16E6A
:100800001850640E0DEC15F0D950120F186E000E32
:10081000DA20196E030E1A6EB1EC13F0020D1850A7
:10082000F324E96E1950DFEC13F0F3CF16F0F4CF98
:1008300017F0D2EC13F016C0EEFF17C0EDFF010E5B
:100840000DEC15F0080EDB6AD950120FAAEC15F06A
:10085000166EB1EC13F0020D1450F324E96E15502E
:10086000DFEC13F00C0EF3CFDBFF0D0EF4CFDBFF4C
:10087000D9500E0F166E000EDA20176E090EDB50DF
:10088000020D1650F324E96E1750F420EA6EEECFF5
:1008900014F0EFCF15F00C0EDBCF18F00D0EDBCF00
:1008A00019F0960E185E000E195A19501518E8AE78
:1008B00002D0153404D01450185C1550195833E286
:1008C000D9500E0F1C6E000EDA201D6E090EDB5083
:1008D000020D1C50F324E96E1D50F420EA6EEECF99
:1008E0001AF0EFCF1BF0960EE76E0C0EDBCF1EF06A
:1008F0000D0EDBCF1FF0E7501E26000E1F221B50EF
:100900001F18E8AE02D01F3404D01E501A5C1F50CE
:100910001B5809E2140EF36E080E9FEC14F003E26C
:10092000080EDB2A10D0140EF36E080E9FEC14F0A4
:100930000AE2D2EC13F00C0EDBCFEEFF0D0EDBCF94
:10094000EDFF080EDB6A080EDB50140801E07CD7CF
:10095000090EDB2A31D70E0EDBCF14F00F0EDBCFE2
:1009600015F0C80EE76E100EDBCF16F0110EDBCFC0
:1009700017F0E7501626000E172217501518E8AE8C
:1009800002D0153404D01450165C155017581DE3CE
:10099000100EDBCF18F0110EDBCF19F0C80EE76E8A
:1009A0000E0EDBCF1AF00F0EDBCF1BF0E7501A262E
:1009B000000E1B221B501918E8AE02D0193404D0C7
:1009C00018501A5C19501B5805E2010EF36E0A0EFE
:1009D000F3CFDBFF0E0EDB6A0F0EDB6A100EDB6A55
:1009E000110EDB6AFD0EDB50166E176A030E0D6EDC
:1009F0000E6A16C008F017C009F03FEC4DF004C0B5
:100A000016F005C017F0010ED89016361736E80616
:100A1000FBE1040EDB501624146E050EDB5017208C
:100A2000156E0B0EDBCF1AF01B6A1ABE1B68020E86
:100A3000D8801A56000E1B56030E086E096A1AC09B
:100A40000DF01BC00EF072EC3CF006C018F007C0B1
:100A500019F0010ED89018361936E806FBE114504B
:100A60001824E96E15501920EA6E060EEECFDBFF52
:100A7000070EEDCFDBFFF4EC15F0000E145C040E56
:100A800015581AE2060EDBCFE6FF070EDBCFE6FFB6
:100A9000060E146E030E156EB1EC13F0145CC9EC67
:100AA00014F0166E050EE15C02E2E16AE552E16EB9
:100AB0001650640E0DEC15F00A0EDB50146E180E75
:100AC000E15C02E2E16AE552E16E145002EF13F0DC
:100AD000F9EC12F012EC15F0E6521EEC14F043ECB7
:100AE00016F003E055EC15F012E147EC15F00FE1BC
:100AF0003AEC16F007E046EC16F004E02FEC15F0A7
:100B0000330805E178EC15F002E1030EDB6A030E11
:100B1000DB504CE12FEC16F0040EDB6A33EC14F0E2
:100B200007E1020EDB50030803E1E66A56EC13F01E
:100B300033EC14F007E1D8EC14F004E1010EE66E9A
:100B400056EC13F033EC14F007E1020EDB0404E181
:100B5000020EE66E56EC13F037EC14F008E1020ECC
:100B6000DB50030804E1030EE66E56EC13F037EC9D
:100B700014F007E1D8EC14F004E1040EE66E56EC34
:100B800013F037EC14F007E1020EDB0404E1050E6C
:100B9000E66E56EC13F09CEC16F0040E8BEC15F0A0
:100BA00002E2E16AE552E16E145002D04EEC16F01A
:100BB000000EC7EC15F002E2E16AE552E16E145056
:100BC00002EF13F0F9EC12F00F0EE12402E3E168FA
:100BD000E6527DEC13F0F0EC12F006E1010EDB6A58
:100BE0000401650EF16F22D0020EDB6A2CEC16F0C8
:100BF00009E03DEC16F006E036EC16F0050F40EC8F
:100C000016F0F4D7D950050FB6EC15F025EC15F019
:100C10000DE1020EDB500AE0D950030F1AEC13F07D
:100C2000050FFFEC12F0030EDBCFF1F4010EDB50E9
:100C300007E1DF6A22EC15F00401010EF06F04D029
:100C40000401F06B4EEC16F0000E146E0F0EE15C1A
:100C500002E2E16AE552E16E145002EF13F0B9ECE2
:100C600015F0E652F3EC12F0F0EC12F0510834E11A
:100C700072EC16F031E1DF6A020E1BEC15F0410E4A
:100C800010EC13F02C0EEF6E0401C0B104D050EC48
:100C900013F0300E03D050EC13F0310EEF6E050E52
:100CA0001BEC15F02C0EEF6E060E1BEC15F0420E31
:100CB000EF6E070E1BEC15F02C0EEF6EC0B304D0D8
:100CC00008EC14F0300E03D008EC14F0310EEF6E87
:100CD000090E1BEC15F0EF6A43EC16F003E055EC3F
:100CE00015F064E147EC15F061E12FEC15F03008E8
:100CF00003E03AEC16F05AE1010EDF6E99EC16F0C3
:100D000031E1CBEC15F0410804E0CBEC15F04208E2
:100D100029E1050EE8EC12F02C0824E1060EE8ECBF
:100D200012F0300805E0060EE8EC12F031081AE186
:100D3000070EE8EC12F016E1060EE8EC12F0D00F08
:100D400009E1FE0E146ECBEC15F0BF0F145C04012C
:100D5000C01506D0CBEC15F0BF0F010F0401C01178
:100D6000C06FDF6A78EC15F013E12FEC15F0D00FAF
:100D700009E1FE0E146EF0EC12F0BF0F145C0401DA
:100D8000C01504D0F8EC15F00401C011C06FDF6A83
:100D9000DF5005E1C0C483FF010EDB6A03D0DE52E1
:100DA000010EDD6EDB50300F8FEC15F0000EE552BA
:100DB000E55202EF13F0B3EC15F0E66A6AC5E6FF00
:100DC0006BC5E6FFEBEC12F002E2E16AE5522FECB4
:100DD00014F002EF13F0B9EC15F0010EDF6EFD0E0A
:100DE000DB5041080BE1FC0EDB50310807E1DF6A04
:100DF0001EEC16F052C5EEFF53C5EDFFFD0EDB50A5
:100E000041080BE1FC0EDB50320807E11EEC16F046
:100E100054C5EEFF55C5EDFFDF6AFD0EDB504208FD
:100E20000BE1FC0EDB50310807E11EEC16F056C555
:100E3000EEFF57C5EDFFDF6AFD0EDB5042080BE108
:100E4000FC0EDB50320807E11EEC16F058C5EEFF31
:100E500059C5EDFFDF6ADF50E55202EF13F0FCECFD
:100E600015F002E3E168E6524EEC15F003E055ECB4
:100E700015F00EE147EC15F00BE13AEC16F003E04B
:100E800046EC16F005E178EC15F002E1010EDB6AA4
:100E9000010EDB5001E0ABD028EC15F0030EEFCFD4
:100EA000DBFF2FEC15F0D00FDF6E080EDB6A090EAA
:100EB000DB6A030EC8EC13F0030EDF2414240F01C9
:100EC000486F480EE66E0F0EE66EA5D8E552E55265
:100ED000040EF3CFDBFF050EF4CFDBFF030EC8ECEF
:100EE00013F0DF04ECEC13F0EF5011E1020EDB6ABB
:100EF00063EC15F002E2E16AE552E16E1650E66A33
:100F0000BB0EE66E990E14EC13F01DE21AD0030E20
:100F1000C8EC13F0DF04142493EC14F0C40EE9269B
:100F2000040EEA22EE50ED1011E1020EDB6A8AECAB
:100F300016F0EF6AE66AB70EE66E990E14EC13F03F
:100F400002E2E16AE552E16E145051D0020EDB6A12
:100F5000D950080F5BEC16F0300EDF24E66E030E5E
:100F60003BEC14F0190E146E156A080EDBCF08F076
:100F7000090E6EEC13F0660E086E096A060EDBCFE2
:100F80000DF0070EDBCF0EF072EC3CF0060E06C043
:100F9000DBFF070E07C0DBFF0A0E9EEC15F0040E08
:100FA0009EEC15F0E7EC14F0060EDB50165C146EA8
:100FB000070EDB501758156E060E14C0DBFF070E28
:100FC00015C0DBFF020E63EC15F002E2E16AE552A8
:100FD000E16E1650E66A2D0EE5EC13F014EC14F0F9
:100FE0001DEC13F002E2E16AE552E16E1650010ECB
:100FF000DB0406E1020EF36EDB6E8AEC16F0EF6A9C
:10100000000E146E0A0EE15C02E2E16AE552E16E46
:10101000145002EF13F0FCEC15F002E3E168E65225
:10102000E16EDCEC14F0D3EC41F0E552E552F3CF85
:10103000DEFFF4CFDDFF41EC14F0060EDB6A070E95
:10104000DB6A080EDB6A090EDB6AF0EC12F0FC0FBB
:1010500093EC14F0420EE926050EEA22020EEECFC2
:10106000DBFF030EEECFDBFF040EEECFDBFF050E42
:10107000EECFDBFFF0EC12F0FC0F93EC14F0320E2D
:10108000E926050EEA22EECF18F0EECF19F0EECFEA
:101090001AF0EFCF1BF0DECF14F0DDCF15F0166A9B
:1010A000176A14C006F015C007F016C008F017C084
:1010B00009F018C00BF019C00CF01AC00DF01BC0DD
:1010C0000EF079EC4BF0060E02C0DBFF070E03C0FA
:1010D000DBFF080E04C0DBFF090E05C0DBFFEEECF2
:1010E00014F0E7EC14F0D950060F7BEC15F0173430
:1010F000000E171809E6D880000E1454000E15547F
:10110000000E1654000E17540BE2F4EC15F0080E06
:10111000DBCF16F0090EDBCF17F05EEC13F002D038
:1011200041EC14F0500E146EC30E156E166A176A59
:101130005EEC13F0020EDBCF06F0030EDBCF07F000
:10114000040EDBCF08F0050EDBCF09F0A00E0B6E0E
:10115000860E0C6E010E0D6E0E6A11EC3CF0020E46
:1011600006C0DBFF030E07C0DBFF040E08C0DBFF79
:10117000050E09C0DBFFEEEC14F014C0F3FF15C040
:10118000F4FF0A0EE15C02E2E16AE552E16E02EF71
:1011900013F0FCEC15F002E3E168E6524EEC15F0BA
:1011A00003E055EC15F005E172EC16F002E1010EDA
:1011B000DB6A010EDB5001E0C2D043EC16F006E121
:1011C000000EE66EE66A010E0BEC14F055EC15F01D
:1011D00006E1000EE66EE66A020E0BEC14F0060E57
:1011E000070EDBCF18F0176A800E1816196A0F0E5B
:1011F0001F0B17C014F018C015F019C016F006E048
:10120000D890163215321432E806FAE1020E14C0F4
:10121000DBFF060E070EDBCF15F0000E780E15165D
:101220001550156AE830E830E8301F0B146EDC0EFC
:101230001426070E1522080E14C0DBFF090E15C078
:10124000DBFFF4EC15F0800E1416070E1516D8907F
:1012500015321432E804FBE1030E14C0DBFF7C0EF0
:10126000D9EC15F0D89015321432D89015321432CA
:10127000040E14C0DBFF030ED9EC15F0050E14C0EC
:10128000DBFF9CEC16F0B20EE66E990E14EC13F038
:1012900002E2E16AE552CDEC13F0020EDB50410FA1
:1012A000E5EC13F0AD0EE66E990E14EC13F002E2CD
:1012B000E16AE552CDEC13F0040E8BEC15F002E27E
:1012C000E16AE552BDEC14F0A60EE66E990E14EC40
:1012D00013F002E2E16AE552CDEC13F0030E8BEC61
:1012E00015F002E2E16AE552BDEC14F0A00EE66EE4
:1012F000990E14EC13F002E2E16AE552CDEC13F022
:10130000080EDBCFE6FF090E51EC15F002E2E16AB0
:10131000E552BDEC14F0970EE66E990E14EC13F046
:1013200002E2E16AE552BDEC14F017EC15F096EC20
:1013300016F002E2E16AE552E16E145002D04EEC82
:1013400016F0000E146E0A0EE15C02E2E16AE5524C
:10135000E16E145002EF13F0B3EC15F002EF13F04E
:10136000F9EC12F012EC15F0020EDB6A030EDB6AE8
:10137000DE52010EDD6E28EC15F0EFCF14F0300ECA
:10138000145C1CE3F0EC12F0370818E372EC16F072
:1013900015E1010EDB6AF0EC12F0D00F0F01496F7E
:1013A000490EE66E0F0EE66ED3EC41F0E552E552C3
:1013B000020EF3CFDBFF030EF4CFDBFF010EDB5099
:1013C0000CE1DF6A93EC15F0030E51EC15F002E22C
:1013D000E16AE552E16E145002D04EEC16F0000EB8
:1013E000146E040EE15C02E2E16AE552E16E145013
:1013F00002EF13F07CEC16F0880EE66E990E14ECFA
:1014000013F002E2E16AE5522FEC14F0E55202EF2C
:1014100013F0F9EC12F0060EE12402E3E168E65263
:101420004EEC15F003E055EC15F00EE147EC15F02D
:101430000BE13AEC16F003E046EC16F005E178EC2F
:1014400015F002E1010EDB6A010EDB502CE189ECA4
:1014500013F0050EEFCFDBFF96EC15F00BE1D95042
:10146000020F5BEC16F017EC15F0040E3BEC14F0D9
:1014700000EC16F0010EDB5016E1DF6A96EC15F079
:101480000BE193EC15F0030E51EC15F002E2E16A6A
:10149000E552E16E145007D04AEC15F0430EEF6EA2
:1014A00050EC13F0EF6A010EDB0404E1020EDF6E74
:1014B00022EC15F0000E146E060EE15C02E2E16A09
:1014C000E552E16E145002EF13F0F9EC12F02C0E1D
:1014D000E12402E3E168E6527DEC13F0020EDB6AE0
:1014E0002CEC16F006E03DEC16F003E0D9EC16F01B
:1014F000F7D7DDEC16F031E1020EDB502EE0B9EC4F
:1015000013F025EC15F006E03DEC16F003E0D0EC0E
:1015100016F0F7D7D4EC16F03DEC16F01EE1AAEC6D
:1015200013F01BE0B9EC13F025EC15F009E03DECED
:1015300016F006E036EC16F0180F72EC15F0F4D742
:10154000D950180F08EC13F0EF6A25EC15F005E1FF
:10155000AAEC13F002E0010EDB6A010EDB5001E0A1
:1015600098D0D950220F5FEC15F0DB503EE1D950F6
:10157000220F60EC16F0D00ED880EE54070EED541A
:1015800034E3220EDBCF06F0230EDBCF07F0086A30
:10159000096A0E0E0B6E820E0C6E0D6A0E6A79ECE5
:1015A0004BF002C006F003C007F004C008F005C00D
:1015B00009F0E80E0626030E0722000E0822092273
:1015C000D00E0B6E070E0C6E0D6A0E6AE6EC4BF039
:1015D000280E06C0DBFF290E07C0DBFF2A0E08C05D
:1015E000DBFF2B0E09C0DBFF03D0DE52010EDD6EE8
:1015F000010EDBCFE6FFD950240FA6EC15F0DBCFB0
:10160000E6FFD950260F1AEC13F0180F4BEC13F02D
:10161000010EE7CFDBFFDB5039E1240EDBCF14F006
:10162000250EDBCF15F0260EDBCF16F0270EDBCF15
:1016300017F01450165C1550175805E3D950240FB5
:1016400024EC14F023E1220EDBCF6AF5230EDBCF6E
:101650006BF5260EDBCFE6FF270EDBCFE6FF240E71
:10166000DBCFE6FF250EDBCFE6FF280EDBCFE6FF64
:10167000290EDBCFE6FFC1EC33F0146E060EE15C01
:1016800002E2E16AE552E16E145003D0DE52010E2F
:10169000DD6E010EDB5002E1DF6A02D0020EDF6E6A
:1016A00075EC16F02C0EE15C02E2E16AE552E16EA7
:1016B000145002EF13F0F9EC12F00F0EE12402E3E4
:1016C000E168E6524EEC15F003E055EC15F032E11E
:1016D00047EC15F02FE13AEC16F007E046EC16F077
:1016E00004E02FEC15F0330825E199EC16F022E127
:1016F000040E03EC15F02CEC16F00CE03DEC16F0AB
:1017000009E036EC16F0030F3BEC13F0FC0FE2ECB3
:1017100016F0F1D7D950030F3BEC13F0FC0F37EC68
:1017200013F025EC15F006E1020EDB50040802E090
:10173000010EDB6A010EDB5053E13AEC16F018E1C2
:1017400043EC16F009E138EC15F006E182EC13F0F9
:101750003AEC45F0E552E55255EC15F009E138EC6C
:1017600015F006E182EC13F047EC45F0E552E55246
:1017700046EC16F018E143EC16F009E138EC15F0F0
:1017800006E182EC13F054EC45F0E552E55255ECDD
:1017900015F009E138EC15F006E182EC13F061EC8C
:1017A00045F0E552E5522FEC15F033081CE143EC0F
:1017B00016F009E138EC15F006E182EC13F06EEC5E
:1017C00045F0E552E55255EC15F00DE138EC15F019
:1017D0000AE182EC13F07BEC45F0E552E55203D0D0
:1017E000DE52010EDD6E010EDB5002E1DF6A02D037
:1017F000020EDF6E75EC16F00F0EE15C02E2E16A9C
:10180000E552E16E145002EF13F002EC16F002E321
:10181000E168E6527DEC13F0DF6E43EC16F003E076
:1018200055EC15F03BE147EC15F038E13AEC16F0D9
:1018300003E046EC16F032E199EC16F02FE1CBEC28
:1018400015F02B0804E0CBEC15F02D0827E1050E70
:10185000E8EC12F02C0822E1060E03EC15F02CEC5B
:1018600016F00CE03DEC16F009E036EC16F0060F31
:101870003BEC13F0FA0FE2EC16F0F1D7D950060F5B
:101880003BEC13F0FA0F37EC13F025EC15F006E102
:10189000020EDB50060802E0010EDB6A010EDB508F
:1018A00001E0E6D089EC13F0030EEFCFDBFF040E6E
:1018B00025EC16F0050EEFCFDBFFDE52010EDD6EDC
:1018C000D950100F1AEC13F0060FFFEC12F0040EB3
:1018D000DB5041082FE1030EDB5031082BE1010EF4
:1018E000DB5028E10401DC0523E1050EDB502B0869
:1018F0000DE143EC13F00401C6270950C723C1ECE6
:1019000016F002E2E16AE552E16E1450050EDB507A
:101910002D0810E143EC13F00401C65F0950C75BCA
:10192000C1EC16F002E2E16AE552E16E145002D019
:101930008EEC16F0040EDB5041082FE1030EDB5055
:1019400032082BE1010EDB5028E10401DD0523E123
:10195000050EDB502B080DE143EC13F00401CA2700
:101960000950CB23A0EC16F002E2E16AE552E16EE9
:101970001450050EDB502D0810E143EC13F0040168
:10198000CA5F0950CB5BA0EC16F002E2E16AE552B7
:10199000E16E145002D08EEC16F0040EDB504208BB
:1019A0002FE1030EDB5031082BE1010EDB5028E163
:1019B0000401DE0523E1050EDB502B080DE143ECAD
:1019C00013F00401CE270950CF23ABEC16F002E24E
:1019D000E16AE552E16E1450050EDB502D0810E16E
:1019E00043EC13F00401CE5F0950CF5BABEC16F073
:1019F00002E2E16AE552E16E145002D08EEC16F07C
:101A0000040EDB50420840E1030EDB5032083CE19B
:101A1000010EDB5039E10401DF0523E1050EDB5047
:101A20002B080DE143EC13F00401D2270950D32316
:101A3000B6EC16F002E2E16AE552E16E1450050ED2
:101A4000DB502D0821E143EC13F00401D25F095073
:101A5000D35BB6EC16F002E2E16AE552E16E145097
:101A600013D0DF6A6CEC16F04E0EEF6E030E09D049
:101A70004AEC15F04F0EEF6E50EC13F04B0EEF6E7C
:101A8000050E1BEC15F0EF6A000E146E120EE15CF1
:101A900002E2E16AE552E16E145002EF13F0B9EC94
:101AA00015F012EC15F04AEC14F0F3EC13F0E6EC40
:101AB0004BF0DE5206C0DEFF07C0DDFFDD5253EC07
:101AC00014F0F3EC13F0E6EC4BF0030E06C0DBFF72
:101AD000040E07C0DBFFDF6A22EC15F0BCEC15F04A
:101AE00002E2E16AE552BDEC14F07FEC16F002E28E
:101AF000E16AE5522FEC14F0C7EC15F002E2E16A5E
:101B0000E552E16E145002EF13F07CEC16F06CC558
:101B1000E6FF6DC5E6FFEBEC12F002E2E16AE5528A
:101B20002FEC14F0E55202EF13F0F9EC12F01C0E5A
:101B3000E12402E3E168E6527DEC13F0020EDB6A79
:101B40002CEC16F006E03DEC16F003E0D9EC16F0B4
:101B5000F7D7DDEC16F018E1020EDB5015E0B9EC1A
:101B600013F025EC15F006E03DEC16F003E0D0ECA8
:101B700016F0F7D7D4EC16F025EC15F005E1AAEC39
:101B800013F002E0010EDB6A010EDB5072E185EC1E
:101B900016F0DB506EE1180EDBCF14F0190EDBCF20
:101BA00015F01A0EDBCF16F01B0EDBCF17F0165018
:101BB000145C175015585DE2D950180F24EC14F03E
:101BC00058E0D9501A0F24EC14F053E0180EDBCF74
:101BD00062F5190EDBCF63F50501646B656BF3EC01
:101BE00013F04AEC14F079EC4BF002C062F503C03C
:101BF00063F504C064F505C065F51A0EDBCF66F524
:101C00001B0EDBCF67F50501686B696BF3EC13F016
:101C100053EC14F079EC4BF002C066F503C067F5A5
:101C200004C068F505C069F5180E190E9FEC13F095
:101C3000750E0BEC13F0FF0EE76E180EDBCF14F0F1
:101C4000190E7EEC14F0740E0BEC13F01A0E1B0E32
:101C50009FEC13F0770E0BEC13F0FF0EE76E1A0EED
:101C6000DBCF14F01B0E7EEC14F0760E0BEC13F0B1
:101C7000DF6A010EDB5002E0010EDF6E75EC16F03C
:101C80001C0EE15C02E2E16AE552E16E145002EFE3
:101C900013F0F9EC12F0230EE12402E3E168E652BE
:101CA000E16E1EEC14F0010EDF6E43EC16F003E063
:101CB00055EC15F05DE147EC15F05AE13AEC16F001
:101CC00003E046EC16F054E199EC16F051E1040EF5
:101CD000F36E050EF3CFDBFF040EF36EDB6E2CEC20
:101CE00016F00CE06FEC15F02C0808E06FEC15F026
:101CF000E66ED9500B0FC2EC15F0F1D7D9500B0F8F
:101D000085EC15F037EC13F06FEC15F006E128ECDC
:101D100014F003E0030EF5EC14F06FEC15F02C0852
:101D200027E128EC14F024E0040EDB2ADB50E76EF8
:101D3000050EE7CFDBFF6FEC15F00CE06FEC15F054
:101D40002C0808E06FEC15F0E66ED950150FC2ECC8
:101D500015F0F1D7D950150F53EC13F0EF6A6FEC73
:101D600015F006E128EC14F003E0040EF5EC14F095
:101D7000030EDB5001E0D8D02FEC16F0D950070F3E
:101D80001AEC13F00B0F42EC15F0E76E030EE7CFE1
:101D9000DBFF060EDB5004081CE1030EDBCFE6FF81
:101DA000D950090F1AEC13F0150F4BEC13F0030E7A
:101DB000E7CFDBFFDB5018E1090EDBCF14F00A0E92
:101DC000DBCF15F01F0E14C0DBFF200E15C0DBFFAC
:101DD00007D00A0EF36E1F0EF3CFDBFF200EDB6A77
:101DE000210EDB6A220EDB6A030EDB5042E11EECA1
:101DF00014F033EC14F00DE1020EDB040AE1FAEC0E
:101E000013F004011450F65D1550F75902E3030E68
:101E1000DB6A33EC14F00DE1D8EC14F00AE1FAECD3
:101E200013F004011450F85D1550F95902E3030E44
:101E3000DB6A37EC14F00DE1020EDB040AE1FAEC88
:101E400013F004011450FA5D1550FB5902E3030E20
:101E5000DB6A37EC14F00DE1D8EC14F00AE1FAEC8F
:101E600013F004011450FC5D1550FD5902E3030EFC
:101E7000DB6A030EDB5058E1010EC8EC13F0020ED2
:101E8000DB04ECEC13F0EF5002E1030EDF6E33ECF9
:101E900014F008E1010E0401C01504E1010EC011A7
:101EA000C06F836E37EC14F008E1020E0401C01518
:101EB00004E1020EC011C06F836E030EDF5C34E0DC
:101EC000D9501F0F60EC16F0EECFE6FFEECFE6FF25
:101ED000EECFE6FFEFCFE6FF070EDBCFE6FF080E03
:101EE00099EC14F0010EDBCFE6FF0AEC35F0146E2E
:101EF000080EE15C02E2E16AE552E16E1450DF6E29
:101F0000010EC8EC13F05CEC14F0E00EE926040EB0
:101F1000D0EC14F0010EC8EC13F05CEC14F0E80EF9
:101F2000E926040ED0EC14F075EC16F0230EE15CFB
:101F300002E2E16AE552E16E145064D35ADB0D0E01
:101F4000E12402E3E168E652E16E9D92F29EF29C8A
:101F5000030E05012A27000E2B232C232D23D950F5
:101F6000010F5BEC16F043EC30F0E552E552F28ED7
:101F7000F28C9D82DF6A22EC15F0BCEC15F002E2D7
:101F8000E16AE552CDEC13F07FEC16F002E2E16A73
:101F9000E552CDEC13F017EC15F0060E51EC15F0F0
:101FA00002E2E16AE552F9DB070EDBCFE6FF080E3D
:101FB00051EC15F002E2E16AE552EFDB090EDBCFEE
:101FC000E6FF0A0E51EC15F002E2E16AE552BDECC3
:101FD00014F00B0EDBCFE6FF0C0E51EC15F002E215
:101FE000E16AE5522FEC14F0146E0D0EE15C02E292
:101FF000E16AE552E16E145005D3FBDA060EE124E6
:1020000002E3E168E652E16E1EEC14F043EC16F0D8
:1020100003E055EC15F00EE147EC15F00BE13AEC5E
:1020200016F003E046EC16F005E178EC15F002E15D
:10203000030EDB6A030EDB503FE12FEC16F033ECAE
:1020400014F009E1020EDB0406E1040EF6C4DBFF26
:10205000050EF7C4DBFF33EC14F009E1D8EC14F003
:1020600006E1040EF8C4DBFF050EF9C4DBFF37EC14
:1020700014F009E1020EDB0406E1040EFAC4DBFFF2
:10208000050EFBC4DBFFF3DB09E1D8EC14F006E13D
:10209000040EFCC4DBFF050EFDC4DBFF9CEC16F058
:1020A000040EDBCFE6FF17EC15F095DA02E2E16AE9
:1020B000E552E16E145002D04EEC16F0000E146E94
:1020C000060EE15C02E2E16AE552E16E14509AD23A
:1020D000B9EC15F0DF6AFD0EDB5041081EE1FC0E85
:1020E000DB5031081AE1E4EC15F015E2FA0EDBCF13
:1020F000F6F4FB0EDBCFF7F4000E0401F615FF0E2D
:10210000F715B8EC14F06D0E86DA0401F651E66EA0
:102110006C0E81DA02D0010EDF6EFD0EDB5041083D
:102120001EE1FC0EDB5032081AE1EAEC15F015E274
:10213000FA0EDBCFF8F4FB0EDBCFF9F4000E04014E
:10214000F815FF0EF915B8EC14F06F0E64DA0401FF
:10215000F851E66E6E0E5FDA02D0010EDF6EFD0EF4
:10216000DB5042081DE1FC0EDB50310819E1E4ECC4
:1021700015F014E2FA0EDBCFFAF4FB0EDBCFFBF422
:10218000000E0401FA15FF0EFB15F2DB710E43DAA7
:102190000401FA51E66E700E3EDA02D0010EDF6ED7
:1021A000FD0EDB5042081DE1FC0EDB50320819E148
:1021B000EAEC15F014E2FA0EDBCFFCF4FB0EDBCFF9
:1021C000FDF4000E0401FC15FF0EFD15D1DB730EAE
:1021D00022DA0401FC51E66E720E1DDA02D0010E05
:1021E000DF6EDF50E5520ED2CEEC15F031081DE166
:1021F00072EC16F01AE1010EDB6A380E0401C35DC1
:1022000014E0380EC36FE66E60DB62C55AF563C535
:102210005BF564C55CF565C55DF52AC55EF52BC546
:102220005FF52CC560F52DC561F5DAD9300809E1F7
:1022300072EC16F006E1010EDB6A0401C369E66880
:1022400044DB010EDB5002E1DF6A02D0010EDF6EDB
:10225000F9DBE552E552D6D102EC16F002E3E16873
:10226000E6524EEC15F003E055EC15F03FE147EC7B
:1022700015F03CE1EDDB0E0EEFCFDBFF3AEC16F094
:1022800003E046EC16F032E199EC16F02FE1040E73
:1022900078DA2CEC16F006E03DEC16F003E057EC93
:1022A00016F0F7D7CBEC16F0D0DB20E149EC16F0B6
:1022B0001DE0D950100F5FEC15F0CADB0E0EEFCF0A
:1022C000DBFF020E25EC16F00F0EEFCFDBFF010E49
:1022D000DB500CE191DB0F0EDBCFE6FF0E0EDBCF08
:1022E000E6FFF6DE70EC16F000EC16F0010EDB50A7
:1022F00002E1DF6A02D0010EDF6E75EC16F0120EFD
:10230000E15C02E2E16AE552E16E14507BD171D9E1
:102310000E0EE12402E3E168E652E16E06EC16F0EF
:10232000E4EC33F0E552E5525ED9E66A06EC16F0CD
:1023300080DA02E2E16AE55292DA146E0E0EE15C96
:1023400002E2E16AE552E16E14505CD152D91EEC12
:1023500049F049D957D14DD91C0EE12402E3E16877
:10236000E652CBD9030EDB6A2CEC16F00CE0BDDB99
:102370002C0809E0BADBE66EADDA74DB78EC16F017
:10238000030EDB2AF1D7A6DA72D9AFDB2C0822E1E3
:10239000030EDB501FE0030EDB2ADB500BEC16F0C4
:1023A000A4DB0BE0A2DB2C0808E09FDBE66EC1D9C2
:1023B00078EC16F0030EDB2AF3D7BBD9EF6A95DB76
:1023C00009E1030EF0EC15F005E085EC16F01A0EAD
:1023D00086DAC3DB010EDB5002E1DF6A02D0020EB7
:1023E000DF6E75EC16F01C0EE15C02E2E16AE5526C
:1023F000E16E145007D1FDD8100EE12402E3E1682C
:10240000E6527BD90F0EDB6A2CEC16F00EE010ECD6
:1024100016F02C080AE010EC16F0E66E69DA22DB02
:1024200078EC16F00F0EDB2AEFD762DA20D9F8DB52
:1024300016E10F0EDB5013E0D9500C0FFBD8020F42
:10244000DED80C0EDBCFE6FF0D0EDBCFE6FF69EC2E
:1024500049F0E552E552E76E0E0EE7CFDBFF010EC5
:10246000DB500AE19CEC16F00E0E55DB02E2E16A4D
:10247000E552E16E145003D0020EDF6EE3DA000E77
:10248000146E100EE15C02E2E16AE552E16E145056
:10249000B9D0B8DB02E3E168E65200DB02E005DB1D
:1024A00024E1F5DA22E1020E6CD9D6DB2C0805E036
:1024B000CCDA03E057EC16F0F8D7CBEC16F0C5DA1F
:1024C00014E148D912E0D9500E0FF9DA0E0EDBCF25
:1024D000E6FF0F0EDBCFE6FF8BDBE66E41DB100E77
:1024E000F3CFDBFF110EF4CFDBFF010EDB500AE16F
:1024F0009CEC16F081DA6FD802E2E16AE552E16EF7
:10250000145001D0CBDB000E146E120EE15C02E21F
:10251000E16AE552E16E145075D06BD81D0EE124CE
:1025200002E3E168E652BADA02E0BFDA3EE1AFDA8E
:102530003CE15EDBE76E1C0EE7CFDBFF020E21D92C
:102540008BDB2C0804E081DA02E0B1DBF9D7CBECBD
:1025500016F093DB2AE1FED828E00BD98EDB05E0EC
:1025600074DA03E0D0EC16F0F9D7D4EC16F06DDA9B
:102570001CE18FDB1AE0D950180FA1DADBCFE6FFA0
:10258000D9501A0FE3DADB5010E11A0EDBCFE6FF69
:102590001B0EA5D91C0EDBCFE6FFA3EC44F0F7DA47
:1025A00002E2E16AE552E16E1450010EDB5002E1F5
:1025B000DF6A02D0010EDF6E98DB1D0EE15C02E2E5
:1025C000E16AE552E16E14501DD0A9DA65EF16F00C
:1025D0003CDBEF5012006CDA9EEC25F0C7EF15F0F3
:1025E00037DAEF5012002ADB300EEF6E6EDBEF6A47
:1025F00012000CDBE1CFD9FFE2CFDAFF120042DAA2
:1026000000EF16F0E552E5CFDAFFE7CFD9FF120071
:1026100036DA32EF15F0E66E010EE66EADEF15F02C
:10262000EF6E030E1BEF15F0E66E42DAB0EC27F00A
:10263000C7EF15F040DBD9501200DBCF15F00A0EC2
:102640000D6E0E6A14C008F015C009F03FEC4DF095
:1026500008C014F009C015F008C0E6FF09C0E6FF85
:1026600027DA9EEC25F0166E050EE15C12000F01D4
:10267000F9D9EF6A120016DB020EDB50120038DBCC
:10268000020EDB2A1200100EDBCF08F0110EDBCF9A
:1026900009F008501200F6D9E552E724E76E12005F
:1026A000040E1BEF15F031DA32EF15F09AEC03F05F
:1026B000E552E76E040EE7CFDBFF1200D950020FA0
:1026C0001ADA020E14C0DBFF030E15C0DBFF040E86
:1026D00016C0DBFF050E17C0DBFF1200DBCF09F0D1
:1026E00014C00DF015C00EF03FEC4DF0060E08C002
:1026F000DBFF070E09C0DBFF1200E16EDE52010EA8
:10270000DD6E12000D0EDBCFE6FF0E0EDBCFE6FF17
:1027100012009ED9040EEFCFDBFF020E25EF16F05C
:102720000E0FB0D9146E010EDBCFE7FF1450E72671
:10273000F9D2D9500E0F0EDA53DA32EF15F0DBCFA3
:1027400015F0000EFF0E151615C014F0156A145082
:10275000E66E1200030EDB50F36E020EDB50F35CEC
:1027600012000E6EFD0EDBCF09F081EC4DF005502E
:102770001200020EDB2ADB50E76E030EE7CFDBFF11
:102780001200F36E030EF3CFDBFFDB500BEF16F0FE
:10279000DB50BF0FE824146E1200E16E14502C0EB3
:1027A000E66E1200D9500E0F7DDA090EDB50020DD5
:1027B0001450F324E96E1550F420EA6E1200F2D999
:1027C0000B0EDBCFE6FFB0EF15F0E66E71D9E6EC4D
:1027D00027F086DAE66A12001424EA6ADC0FE96E52
:1027E000040EEA221200980E0B6E3A0E0C6E0D6A61
:1027F0000E6A1200070EDBCF14F0080EDBCF15F0C7
:102800001200FA0EDBCF14F0FB0EDBCF15F0120036
:10281000080E1BEF15F0E66EA3D9060EF3CFDBFF13
:10282000070EF4CFDBFF1200060EDBCF14F0070E0D
:1028300012003ED97CEC27F0C7EF15F0010EF36EC5
:10284000030EF3CFDBFF12003BDAEE50ED10120067
:10285000050EDB50F36E040EDB50F35C1200E16EEC
:102860001450000E1200010EDB5041081200010E40
:10287000DB5042081200DBCFE6FFEBEC06F070EF16
:1028800016F0020EDB6A030EDB6A040EDB6A050E2D
:10289000DB6A120062C506F063C507F064C508F084
:1028A00065C509F0120066C506F067C507F068C582
:1028B00008F069C509F01200020EDB041424E96E69
:1028C000EA6AD890E936EA361200310EE66EE66A18
:1028D000ADEF15F0D950040F3DD9DB501200DBCF1E
:1028E000E6FF180EDBCFE6FF190EDBCFE6FF120086
:1028F000D950020FD7D90F0EDB501200E750141633
:10290000156A1450E66E1200E652E652DE52010ECF
:10291000DD6E1200EF6AE66A020EDBCFE6FF120000
:10292000D00F0BEF16F0040DF3CFE9FFF4CFEAFF61
:102930001200DBCFE6FF020EDBCFE6FF1200DBCF9B
:10294000F4FFF350F45C1200C6C4E6FFC7C4E6FF10
:102950001200CAC4E6FFCBC4E6FF1200CEC4E6FFF5
:10296000CFC4E6FF1200D2C4E6FFD3C4E6FF1200D4
:10297000146E156AE850E66E1200E16E1450E66AB5
:102980001200E66E010EE66E69EC49F0E552E55282
:102990001200E66EE66A0B0EDBCFE6FFA3EF44F013
:1029A000EA22070EDBCFEEFF080EDBCFEDFF1200B1
:1029B000020EDB5002081200FC0EDBCFE6FFFD0E1C
:1029C000DBCFE6FF1200D950050F60EF16F0040EC2
:1029D000DBCF16F0050EDBCF17F01200020EDBCFB7
:1029E00014F0030EDBCF15F01200F36E060EF3CFDA
:1029F000DBFF030EDB6A1200100EDBCFE6FF110EC9
:102A0000DBCFE6FF1200F36E020EF3CFDBFF120006
:102A1000F3CFDBFF360EF36E1200E66EFAEC4CF0ED
:102A2000E5521200E652E652E652E6521200050E58
:102A3000DBCFE6FF1200E76E01D9E750E926000E72
:102A4000EA22120049D9EF6A1200020E2CEF16F0AA
:102A5000FC0EDBCFE9FFFD0EDBCFEAFF1200020E1A
:102A6000E8EF12F01424E96E000E1520EA6E120051
:102A7000D9500D0FDFDD030FC2DDDB50120012D97C
:102A800049EF16F018D908EC3EF070EF16F02AD98D
:102A90002C08120021D94E0E10EF13F02EDE43EF5A
:102AA00016F0DBCFE6FFEBEF12F09ADD42081200E2
:102AB000FA0EDBCFE6FFFB0EDBCFE6FF1200BADD3E
:102AC000040FFFEF12F026D92D0EAADDEF6A2C0EAF
:102AD000E66E040EDBCF14F0050E1DEF13F0040EAE
:102AE0002CEF16F095DD3FEF13F0030E2CEF16F0F0
:102AF000030EE8EF12F0E4D8EE501426EE50152243
:102B0000EE501622EE5017221200CCD8040EDBCF66
:102B1000E6FF050E5AD1DBCFE6FF96EF16F0E66E24
:102B20008DD878EF16F0D8D88AEF14F0040E30DE86
:102B3000050EDB50CF0F50DEEF041200146E156A45
:102B4000060EDBCF08F0070E6EEF13F073DD0E0FED
:102B5000A2DDE8D0A7D8030E120051EC49F039D11C
:102B600043EC44F036D145DDF3EF12F084DD37EF6E
:102B700013F03FDDE65212002C0EE66E010ED9DE98
:102B8000EBEF12F090DDB4D8040EDB2A1200146EC5
:102B9000050EE15C1200040EE8EF12F02ADDB4DE4F
:102BA000F0EF12F0F420EA6EEECFE6FFEFCFE6FF93
:102BB0001200E76E39DEE7501416156A1200D9507C
:102BC0001A0F38DD90EF13F01CDE2D0E145C010E91
:102BD0001558120016DE910E145C010E15581200E5
:102BE000DBCFE6FF020EF1D01FDEDBCF15F01200C7
:102BF000F7DCBF0F010F1200FCDC0A0EE12412000B
:102C0000E76E90D0F6DC120EE1241200D9CFE6FF79
:102C1000DACFE6FF1200E76E020EE7CFDBFF12000D
:102C20000F0E2CEF16F0E66ED950040F120082EC56
:102C300033F0E552E552E5529CEF16F0FA0EDBCF89
:102C4000E9FFFB0EDBCFEAFF1200E76E01DFE75082
:102C5000E926000EEA221200DB50E8EF12F0F8DE5F
:102C6000010EEFCFDBFFFBDE90EF14F0EEDEE66E41
:102C7000D9501200F4DE31081200E7DE2C081200F1
:102C8000FADCE2EF16F0ACDC41081200E8DE3208B4
:102C90001200020EDBCFE6FF030E97D0010EDF6EAF
:102CA00022EF15F0146E000EDA20156E1200CDDE44
:102CB000BADF72EF15F0E66E000EDA20E66E120053
:102CC000E96E000EDA20EA6E1200010EB4DE7C0E10
:102CD000EF6E020E1BEF15F0300EDF24E5EF12F061
:102CE000E55277D0010EE8EF12F0ACDE146E120060
:102CF000E552E750EF6E12003CDF9CEF16F0030E3A
:102D0000DBCFE6FF040E51EF15F0D950180FD7DED8
:102D1000DFEF15F0DB50300FE5EF12F0DF6ABADEBF
:102D2000EF6A1200010EE7CFDBFF1200E66AEBEF5D
:102D300012F0DEDE2C081200DF6A84DEE66A120082
:102D4000CAC4C8F4CBC4C9F404DE100EE66E6FDF4B
:102D500000DEEBEF12F0CEC4CCF4CFC4CDF4FEDD38
:102D6000200EE66E64DFFADDEBEF12F0D2C4D0F491
:102D7000D3C4D1F4F8DD300EE66E59DFF4DDEBEFAD
:102D800012F0C6C4C4F4C7C4C5F4DEDDE66A4FDF82
:102D9000DBDDEBEF12F0D950040F71DE37EF13F0EB
:102DA00065DF0E0F72EF15F0D9500E0F31DCEF6AB0
:102DB00012004BDE38DF40EF16F0D950040FD6DE9C
:102DC0003DEF16F04FDE3FEF13F0DB50E552E75CCE
:0A2DD0001200E552E552E552120030
:062DDA006CEC2AF004EC91
:102DE0002EF04AEC47F0000EE66E010EE66EDFECC8
:102DF00045F0E552E552090EE66E020EE66EDFEC96
:102E000045F0E552E55253EC01F005012A6B2B6BBE
:102E10002C6B2D6B04015C6B04015D6B04015E6B1C
:102E200004015F6B0401606B0401616B0401696B59
:102E30006A6B6B6B6C6B04016D6B6E6B6F6B706BA5
:102E40000401716B726B736B746B0401756B766B41
:102E5000776B786B000160516BE14EEC24F0E82455
:102E600004018E6F8F6B8EC4E6FF8FC4E6FF020EE7
:102E7000E66EE66A010EE66EA3EC44F0146E050EF3
:102E8000E15C02E2E16AE552E16E1450010E0401D8
:102E9000156A8E25146E8F51152214C0E6FF15C0D9
:102EA000E6FF020EE66EE66A020EE66EA3EC44F062
:102EB000166E050EE15C02E2E16AE552E16E165023
:102EC000020EE66EE66A010EE66E43EC44F0E55251
:102ED000E552E552F3CF8AF4F4CF8BF4020EE66E9E
:102EE000E66A020EE66E43EC44F0E552E552E55226
:102EF000F3CF8CF4F4CF8DF404018E5104018A19C0
:102F000004E104018F5104018B1911E1010E040148
:102F1000156A8E25146E8F511522145004018C19D8
:102F200002E115508D1903E10001010E606F92D787
:102F30007AEC2FF07D0EE66E040EE66E43EC30F078
:102F4000E552E5520001010E616F0401896B040E28
:102F50000401895D13E204018951E96EEA6AD8909F
:102F6000E936EA367D0EE926040EEA22EE50ED102F
:102F700002E10001616B0401892BE9D70001615175
:102F800002E095EC48F000016151D2E0380E0401F6
:102F9000C35D01E018D10401896B040E0401895D51
:102FA00001E311D104018951040DF3CFE9FFF4CFFE
:102FB000EAFFC40EE926040EEA22020EE926000EFC
:102FC000EA22EE6AED6A040E040189250001736F9E
:102FD000730EE66E000EE66E0BEC08F0E552E5525D
:102FE000F3CF67F4F4CF68F40A0E0D6E0E6A67C46F
:102FF00008F068C409F03FEC4DF008C067F409C060
:1030000068F40401030ED8806755000E685501E38B
:10301000B4D00401895104E0020E0401895D47E146
:1030200067C479F468C47AF404017B6B7C6B2C0E62
:103030000B6E270E0C6E020E0D6E0E6A79C406F032
:103040007AC407F07BC408F07CC409F079EC4BF03B
:1030500002C079F403C07AF404C07BF405C07CF4A8
:10306000E80E0B6E030E0C6E0D6A0E6A79C406F044
:103070007AC407F07BC408F07CC409F0E6EC4BF09E
:1030800006C079F407C07AF408C07BF409C07CF468
:1030900004018951E96EEA6AD890E936EA36D40E1D
:1030A000E926040EEA22830EEE6E050EED6E040193
:1030B000890504E0030E0401895D47E167C479F4E2
:1030C00068C47AF404017B6B7C6B680E0B6E550E42
:1030D0000C6E010E0D6E0E6A79C406F07AC407F00C
:1030E0007BC408F07CC409F079EC4BF002C079F4A1
:1030F00003C07AF404C07BF405C07CF4E80E0B6EC8
:10310000030E0C6E0D6A0E6A79C406F07AC407F0DD
:103110007BC408F07CC409F0E6EC4BF006C079F4FF
:1031200007C07AF408C07BF409C07CF4040189511B
:10313000E96EEA6AD890E936EA36D40EE926040E3A
:10314000EA226A0EEE6E030EED6E04018951040D43
:10315000F3CFE9FFF4CFEAFFC40EE926040EEA221A
:1031600079C4EEFF7AC4EDFF04018951EA6ADC0FED
:10317000E96E040EEA22EF6A23D004018951040D9E
:10318000F3CFE9FFF4CFEAFFC40EE926040EEA22EA
:10319000EE6AED6A04018951E96EEA6AD890E9366F
:1031A000EA36D40EE926040EEA22EE6AED6A04013C
:1031B0008951EA6ADC0FE96E040EEA22010EEF6E15
:1031C0000401892BEAD605016C6B6D6BD09EF28EE3
:1031D000F28C9D8AFE0EE66EDFEC4CF0E552FA0EA4
:1031E000CB6E62C55AF563C55BF564C55CF565C514
:1031F0005DF505015E6B5F6B606B616BB40EE66E37
:10320000040EE66EB20EE66E040EE66E5ECFE6FFCC
:103210005FCFE6FFF1EC42F0146E060EE15C02E2D5
:10322000E16AE552E16E1450F3CFB6F4F4CFB7F48F
:103230000401B651B71101E0D8D20401080ED880BC
:10324000B255000EB35501E3D0D2B4C4E6FFB5C405
:10325000E6FFB2C4E6FFB3C4E6FF000EE66E010E61
:10326000E66E000EE66EE66AA4EC47F0146E080EF9
:10327000E15C02E2E16AE552E16E145000C1A6F49D
:10328000000EE66E010EE66E22EC46F0E552E552C7
:10329000F3CFA7F4F4CFA8F404C1A9F405C1AAF4AC
:1032A000000EE66E010EE66E4FEC46F0E552E5527A
:1032B0000401AD6F120EE66E030EE66E000EE66EB2
:1032C000010EE66E5EEC46F0E552E552E552E5523F
:1032D000000EE66E010EE66E98EC46F0E552E55201
:1032E000F3CFAEF4F4CFAFF44EEC24F0300F040182
:1032F000A95D01E07AD20401526B0401AD514BE0AB
:10330000E66A030EE66EE66AA7C4E6FFA8C4E6FF17
:10331000520EE66E040EE66E05EC28F0146E070EF3
:10332000E15C02E2E16AE552E16E1450E66AA9C48A
:10333000E6FF520EE66E040EE66EE6EC27F0E5526E
:10334000E552E552E552E66AAAC4E6FF520EE66E81
:10335000040EE66EE6EC27F0E552E552E552E55242
:10336000E66AADC4E6FF520EE66E040EE66EE6ECCB
:1033700027F0E552E552E552E552E66A230EE66E85
:10338000520EE66E040EE66EE6EC27F0E552E552CC
:10339000E552E55230D0E66A030EE66EE66AA7C44F
:1033A000E6FFA8C4E6FF520EE66E040EE66E05ECDC
:1033B00028F0146E070EE15C02E2E16AE552E16E6C
:1033C0001450E66AA9C4E6FF520EE66E040EE66EDD
:1033D000E6EC27F0E552E552E552E552E66AAAC46A
:1033E000E6FF520EE66E040EE66EE6EC27F0E552BE
:1033F000E552E552E5520401B06BB16B0401A46BD8
:10340000A56B000E0401A425E96E010E0401A5219F
:10341000EA6EEF50030814E0000E0401A425E96EE3
:10342000010E0401A521EA6EEF500401B019040158
:10343000B06FB1C4B1F40401A42B000EA523E1D7F1
:103440000401AE510401B01904E10401AF510401BB
:10345000B11905E1020E0401A65D01E18DD0010163
:10346000006BE66A1A0EE66E000EE66E010EE66E60
:10347000E6EC27F0E552E552E552E552E66A520ED7
:10348000E66E040EE66E000EE66E010EE66E7CEC55
:1034900027F0146E050EE15C02E2E16AE552E16E8E
:1034A0001450E66A120EE66E030EE66E000EE66E2D
:1034B000010EE66E7CEC27F0146E050EE15C02E274
:1034C000E16AE552E16E1450E66A030EE66E000E04
:1034D000E66E010EE66EE6EC27F0E552E552E552A7
:1034E000E552000EE66E010EE66EE3EC45F0E552A5
:1034F000E552F3CFAEF4F4CFAFF40201096BE66A04
:10350000000EE66E010EE66E090EE66E020EE66E27
:103510007CEC27F0146E050EE15C02E2E16AE552F4
:10352000E16E1450E66AE668E668AEC4E6FFAFC432
:10353000E6FF090EE66E020EE66E05EC28F0146E4C
:10354000070EE15C02E2E16AE552E16E1450090EF9
:10355000E66E020EE66E010EE66EE66AEAEC47F0F3
:10356000E552E552E552E552010EE66EE66A76EC6A
:1035700047F0E552E55239D1120EE66E040EE66EC2
:10358000120EE66E030EE66EAAC4E6FFE5EC01F04D
:10359000146E050EE15C02E2E16AE552E16E145040
:1035A0000401AB6F0101006B0401AB5101E093D04A
:1035B00012C4B8F40401B96BB80EE66E040EE66EE0
:1035C0005FEC4AF0E552E552F3CFACF40401AC51A4
:1035D00041E1E66A060EE66E000EE66E010EE66E4C
:1035E000E6EC27F0E552E552E552E552E66A520E66
:1035F000E66E040EE66E000EE66E010EE66E7CECE4
:1036000027F0146E050EE15C02E2E16AE552E16E1C
:103610001450E66A120EE66E040EE66E000EE66EBA
:10362000010EE66E7CEC27F0146E050EE15C02E202
:10363000E16AE552E16E1450E66A030EE66E000E92
:10364000E66E010EE66EE6EC27F0E552E552E55235
:10365000E55240D0E66A150EE66E000EE66E010EEB
:10366000E66EE6EC27F0E552E552E552E552E66AF1
:10367000520EE66E040EE66E000EE66E010EE66E6B
:103680007CEC27F0146E050EE15C02E2E16AE55283
:10369000E16E1450E66A120EE66E040EE66E000E3F
:1036A000E66E010EE66E7CEC27F0146E050EE15C12
:1036B00002E2E16AE552E16E1450E66A030EE66E3C
:1036C000000EE66E010EE66EE6EC27F0E552E552DE
:1036D000E552E55240D0E66A1A0EE66E000EE66E3E
:1036E000010EE66EE6EC27F0E552E552E552E552B2
:1036F000E66A520EE66E040EE66E000EE66E010EEF
:10370000E66E7CEC27F0146E050EE15C02E2E16AE5
:10371000E552E16E1450E66A120EE66E030EE66E96
:10372000000EE66E010EE66E7CEC27F0146E050EC0
:10373000E15C02E2E16AE552E16E1450E66A030ED2
:10374000E66E000EE66E010EE66EE6EC27F0E55240
:10375000E552E552E552000EE66E010EE66EE3EC30
:1037600045F0E552E552F3CFAEF4F4CFAFF40201E9
:10377000096BE66A000EE66E010EE66E090EE66E55
:10378000020EE66E7CEC27F0146E050EE15C02E2A0
:10379000E16AE552E16E1450E66AE668E668AEC496
:1037A000E6FFAFC4E6FF090EE66E020EE66E05EC1C
:1037B00028F0146E070EE15C02E2E16AE552E16E68
:1037C0001450090EE66E020EE66E010EE66EE66A13
:1037D000EAEC47F0E552E552E552E552010EE66E9D
:1037E000E66A76EC47F0E552E5520401DC0512E1A9
:1037F0000001736B730EE66E000EE66ED3EC41F0C3
:10380000E552E552F3CF69F4F4CF6AF404016B6B2F
:103810006C6B05D00401696B6A6B6B6B6C6B04019C
:10382000DD0513E10001010E736F730EE66E000EED
:10383000E66ED3EC41F0E552E552F3CF6DF4F4CFF0
:103840006EF404016F6B706B05D004016D6B6E6BD1
:103850006F6B706B0401DE0513E10001020E736FE4
:10386000730EE66E000EE66ED3EC41F0E552E552C3
:10387000F3CF71F4F4CF72F40401736B746B05D061
:103880000401716B726B736B746B0401DF0513E1E0
:103890000001030E736F730EE66E000EE66ED3EC3E
:1038A00041F0E552E552F3CF75F4F4CF76F404011C
:1038B000776B786B05D00401756B766B776B786BE3
:1038C0002AC52EF52BC52FF52CC530F52DC531F5A4
:1038D0002EC514F02FC515F030C516F031C517F000
:1038E000190E0B6E0C6A0D6A0E6A14C006F015C034
:1038F00007F016C008F017C009F0E6EC4BF002C064
:1039000014F003C015F004C016F005C017F01450F1
:1039100015101610171075E104015E5171E1DCC439
:1039200063F4DDC464F4DEC465F4DFC466F4A1ECC2
:1039300020F00401DC0516E10401635113E162C5C6
:103940005AF563C55BF564C55CF565C55DF52EC5C7
:103950005EF52FC55FF530C560F531C561F5040131
:10396000010E606F0401DD0516E10401645113E1ED
:1039700062C55AF563C55BF564C55CF565C55DF563
:103980002EC55EF52FC55FF530C560F531C561F513
:103990000401010E606F0401DE0516E104016551AA
:1039A00013E162C55AF563C55BF564C55CF565C591
:1039B0005DF52EC55EF52FC55FF530C560F531C5E7
:1039C00061F50401010E606F0401DF0516E10401D9
:1039D000665113E162C55AF563C55BF564C55CF5D4
:1039E00065C55DF52EC55EF52FC55FF530C560F583
:1039F00031C561F50401010E606F0401010E5E6FB7
:103A000002D004015E6B2AC52EF52BC52FF52CC5FF
:103A100030F52DC531F52EC514F02FC515F030C584
:103A200016F031C517F0CD0E0B6E0C6A0D6A0E6ADA
:103A300014C006F015C007F016C008F017C009F052
:103A4000E6EC4BF002C014F003C015F004C016F011
:103A500005C017F014501510161017100BE10401D3
:103A6000F00508E10401615104E1CDD90401010E22
:103A7000616F02D00401616B2AC52EF52BC52FF5AD
:103A80002CC530F52DC531F52EC514F02FC515F018
:103A900030C516F031C517F0FB0E0B6E0C6A0D6ABF
:103AA0000E6A14C006F015C007F016C008F017C063
:103AB00009F0E6EC4BF002C014F003C015F004C0AE
:103AC00016F005C017F014501510161017100BE162
:103AD000AB50020B03E1AB50040B05E0AB980000C8
:103AE000AB88AB9EAB8E2AC52EF52BC52FF52CC50A
:103AF00030F52DC531F52EC514F02FC515F030C5A4
:103B000016F031C517F0E80E0B6E030E0C6E0D6A41
:103B10000E6A14C006F015C007F016C008F017C0F2
:103B200009F0E6EC4BF002C014F003C015F004C03D
:103B300016F005C017F0145015101610171001E1FB
:103B400094D00401625101E08FD00401FE51FF11B5
:103B5000001101111DE00401DC051AE169C4E6FF52
:103B60006AC4E6FF6BC4E6FF6CC4E6FF310EE66E86
:103B7000410EE66E2DEC40F0146E060EE15C02E2A2
:103B8000E16AE552E16E1450F3CF52F5F4CF53F5EC
:103B9000050102510311041105111DE00401DD05A9
:103BA0001AE16DC4E6FF6EC4E6FF6FC4E6FF70C4A1
:103BB000E6FF320EE66E410EE66E2DEC40F0146E1E
:103BC000060EE15C02E2E16AE552E16E1450F3CFC9
:103BD00054F5F4CF55F505010651071108110911E7
:103BE0001DE00401DE051AE171C4E6FF72C4E6FFC0
:103BF00073C4E6FF74C4E6FF310EE66E420EE66E55
:103C00002DEC40F0146E060EE15C02E2E16AE55232
:103C1000E16E1450F3CF56F5F4CF57F505010A5174
:103C20000B110C110D111DE00401DF051AE175C423
:103C3000E6FF76C4E6FF77C4E6FF78C4E6FF320EFF
:103C4000E66E420EE66E2DEC40F0146E060EE15C60
:103C500002E2E16AE552E16E1450F3CF58F5F4CF79
:103C600059F50401010E626F02D00401626B2AC58E
:103C70002EF52BC52FF52CC530F52DC531F55AC5C0
:103C8000E6FF5BC5E6FF5CC5E6FF5DC5E6FF5EC51A
:103C9000E6FF5FC5E6FF60C5E6FF61C5E6FF2AC532
:103CA000E6FF2BC5E6FF2CC5E6FF2DC5E6FF3CD899
:103CB000186E0C0EE15C02E2E16AE552E16E18500A
:103CC0005AC50BF05BC50CF05CC50DF05DC50EF080
:103CD000E6EC4BF002C014F003C015F004C016F07F
:103CE00005C017F0145015101610171018E1040134
:103CF000605114E12EC55EF52FC55FF530C560F546
:103D000031C561F5F9DA06C05AF507C05BF508C0A0
:103D10005CF509C05DF50401010E606F02D004017D
:103D2000606BFEEF18F0120068EC23F0E652E652EA
:103D3000E652E652FE0E186E19681A681B68D950D2
:103D4000F20FAAEC23F0176ED950F60F3BEC24F0DB
:103D50001450EE5C1550EE581650EE581750EE58B1
:103D600011E2FA0EDBCF18F0FB0EDBCF19F0FC0EE0
:103D7000DBCF1AF0FD0EDBCF1BF0D950F60FAAEC0B
:103D800023F024D0FE0E1C6E1D681E681F68D950DB
:103D9000F60F3BEC24F0EE501C5C186EEE501D58F4
:103DA000196EEE501E581A6EEE501F581B6ED950E9
:103DB000FA0F3BEC24F01850EE24146E1950EE204C
:103DC000156E1A50EE20166E1B50EE20176E14C0A2
:103DD000DFFF010E15C0DBFF020E16C0DBFF030E76
:103DE00017C0DBFFDECF06F0DECF07F0DECF08F036
:103DF000DDCF09F0DD52DD52040EE15C02E2E16A42
:103E0000E552A0EF23F068EC23F00B0EE12402E36F
:103E1000E168E652E16E080EDB6A00016E51020AAB
:103E20006AE0030A55E0010A01E084D10401F1517E
:103E3000640808E20001B40E756FE20E766F7769D0
:103E4000786936D0640EF15D2CE0F1C475F00001A4
:103E5000766B776B786B0E0ED89075377637773731
:103E60007837E806F9E1640E0B6E0C6A0D6A0E6A8B
:103E700075C006F076C007F077C008F078C009F08A
:103E800011EC3CF006C075F007C076F008C077F082
:103E900009C078F0200E0001765F000E775B785B3A
:103EA00007D00001780E756F1E0E766F776B786BFA
:103EB00075C079F076C07AF077C07BF078C07CF07E
:103EC000640E7927000E7A237B237C2374692ED11C
:103ED0000001742B060E745D07E11EEC49F004012D
:103EE000F06B00016E6B27D1900E7D6F010E7E6F1F
:103EF0000001020E1DD1BDEC23F00AE1E3EC23F03A
:103F0000100EEFEC23F0040EF36EDB6E050EDB6A91
:103F1000BDEC23F0010808E1E3EC23F0130EEFEC15
:103F200023F0050EFEEC23F0BDEC23F0020808E1BF
:103F3000E3EC23F0150EEFEC23F0060EFEEC23F07D
:103F4000030E0001E76E7419E8AE02D0E73402D028
:103F5000E750745D02E2010E01D0020EF36E0A0E0C
:103F6000F3CFDBFF050E7D27000E7E23CBDB02E2C5
:103F7000E16AE552E16E1450020E05EC24F0C2DB5A
:103F800002E2E16AE552E16E1450090EDB6A020EAC
:103F900005EC24F080DBF3CFDEFFF4CFDDFF010E74
:103FA00005EC24F0DECF14F0DDCF15F014C0E6FFF1
:103FB00015C0E6FF70DBE552E7CF15F0E552E7CF1D
:103FC00014F0F3CF16F0F4CF17F01E0E165E000EAD
:103FD000175A17501518E8AE02D0153404D01450F3
:103FE000165C155017582AE2DECF18F0DDCF19F015
:103FF00018C0E6FF19C0E6FF4EDBE552E7CF19F027
:10400000E552E7CF18F0F3CF1AF0F4CF1BF01E0EF5
:104010001A26000E1B2219501B18E8AE02D01B34C2
:1040200004D01A50185C1B50195808E2140EF36E95
:10403000090EDADB03E2090EDB2AB4D7140EF36EA5
:10404000090ED2DB02E2090EDB6A090EDB5014080E
:104050009EE1DECF14F0DDCF15F0166A176A15AEBB
:1040600002D016681768175000017819E8AE02D020
:10407000783508D07551145C76511558775116581B
:10408000785117583EE3DECF18F0DDCF19F01A6AE9
:104090001B6A19AE02D01A681B681B507C19E8AE67
:1040A00002D07C3508D07951185C7A5119587B516F
:1040B0001A587C511B5825E20001010E6E6F74C026
:1040C00014F0156A14BE1568D89014361536780E9B
:1040D000D8801456050E1556060E14C0DBFF070EC9
:1040E00015C0DBFF060EDBCFE9FF070EDBCFEAFFD3
:1040F0007DC0EEFF7EC0EDFF190EF36E080EF3CF0C
:10410000DBFF080EDB2A190EF36E080E6DDB07E2EB
:104110000001000E7D5D040E7E5901E223D70001EF
:10412000000ED8807D55040E7E5505E20001010E7B
:104130006E6F01D06E6B0B0EE15C02E2E16AE5523C
:10414000FFD2C6DA100EE12402E3E168E652E16E26
:10415000080EDB6A090EDB6A0A0EDB6A0B0EDB6AED
:10416000DE6ADD6A020EDB6A040EF36E020E3CDBD1
:1041700001E3BCD00FDBEA22EF5001E0B4D0030E24
:10418000DB6A88DBEECF16F0EFCF17F01650145C29
:104190001750155809E24BDB73DB1A6A1B6A58DAB1
:1041A0005BDA010E1CDB06D053DA6ADB1A6A1B6A83
:1041B0003EDB52DA020EEA6ADB34FE0BEA36E96EC7
:1041C000D40EE926040EEA22EECF06F0EFCF07F078
:1041D000086A096A020ED89006360736083609368C
:1041E000E806F9E1190E0B6E0C6A0D6A0E6A79EC9D
:1041F0004BF002C006F003C007F004C008F005C091
:1042000009F0E80E0B6E030E0C6E0D6A0E6AE6ECFA
:104210004BF0040E06C0DBFF050E07C0DBFF060EE9
:1042200008C0DBFF070E09C0DBFFBBDAEA22EF5054
:104230004EE1BEDA060EDBCF16F0070EDBCF17F02D
:10424000D9500C0F22DBEE50145CEE501558EE5096
:104250001658EE50175819E3EADACBDAF9D914C038
:10426000EEFF15C0EDFF020EDB504E0FE66EE66A64
:1042700069EC49F0E552E552000902E18BDA01D020
:1042800090DAEA22010EEF6E12D0030EDB0406E193
:104290008FDADED91450EE261550ED22030EDB50D6
:1042A00006E186DAD5D91450EE5E1550ED5AD0D914
:1042B000EECFE6FFEFCFE6FF020EDB50100DF3501E
:1042C000E66E82EC33F0E552E552E5520CD0E2DACC
:1042D00014C0EEFF15C0EDFF5DDAEA22010EEF6EAD
:1042E00060DAEA22EF6A020EDB2A3ED7100EE15CAA
:1042F00002E2E16AE55224D2EBD91C0EE12402E38A
:10430000E168E652E16E140E52C5DBFF150E53C58F
:10431000DBFF160E54C5DBFF170E55C5DBFF180E6D
:1043200056C5DBFF190E57C5DBFF1A0E58C5DBFF5C
:104330001B0E59C5DBFF020EDB6A380E0401C35D9C
:1043400001E050D1DF6A040EDF5C01E34BD1DF50A6
:10435000EA6ADC0FE96E040EEA22EF0401E040D1C4
:10436000DF5068DA12DAEE50ED1001E139D1DF509A
:10437000EA6A620FE96E000EEA22130EEFCFDBFF4E
:10438000F6D9660EE926000EEA22010EEFCFDBFF1A
:10439000D950140F146E000EDA20156EDF50020D86
:1043A0001450F324E96E1550F420EA6E0B0EEECF94
:1043B000DBFF0C0EEDCFDBFFD9500B0F66DA640E7E
:1043C000D880EE54000EED5401E30AD10B0EDBCF82
:1043D00014F00C0EDBCF15F0D00E145C070E155840
:1043E00001E3FED043DA7DD9280E0C6E6B0E0D6E04
:1043F0006E0E0E6E4E0E0F6E64EC3BF05BD90B0E24
:10440000DBCF08F00C0EDBCF09F065EC3AF007C00B
:1044100018F008C019F009C01AF00AC01BF097D9AB
:1044200011EC3BF047D9C00E0C6EA30E0D6E1B0EA7
:104430000E6E4B0E0F6E08DA7AEC3AF0EBD997D984
:10444000E00EE926040E4DD91E6A1F6A800E206E0A
:104450003F0E216EC00E076EA30E086E1B0E096E76
:104460004B0E0A6E030EDBCF0CF0040EDBCF0DF00B
:10447000050EDBCF0EF0060EDBCF0FF011EC3BF09C
:1044800007C022F008C023F009C024F00AC025F0BC
:10449000E4D91EC007F01FC008F020C009F021C0F9
:1044A0000AF07BEC3AF007C01AF008C01BF009C014
:1044B0001CF00AC01DF04BD964EC3BF0070E07C09E
:1044C000DBFF080E08C0DBFF090E09C0DBFF0A0E88
:1044D0000AC0DBFF070EDBCF07F0080EDBCF08F0CA
:1044E000090EDBCF09F00A0EDBCF0AF090EC3CF0AE
:1044F0000D0E08C0DBFF0E0E09C0DBFFB7D9EA22A4
:1045000078D90D0EDB50141803E10E0EDB50151890
:1045100067E055D9EE50ED1056E0010EDB040BE1DB
:104520000D0EDBCF14F00E0EDBCF15F02D0E145C4C
:10453000010E15580FE3010EDB50020819E10D0EB4
:10454000DBCF16F00E0EDBCF17F0910E165C010ECE
:1045500017580EE23ED90D0EDBCFE6FF0E0EDBCF75
:10456000E6FF010EE2D802E2E16AE552E16E145084
:10457000010EDB0412E123D92C0ED880EE54010E7B
:10458000ED540BE226D92C0EE66E010EE66ECDD868
:1045900002E2E16AE552E16E1450010EDB500208BE
:1045A00012E10DD9900ED880EE54010EED540BE2BD
:1045B00010D9900EE66E010EE66EB7D802E2E16AFF
:1045C000E552E16E145052D9EA220D0EDBCFEEFF18
:1045D0000E0EDBCFEDFF010EF36E020EF3CFDBFF0D
:1045E000DF2AB1D6020EDB040DE10F0E62C5DBFF40
:1045F000100E63C5DBFF110E64C5DBFF120E65C52F
:10460000DBFF0CD00F0E66C5DBFF100E67C5DBFFAE
:10461000110E68C5DBFF120E69C5DBFF0F0EDBCF85
:1046200014F0100EDBCF15F0110EDBCF16F0120ECA
:10463000DBCF17F014C006F015C007F016C008F065
:1046400017C009F01C0EE15C02E2E16AE55278D085
:10465000020EDB501AEF24F0EECF1CF0EFCF1DF06E
:104660001E6A1F6A1C50185C146E1D501958156E76
:104670001E501A58166E1F501B58176E0C0E14C081
:10468000DBFF0D0E15C0DBFF0E0E16C0DBFF0F0E9D
:1046900017C0DBFF1200020EDBCFE6FF030EDBCFFD
:1046A000E6FF0A0EDBCFE6FF43EC44F0E552E552AD
:1046B000E5521200AFD8030EDBCF14F0040EDBCFAF
:1046C00015F0050EDBCF16F0060EDBCF17F012004B
:1046D000D9CFE6FFDACFE6FFE1CFD9FFE2CFDAFFAD
:1046E0001200EA22CDD818C008F019C009F065EC14
:1046F0003AF007C014F008C015F009C016F00AC05F
:1047000017F012007DC0E6FF7EC0E6FF040EDBCF8F
:10471000E6FF050EDBCFE6FF0A0EDBCFE6FFA3ECDC
:1047200044F0146E050EE15C1200DBCFE6FF130EC1
:10473000DBCFE6FF0AEC35F0146E080EE15C1200E8
:10474000E16EE552E5CFDAFFE7CFD9FF120085D859
:1047500024EF24F090D8EE50185C146EEE501958E7
:10476000156EEE501A58166EEE501B581200EA6A7B
:10477000DF34FE0BEA36E96E120074C009F0030E56
:104780000E6ED1EC3BF005501200020EE926000E31
:10479000EA221200020EDB50EA6ADC0FE96E040E18
:1047A0001200020EDB50EA6A6F0FE96E000E120073
:1047B000040EDBCF14F0050EDBCF15F01200D9503C
:1047C0000D0F45EF24F0360EF36E020EF3CFDBFF34
:1047D0001200050EE66EE66AE66AE66A1200F36EFD
:1047E000030EF3CFDBFF1200DBCFF4FFF350F45CDA
:1047F0001200EECF14F0EFCF15F01200F36E040E9E
:10480000F3CFDBFF050EDB6A1200E66EFAEC4CF02C
:10481000E5521200030E07C0DBFF040E08C0DBFFE9
:10482000050E09C0DBFF060E0AC0DBFF120010DF19
:10483000C5EF23F0040DF3CFE9FFF4CFEAFFC40E78
:10484000E926040EEA22120014C007F015C008F091
:1048500016C009F017C00AF0120007C00CF008C01B
:104860000DF009C00EF00AC00FF0120080DFE80E54
:10487000E926040E1200E96EFF0EDA20EA6E12003D
:10488000EECF18F0EFCF19F01200E96E000EDA202B
:0C489000EA6E1200DDDEADDF17EF24F051
:04489C0069EC2AF0A9
:1048A000DF6A8050010BDF128050020B01E0010E25
:1048B000E824DF128050040B01E0010E040DF350D8
:1048C000DF12DF50E5520FEF29F069EC2AF0DF6AC2
:1048D000000EF36EFD0EDBCFF4FFF350F45C08E343
:1048E000FD0EDB50090804E3FD0EDB50300FDF6ED8
:1048F000FD0EDB50090805E2FD0EDB50F60F410FFF
:10490000DF6EDF50E5520FEF29F069EC2AF0E65236
:10491000E652010EDB6AF00EF36E020EF3CFDBFF00
:10492000DF6A040EDF5C3EE2010EDBCF1AF0020EFE
:10493000DBCF1BF0040EDF02F3501AC018F01BC0CF
:1049400019F005E0D89019321832E804FBE1FC0EAA
:10495000DB501814166EFD0EDB501914176E030E83
:10496000D880DF54040DF35016C014F017C015F0B2
:1049700003E020EC2AF0FDE11450E66EA6DFE552DC
:10498000E66EDF50E76EFA0EDBCFE9FFFB0EDBCF02
:10499000EAFFE750E926000EEA22E552E750EF6E03
:1049A000DF2ABFD7E552E552E5520FEF29F069EC57
:1049B0002AF0E652E652E652E652D950010FE66E70
:1049C000000EDA20E66EFC0EDBCFE6FFFD0EDBCF3D
:1049D000E6FF9BDFE552E552E552E552DF6A040E41
:1049E000DF5C12E2D950010F146E000EDA20156E52
:1049F000DF500F011424E96E000E1520EA6EEF500F
:104A0000DAEC29F0DF2AEBD7000E146E050EE15C1C
:104A100002E2E16AE552E16E14500FEF29F069EC11
:104A20002AF01F0EDF6EDFCF14F0143423E2D950CA
:104A3000FA0FE96EFF0EDA20EA6EDF501F0BEECFA1
:104A400014F0EECF15F0EECF16F0EECF17F007E032
:104A5000D8901732163215321432E806F9E1010EF9
:104A60001416156A166A176A300E1424DAEC29F047
:104A7000DF06D9D7000EE552D2D33DEC2AF0EFEC99
:104A800029F004E6100E145C000E155827E2FC0E07
:104A9000DBCF16F0FD0EDBCF17F0DECF18F0DDCF49
:104AA00019F00F0ED8801856000E1956185016C05F
:104AB00014F017C015F003E020EC2AF0FDE1010E20
:104AC0001416000E1516300E1424DAEC29F0ACA2E0
:104AD000FED7DF2A010ED3E3DB2AD1D7000EE55241
:104AE000E5529DD33DEC2AF0EFEC29F004E6080EE8
:104AF000145C000E15581EE2DECF14F0DDCF15F069
:104B0000070ED8801456000E1556FD0EDB5014C04B
:104B1000E7FFE75204E0E8427F0BE706FCE1010B08
:104B2000300FDAEC29F0ACA2FED7DF2A010EDCE36D
:104B3000DB2ADAD7000EE552E55271D367DB0E0EA1
:104B4000E12402E3E168E652E16EFA0EDBCF16F0F3
:104B5000FB0EDBCF17F0F6EC29F00A0E0D6E0E6A95
:104B600018C008F019C009F03FEC4DF008C018F06B
:104B700009C019F00A0E086E096A18C00DF019C0B4
:104B80000EF072EC3CF00650165C146E075017588D
:104B9000156E080E14C0DBFF090E15C0DBFFF6EC26
:104BA00029F0FDEC29F0640E0D6E0E6A1AC008F0B3
:104BB0001BC009F03FEC4DF008C01AF009C01BF013
:104BC000640E086E096A1AC00DF01BC00EF02CECC2
:104BD0002AF0060E14C0DBFF070E15C0DBFF0A0E1D
:104BE000146E156A060EDBCF08F0070E57DB060EB3
:104BF00008C0DBFF070E09C0DBFFFDEC29F004EC69
:104C00002AF0E80E0D6E030E0E6E1CC008F01DC0DB
:104C100009F03FEC4DF008C01CF009C01DF0E80E93
:104C2000086E030E096E1CC00DF01DC00EF0FDDAFB
:104C3000040E14C0DBFF050E15C0DBFF640E146EFE
:104C4000156A040EDBCF08F0050E28DB040E08C041
:104C5000DBFF050E09C0DBFFD7DBFA0EDBCF1EF052
:104C6000FB0EDBCF1FF0100E0D6E270E0E6E1EC05A
:104C700008F01FC009F03FEC4DF008C01EF009C05D
:104C80001FF0100E086E270E096E1EC00DF01FC01B
:104C90000EF072EC3CF006501C5C1A6E07501D586A
:104CA0001B6E640E086E096A040EDBCF0DF0050E54
:104CB000DBCF0EF0BADA020E14C0DBFF030E15C014
:104CC000DBFFE80E146E030E156E020EDBCF08F04C
:104CD000030EE4DA020E08C0DBFF030E09C0DBFF9F
:104CE000100E146E270E156EFA0EDBCF08F0FB0EB9
:104CF000D5DA08C0DEFF09C0DDFF0A0EDB6A0B0E45
:104D0000DB6A0C0EDB6A0D0EDB6ABCDBEF5006E0E3
:104D10000A0EDB2A0B0EF9E3DB2AF7D7D9CF14F002
:104D2000DACF15F0A2DA14500624E96E15500720E8
:104D3000EA6EEE50ED1011E10C0EDBCF16F00D0E09
:104D4000DBCF17F0050E165C000E175806E20C0EAE
:104D5000DB2A0D0EE3E3DB2AE1D7FFDA2BE2FDDAF3
:104D60002DE298DBEECF14F0EFCF15F0000E145CBF
:104D7000000E155819E3D9CF18F0DACF19F075DA0B
:104D800018500624E96E19500720EA6E090ED880E3
:104D9000EE54000EED5408E37DDBEF50300FE66E6D
:104DA000C0DA01E3DB2A53DB0C0EDB2A0D0ED7E35E
:104DB000DB2AD5D7B6DA01E3DB2A80DBF90EDB503C
:104DC00004E0AFDA01E3DB2A74DB5CDBEF6A0E0E92
:104DD000E15C02E2E16AE552E16E21D217DA070EE8
:104DE000E12402E3E168E652E16EFB0EDBCFE6FF71
:104DF0000A0E8EDA0A0DF350E552E75CE76E020EFA
:104E0000E7CFDBFFDBCFE6FFFB0EDBCFE6FF640E79
:104E10007FDA640DF350E552E75CE552D880E75441
:104E2000E76E010EE7CFDBFF0A0E146E0E6E010E69
:104E3000DBCF09F081EC4DF0010E09C0DBFF640E01
:104E400067DA640DF350DF6E030EDB6A040EDB6A73
:104E5000050EDB6A060EDB6A24DBEF5006E0030E6C
:104E6000DB2A040EF9E3DB2AF7D720DAEF5011E151
:104E7000050EDBCF16F0060EDBCF17F0030E165C27
:104E8000000E175806E2050EDB2A060EEEE3DB2ABB
:104E9000ECD76BDA1AE269DA1CE208DAEFCF14F029
:104EA000000E145C0CE302DAEF50090808E3FED9A7
:104EB000EF50300FE66E3DDA01E3DB2AC8DA050E6B
:104EC000DB2A060EE8E3DB2AE6D733DA01E3DB2A46
:104ED000F5DAFA0EDB5007E02CDA01E3DB2A8DD994
:104EE000FA0EDBCFEFFFDDDAEF6A070EE15C02E2DC
:104EF000E16AE552E16E93D189D93FDAE3DAEF5006
:104F000006E0020EDB2A030EF9E3DB2AF7D740DACC
:104F1000E96EDD501520EA6EEF5012E083DA01E30E
:104F2000DB2AFA0EDB501624E96EFB0EDB5017204D
:104F3000EA6EEF50E66EC3D901E3DB2A88DAE7D7E1
:104F4000F90EDB5004E0BBD901E3DB2AB2DABADAAE
:104F5000EF6A040EE15C02E2E16AE552E16E5FD1C4
:104F600055D90BDAAFDAEF5006E0020EDB2A030E5A
:104F7000F9E3DB2AF7D70CDAF66EDD501520F76E71
:104F80000800F55013E04EDA01E3DB2AFA0EDB509D
:104F90001624F66EFB0EDB501720F76E0800F55056
:104FA000E66E8DD901E3DB2A52DAE5D7F90EDB5044
:104FB00004E085D901E3DB2A7CDA84DAEF6A040EA7
:104FC000E15C02E2E16AE552E16E29D156DA40D9AC
:104FD000EF5005E0DF2A010EFAE3DB2AF8D757D9B4
:104FE00001E3DB2A0AD9FB0EDBCFEFFFFA0EDB5021
:104FF00007E04DD901E3DB2A00D9FA0EDBCFEFFF42
:1050000027D9EF6AE552E5520AD100D9090EE12409
:1050100002E3E168E652E16E020EDB6A030EDB6A30
:10502000DE6ADD6A15D9EF5005E0DF2A010EFAE3EA
:10503000DB2AF8D7FA0EFB0EDBCF15F0000EF00ED0
:10504000151615380F0B146E050E14C0DBFFFA0E83
:10505000FB0EDBCF15F0000E0F0E151615C014F069
:10506000156A060E14C0DBFFF00EA9D9156A040EEE
:10507000E7D9FEE1070E14C0DBFF0F0EA0D9080E22
:1050800014C0DBFFD950050F146E000EDA20156E28
:10509000020EDB501424E96E030EDB501520EA6E7D
:1050A000EF500BE194D9165C000E175806E2020E81
:1050B000DB2A030EE7E3DB2AE5D7E2D8C6D96CE2A8
:1050C00070D902E1FF0EED1825E0B3D980D9D88060
:1050D0001656000E17561450165C155017581AE243
:1050E000CFD8040ED8801456000E1556040E14C0E6
:1050F000DBFF27D9E8AE02D0173404D01650145C79
:105100001750155807E2C3D801E3DB2AD7D9040E9C
:10511000DB2AEFD7B5D899D95DE2D9D8143422E289
:10512000D950050F186E000EDA20196E020EDB50F2
:105130001824E96E030EDB501920EA6EEFCF17F04A
:10514000090EE76E1718E8AE02D0173403D0E75007
:10515000D880175407E3CCD8300FE66E98D801E317
:10516000DB2A75D9B4D8090EE76E1418E8AE02D060
:10517000143403D0E750D880145408E2B9D8410F52
:10518000F60FE66E84D801E3DB2A61D9020EDB2A32
:10519000030EC0E3DB2ABED704D902E1FF0EED18EF
:1051A00019E047D9D890155001E64FD913E2040E03
:1051B000DB6AC7D8E8AE02D0173404D01650145CAE
:1051C0001750155807E263D801E3DB2A77D9040E9C
:1051D000DB2AEFD7F70EDB5007E059D801E3DB2AD3
:1051E0000CD8F70EDBCFEFFF33D8EF6A090EE15C86
:1051F00002E2E16AE552E16E12D0FC0EDB501424AB
:10520000E96EFD0EDB501520EA6E1200D9CFE6FFE5
:10521000DACFE6FFE1CFD9FFE2CFDAFF1200E552A5
:10522000E5CFDAFFE7CFD9FF120072EC3CF0065071
:105230001A5C186E07501B58196E0A0E086E096A20
:10524000060EDBCF0DF0070EDBCF0EF02CEF2AF0B1
:10525000FC0EDBCF14F0FD0EDBCF15F0DE50142476
:10526000E96EDD501520EA6E1200020E086E096A22
:105270000C0EDBCF0DF00D0EDBCF0EF072EF3CF01D
:10528000020EDBCF14F0030EDBCF15F01200DFCFE0
:1052900014F0DF2A010EDBCF15F01200DBCF09F08E
:1052A00014C00DF015C00EF03FEF4DF0050EDB50B1
:1052B000D924E96E060EDB50DA20EA6E1200020EE7
:1052C000DBCF14F0DB2A030EDBCF15F01200D95030
:1052D000050F156E000EDA20166E020EDB50152437
:1052E000E96E030EDB501620EA6EEFCF14F01200C9
:1052F000D950050F166E000EDA20176E020EDB5025
:105300001624E96E030EDB501720EA6EEF501200F0
:10531000146E0E6EFB0EDBCF09F081EC4DF00950E0
:1053200012000A0EDBCF14F0DB2A0B0EDBCF15F0D8
:105330001200030EDBCF14F0DB2A040EDBCF15F0D6
:105340001200DB50146E156AF80EDBCF16F0F90E62
:10535000DBCF17F01550171812000C0EDBCF14F02E
:105360000D0EDBCF15F0050EB0D0050EDBCF14F01F
:10537000060EDBCF15F0030EA8D0E652E652E65239
:10538000E652DE6ADD6A020EDB6A030EDB6A120099
:10539000FA0EDBCF14F0FB0EDBCF15F0DE50142439
:1053A0001200D950F80FE96EFF0EDA20EA6EFF0EF8
:1053B000EE181200E66E11EC4DF0E5521200E76EA9
:1053C000FA0EDBCF14F0FB0EE75014161200020E9B
:1053D000DBCF16F0030EDBCF17F0040E1200DECF8A
:1053E00014F0DDCF15F0D89015501200FA0EDBCF77
:1053F00018F0FB0EDBCF19F01200FA0EDBCF1AF01B
:10540000FB0EDBCF1BF01200FA0EDBCF1CF0FB0E05
:10541000DBCF1DF0120016500624E96E175007204E
:10542000EA6E1200DFCF16F0DF2A010EDBCF17F095
:105430001200F80EDBCF14F0F90EDBCF15F01200DE
:10544000D89015321432E8041200040E3ED0D5DE96
:10545000E552E750EF6E120072EC3CF00650185C1B
:10546000166E07501958176E080EDB50165C146E36
:10547000090EDB501758156E12002BD8E652DE6A63
:10548000DD6A12000A0EDBCF14F00B0EDBCF15F035
:10549000FDEF28F0D9CF16F0DACF17F0E6DE0BEFEC
:1054A0002AF0030EDBCF14F0040EDBCF15F0FDEF76
:1054B00028F0A3DEF90EDBCFEFFF12009EDE300EE8
:1054C000EF6E1200DDDEFDEF28F0145C000E1558C3
:0854D00012009CDEE6521200FE
:0854D800D9CFE6FFDACFE6FFB1
:1054E000E1CFD9FFE2CFDAFF0E0EE12402E3E1685B
:1054F000E652E16E05012A6B2B6B2C6B2D6B0501BF
:10550000160E266F05013F0E276F0501400E246F12
:105510000501900E256F0501400E286F060E05014E
:105520001E6F1F6B0501200E206F030E216F0501FA
:10553000200E226F030E236FE1EC2EF0A1DB10E2B0
:1055400030EC2FF06C0E1426010E15225CEC2FF0BF
:1055500016EC2FF0020EDB2A030EF0E3DB2AEED767
:105560006D0E37EC2FF06C0E3AEC2FF00401142482
:10557000F66F000E1520F76F6F0E37EC2FF06E0EE2
:105580003AEC2FF004011424F86F000E1520F96F87
:10559000710E37EC2FF0700E3AEC2FF0040114244A
:1055A000FA6F000E1520FB6F730E37EC2FF0720EA2
:1055B0003AEC2FF004011424FC6F000E1520FD6F4F
:1055C00004012C0ED880F655010EF75504E2EBECE1
:1055D0002EF0410E8BDB0401900ED880F855010EA1
:1055E000F95504E2F0EC2EF0410E80DB0401C80E08
:1055F000D880FA55000EFB5503E2EDDB420E76DB58
:1056000004015E0ED880FC55010EFD5503E2E8DB77
:10561000420E6CDB750E41EC2FF0740EFDDAA6DB4A
:1056200000011624146E000E1720156E060E14C00D
:10563000DBFF070E15C0DBFF770E41EC2FF0760E77
:10564000EBDA94DB1624146E000E1720156E080E8C
:1056500014C0DBFF090E15C0DBFF080EDBCF14F012
:10566000090EDBCF15F0060EDBCF16F0070EDBCFF1
:1056700017F01450165C1550175808E2D950080F4F
:105680007CDB04E0D950060F78DB26E10501300E03
:10569000626F750E636F646B656B0501E00E666F7C
:1056A000930E676F040E686F696BC5DB9EDBA4DB2E
:1056B000FEE11450E66E750EB5DBBDDB44DB740E07
:1056C000C5DA93DB99DBFEE11450E66E770EBEDAA5
:1056D0003ADB760EA7DB28D0060EDBCF62F5070E8D
:1056E000DBCF63F50501646B656BBCDA79EC4BF0DD
:1056F00002C062F503C063F504C064F505C065F53A
:10570000080EDBCF66F5090EDBCF67F50501686B88
:10571000696B7EDB79EC4BF002C066F503C067F580
:1057200004C068F505C069F50401F26B0401F36B70
:105730000401F46B0401F56B0401E00EBC6F04017D
:10574000120EBD6F0401BA6B04013F0EBB6F040162
:10575000900EBF6F0401070EBE6F0401800EC16F73
:1057600004017C0EC06F0401070EC26FBBC492FF20
:10577000BAC480FFBDC493FFBCC481FFBFC494FF03
:10578000BEC482FFC1C495FFC0C483FF966EE00E05
:105790007E6E7F6AA40EC06EC16A05016A6B6B6B78
:1057A000AC6AAB6AAC84210EAF6EB06AAC98AC8ABE
:1057B000AB8EAB88750EE66E2BEC4CF0E5524D0EC1
:1057C000E66E0AEC4CF0E552A282A092E66A020E66
:1057D0008DDBB1EC4BF0E552E552E5524DEC33F088
:1057E0000AEC40F0000EE66EE66AE66A82EC33F000
:1057F000E552E552E552E5DA43DA37E206DA020E1F
:1058000020DAFEE1C40EE926040E20DB020E19DACE
:10581000FEE1C40EE926040EEA22020EE926000E7D
:1058200015DB010E0EDAFEE1D40EE926040E0EDBC6
:10583000DC0EE926040EEA22010EEF6EE6D9010E17
:1058400000DAFEE1E00EE926040E00DB010EF9D9D4
:10585000FEE1E80EE926040EEA22EE6AED6A020E87
:10586000DB2A030EC9E3DB2AC7D70401F06B04016E
:10587000650EF16FC4C4E6FFC5C4E6FF100E49DA39
:10588000C8C4E6FFC9C4E6FF200E43DACCC4E6FF75
:10589000CDC4E6FF300E3DDAD0C4E6FFD1C4E6FF4A
:1058A000400E37DA0401FE6BFF6B006B016B0501E4
:1058B000026B036B046B056B0501066B076B086BD2
:1058C000096B05010A6B0B6B0C6B0D6B05010E6B05
:1058D0000F6B106B116B0501126B136B146B156B57
:1058E0000501166B176B186B196B05011A6B1B6B97
:1058F0001C6B1D6B0501526B536B0501546B556B93
:105900000501566B576B0501586B596B0501296BE7
:1059100058DAB6D901E38BD0A3DA090E1502F3CF1A
:1059200015F01402F3CF14F0F45015260D0E3FDAE3
:10593000320EE76E020EDBCF14F0030E9DD938084D
:105940006FE1020EDBCF08F0030EDBCF09F0081881
:1059500001E1095029E0020E081801E109501BE09D
:10596000010E081801E109500DE0085026E1095028
:1059700024E183DAFE0EEE6E040E6DDA0E0EEE6E8C
:10598000050E1AD07ADA020EEE6E050E64DA120EE9
:10599000EE6E050E11D071DA060EEE6E050E5BDAB4
:1059A000160EEE6E050E08D068DA0A0EEE6E050EC3
:1059B00052DA1A0EEE6E050EED6EE6D9F3D9EBD97A
:1059C000F1D9040EDBCFDEFFDBCFDDFF1CDA040EE6
:1059D000E76E65D90CE223D976D902E09ED9FEE1C3
:1059E000D3D98ED9D1D96DDAF1E3DB2AEFD7040E02
:1059F000E76E9AD908DA080EE76E040E50D910E265
:105A00000ED9040E185E000E195A5DD902E085D930
:105A1000FEE1C1D975D9BFD954DAECE3DB2AEAD764
:105A2000020EDB2A030E01E274D7DB2A72D7C9D932
:105A300027D901E3D7D0E9D8020E03D9FEE1C6D9B0
:105A4000B1D9E3D8020EFDD8FEE155D9ABD9060E87
:105A5000086E096A020EDBCF0DF0030EDBCF0EF0ED
:105A600072EC3CF006C014F007C015F0360E9FD95A
:105A7000010E0EDAFF0838E171D9FF0835E1D9507F
:105A8000020F7BD90BE0D950020FE96E000EDA202D
:105A9000EA6E020EEE1814E1ED5012E1B6D8020ED5
:105AA000D0D8FEE193D9170EEE6E180EF8D9C9D8EA
:105AB000FEE121D90B0EEE6EC00EEE6E020E11D07D
