:04000000FEEF7FF0A0
:101000000031312C30362C323032362C4E6577435D
:10101000616C6962726174696F6E00766172696198
:101020006E743D006D6F6E74683D00796561723D50
:101030000074656C3D006461793D00302C30004ED9
:031040004300006A
:1010440058EC0FF083EC5EF03DEC5EF0310E016E77
:10105400070E026E66EC5EF0280E016E060E026E3E
:1010640066EC5EF088EC50F0000E0001746F000E28
:10107400756F000E766F000E776FBB6BBA6BB96B32
:10108400B86BB76BB66B000E0101706F000E716F19
:10109400000E726F000E736F000E6C6F000E6D6F9A
:1010A400000E6E6F000E6F6F000E686F000E696F9A
:1010B400000E6A6F000E6B6F000E646F000E656F9A
:1010C400000E666F000E676FCAEF08F0D7EC5AF097
:1010D4000201DF6FD890DF3500018C6F8D6B8D3787
:1010E400086A020E076E8CC009F08DC00AF0010E6A
:1010F40042EC52F0086A020E076E010E00018C25C4
:10110400096E000E8D210A6E020E42EC52F0086A3E
:10111400020E076E010ED9EC54F007C08EF108C020
:101124008FF1086A020E076E020ED9EC54F007C064
:101134008CF108C08DF100018C5101018E1909E177
:1011440000018D5101018F19D8A4ABEF08F0ADEF68
:1011540008F0CAEF08F0010E00018C250201DF6FD0
:10116400000E00018D210201E06F01018C5102018A
:10117400DF1909E101018D510201E019D8A4C5EF7D
:1011840008F0C7EF08F0CAEF08F0010E0001A46FE1
:101194000001A451D8B4D1EF08F0D3EF08F068EF00
:1011A40008F076EC56F09A0E1B6E010E1C6E5EEC87
:1011B4003EF0010E0001FE6FB46B030EB465E5EF63
:1011C40008F0E7EF08F0E9EF08F0FEEF08F0B4519B
:1011D400020D9A0EF324D96E010EF420DA6EDE505D
:1011E400DE10D8A4F8EF08F0FAEF08F0FBEF08F0EF
:1011F400FE6BB42BDFEF08F0FE51D8B404EF09F016
:1012040006EF09F008EF09F029EC48F00001FE515F
:10121400D8B40FEF09F011EF09F0D3EF08F0380E4E
:10122400BD19D8A418EF09F01AEF09F00DEF0AF070
:10123400B46B030EB46521EF09F023EF09F025EF39
:1012440009F00DEF0AF0B451040DF350620FD96E9A
:10125400DA6ADE6ADD6AB451040FC76FC70E1B6E0B
:10126400E2EC46F01BC08EF01CC08FF08EC001F083
:101274008FC002F0046A0A0E036ED4EC58F001C069
:101284008EF002C08FF000018F5109E1040E8E5DD3
:10129400D8A04FEF09F051EF09F0F2EF09F0B45183
:1012A400D8B457EF09F059EF09F062EF09F0020ED4
:1012B400B419D8A460EF09F062EF09F099EF09F0CE
:1012C4008EC001F08FC002F0036A046A2C0E056E12
:1012D400270E066E020E076E000E086EAFEC59F074
:1012E40001C00DF002C00EF003C00FF004C010F0F6
:1012F400E80E116E030E126E000E136E000E146EC5
:10130400D4EC55F00DC060F10EC061F10FC062F174
:1013140010C063F10001B451020D4C0EF324D96ED8
:10132400010EF420DA6E830EDE6E050EDD6EB4055A
:10133400D8B49FEF09F0A1EF09F0AAEF09F0030E6A
:10134400B419D8A4A8EF09F0AAEF09F0E1EF09F065
:101354008EC001F08FC002F0036A046A680E056E45
:10136400550E066E010E076E000E086EAFEC59F0B6
:1013740001C00DF002C00EF003C00FF004C010F065
:10138400E80E116E030E126E000E136E000E146E34
:10139400D4EC55F00DC060F10EC061F10FC062F1E4
:1013A40010C063F10001B451020D4C0EF324D96E48
:1013B400010EF420DA6E6A0EDE6E030EDD6EB45199
:1013C400040DF350600FD96EDA6A60C1DEFF61C1AB
:1013D400DDFFB451840FD96EDA6ADF6A0AEF0AF0CE
:1013E400B451040DF350600FD96EDA6ADE6ADD6A17
:1013F400B451020D4C0EF324D96E010EF420DA6EB2
:10140400DE6ADD6AB451840FD96EDA6A010EDF6ECA
:10141400B42B1BEF09F0996B000E986FD09EF28EDF
:10142400F28C9D8A000E6CEC5EF0FA0ECB6E7CC0E2
:101434007CF17DC07DF17EC07EF17FC07FF1000E26
:101444000101786F000E796F000E7A6F000E7B6FCA
:10145400000E066E040E076EC50E086EDE0E096ED3
:10146400010E0A6E5AEC3FF006C084F107C085F104
:10147400010184518511D8A442EF0AF044EF0AF027
:1014840059EF0CF00001C65109E1090EC55DD8A061
:101494004EEF0AF050EF0AF059EF0CF00E6A000E0E
:1014A4000D6E310E0F6E070E106EC5C011F0C6C062
:1014B40012F0DEC113F0DFC114F0B0EC4CF031C710
:1014C400B3F0310E0A6E070E0B6E74EC5BF00AC0BB
:1014D40088F10BC089F135C7B2F036C7B1F0310ECF
:1014E400016E070E026E44EC59F00001AE6F310E2E
:1014F400096E070E0A6E000E0B6E030E0C6E12ECD4
:1015040050F0310E0A6E070E0B6EE4EC59F00AC06F
:101514008AF00BC08BF00001B2510201DF6FE06B67
:10152400D7EC5AF00201E16FE26B300EE127000EB6
:10153400E223DF51E11907E1E051E219D8A4A5EF54
:101544000AF0A7EF0AF059EF0CF00101B26B0001A9
:10155400AE51D8B4B0EF0AF0B2EF0AF0EBEF0AF0F4
:10156400B20E016E010E026E88C103F089C104F04F
:10157400066A030E056E000E076EA1EC35F0B20E7E
:10158400016E010E026EB2C003F0000E046E9BECFD
:1015940058F0B20E016E010E026EB1C003F0000EDF
:1015A400046E9BEC58F0B20E016E010E026EAEC0DA
:1015B40003F0000E046E9BEC58F0B20E016E010EA7
:1015C400026E230E036E000E046E9BEC58F00EEFB9
:1015D4000BF0B20E016E010E026E88C103F089C1D8
:1015E40004F0066A030E056E000E076EA1EC35F0DA
:1015F400B20E016E010E026EB2C003F0000E046E54
:101604009BEC58F0B20E016E010E026EB1C003F0F5
:10161400000E046E9BEC58F00101876B000E866F80
:101624008B6B000E8A6F2AEF0BF0310E8A25D96E70
:10163400070E8B21DA6EDF500201DF6F0101865144
:101644000201DF190101866F8751876F8A4B8B2B4B
:10165400310E8A25D96E070E8B21DA6E030EDE1841
:10166400D8A437EF0BF039EF0BF017EF0BF00001B4
:101674008A510101861909E100018B510101871981
:10168400D8A447EF0BF049EF0BF053EF0BF0020E29
:101694000001B319D8B451EF0BF053EF0BF0BAEFCC
:1016A4000BF0000EE8CF31F7310E016E070E026E1B
:1016B4001A0E036E000E046E9BEC58F0310E016E90
:1016C400070E026EB20E036E010E046E000E056E5E
:1016D4002EEC55F0310E016E070E026E000E036EF5
:1016E400030E046E000E056E2EEC55F0310E016EE5
:1016F400070E026E030E036E000E046E9BEC58F090
:10170400310E016E070E026E00EC5BF001C08AF030
:1017140002C08BF0000EE8CF28F6280E016E060EEC
:10172400026E310E036E070E046E000E056E2EEC73
:1017340055F0280E016E060E026E8AC003F08BC0AF
:1017440004F0FF0E066E0568000E076EA1EC35F07E
:101754000E6A010E0D6E280E0F6E060E106E26EC2C
:1017640056F00E6A010E0D6EFAEC50F059EF0CF0C3
:10177400000EF56F030EF66F480EF76F020EF86F4A
:10178400B1510DEC53F00001B06F000EE8CF31F70A
:10179400B051D8A4D0EF0BF0D2EF0BF021EF0CF046
:1017A40048C2DCF10101DD6BDC0E016E010E026E3C
:1017B40090EC4AF001500001AF6FAF51D8A4E5EFAF
:1017C4000BF0E7EF0BF015EF0CF0310E016E070E86
:1017D400026E060E036E000E046E9BEC58F0310E82
:1017E400016E070E026EB20E036E010E046E000E41
:1017F400056E2EEC55F0310E016E070E026E480E8A
:10180400036E020E046E000E056E2EEC55F0310EC2
:10181400016E070E026E030E036E000E046E9BEC47
:1018240058F04DEF0CF0310E016E070E026E150EDE
:10183400036E000E046E9BEC58F0F1EF0BF0310ECA
:10184400016E070E026E1A0E036E000E046E9BEC00
:1018540058F0310E016E070E026EB20E036E010EC9
:10186400046E000E056E2EEC55F0310E016E070E5F
:10187400026E000E036E030E046E000E056E2EEC57
:1018840055F0310E016E070E026E030E036E000E4C
:10189400046E9BEC58F0310E016E070E026E00ECE4
:1018A4005BF001C08AF002C08BF08CEF0BF00001FA
:1018B4008405D8A460EF0CF062EF0CF070EF0CF02C
:1018C400C76BC70E026EFAEC49F002C070F103C098
:1018D40071F10101726B736B79EF0CF0000E010171
:1018E400706F000E716F000E726F000E736F000147
:1018F4008505D8A480EF0CF082EF0CF091EF0CF08A
:10190400010EC76FC70E026EFAEC49F002C06CF10B
:1019140003C06DF101016E6B6F6B9AEF0CF0000E5A
:1019240001016C6F000E6D6F000E6E6F000E6F6F15
:1019340000018605D8A4A1EF0CF0A3EF0CF0B2EFE0
:101944000CF0020EC76FC70E026EFAEC49F002C02B
:1019540068F103C069F101016A6B6B6BBBEF0CF0BA
:10196400000E0101686F000E696F000E6A6F000EB1
:101974006B6F00018705D8A4C2EF0CF0C4EF0CF024
:10198400D3EF0CF0030EC76FC70E026EFAEC49F0EA
:1019940002C064F103C065F10101666B676BDCEFA3
:1019A4000CF0000E0101646F000E656F000E666F8F
:1019B400000E676F74C070F075C071F076C072F07D
:1019C40077C073F070C02AF071C02BF072C02CF095
:1019D40073C02DF0190E2E6E000E2F6E000E306E99
:1019E400000E316E58EC57F02A502B102C102D108D
:1019F400D8A4FFEF0CF001EF0DF0ADEF0DF00001F6
:101A0400B951D8A408EF0DF00AEF0DF0AFEF0DF0C7
:101A140084C074F185C075F186C076F187C077F112
:101A240005EC33F000018405D8A41BEF0DF01DEF85
:101A34000DF039EF0DF001017451D8A424EF0DF02D
:101A440026EF0DF039EF0DF07CC07CF17DC07DF107
:101A54007EC07EF17FC07FF170C078F171C079F1F2
:101A640072C07AF173C07BF1010E0001B76F0001FF
:101A74008505D8A440EF0DF042EF0DF05EEF0DF0B8
:101A840001017551D8A449EF0DF04BEF0DF05EEF55
:101A94000DF07CC07CF17DC07DF17EC07EF17FC005
:101AA4007FF170C078F171C079F172C07AF173C0BE
:101AB4007BF1010E0001B76F00018605D8A465EF24
:101AC4000DF067EF0DF083EF0DF001017651D8A40E
:101AD4006EEF0DF070EF0DF083EF0DF07CC07CF134
:101AE4007DC07DF17EC07EF17FC07FF170C078F152
:101AF40071C079F172C07AF173C07BF1010E0001FB
:101B0400B76F00018705D8A48AEF0DF08CEF0DF0B4
:101B1400A8EF0DF001017751D8A493EF0DF095EFE4
:101B24000DF0A8EF0DF07CC07CF17DC07DF17EC08E
:101B34007EF17FC07FF170C078F171C079F172C01D
:101B44007AF173C07BF1010E0001B76F010E000141
:101B5400B96FAFEF0DF00001B96B74C070F075C0D0
:101B640071F076C072F077C073F070C02AF071C063
:101B74002BF072C02CF073C02DF0CD0E2E6E000E23
:101B84002F6E000E306E000E316E58EC57F02A5056
:101B94002B102C102D10D8A4D2EF0DF0D4EF0DF093
:101BA400ECEF0DF00001BE05D8A4DBEF0DF0DDEF86
:101BB4000DF0ECEF0DF0B651D8A4E3EF0DF0E5EF26
:101BC4000DF0EEEF0DF0B9EC28F0010E0001B66F48
:101BD400EEEF0DF00001B66B74C070F075C071F0DB
:101BE40076C072F077C073F070C02AF071C02BF029
:101BF40072C02CF073C02DF0FB0E2E6E000E2F6EF3
:101C0400000E306E000E316E58EC57F02A502B1037
:101C14002C102D10D8A411EF0EF013EF0EF026EFB8
:101C24000EF0ABB218EF0EF01AEF0EF021EF0EF03B
:101C3400ABA41FEF0EF021EF0EF026EF0EF0AB98E1
:101C44000000AB88AB9EAB8E74C070F075C071F0B1
:101C540076C072F077C073F070C02AF071C02BF0B8
:101C640072C02CF073C02DF0E80E2E6E030E2F6E92
:101C7400000E306E000E316E58EC57F02A502B10C7
:101C84002C102D10D8B449EF0EF04BEF0EF0F1EFFD
:101C94000EF00001B551D8A452EF0EF054EF0EF03F
:101CA400F3EF0EF00101D051D111D211D311D8B4F8
:101CB4005EEF0EF060EF0EF07AEF0EF00001840597
:101CC400D8A467EF0EF069EF0EF07AEF0EF0310E44
:101CD4002F6E70C130F071C131F072C132F073C136
:101CE40033F0410E35EC1EF02FC09CF030C09DF057
:101CF4000101C851C911CA11CB11D8B484EF0EF037
:101D040086EF0EF0A0EF0EF000018505D8A48DEF4C
:101D14000EF08FEF0EF0A0EF0EF0320E2F6E6CC1AE
:101D240030F06DC131F06EC132F06FC133F0410E4D
:101D340035EC1EF02FC09AF030C09BF00101D85151
:101D4400D911DA11DB11D8B4AAEF0EF0ACEF0EF012
:101D5400C6EF0EF000018605D8A4B3EF0EF0B5EF80
:101D64000EF0C6EF0EF0310E2F6E68C130F069C16F
:101D740031F06AC132F06BC133F0420E35EC1EF023
:101D84002FC092F130C093F10101C051C111C211B1
:101D9400C311D8B4D0EF0EF0D2EF0EF0ECEF0EF08A
:101DA40000018705D8A4D9EF0EF0DBEF0EF0ECEFBD
:101DB4000EF0320E2F6E64C130F065C131F066C191
:101DC40032F067C133F0420E35EC1EF02FC090F1B3
:101DD40030C091F1010E0001B56FF3EF0EF0000178
:101DE400B56B74C070F075C071F076C072F077C0D6
:101DF40073F07CC109F07DC10AF07EC10BF07FC194
:101E04000CF078C105F079C106F07AC107F07BC106
:101E140008F074C001F075C002F076C003F077C01A
:101E240004F0A8EC4EF001C02AF002C02BF003C06D
:101E34002CF004C02DF07CC12EF07DC12FF07EC1AA
:101E440030F07FC131F058EC57F02A502B102C1091
:101E54002D10D8A430EF0FF032EF0FF052EF0FF047
:101E64000001B751D8A439EF0FF03BEF0FF02AEF80
:101E74000AF070C078F171C079F172C07AF173C060
:101E84007BF18AEC22F052C07CF153C07DF154C046
:101E94007EF155C07FF1010E0001B76F2AEF0AF001
:101EA4000001B76B2AEF0AF0FEEF7FF0000E00018D
:101EB400746F000E756F000E766F000E776F160E3E
:101EC4000101FD6F3F0EFE6F400E0001FD6F900E8D
:101ED4000101FF6F400EFC6FF96B060EF86F030EE5
:101EE400F76F200EF66F030EFB6F200EFA6F446A35
:101EF400000E436E6C0E4324016E010E4420026EEC
:101F04002FEC5EF0434A442A445009E1040E435C3A
:101F1400D8A08FEF0FF091EF0FF07CEF0FF0010ED0
:101F2400026E6C0E016E2FEC5EF0246E010E026EDA
:101F34006D0E016E2FEC5EF0256E24500001966F3D
:101F440025C097F0010E026E6E0E016E2FEC5EF04E
:101F5400246E010E026E6F0E016E2FEC5EF0256E84
:101F640024500001946F25C095F0010E026E700E8E
:101F7400016E2FEC5EF0246E010E026E710E016E86
:101F84002FEC5EF0256E24500001926F25C093F073
:101F9400010E026E720E016E2FEC5EF0246E010EC5
:101FA400026E730E016E2FEC5EF0256E245000015C
:101FB400906F25C091F02D0E965D010E9759D8A013
:101FC400E6EF0FF0E8EF0FF0F1EF0FF0310E1F6EB8
:101FD400010E216E2C0E206E410E15EC42F0910E76
:101FE4000001945D010E9559D8A0FBEF0FF0FDEFB1
:101FF4000FF006EF10F0320E1F6E010E216E900EE0
:10200400206E410E15EC42F00001935109E1C90E16
:10201400925DD8A010EF10F012EF10F01BEF10F04B
:10202400310E1F6E010E216E2C0E206E420E15EC29
:1020340042F05F0E0001905D010E9159D8A025EF8A
:1020440010F027EF10F030EF10F0320E1F6E010E7B
:10205400216E900E206E420E15EC42F0010E026EBF
:10206400740E016E2FEC5EF0246E010E026E750E7E
:10207400016E2FEC5EF0256E2450376E25C038F0CB
:10208400010E026E760E016E2FEC5EF0246E010ED0
:10209400026E770E016E2FEC5EF0256E2450396EC1
:1020A40025C03AF03950375C3A503858D8B05DEF13
:1020B40010F05FEF10F071EF10F039503A10D8B40F
:1020C40066EF10F068EF10F071EF10F03750381031
:1020D400D8A46FEF10F071EF10F0FAEF10F0300E9B
:1020E40000017C6F750E7D6F000E7E6F000E7F6F9A
:1020F400E00E786F930E796F040E7A6F000E7B6F8B
:10210400010E1B6E750E1A6E7CC00DF07DC00EF0B4
:102114007EC00FF07FC010F0980E116E3A0E126E52
:10212400000E136E000E146ED4EC55F00EC00DF0BC
:102134000FC00EF010C00FF0106A0D501C6E1DEC95
:102144005CF0010E1B6E740E1A6E7CC00DF07DC027
:102154000EF07EC00FF07FC010F0980E116E3A0E94
:10216400126E000E136E000E146ED4EC55F00D506A
:102174001C6E1DEC5CF0010E1B6E770E1A6E78C09F
:102184000DF079C00EF07AC00FF07BC010F0980EFD
:10219400116E3A0E126E000E136E000E146ED4EC15
:1021A40055F00EC00DF00FC00EF010C00FF0106A05
:1021B4000D501C6E1DEC5CF0010E1B6E760E1A6E3B
:1021C40078C00DF079C00EF07AC00FF07BC010F02B
:1021D400980E116E3A0E126E000E136E000E146EEF
:1021E400D4EC55F00D501C6E1DEC5CF02AEF11F090
:1021F40037C001F038C002F0036A046A980E056E15
:102204003A0E066E000E076E000E086EAFEC59F023
:1022140001C07CF002C07DF003C07EF004C07FF0FA
:1022240039C001F03AC002F0036A046A980E056EE0
:102234003A0E066E000E076E000E086EAFEC59F0F3
:1022440001C078F002C079F003C07AF004C07BF0DA
:102254000001A86BA76BA66BA56BE00EC36F120EF3
:10226400C26FAD6B3F0EAC6F900EAB6F070EC46FB9
:10227400800EAA6F7C0EC16F070EA96FACC092FFCF
:10228400ADC080FFC2C093FFC3C081FFABC094FF49
:10229400C4C082FFAAC095FFC1C083FFA9C096FF36
:1022A400E00E7E6E7F6AA40EC06EC16A0101956B5A
:1022B400000E946FAC6AAB6AAC84210EAF6EB06A48
:1022C400AC98AC8AAB8EAB88026A000E016E77ECD8
:1022D4005EF0026A000E016E72EC5EF0A282A092C1
:1022E400010E016E010E026E000E9CEC57F060ECC4
:1022F40058F0BDEC5BF0096A000E086E000E1FEC8E
:1023040058F0446A000E436E4350040DF350600FBE
:10231400D96EDA6ADE6ADD6A4350040DF350620F47
:10232400D96EDA6ADE6ADD6AD8904334D96E4434F1
:10233400DA6E4C0ED926010EDA22DE6ADD6A4350CB
:10234400840FD96EDA6A010EDF6ED8904334D96EE9
:102354004434DA6E3C0ED926010EDA22DE6ADD6AD6
:10236400D8904334D96E4434DA6E440ED926010E23
:10237400DA22DE6ADD6A434A442A445009E1040E43
:10238400435CD8A0C8EF11F0CAEF11F086EF11F04A
:102394000001BE6B650EBF6F60C008F061C009F03C
:1023A400100E1FEC58F064C008F065C009F0200E50
:1023B4001FEC58F068C008F069C009F0300E1FEC3B
:1023C40058F06CC008F06DC009F0400E1FEC58F0D6
:1023D400000E0101D06F000ED16F000ED26F000EFF
:1023E400D36F000EC86F000EC96F000ECA6F000EC7
:1023F400CB6F000ED86F000ED96F000EDA6F000E8F
:10240400DB6F000EC06F000EC16F000EC26F000EB6
:10241400C36F000ECC6F000ECD6F000ECE6F000E9A
:10242400CF6F000EC46F000EC56F000EC66F000E96
:10243400C76F000ED46F000ED56F000ED66F000E5E
:10244400D76F000EBC6F000EBD6F000EBE6F000E86
:10245400BF6F00019D6B000E9C6F9B6B000E9A6F0B
:102464000101936B000E926F916B000E906F00014F
:10247400C06B446A000E436E090E4302F3CF24F08E
:10248400F4CF25F04402F35025260D0E2424416E8A
:10249400000E2520426E320E4324016E000E4420AD
:1024A400026E2FEC5EF0380AD8A45BEF12F05DEFF9
:1024B40012F073EF13F087EF12F0D00E3B6E010EA3
:1024C4003C6ECC0E3D6E010E3E6EA5EF12F0C80EB2
:1024D4003B6E010E3C6EC40E3D6E010E3E6EA5EFCA
:1024E40012F0D80E3B6E010E3C6ED40E3D6E010E02
:1024F4003E6EA5EF12F0C00E3B6E010E3C6EBC0E9C
:102504003D6E010E3E6EA5EF12F043C024F044C0B0
:1025140025F02550000AD8B492EF12F0A5EF12F07E
:102524002450000AD8B45FEF12F0010AD8B469EF5E
:1025340012F0030AD8B473EF12F0010AD8B47DEF95
:1025440012F0A5EF12F03BC0D9FF3CC0DAFFDE6AFF
:10255400DE6ADE6ADD6A3DC0D9FF3EC0DAFFDE6AAC
:10256400DE6ADE6ADD6A41C03FF042C040F001EF3E
:1025740013F03BC0D9FF3CC0DAFFDECF24F0DECF3E
:1025840025F0DECF26F0DECF27F041503F5C286EE9
:10259400D8902836D8902836D89028363FC001F0F5
:1025A40040C002F02FEC5EF0296E29C02AF02B6A9D
:1025B4002C6A2D6A282AE4EF12F0D8902A362B369A
:1025C4002C362D36282EDFEF12F024502A242E6EBE
:1025D40025502B202F6E26502C20306E27502D2076
:1025E400316E3BC0D9FF3CC0DAFF2EC0DEFF2FC0E6
:1025F400DEFF30C0DEFF31C0DEFF3F4A402A040E5A
:102604004124246E000E4220256E24503F5C255048
:102614004058D8A010EF13F012EF13F0BBEF12F0F4
:10262400040E41243F6E000E4220406E62EF13F010
:102634003DC0D9FF3EC0DAFFDECF24F0DECF25F067
:10264400DECF26F0DECF27F04150F80DF3CF28F08F
:102654003F50080DF3502824296EE00E29263FC070
:1026640001F040C002F02FEC5EF02A6E2AC02BF07D
:102674002C6A2D6A2E6A292A45EF13F0D8902B363E
:102684002C362D362E36292E40EF13F024502B24D1
:102694002F6E25502C20306E26502D20316E275061
:1026A4002E20326E3DC0D9FF3EC0DAFF2FC0DEFFC0
:1026B40030C0DEFF31C0DEFF32C0DEFF3F4A402AB9
:1026C400080E4124246E000E4220256E24503F5CE7
:1026D40025504058D8A071EF13F073EF13F01AEFA0
:1026E40013F0434A442A445009E1040E435CD8A041
:1026F4007EEF13F080EF13F03EEF12F0446A000E09
:10270400436E140E246E010E256ED8904334D96E98
:102714004434DA6ED890D936DA362450D926255086
:10272400DA22DE6ADE6ADE6ADD6A240E246E010EB7
:10273400256ED8904334D96E4434DA6ED890D936A5
:10274400DA362450D9262550DA22DE6ADE6ADE6AB9
:10275400DD6A060E4302F3CF24F0F4CF25F04402E1
:10276400F3502526360E2424416E000E2520426E99
:10277400010E4124016E000E4220026E2FEC5EF029
:10278400FF0AD8A4C8EF13F0CAEF13F04FEF14F008
:1027940041C001F042C002F02FEC5EF0FF0AD8A461
:1027A400D6EF13F0D8EF13F04FEF14F0435044106A
:1027B400D8B4DFEF13F0E1EF13F0EBEF13F0020EF8
:1027C40043184410D8A4E9EF13F0EBEF13F01DEF16
:1027D40014F0140E246E010E256ED8904334D96E75
:1027E4004434DA6ED890D936DA362450D9262550B6
:1027F400DA22170EDE6E180EDE6E000EDE6E000E8E
:10280400DD6E240E246E010E256ED8904334D96EED
:102814004434DA6ED890D936DA362450D926255085
:10282400DA220B0EDE6EC00EDE6E020EDE6E000EBF
:10283400DD6E68EF15F0140E246E010E256ED8902F
:102844004334D96E4434DA6ED890D936DA3624500B
:10285400D9262550DA225B0EDE6E260EDE6E000EC1
:10286400DE6E000EDD6E240E246E010E256ED890F1
:102874004334D96E4434DA6ED890D936DA362450DB
:10288400D9262550DA22CA0EDE6E370EDE6E0A0E07
:10289400DE6E000EDD6E68EF15F0010E4124016E50
:1028A400000E4220026E2FEC5EF0246E24C025F050
:1028B400266A276A286A27C028F026C027F025C080
:1028C40026F0256A41C001F042C002F02FEC5EF010
:1028D400296E295025242A6E000E26202B6E000E08
:1028E40027202C6E000E28202D6E140E2E6E010E45
:1028F4002F6ED8904334D96E4434DA6ED890D936DA
:10290400DA362E50D9262F50DA222AC0DEFF2BC009
:10291400DEFF2CC0DEFF2DC0DEFF240E246E010E70
:10292400256ED8904334D96E4434DA6ED890D936B3
:10293400DA362450D9262550DA22DE6ADE6ADE6AC7
:10294400DD6A020E41243F6E000E4220406E0BEF02
:1029540015F0240E246E010E256ED8904334D96EE2
:102964004434DA6ED890D936DA362450D926255034
:10297400DA22DECF26F0DECF27F0DECF28F0DECF5E
:1029840029F04150F80DF3CF2AF03F50080DF350D1
:102994002A242B6EF00E2B263FC001F040C002F01B
:1029A4002FEC5EF02C6E2CC02DF02E6A2F6A306A4C
:1029B4002B2AE2EF14F0D8902D362E362F363036EF
:1029C4002B2EDDEF14F026502D24316E27502E20AF
:1029D400326E28502F20336E29503020346E240E4E
:1029E400356E010E366ED8904334D96E4434DA6EA7
:1029F400D890D936DA363550D9263650DA2231C055
:102A0400DEFF32C0DEFF33C0DEFF34C0DEFF3F4AEC
:102A1400402A050E4124246E000E4220256E2450C7
:102A24003F5C25504058D8A01AEF15F01CEF15F064
:102A3400ABEF14F0050E4124016E000E4220026E2D
:102A44002FEC5EF00009D8A42AEF15F02CEF15F056
:102A540068EF15F0240E246E010E256ED8904334D1
:102A6400D96E4434DA6ED890D936DA362450D92661
:102A74002550DA22DECF26F0DECF27F0DECF28F095
:102A8400DECF29F0265000082A6E000E27542B6E44
:102A9400000E28542C6E000E29542D6E240E2E6E1A
:102AA400010E2F6ED8904334D96E4434DA6ED89028
:102AB400D936DA362E50D9262F50DA222AC0DEFF34
:102AC4002BC0DEFF2CC0DEFF2DC0DEFF434A442AAC
:102AD400445009E1040E435CD8A073EF15F075EF80
:102AE40015F083EF13F0026A310E016E2FEC5EF0E5
:102AF4000001BD6F1200010E0001D66F010EDB6FE5
:102B040052C0D9FF53C0DAFF410EDE18D8B48DEF9E
:102B140015F08FEF15F09CEF15F052C0D9FF53C09C
:102B2400DAFF420EDE18D8A49AEF15F09CEF15F0E8
:102B340058EF16F020EE01F05250D9265350DA2205
:102B44002C0EDE18D8A4A9EF15F0ABEF15F058EF52
:102B540016F020EE02F05250D9265350DA22310EEC
:102B6400DE18D8B4B8EF15F0BAEF15F0C9EF15F0C8
:102B740020EE02F05250D9265350DA22320EDE18DB
:102B8400D8A4C7EF15F0C9EF15F058EF16F020EEF2
:102B940003F05250D9265350DA222C0EDE18D8A452
:102BA400D6EF15F0D8EF15F058EF16F020EE04F03C
:102BB4005250D9265350DA222B0EDE18D8B4E5EF42
:102BC40015F0E7EF15F0F6EF15F020EE04F0525093
:102BD400D9265350DA222D0EDE18D8A4F4EF15F0BE
:102BE400F6EF15F058EF16F020EE05F05250D92606
:102BF4005350DA222C0EDE18D8A403EF16F005EF9A
:102C040016F058EF16F0060ED76F1AEF16F0D751DC
:102C14005224D96E000E5320DA6ED7C056F0FA0E45
:102C240056265650CA0FE16EE26ADFCFE7FFD72B74
:102C3400D7515224D96E000E5320DA6EDF50D8B427
:102C440026EF16F028EF16F037EF16F0D75152247E
:102C5400D96E000E5320DA6E2C0EDE18D8A435EF90
:102C640016F037EF16F009EF16F0D7C056F0FA0E4B
:102C740056265650CA0FD96EDA6ADF6AD7515224E3
:102C8400D96E000E5320DA6EDF50D8A44CEF16F044
:102C94004EEF16F058EF16F0060ED719D8B455EFCC
:102CA40016F057EF16F058EF16F0D66BD651D8A49D
:102CB4005EEF16F060EF16F053EF19F052C0D9FF33
:102CC40053C0DAFFDF50D56F20EE02F05250D92600
:102CD4005350DA22DF50D46F20EE04F05250D9263C
:102CE4005350DA22DF50D86FCA0E1A6ED90E1B6EFB
:102CF40063EC3BF00001D66F410ED519D8A485EFE3
:102D040016F087EF16F032EF17F0310ED419D8A46D
:102D14008EEF16F090EF16F032EF17F0D651D8A4DC
:102D240096EF16F098EF16F032EF17F08405D8A45A
:102D34009EEF16F0A0EF16F015EF17F02B0ED81932
:102D4400D8A4A7EF16F0A9EF16F0D9EF16F0D951D1
:102D54006227DA51632362C060F063C061F062C02D
:102D640008F063C009F0000E1FEC58F054C0D9FFFE
:102D740055C0DAFF300EDF6E20EE01F05450D92634
:102D84005550DA227C0EDF6E20EE02F05450D92624
:102D94005550DA22DF6A54C008F055C009F062C009
:102DA4000AF063C00BF0000E0C6EEBEC2FF02D0E4E
:102DB4000001D819D8A4E1EF16F0E3EF16F032EFD2
:102DC40017F0D951625FDA51635B62C060F063C08F
:102DD40061F062C008F063C009F0000E1FEC58F007
:102DE40054C0D9FF55C0DAFF300EDF6E20EE01F07B
:102DF4005450D9265550DA227C0EDF6E20EE02F0B4
:102E04005450D9265550DA22DF6A54C008F055C010
:102E140009F062C00AF063C00BF0000E0C6EEBEC1C
:102E24002FF032EF17F054C0D9FF55C0DAFF300E3F
:102E3400DF6E20EE01F05450D9265550DA227C0E74
:102E4400DF6E20EE02F05450D9265550DA224E0E91
:102E5400DF6E20EE03F05450D9265550DA22DF6A93
:102E6400410E0001D519D8A43AEF17F03CEF17F042
:102E7400E7EF17F0320ED419D8A443EF17F045EF5B
:102E840017F0E7EF17F0D651D8A44BEF17F04DEF3A
:102E940017F0E7EF17F08505D8A453EF17F055EFB7
:102EA40017F0CAEF17F02B0ED819D8A45CEF17F05F
:102EB4005EEF17F08EEF17F0D9516627DA516723CA
:102EC40066C064F067C065F066C008F067C009F0CA
:102ED400100E1FEC58F054C0D9FF55C0DAFF300E65
:102EE400DF6E20EE01F05450D9265550DA227C0EC4
:102EF400DF6E20EE02F05450D9265550DA22DF6AF4
:102F040054C008F055C009F066C00AF067C00BF061
:102F1400000E0C6EEBEC2FF02D0E0001D819D8A486
:102F240096EF17F098EF17F0E7EF17F0D951665FB7
:102F3400DA51675B66C064F067C065F066C008F08C
:102F440067C009F0100E1FEC58F054C0D9FF55C0EB
:102F5400DAFF300EDF6E20EE01F05450D9265550C2
:102F6400DA227C0EDF6E20EE02F05450D926555042
:102F7400DA22DF6A54C008F055C009F066C00AF0CE
:102F840067C00BF0000E0C6EEBEC2FF0E7EF17F0C0
:102F940054C0D9FF55C0DAFF300EDF6E20EE01F0C9
:102FA4005450D9265550DA227C0EDF6E20EE02F002
:102FB4005450D9265550DA224E0EDF6E20EE03F01F
:102FC4005450D9265550DA22DF6A420E0001D51931
:102FD400D8A4EFEF17F0F1EF17F09CEF18F0310ED3
:102FE400D419D8A4F8EF17F0FAEF17F09CEF18F003
:102FF400D651D8A400EF18F002EF18F09CEF18F0A7
:103004008605D8A408EF18F00AEF18F07FEF18F03F
:103014002B0ED819D8A411EF18F013EF18F043EFC2
:1030240018F0D9516A27DA516B236AC068F06BC073
:1030340069F06AC008F06BC009F0200E1FEC58F06C
:1030440054C0D9FF55C0DAFF300EDF6E20EE01F018
:103054005450D9265550DA227C0EDF6E20EE02F051
:103064005450D9265550DA22DF6A54C008F055C0AE
:1030740009F06AC00AF06BC00BF0000E0C6EEBECAA
:103084002FF02D0E0001D819D8A44BEF18F04DEFF6
:1030940018F09CEF18F0D9516A5FDA516B5B6AC083
:1030A40068F06BC069F06AC008F06BC009F0200ECC
:1030B4001FEC58F054C0D9FF55C0DAFF300EDF6E54
:1030C40020EE01F05450D9265550DA227C0EDF6EE2
:1030D40020EE02F05450D9265550DA22DF6A54C04B
:1030E40008F055C009F06AC00AF06BC00BF0000E7E
:1030F4000C6EEBEC2FF09CEF18F054C0D9FF55C0C8
:10310400DAFF300EDF6E20EE01F05450D926555010
:10311400DA227C0EDF6E20EE02F05450D926555090
:10312400DA224E0EDF6E20EE03F05450D9265550AD
:10313400DA22DF6A420E0001D519D8A4A4EF18F0F0
:10314400A6EF18F081EF19F0320ED419D8A4ADEF20
:1031540018F0AFEF18F081EF19F0D651D8A4B5EFFD
:1031640018F0B7EF18F081EF19F08705D8A4BDEF78
:1031740018F0BFEF18F034EF19F02B0ED819D8A4BB
:10318400C6EF18F0C8EF18F0F8EF18F0D9516E2711
:10319400DA516F236EC06CF06FC06DF06EC008F032
:1031A4006FC009F0300E1FEC58F054C0D9FF55C061
:1031B400DAFF300EDF6E20EE01F05450D926555060
:1031C400DA227C0EDF6E20EE02F05450D9265550E0
:1031D400DA22DF6A54C008F055C009F06EC00AF064
:1031E4006FC00BF0000E0C6EEBEC2FF02D0E0001F7
:1031F400D819D8A400EF19F002EF19F081EF19F0F3
:10320400D9516E5FDA516F5B6EC06CF06FC06DF0B8
:103214006EC008F06FC009F0300E1FEC58F054C0B7
:10322400D9FF55C0DAFF300EDF6E20EE01F05450A6
:10323400D9265550DA227C0EDF6E20EE02F054506F
:10324400D9265550DA22DF6A54C008F055C009F077
:103254006EC00AF06FC00BF0000E0C6EEBEC2FF09A
:1032640081EF19F054C0D9FF55C0DAFF300EDF6E7C
:1032740020EE01F05450D9265550DA227C0EDF6E30
:1032840020EE02F05450D9265550DA224E0EDF6E4D
:1032940020EE03F05450D9265550DA22DF6A81EF2C
:1032A40019F0DB51300F54C0D9FF55C0DAFFDF6E7F
:1032B40020EE01F05450D9265550DA227C0EDF6EF0
:1032C40020EE02F05450D9265550DA224E0EDF6E0D
:1032D40020EE03F05450D9265550DA224F0EDF6EFB
:1032E40020EE04F05450D9265550DA224B0EDF6EEE
:1032F40020EE05F05450D9265550DA22DF6A000E2C
:1033040012002B50800B346E2B502B24366E2AAEB9
:103314008EEF19F090EF19F091EF19F036803650D6
:10332400D8B497EF19F099EF19F0ADEF19F03628EA
:10333400D8A49FEF19F0A1EF19F0A9EF19F0000E2E
:10334400286E000E296E000E2A6E000E2B6E2A8E39
:103354002B6AB5EF19F0000E286E000E296E000ED0
:103364002A6E000E2B6E2F50800B356E345035189C
:10337400D8B4BFEF19F0C1EF19F0C2EF19F0348CD3
:103384002F502F24356E2EAECAEF19F0CCEF19F062
:10339400CDEF19F035803550D8B4D3EF19F0D5EF0F
:1033A40019F0E9EF19F03528D8A4DBEF19F0DDEFB7
:1033B40019F0E5EF19F0000E2C6E000E2D6E000EC4
:1033C4002E6E000E2F6E2E8E2F6AF1EF19F0000E66
:1033D4002C6E000E2D6E000E2E6E000E2F6E3650CB
:1033E400355CD8B0F8EF19F0FAEF19F021EF1AF0C4
:1033F40034ACFFEF19F001EF1AF003EF1AF0800E6E
:10340400341A36C037F035C036F037C035F028C02E
:1034140037F02CC028F037C02CF029C037F02DC06D
:1034240029F037C02DF02AC037F02EC02AF037C05B
:103434002EF02BC037F02FC02BF037C02FF0376A97
:10344400365035C030F0316A305E000E315A31BE2C
:1034540035EF1AF0315009E11A0E305CD8A035EF7F
:103464001AF037EF1AF06EEF1AF0285029102A10CC
:103474002B10D8A440EF1AF043EF1AF0010E44EFDA
:103484001AF0000E376E000E286E000E296E000E24
:103494002A6E000E2B6E35C036F077EF1AF037A087
:1034A40056EF1AF058EF1AF05EEF1AF0D890373052
:1034B4000109376E60EF1AF0D890373228A065EF13
:1034C4001AF067EF1AF068EF1AF0378E2B342B32AC
:1034D4002A3229322832362A3550365CD8A075EF84
:1034E4001AF077EF1AF051EF1AF034BC7CEF1AF0AF
:1034F4007EEF1AF0BEEF1AF03650D8A484EF1AF01B
:1035040086EF1AF090EF1AF0000E286E000E296E66
:10351400000E2A6E000E2B6EDDEF1BF02C502826B9
:103524002D5029222E502A222F502B222BA09DEFE2
:103534001AF09FEF1AF04BEF1BF037A0A4EF1AF02C
:10354400A6EF1AF0ACEF1AF0D89037300109376EB5
:10355400AEEF1AF0D890373228A0B3EF1AF0B5EFD7
:103564001AF0B6EF1AF0378E2B342B322A32293266
:103574002832362A4BEF1BF02C50285C2D5029584A
:103584002E502A582B50800A306E2F50800A305803
:10359400D8B0CFEF1AF0D1EF1AF0FCEF1AF02850A0
:1035A4002C5C306E29502D58316E2A502E58326EB4
:1035B4002B502F58336EFF0E3024286EFF0E31200F
:1035C400296EFF0E32202A6EFF0E33202B6E800EE2
:1035D400341A376C3750D8A4F2EF1AF0F4EF1AF01B
:1035E40004EF1BF0010E2826000E29222A222B228A
:1035F40004EF1BF02C50285E2D50295A2E502A5AC5
:103604002F502B5A285029102A102B10D8A40DEF14
:103614001BF00FEF1BF044EF1BF03750D8A415EF4D
:103624001BF017EF1BF044EF1BF0000E286E000E8A
:10363400296E000E2A6E000E2B6EDDEF1BF0D89063
:10364400283629362A362B3637AE2BEF1BF02DEFD2
:103654001BF02EEF1BF0288037A033EF1BF035EF63
:103664001BF039EF1BF0D88037363BEF1BF0D890B6
:1036740037363650D8B441EF1BF043EF1BF044EF1C
:103684001BF036062AAE49EF1BF04BEF1BF021EF7F
:103694001BF0356A37AE51EF1BF053EF1BF06BEFA5
:1036A4001BF037C030F07F0E3016D8B45CEF1BF03F
:1036B4005EEF1BF062EF1BF0010E356E6BEF1BF03B
:1036C40028A067EF1BF069EF1BF06BEF1BF05EEFB8
:1036D4001BF03550D8B471EF1BF073EF1BF09EEF65
:1036E4001BF0010E2826000E29222A222B222BA0B1
:1036F4007EEF1BF080EF1BF09EEF1BF028C030F034
:1037040029C031F02AC032F02BC033F033343332C5
:1037140032323132303230C028F031C029F032C078
:103724002AF033C02BF03628D8B49BEF1BF09DEF62
:103734001BF09EEF1BF0362A3628D8B4A4EF1BF0FA
:10374400A6EF1BF0AEEF1BF03650D8A4ACEF1BF085
:10375400AEEF1BF0BFEF1BF0000E286E000E296EBB
:10376400000E2A6E000E2B6E3650D8A4BCEF1BF050
:10377400BEEF1BF0BFEF1BF0346A36A0C4EF1BF0A2
:10378400C6EF1BF0C9EF1BF02A8ECAEF1BF02A9E6E
:10379400D89036302B6E34AED2EF1BF0D4EF1BF042
:1037A400D5EF1BF02B8E28C028F029C029F02AC0A1
:1037B4002AF02BC02BF012004F6E010E3A6E000E51
:1037C400366E000E376E000E386E000E396E000E27
:1037D400456E000E466E000E476E000E486E000EDB
:1037E4003D6E000E3E6E000E3F6E000E406E516A3E
:1037F400000E506E426A000E416E446A000E436E23
:10380400496A4F50020DF3502F247D0F4E6E2F0442
:10381400D8A40FEF1CF011EF1CF062EF1CF0410E66
:103824004F18D8A418EF1CF01AEF1CF062EF1CF02C
:10383400270E516E2C0E506E50C001F051C002F094
:10384400036A046A2C0E056E010E066E000E076EE6
:10385400000E086EAFEC59F001C00DF002C00EF07E
:1038640003C00FF004C010F0E80E116E030E126EC8
:10387400000E136E000E146ED4EC55F00DC03DF026
:103884000EC03EF00FC03FF010C040F0020E426E7A
:10389400940E416E020E446E980E436E026A4E0EF2
:1038A400016E2FEC5EF00009D8B45BEF1CF05EEF04
:1038B4001CF0010E5FEF1CF0000E496E87EF1DF047
:1038C4002F04D8A468EF1CF06AEF1CF0BBEF1CF0C7
:1038D400420E4F18D8A471EF1CF073EF1CF0BBEF2D
:1038E4001CF0270E516E2C0E506E50C001F051C0CA
:1038F40002F0036A046A2C0E056E010E066E000EB9
:10390400076E000E086EAFEC59F001C00DF002C056
:103914000EF003C00FF004C010F0E80E116E030E99
:10392400126E000E136E000E146ED4EC55F00DC022
:103934003DF00EC03EF00FC03FF010C040F0020E4C
:10394400426EA40E416E020E446EA80E436E026ACD
:103954004F0E016E2FEC5EF00009D8B4B4EF1CF0EA
:10396400B7EF1CF0010EB8EF1CF0000E496E87EFA4
:103974001DF0020E2F18D8A4C2EF1CF0C4EF1CF0E7
:1039840022EF1DF0410E4F18D8A4CBEF1CF0CDEF61
:103994001CF022EF1DF0550E516E680E506E50C093
:1039A40001F051C002F0036A046A900E056E010E24
:1039B400066E000E076E000E086EAFEC59F001C0E3
:1039C4000DF002C00EF003C00FF004C010F0E80EBA
:1039D400116E030E126E000E136E000E146ED4ECF4
:1039E40055F00DC03DF00EC03EF00FC03FF010C0CA
:1039F40040F0020E426E9C0E416E020E446EA00E0A
:103A0400436E3B6A026A500E016E2FEC5EF00009B1
:103A1400D8A40FEF1DF011EF1DF01EEF1DF0910E55
:103A2400305C010E3158D8B01AEF1DF01CEF1DF0B8
:103A34001EEF1DF0010E3B6E3BC049F087EF1DF0F9
:103A4400020E2F18D8A429EF1DF02BEF1DF087EFDD
:103A54001DF0420E4F18D8A432EF1DF034EF1DF0C4
:103A640087EF1DF0550E516E680E506E50C001F078
:103A740051C002F0036A046A900E056E010E066ED0
:103A8400000E076E000E086EAFEC59F001C00DF089
:103A940002C00EF003C00FF004C010F0E80E116E67
:103AA400030E126E000E136E000E146ED4EC55F05D
:103AB4000DC03DF00EC03EF00FC03FF010C040F00E
:103AC400020E426EAC0E416E020E446EB00E436E98
:103AD4003C6A026A510E016E2FEC5EF00009D8A414
:103AE40076EF1DF078EF1DF085EF1DF0910E305C40
:103AF400010E3158D8B081EF1DF083EF1DF085EF32
:103B04001DF0010E3C6E3CC049F050505110D8B429
:103B14008EEF1DF090EF1DF033EF1EF030C001F07A
:103B240031C002F0036A046A50C005F051C006F0C7
:103B3400076A086AAFEC59F001C00DF002C00EF03C
:103B440003C00FF004C010F0E80E116E030E126EE5
:103B5400000E136E000E146ED4EC55F00DC045F03B
:103B64000EC046F00FC047F010C048F04950D8B41A
:103B7400BEEF1DF0C0EF1DF0E5EF1DF030C021F0E9
:103B840031C022F041C023F042C024F043C025F0EC
:103B940044C026F0C4EC56F021C04AF022C04BF0D9
:103BA40023C04CF024C04DF04A503D5C4B503E586D
:103BB4004C503F584D504058D8B0E3EF1DF0E5EF5E
:103BC4001DF0EDEF1DF045C04AF046C04BF047C074
:103BD4004CF048C04DF050C001F051C002F0036AEF
:103BE400046A32C005F033C006F034C007F035C0B3
:103BF40008F0AFEC59F001C00DF002C00EF003C0A4
:103C04000FF004C010F0E80E116E030E126E000ED9
:103C1400136E000E146ED4EC55F00DC036F00EC0C9
:103C240037F00FC038F010C039F04E50040DF35087
:103C3400620FD96EDA6A4AC0DEFF4BC0DDFF4E5018
:103C4400020D4C0EF324D96E010EF420DA6E36C048
:103C5400DEFF37C0DDFF4E50840FD96EDA6ADF6AAB
:103C64003A6A3A501200406E310E2F18D8A43DEF34
:103C74001EF03FEF1EF09FEF1EF0420E4018D8A436
:103C840046EF1EF048EF1EF070EF1EF0D80E3B6EAC
:103C9400010E3C6ED40E3E6E010E3F6E48C141F0E3
:103CA40049C142F0436A446A270E3D6E41C021F087
:103CB40042C022F0020E246EC40E236E020E266E43
:103CC400C80E256EC4EC56F021C045F022C046F063
:103CD40023C047F024C048F09FEF1EF0410E401867
:103CE400D8A477EF1EF079EF1EF09FEF1EF0D00EF0
:103CF4003B6E010E3C6ECC0E3E6E010E3F6E44C117
:103D040041F045C142F0436A446A150E3D6E41C01C
:103D140021F042C022F0020E246EB40E236E020E75
:103D2400266EB80E256EC4EC56F021C045F022C0B4
:103D340046F023C047F024C048F0320E2F18D8A410
:103D4400A6EF1EF0A8EF1EF008EF1FF0410E40187A
:103D5400D8A4AFEF1EF0B1EF1EF0D9EF1EF0C80EDD
:103D64003B6E010E3C6EC40E3E6E010E3F6E46C1AC
:103D740041F047C142F0436A446A1E0E3D6E41C0A1
:103D840021F042C022F0020E246EBC0E236E020EFD
:103D9400266EC00E256EC4EC56F021C045F022C03C
:103DA40046F023C047F024C048F008EF1FF0420E4D
:103DB4004018D8A4E0EF1EF0E2EF1EF008EF1FF069
:103DC400C00E3B6E010E3C6EBC0E3E6E010E3F6E8D
:103DD4004AC141F04BC142F0436A446A300E3D6E21
:103DE40041C021F042C022F0020E246ECC0E236E9C
:103DF400020E266ED00E256EC4EC56F021C045F09E
:103E040022C046F023C047F024C048F04850471071
:103E14000BE1310E455C750E4658D8A014EF1FF027
:103E240016EF1FF0BBEF1FF0330ECC601CEF1FF03A
:103E34001EEF1FF016EF1FF03BC0D9FF3CC0DAFFA6
:103E4400DECF01F0DECF02F0DECF03F0DECF04F0F0
:103E540041C005F042C006F043C007F044C008F07A
:103E6400AFEC59F001C045F002C046F003C047F082
:103E740004C048F0330ECC6042EF1FF044EF1FF053
:103E84003CEF1FF045C00DF046C00EF047C00FF0E8
:103E940048C010F0100E116E270E126E000E136E35
:103EA400000E146ED4EC55F00DC045F00EC046F073
:103EB4000FC047F010C048F03DC001F0026A2FEC7B
:103EC4005EF03A6E3A50D8B46AEF1FF06CEF1FF010
:103ED40086EF1FF03EC0D9FF3FC0DAFFDECF34F0DB
:103EE400DECF35F0DECF36F0DECF37F04550342468
:103EF400456E46503520466E47503620476E485032
:103F04003720486EBBEF1FF03EC0D9FF3FC0DAFF39
:103F14004550DE5C4650DE584750DE584850DE5867
:103F2400D8B097EF1FF099EF1FF0B3EF1FF03EC02A
:103F3400D9FF3FC0DAFFDECF34F0DECF35F0DECF7D
:103F440036F0DECF37F03450455C456E3550465878
:103F5400466E36504758476E37504858486EBBEF48
:103F64001FF0000E456E000E466E000E476E000EEA
:103F7400486E4550305C465031584750325848508E
:103F84003358D8A0C8EF1FF0CAEF1FF0D9EF1FF0C5
:103F94004550305C0101806F46503158816F475065
:103FA4003258826F48503358836FE2EF1FF0000E8F
:103FB4000101806F000E816F000E826F000E836F0F
:103FC400150ECC60E8EF1FF0EAEF1FF0E2EF1FF0F0
:103FD40080C101F081C102F082C103F083C104F009
:103FE400D30E056E250E066E000E076E000E086ECB
:103FF400AFEC59F001C080F002C081F003C082F040
:1040040004C083F0150ECC600AEF20F00CEF20F012
:1040140004EF20F0000E00018015806F000E811562
:10402400816FFF0E8215826FFF0E8315836F150E4D
:10403400CC601FEF20F021EF20F019EF20F080C0BA
:1040440034F081C035F082C036F083C037F035C01B
:1040540034F036C035F037C036F0376A34C080F0FB
:1040640035C081F036C082F037C083F0150ECC60C5
:104074003EEF20F040EF20F038EF20F080C034F025
:1040840081C035F082C036F083C037F035C034F0DB
:1040940036C035F037C036F0376A34C080F035C0EA
:1040A40081F036C082F037C083F080C038F081C020
:1040B40039F038C02FF039C030F01200010E000181
:1040C400E36F010EE16F52C0D9FF53C0DAFF410E16
:1040D400DE18D8B470EF20F072EF20F07FEF20F0FC
:1040E40052C0D9FF53C0DAFF420EDE18D8A47DEFC8
:1040F40020F07FEF20F074EF21F020EE01F0525019
:10410400D9265350DA222C0EDE18D8A48CEF20F0D6
:104114008EEF20F074EF21F020EE02F05250D926F9
:104124005350DA22310EDE18D8B49BEF20F09DEF05
:1041340020F0ACEF20F020EE02F05250D92653507C
:10414400DA22320EDE18D8A4AAEF20F0ACEF20F069
:1041540074EF21F020EE03F05250D9265350DA22A6
:104164002C0EDE18D8A4B9EF20F0BBEF20F074EFCA
:1041740021F0040EE26F040EE86FCFEF20F0E85157
:104184005224D96E000E5320DA6EE251CA08E82593
:10419400E16EE26ADFCFE7FFE82BE8515224D96EE3
:1041A400000E5320DA6EDF50D8B4DBEF20F0DDEFE1
:1041B40020F0ECEF20F0E8515224D96E000E532089
:1041C400DA6E2C0EDE18D8A4EAEF20F0ECEF20F023
:1041D400C1EF20F0E251CA08E825D96EDA6ADF6A35
:1041E400E8515224D96E000E5320DA6EDF50D8A461
:1041F400FEEF20F000EF21F00CEF21F0E251E8197E
:10420400D8B407EF21F009EF21F00CEF21F0030EF1
:10421400DE6FE36BE8515224D96E000E5320DA6E40
:104224002C0EDE18D8A419EF21F01BEF21F074EF47
:1042340021F0E251E819D8B422EF21F024EF21F063
:1042440074EF21F0E82BE8C0E2F037EF21F0E851F9
:104254005224D96E000E5320DA6EE251D408E825B8
:10426400E16EE26ADFCFE7FFE82BE8515224D96E12
:10427400000E5320DA6EDF50D8B443EF21F045EF3F
:1042840021F054EF21F0E8515224D96E000E53204E
:10429400DA6E2C0EDE18D8A452EF21F054EF21F080
:1042A40029EF21F0E251D408E825D96EDA6ADF6AF1
:1042B400E8515224D96E000E5320DA6EDF50D8A490
:1042C40066EF21F068EF21F074EF21F0E251E81974
:1042D400D8B46FEF21F071EF21F074EF21F0040EE8
:1042E400DE6FE36BE351D8A47AEF21F07CEF21F089
:1042F40072EF22F052C0D9FF53C0DAFFDF50E76FEC
:1043040020EE02F05250D9265350DA22DF50D00F5B
:10431400E46FCA0E1A6EE50E1B6E63EC3BF00001EF
:10432400E36F040EDE19D8A49AEF21F09CEF21F07C
:10433400AFEF21F0D40E1A6EDF0E1B6E63EC3BF070
:104344000001E325E36FE351D8A4ABEF21F0ADEF17
:1043540021F0AFEF21F0AFEF21F0E351D8A4B5EF96
:1043640021F0B7EF21F02FEF22F0010EE36F410EA1
:10437400E719D8A4C0EF21F0C2EF21F0D6EF21F065
:10438400E405D8A4C8EF21F0CAEF21F0D6EF21F05C
:10439400E551965DE6519759D8A0D3EF21F0D5EFBA
:1043A40021F0D6EF21F0E36B410EE719D8A4DDEF3D
:1043B40021F0DFEF21F0F4EF21F0020EE419D8A48C
:1043C400E6EF21F0E8EF21F0F4EF21F0E551945D00
:1043D400E6519559D8A0F1EF21F0F3EF21F0F4EF75
:1043E40021F0E36B420EE719D8A4FBEF21F0FDEFB7
:1043F40021F011EF22F0E405D8A403EF22F005EF39
:1044040022F011EF22F0E551925DE6519359D8A0C4
:104414000EEF22F010EF22F011EF22F0E36B420EC8
:10442400E719D8A418EF22F01AEF22F02FEF22F0A8
:10443400020EE419D8A421EF22F023EF22F02FEF8B
:1044440022F0E551905DE6519159D8A02CEF22F06D
:104454002EEF22F02FEF22F0E36BE351D8A435EFD7
:1044640022F037EF22F072EF22F0E751020DF35001
:10447400010FE425D96EDA6ADF50D8A444EF22F0A4
:1044840046EF22F072EF22F0030EE16F410EE719BE
:10449400D8A44FEF22F051EF22F05DEF22F0C1B12A
:1044A40056EF22F058EF22F05DEF22F0C1510109DE
:1044B400C16FC1C083FF420EE719D8A464EF22F094
:1044C40066EF22F072EF22F0C1B36BEF22F06DEFD2
:1044D40022F072EF22F0C1510209C16FC1C083FF03
:1044E400E151300F54C0D9FF55C0DAFFDF6E20EE22
:1044F40001F05450D9265550DA227C0EDF6E20EE9E
:1045040002F05450D9265550DA22DF6A000E120008
:1045140020EECEF0070EDE6AE806FDE29CC0CEF087
:104524009DC0CFF09AC0D0F09BC0D1F092C1D2F020
:1045340093C1D3F090C1D4F091C1D5F00001DA6BEE
:10454400380EBD19D8A4A9EF22F0ABEF22F086EF04
:1045540024F0E56BE551840FD96EDA6ADE04D8A441
:10456400B6EF22F0B8EF22F07DEF24F0E551040D10
:10457400F350620FD96EDA6ADE50DE10D8B4C5EF9C
:1045840022F0C7EF22F07DEF24F0E80EE525D96E86
:10459400DA6A010EDA22DF50DD6FE551020DE00E1A
:1045A400F324D96E010EF420DA6EDF50E26FE55188
:1045B400020DF350CE0FD96EDA6ADECFDBF0DDCF19
:1045C400DCF03BEC5CF00001DB51055CDC5106588F
:1045D400D8B0EFEF22F0F1EF22F07DEF24F059ECA8
:1045E4005CF005500001DB5D0650DC59D8B0FDEFEE
:1045F40022F0FFEF22F07DEF24F0E551020D440E8E
:10460400F324D96E010EF420DA6EDECF56F0DDCF3E
:1046140057F056C001F057C002F0036A046A000E56
:10462400F1EC42F001C038F002C039F003C03AF0B6
:1046340004C03BF0280E3C6E6B0E3D6E6E0E3E6E5B
:104644004E0E3F6EA9EC24F038C0DEF039C0DFF026
:104654003AC0E0F03BC0E1F0DEC00FF0DFC010F084
:10466400E0C011F0E1C012F0DBC001F0DCC002F0E8
:10467400036A046A000EF1EC42F001C013F002C0B8
:1046840014F003C015F004C016F0A6EC2AF00FC015
:10469400DEF010C0DFF011C0E0F012C0E1F0DEC0C7
:1046A40028F0DFC029F0E0C02AF0E1C02BF0C00EF2
:1046B4002C6EA30E2D6E1B0E2E6ECB0E2F6E83EC66
:1046C40019F028C0DEF029C0DFF02AC0E0F02BC0CA
:1046D400E1F0000E2C6E000E2D6E800E2E6E3F0E3D
:1046E4002F6EDEC013F0DFC014F0E0C015F0E1C09F
:1046F40016F0C00E0F6EA30E106E1B0E116E4B0E35
:10470400126EA6EC2AF00FC028F010C029F011C0D8
:104714002AF012C02BF083EC19F028C038F029C01D
:1047240039F02AC03AF02BC03BF00001E551020DEC
:104734003C0EF324D96E010EF420DA6EDECF56F06F
:10474400DDCF57F056C001F057C002F0036A046A87
:10475400000EF1EC42F001C03CF002C03DF003C099
:104764003EF004C03FF0A9EC24F038C0CAF039C0D0
:10477400CBF03AC0CCF03BC0CDF0CAC001F0CBC006
:1047840002F0CCC003F0CDC004F02DEC4CF001C01D
:10479400E3F002C0E4F00001E551020D440EF324FD
:1047A400D96E010EF420DA6EE351DE1809E1E4510A
:1047B400DE18D8B4E0EF23F0E2EF23F07DEF24F02D
:1047C400E351E411D8B4E9EF23F0EBEF23F06EEFFB
:1047D40024F0E205D8A4F1EF23F0F3EF23F0FEEF89
:1047E40023F02D0EE35D010EE459D8A0FCEF23F075
:1047F400FEEF23F012EF24F0020EE219D8A405EF25
:1048040024F007EF24F023EF24F0910EE35D010E72
:10481400E459D8B010EF24F012EF24F023EF24F081
:10482400E2C02FF0E3C030F0E4C031F0050E326E88
:10483400000E336E000E346E000E356EDD51DEEC6C
:104844001BF00001E205D8A42AEF24F02CEF24F099
:1048540048EF24F02D0EE35D010EE459D8A035EFA6
:1048640024F037EF24F048EF24F0E2C02FF0010EDB
:10487400316E2C0E306E050E326E000E336E000E4D
:10488400346E000E356EDD51DEEC1BF0020E0001BD
:10489400E219D8A450EF24F052EF24F06EEF24F084
:1048A400910EE35D010EE459D8A05BEF24F05DEFB7
:1048B40024F06EEF24F0E2C02FF0010E316E900E62
:1048C400306E050E326E000E336E000E346E000E26
:1048D400356EDD51DEEC1BF00001E551020D440E96
:1048E400F324D96E010EF420DA6EE3C0DEFFE4C0D7
:1048F400DDFF010EDA6FE52B030EE56584EF24F08E
:1049040086EF24F0ACEF22F0DA05D8A48CEF24F083
:104914008EEF24F098EF24F07CC0D6F07DC0D7F061
:104924007EC0D8F07FC0D9F0A0EF24F078C0D6F0D4
:1049340079C0D7F07AC0D8F07BC0D9F0D6C052F095
:10494400D7C053F0D8C054F0D9C055F012003B5032
:10495400800B446E3B503B244A6E3AAEB4EF24F0D5
:10496400B6EF24F0B7EF24F04A804A50D8B4BDEF34
:1049740024F0BFEF24F0D2EF24F04A28D8A4C5EFE6
:1049840024F0C7EF24F0CFEF24F0000E386E000EB1
:10499400396E000E3A6E000E3B6E3A8EDAEF24F05A
:1049A400000E386E000E396E000E3A6E000E3B6E2D
:1049B4003F50800B441A3F503F24496E3EAEE5EF12
:1049C40024F0E7EF24F0E8EF24F049804950D8B40C
:1049D400EEEF24F0F0EF24F003EF25F04928D8A4FB
:1049E400F6EF24F0F8EF24F000EF25F0000E3C6E13
:1049F400000E3D6E000E3E6E000E3F6E3E8E0BEFBF
:104A040025F0000E3C6E000E3D6E000E3E6E000E54
:104A14003F6E4950D8B411EF25F013EF25F01BEF8A
:104A240025F04A50D8A419EF25F01BEF25F025EF07
:104A340025F0000E386E000E396E000E3A6E000E30
:104A44003B6EBBEF26F03E503802F3CF4FF0F4CF6D
:104A540050F04F50456E466A476A486A50504B6E54
:104A64004C6A4D6A4E6A3D503902F3CF4FF0F4CF91
:104A740050F04F504526000E4622472248225050FF
:104A84004B26000E4C224D224E223C503A02F3CFCC
:104A94004FF0F4CF50F04F504526000E46224722E7
:104AA400482250504B26000E4C224D224E2247C025
:104AB40048F046C047F045C046F0456A3C503902CC
:104AC400F3CF4FF0F4CF50F04F50452650504622CC
:104AD400000E4722000E48223D503802F3CF4FF01B
:104AE400F4CF50F04F50452650504622000E472236
:104AF400000E482247C048F046C047F045C046F083
:104B0400456A3C503802F3CF4FF0F4CF50F04F5089
:104B1400452650504622000E4722000E48223E50A1
:104B24003902F3CF4FF0F4CF50F04F504B26505092
:104B34004C22000E4D22000E4E223D503A02F3CF7D
:104B44004FF0F4CF50F04F504B2650504C22000EF3
:104B54004D22000E4E223E503A02F3CF4FF0F4CFD6
:104B640050F04F50406E5050416E426A436A42C00A
:104B740043F041C042F040C041F0406A40504B26EF
:104B840041504C2242504D2243504E2245C040F0E9
:104B940046C041F047C042F048C043F0190ED8EF78
:104BA40025F0D8904332423241324032E82ED3EFDE
:104BB40025F040504B2641504C2242504D22435048
:104BC4004E2247C048F046C047F045C046F0456A0B
:104BD40049504AC040F0416A4026000E4122820EEC
:104BE40040244F6EFF0E4120506E0EEF26F0D890F9
:104BF4004B364C364D364E3648AE03EF26F005EFB5
:104C040026F006EF26F04B80D890453646364736D8
:104C140048364F06D8A050064DAE13EF26F015EFD8
:104C240026F0F9EF25F0496A48AE1BEF26F01DEF98
:104C340026F041EF26F0FF0E4514406EFF0E461499
:104C4400416EFF0E4714426E7F0E4814436E40506F
:104C5400411042104310D8B432EF26F034EF26F05E
:104C640038EF26F0010E496E41EF26F04BA03DEFE0
:104C740026F03FEF26F041EF26F034EF26F04950BE
:104C8400D8B447EF26F049EF26F06DEF26F0010E79
:104C94004B26000E4C224D224E224EA054EF26F0FD
:104CA40056EF26F06DEF26F04BC040F04CC041F0BB
:104CB4004DC042F04EC043F043344332423241329D
:104CC400403240C04BF041C04CF042C04DF043C0B4
:104CD4004EF04F4A502A50BE78EF26F0505008E16B
:104CE4004F28D8A078EF26F07AEF26F084EF26F04C
:104CF400000E4B6E000E4C6E800E4D6E7F0E4E6E8F
:104D0400B1EF26F050BE91EF26F0505006E14F046B
:104D1400D8B08FEF26F091EF26F09CEF26F0000E2E
:104D24004B6E000E4C6E000E4D6E000E4E6E446ABD
:104D3400B1EF26F04FC04AF0FF0E4B16FF0E4C1693
:104D44007F0E4D16000E4E164AA0ABEF26F0ADEFC7
:104D540026F0AEEF26F04D8ED8904A304E6E445079
:104D64004E124BC038F04CC039F04DC03AF04EC032
:104D74003BF01200010E0001D56F52C0D9FF53C0A1
:104D8400DAFF410EDE18D8B4CAEF26F0CCEF26F0D5
:104D9400D9EF26F052C0D9FF53C0DAFF420EDE1815
:104DA400D8A4D7EF26F0D9EF26F077EF27F020EE3E
:104DB40001F05250D9265350DA222C0EDE18D8A412
:104DC400E6EF26F0E8EF26F077EF27F020EE02F08A
:104DD4005250D9265350DA22310EDE18D8B4F5EFEA
:104DE40026F0F7EF26F015EF27F020EE02F05250F0
:104DF400D9265350DA22320EDE18D8B404EF27F045
:104E040006EF27F015EF27F020EE02F05250D926D6
:104E14005350DA22330EDE18D8A413EF27F015EF1F
:104E240027F077EF27F020EE03F05250D9265350A5
:104E3400DA222C0EDE18D8A422EF27F024EF27F074
:104E440077EF27F0040ED46F39EF27F0D4515224B2
:104E5400D96E000E5320DA6ED4C056F0FC0E5626DE
:104E64005650CA0FE16EE26ADFCFE7FFD42BD4516C
:104E74005224D96E000E5320DA6EDF50D8B445EFB9
:104E840027F047EF27F056EF27F0D4515224D96E7C
:104E9400000E5320DA6E2C0EDE18D8A454EF27F03F
:104EA40056EF27F028EF27F0D4C056F0FC0E562614
:104EB4005650CA0FD96EDA6ADF6AD4515224D96EB9
:104EC400000E5320DA6EDF50D8A46BEF27F06DEF9D
:104ED40027F077EF27F0040ED419D8B474EF27F035
:104EE40076EF27F077EF27F0D56BD551D8A47DEF77
:104EF40027F07FEF27F080EF28F020EE02F05250E9
:104F0400D9265350DA22310EDE18D8A48CEF27F0BC
:104F14008EEF27F0D4EF27F052C0D9FF53C0DAFF49
:104F2400410EDE18D8A499EF27F09BEF27F0B1EFDC
:104F340027F0CA0E1A6ED60E1B6E63EC3BF000010E
:104F4400D56FD551D8A4A9EF27F0ABEF27F0B1EF77
:104F540027F0D6C010F0D7C011F0CCEC5CF052C0F2
:104F6400D9FF53C0DAFF420EDE18D8A4BCEF27F0F5
:104F7400BEEF27F0D4EF27F0CA0E1A6ED60E1B6EC2
:104F840063EC3BF00001D56FD551D8A4CCEF27F0EA
:104F9400CEEF27F0D4EF27F0D6C010F0D7C011F031
:104FA400B1EC5CF020EE02F05250D9265350DA22D4
:104FB400320EDE18D8A4E1EF27F0E3EF27F029EF53
:104FC40028F052C0D9FF53C0DAFF410EDE18D8A42E
:104FD400EEEF27F0F0EF27F006EF28F0CA0E1A6E76
:104FE400D60E1B6E63EC3BF00001D56FD551D8A4EF
:104FF400FEEF27F000EF28F006EF28F0D6C010F0FF
:10500400D7C011F002EC5DF052C0D9FF53C0DAFFF3
:10501400420EDE18D8A411EF28F013EF28F029EF80
:1050240028F0CA0E1A6ED60E1B6E63EC3BF000011C
:10503400D56FD551D8A421EF28F023EF28F029EF1C
:1050440028F0D6C010F0D7C011F0E7EC5CF020EEE9
:1050540002F05250D9265350DA22330EDE18D8A467
:1050640036EF28F038EF28F082EF28F052C0D9FF4D
:1050740053C0DAFF410EDE18D8A443EF28F045EF01
:1050840028F05BEF28F0CA0E1A6ED60E1B6E63EC86
:105094003BF00001D56FD551D8A453EF28F055EF5C
:1050A40028F05BEF28F0D6C010F0D7C011F038EC30
:1050B4005DF052C0D9FF53C0DAFF420EDE18D8A407
:1050C40066EF28F068EF28F082EF28F0CA0E1A6E17
:1050D400D60E1B6E63EC3BF00001D56FD551D8A4FE
:1050E40076EF28F078EF28F082EF28F0D6C010F0A1
:1050F400D7C011F01DEC5DF082EF28F0010ED56FE2
:105104000001D551D8A489EF28F08BEF28F0A2EF45
:1051140028F054C0D9FF55C0DAFF300EDF6E20EE00
:1051240001F05450D9265550DA227C0EDF6E20EE61
:1051340002F05450D9265550DA22DF6AB7EF28F02E
:1051440054C0D9FF55C0DAFF320EDF6E20EE01F0F5
:105154005450D9265550DA227C0EDF6E20EE02F030
:105164005450D9265550DA22DF6A000E12002E6AF6
:1051740095EF2AF0640EBF65C2EF28F0C4EF28F063
:10518400CFEF28F0B40E01015C6FE20E5D6FFF0EED
:105194005E6FFF0E5F6F10EF29F0640EBF19D8B475
:1051A400D6EF28F0D8EF28F007EF29F0BFC027F09A
:1051B400286A296A2A6A0E0ED89027362836293694
:1051C4002A36E82EDEEF28F027C00DF028C00EF0B6
:1051D40029C00FF02AC010F0640E116E000E126E7A
:1051E400000E136E000E146EA8EC4BF0000E0D248E
:1051F40001015C6FE00E0E205D6FFF0E0F205E6FED
:10520400FF0E10205F6F10EF29F0780E01015C6F24
:105214001E0E5D6F000E5E6F000E5F6F640E5C25E8
:10522400586F000E5D21596F000E5E215A6F000EFB
:105234005F215B6F0001A269010EA36FA5EF2AF045
:10524400A22B060EA219D8A42AEF29F02CEF29F0DC
:1052540033EF29F07AEC59F00001BE6BA36BA5EF94
:105264002AF0010E896F900E886F020EA36FA5EFCE
:105274002AF0A2C001F0026A046A030E036E82ECF3
:1052840054F001500210D8A44AEF29F04CEF29F051
:1052940053EF29F0100E326E360E316E306A040E62
:1052A4002F6EA2C001F0026A046A030E036E82EC40
:1052B40054F001040210D8A462EF29F064EF29F03D
:1052C4006BEF29F0130E326E360E316E306A050E16
:1052D4002F6EA2C001F0026A046A030E036E82EC10
:1052E40054F0020E01180210D8A47BEF29F07DEFD0
:1052F40029F084EF29F0150E326E360E316E306AC5
:10530400060E2F6E030E0001A2618BEF29F08DEFC4
:1053140029F091EF29F0010E366E93EF29F0020E79
:10532400366E050E8827000E89232FC007F030C083
:1053340008F088C009F089C00AF0365042EC52F0F7
:10534400150E276EC60EE82EFED7272EFCD700F0CA
:1053540000F02FC007F030C008F088C009F089C001
:105364000AF0365042EC52F0336A150E276EC60E20
:10537400E82EFED7272EFCD700F000F031C007F04E
:1053840032C008F03650D9EC54F007C034F008C0ED
:1053940035F00B0E276E620EE82EFED7272EFCD7B3
:1053A40000F000F0D7EF29F0332A31C007F032C003
:1053B40008F03650D9EC54F0E20E0724276EFF0EA5
:1053C4000820286E3450275C2850800A296E3550F6
:1053D400800A2958D8B0F1EF29F0F3EF29F015EF3E
:1053E4002AF031C007F032C008F03650D9EC54F03E
:1053F4001E0E0726000E08220750345C3550800A22
:10540400276E0850800A2758D8B00BEF2AF00DEF0A
:105414002AF015EF2AF0130E336413EF2AF015EF78
:105424002AF0D6EF29F0140E33601BEF2AF01DEF9B
:105434002AF01EEF2AF0336A140E3318D8A425EF8D
:105444002AF027EF2AF0B7EF29F034C027F035C04F
:1054540028F0000E28BEFF0E296E2A6E01015C5151
:10546400275C5D5128585E5129582A50800A2B6EBA
:105474005F51800A2B58D8A042EF2AF044EF2AF05B
:1054840075EF2AF0000E35BEFF0E286E800A276ED7
:105494005851345C595135585A5128585B51800A37
:1054A4002758D8B058EF2AF05AEF2AF075EF2AF0AF
:1054B400010E0001A36FA251276E286AD8902736E7
:1054C40028362750B0082C6E2850D8A0E82A0108A6
:1054D4002D6E2CC0D9FF2DC0DAFF88C0DEFF89C035
:1054E400DDFF190E2E6E2E2A190E2E607CEF2AF087
:1054F4007EEF2AF088EF2AF0040E0001895DD8A01F
:1055040086EF2AF088EF2AF093EF29F0000188054E
:10551400040E8959D8A091EF2AF093EF2AF0A5EF51
:105524002AF01EEF29F00001A351000AD8B4BCEF01
:1055340028F0010AD8B422EF29F0030AD8B43BEFCB
:1055440029F030EF29F012001250800B1F6E125018
:105554001224266E11AEB1EF2AF0B3EF2AF0B4EFA5
:105564002AF026802650D8B4BAEF2AF0BCEF2AF0ED
:10557400D0EF2AF02628D8A4C2EF2AF0C4EF2AF0EC
:10558400CCEF2AF0000E0F6E000E106E000E116E9E
:10559400000E126E118E126AD8EF2AF0000E0F6EF2
:1055A400000E106E000E116E000E126E1650800B5F
:1055B4001F1A16501624276E15AEE3EF2AF0E5EFF6
:1055C4002AF0E6EF2AF027802750D8B4ECEF2AF02F
:1055D400EEEF2AF002EF2BF02728D8A4F4EF2AF0FC
:1055E400F6EF2AF0FEEF2AF0000E136E000E146E92
:1055F400000E156E000E166E158E166A0AEF2BF04D
:10560400000E136E000E146E000E156E000E166E54
:105614001350141015101610D8A413EF2BF015EF17
:105624002BF02DEF2BF0000E0F6E000E106E000EFF
:10563400116E000E126E800E11127F0E12121F5088
:1056440012120FC00FF010C010F011C011F012C0F0
:1056540012F06CEF2CF02650D8A433EF2BF035EF7A
:105664002BF03FEF2BF0000E0F6E000E106E000EAD
:10567400116E000E126E6CEF2CF0275026C017F03E
:10568400186A175E000E185A7F0E1724206E000E3B
:105694001820216E0FC01BF010C01CF011C01DF0AB
:1056A40012C01EF0000E0F6E000E106E000E116E72
:1056B400000E126E000E226E000E236E000E246E7B
:1056C400000E256E276A9FEF2BF02750D8B46DEF9C
:1056D4002BF06FEF2BF086EF2BF0D8901B361C3697
:1056E4001D361E36D8900F3610361136123625AEBA
:1056F4007EEF2BF080EF2BF081EF2BF00F80D89012
:10570400223623362436253613501B5C14501C587D
:1057140015501D5816501E58D8A093EF2BF095EF36
:105724002BF09EEF2BF0258C13501B5E14501C5A4B
:1057340015501D5A16501E5A272A190E2764A5EF14
:105744002BF0A7EF2BF067EF2BF01B501C101D1054
:105754001E10D8B4B0EF2BF0B2EF2BF0CAEF2BF041
:105764002280CAEF2BF0D8900F361036113612363D
:1057740025AEBFEF2BF0C1EF2BF0C2EF2BF00F8063
:10578400D89022362336243625362006D8A0210682
:1057940011AECFEF2BF0D1EF2BF0B5EF2BF0276A42
:1057A40025AED7EF2BF0D9EF2BF0FDEF2BF0FF0E4A
:1057B4002214176EFF0E2314186EFF0E2414196E94
:1057C4007F0E25141A6E1750181019101A10D8B419
:1057D400EEEF2BF0F0EF2BF0F4EF2BF0010E276E31
:1057E400FDEF2BF00FA0F9EF2BF0FBEF2BF0FDEF0B
:1057F4002BF0F0EF2BF02750D8B403EF2CF005EF8B
:105804002CF029EF2CF0010E0F26000E102211228D
:10581400122212A010EF2CF012EF2CF029EF2CF032
:105824000FC017F010C018F011C019F012C01AF010
:105834001A341A3219321832173217C00FF018C03E
:1058440010F019C011F01AC012F0204A212A21BE0A
:1058540034EF2CF0215008E12028D8A034EF2CF0AC
:1058640036EF2CF041EF2CF0000E216E2068000E74
:105874000F6E000E106E000E116E000E126E21BE21
:105884004EEF2CF0215006E12004D8B04CEF2CF060
:105894004EEF2CF05AEF2CF0216A000E206E000E11
:1058A4000F6E000E106E000E116E000E126E1F6A47
:1058B40020C026F026A061EF2CF063EF2CF066EFF9
:1058C4002CF0118E67EF2CF0119ED8902630126EBA
:1058D40021EF2BF01200010E0001CA6F52C0D9FF54
:1058E40053C0DAFF410EDE18D8B47BEF2CF07DEF05
:1058F4002CF08AEF2CF052C0D9FF53C0DAFF420ECD
:10590400DE18D8A488EF2CF08AEF2CF0C6EF2CF028
:1059140020EE01F05250D9265350DA222C0EDE1814
:10592400D8A497EF2CF099EF2CF0C6EF2CF020EED2
:1059340002F05250D9265350DA22310EDE18D8B470
:10594400A6EF2CF0A8EF2CF0B7EF2CF020EE02F02D
:105954005250D9265350DA22320EDE18D8A4B5EFAD
:105964002CF0B7EF2CF0C6EF2CF020EE03F05250E1
:10597400D9265350DA22DF50D8A4C3EF2CF0C5EF58
:105984002CF0C6EF2CF0CA6BCA51D8A4CCEF2CF083
:10599400CEEF2CF013EF2EF052C0D9FF53C0DAFF34
:1059A400DF50D26F20EE02F05250D9265350DA2243
:1059B400DF50D00FD16FCE6B000ECD6FD251020DE0
:1059C400F350D125810FC96FC90E1B6EE2EC46F06E
:1059D4001BC0CBF01CC0CCF00001D251020DF3501F
:1059E400010FD125D96EDA6ADF50D8A4FCEF2CF070
:1059F400FEEF2CF040EF2DF054C0D9FF55C0DAFF74
:105A0400300EDF6E20EE01F05450D9265550DA22C4
:105A14007C0EDF6E20EE02F05450D9265550DA2267
:105A24002D0EDF6E20EE03F05450D9265550DA22A5
:105A3400DF6ACBC001F0CCC002F0046A0A0E036E28
:105A4400D4EC58F001C0CFF002C0D0F054C008F03C
:105A540055C009F0CFC00AF0D0C00BF02C0E0C6E6C
:105A6400EBEC2FF054C001F055C002F03F0E036E72
:105A7400000E046ECDEC53F013EF2EF0D151040D53
:105A8400F3CF56F0D251080DF350540F5624D96E6B
:105A9400DA6ADE50DE10D8A452EF2DF054EF2DF068
:105AA40075EF2DF054C0D9FF55C0DAFF300EDF6E0C
:105AB40020EE01F05450D9265550DA227C0EDF6EC8
:105AC40020EE02F05450D9265550DA22DF6A54C031
:105AD40001F055C002F03B0E036E000E046ECDECD7
:105AE40053F013EF2EF0D151300F016ECD0E026E34
:105AF400D25168EC51F0CDC001F0CEC002F0046A7E
:105B0400190E036ED4EC58F001C0D3F002C0D4F0E7
:105B1400660E0001D303F3CF56F0F4CF57F0D4034D
:105B2400F350572656C0D3F057C0D4F0D3C001F079
:105B3400D4C002F0046A0A0E036ED4EC58F001C01B
:105B4400D3F002C0D4F0D3C056F0D4C057F0D890EC
:105B540057325632D8905732563256C0D3F057C0C7
:105B6400D4F00001D351CB5DD36FD451CC59D46F51
:105B740054C0D9FF55C0DAFF300EDF6E20EE01F0BD
:105B84005450D9265550DA227C0EDF6E20EE02F0F6
:105B94005450D9265550DA222D0EDF6E20EE03F034
:105BA4005450D9265550DA22DF6ACBC001F0CCC05C
:105BB40002F0046A0A0E036ED4EC58F001C0CFF070
:105BC40002C0D0F054C008F055C009F0CFC00AF0AC
:105BD400D0C00BF02C0E0C6EEBEC2FF054C001F087
:105BE40055C002F02D0E036E000E046E9BEC58F0AF
:105BF400D3C001F0D4C002F0046A0A0E036ED4ECE0
:105C040058F001C0CFF002C0D0F054C008F055C025
:105C140009F0CFC00AF0D0C00BF0000E0C6EEBEC14
:105C24002FF00001CA05D8A41AEF2EF01CEF2EF0B5
:105C340031EF2EF054C0D9FF55C0DAFF320EDF6EBB
:105C440020EE01F05450D9265550DA227C0EDF6E36
:105C540020EE02F05450D9265550DA22DF6A000EA5
:105C64001200010E0001F36FF46B46EF2EF0F451B5
:105C74005224D96E000E5320DA6EF451CA0FE16E2D
:105C8400E26ADFCFE7FFF42BF4515224D96E000E01
:105C94005320DA6EDF50D8B452EF2EF054EF2EF0CA
:105CA40063EF2EF0F4515224D96E000E5320DA6EB5
:105CB4002C0EDE18D8A461EF2EF063EF2EF039EF2E
:105CC4002EF0F451CA0FD96EDA6ADF6AF451522405
:105CD400D96E000E5320DA6E2C0EDE18D8A475EFA0
:105CE4002EF077EF2EF01BEF2FF0F451D8B47DEFA8
:105CF4002EF07FEF2EF01BEF2FF0F42BF4C0F2F018
:105D040092EF2EF0F4515224D96E000E5320DA6E25
:105D1400F251D408F425E16EE26ADFCFE7FFF42BF9
:105D2400F4515224D96E000E5320DA6EDF50D8B4E9
:105D34009EEF2EF0A0EF2EF0AFEF2EF0F451522490
:105D4400D96E000E5320DA6E2C0EDE18D8A4ADEFF7
:105D54002EF0AFEF2EF084EF2EF0F251D408F4259C
:105D6400D96EDA6ADF6AF4515224D96E000E5320D8
:105D7400DA6E2C0EDE18D8A4C2EF2EF0C4EF2EF08B
:105D84001BEF2FF0F251F419D8B4CBEF2EF0CDEF76
:105D94002EF01BEF2FF0F42BF4C0F2F0E0EF2EF016
:105DA400F4515224D96E000E5320DA6EF251DE08FB
:105DB400F425E16EE26ADFCFE7FFF42BF4515224BD
:105DC400D96E000E5320DA6EDF50D8B4ECEF2EF00B
:105DD400EEEF2EF0FDEF2EF0F4515224D96E000EAA
:105DE4005320DA6E2C0EDE18D8A4FBEF2EF0FDEF54
:105DF4002EF0D2EF2EF0F251DE08F425D96EDA6AD5
:105E0400DF6AF4515224D96E000E5320DA6EDF504B
:105E1400D8A40FEF2FF011EF2FF01BEF2FF0F2515A
:105E2400F419D8B418EF2FF01AEF2FF01BEF2FF05E
:105E3400F36BF351D8A421EF2FF023EF2FF0B4EF3D
:105E44002FF0CA0E1A6EEE0E1B6E63EC3BF00001CF
:105E5400F36FF351D8A431EF2FF033EF2FF06EEF3F
:105E64002FF0D10EEE5D070EEF59D8B03CEF2FF0B6
:105E74003EEF2FF06EEF2FF0EEC001F0EFC002F016
:105E8400036A046A0E0E056E820E066E000E076E1D
:105E9400000E086EAFEC59F0E80E01240D6E030EEF
:105EA40002200E6E000E03200F6E000E0420106EF2
:105EB400D00E116E070E126E000E136E000E146ECD
:105EC400D4EC55F00DC0E8F00EC0E9F00FC0EAF0D4
:105ED40010C0EBF070EF2FF0010EF36FD40E1A6EBA
:105EE400F00E1B6E63EC3BF00001F325F36FDE0E46
:105EF4001A6EEC0E1B6E63EC3BF00001F325F36F9E
:105F0400F351D8A488EF2FF08AEF2FF0B2EF2FF0DF
:105F1400F051EC5DF151ED59D8A093EF2FF095EFCE
:105F24002FF09EEF2FF0F051F111D8A49CEF2FF039
:105F34009EEF2FF0B2EF2FF0EEC094F1EFC095F189
:105F4400E8C012F0E9C013F0F0C014F0F1C015F08D
:105F5400ECC016F0EDC017F0FFEC5BF0B4EF2FF0DF
:105F6400010EF36F0001F351D8A4BBEF2FF0BDEF86
:105F74002FF0D4EF2FF054C0D9FF55C0DAFF300E04
:105F8400DF6E20EE01F05450D9265550DA227C0EF3
:105F9400DF6E20EE02F05450D9265550DA22DF6A23
:105FA400E9EF2FF054C0D9FF55C0DAFF320EDF6E8F
:105FB40020EE01F05450D9265550DA227C0EDF6EC3
:105FC40020EE02F05450D9265550DA22DF6A000E32
:105FD40012000AC001F00BC002F0046A0A0E036E3C
:105FE400D4EC58F0F60E0102F3CF0DF0F4CF0EF01E
:105FF4000202F3500E26FF0E0102F3500E260A5041
:106004000D24236E0B500E20246E0AC001F00BC029
:1060140002F0046A640E036ED4EC58F09C0E010284
:10602400F3CF0DF0F4CF0EF00202F3500E26FF0E64
:106034000102F3500E2623500D5E24500E5A0A50CE
:106044000D24216E0B500E20226E21C001F022C0BF
:1060540002F0046A0A0E036ED4EC58F001C021F079
:1060640002C022F00AC001F00BC002F0030E046E5D
:10607400E80E036ED4EC58F0180E0102F3CF0DF0C5
:10608400F4CF0EF00202F3500E26FC0E0102F35080
:106094000E26F60E0F6EFF0E106E0F502102F3CF78
:1060A40011F0F4CF12F02202F35012261050210204
:1060B400F35012260D501124136E0E501220146E3C
:1060C4002350135E2450145A0A5013241F6E0B508D
:1060D4001420206E1FC001F020C002F0046A640E78
:1060E400036ED4EC58F001C01FF002C020F00AC0C7
:1060F40001F00BC002F0270E046E100E036ED4ECF8
:1061040058F0F00E0102F3CF0DF0F4CF0EF00202BE
:10611400F3500E26D80E0102F3500E269C0E0F6E7D
:10612400FF0E106E0F501F02F3CF11F0F4CF12F0D8
:106134002002F350122610501F02F3501226F60EBE
:10614400136EFF0E146E13502102F3CF15F0F4CF2B
:1061540016F02202F350162614502102F35016268C
:1061640011501524176E12501620186E0D50172456
:10617400196E0E5018201A6E2350195E24501A5AA4
:106184000A5019241D6E0B501A201E6E1DC001F0FA
:106194001EC002F0030E046EE80E036ED4EC58F039
:1061A40001C01DF002C01EF00AC001F00BC002F0D5
:1061B400270E046E100E036ED4EC58F001C01BF0D1
:1061C40002C01CF0286A000E276E266A000E256E97
:1061D400EEEF30F0274A282A27500824D96E285099
:1061E4000920DA6EDF50D8A4FAEF30F0FCEF30F07B
:1061F400ECEF30F000EF31F0254A262A2550020D4D
:10620400F3501B0FD96EDA6ADE50DE10D8A40DEFFE
:1062140031F00FEF31F01AEF31F0265009E1050E9D
:10622400255CD8A018EF31F01AEF31F0FEEF30F012
:10623400265007E1050E255CD8B023EF31F025EF99
:1062440031F059EF31F04CEF31F02550020DF3509D
:106254001B0FD96EDA6A010EDB5007E10A0EDE5C11
:10626400D8B037EF31F039EF31F04AEF31F0275041
:106274000824D96E28500920DA6E2550020DF350F7
:106284001B0FE16EE26AE750300FDF6E274A282ABF
:10629400254A262A265009E1050E255CD8A055EF8B
:1062A40031F057EF31F027EF31F063EF31F0275041
:1062B4000824D96E28500920DA6E300EDF6E274A82
:1062C400282A0C50D8B469EF31F06BEF31F075EF38
:1062D40031F027500824D96E28500920DA6E0CC0FA
:1062E400DFFF274A282A27500824D96E285009207E
:1062F400DA6EDF6A12002F6E1B6A000E1A6E020E2F
:106304001D6E000E1C6E150E1F6E360E1E6E130EC5
:10631400216E360E206E100E236E360E226EA60EE1
:10632400186E010E196E246A020E2F649CEF31F070
:106334009EEF31F0A2EF31F0020E2E6EA4EF31F099
:10634400010E2E6E306A2FC001F0026A046A030E39
:10635400036E82EC54F001500608076E0250D8A078
:10636400E82A0008086E3050020DF3501A0FD96E57
:10637400DA6ADECF09F0DDCF0AF02E5042EC52F09B
:10638400050E136E0F0E126EF10EE82EFED7122EAE
:10639400FCD7132EFAD700002FC001F0026A046A5A
:1063A400030E036E82EC54F00150020DF3501E0FE5
:1063B400D96EDA6ADECF07F0DDCF08F02E50D9ECC3
:1063C40054F03050020DF3502A0FD96EDA6A07C028
:1063D400DEFF08C0DDFF0B0E126E620EE82EFED744
:1063E400122EFCD700F000F0296A2FC001F0026AD7
:1063F400046A030E036E82EC54F00150020DF35054
:106404001E0FD96EDA6ADECF07F0DDCF08F02E500A
:10641400D9EC54F007C027F008C028F03050020D22
:10642400F3502A0FD96EDA6A6A0E2724146EFF0E0F
:106434002820156EDE50145C1550800A166EDE504E
:10644400800A1658D8B029EF32F02BEF32F051EF12
:1064540032F0960E2724126E000E2820136E305050
:10646400020DF3502A0FD96EDA6A1250DE5CDE5048
:10647400800A166E1350800A1658D8B044EF32F0D2
:1064840046EF32F051EF32F0140E29604CEF32F047
:106494004EEF32F051EF32F0292A64EF32F0140E4D
:1064A400296057EF32F059EF32F064EF32F0305098
:1064B400020DF3502A0FD96EDA6A27C0DEFF28C016
:1064C400DDFF296A140E2918D8A46BEF32F06DEFA2
:1064D40032F0F7EF31F0302A010E306474EF32F00D
:1064E40076EF32F0A5EF31F0C80E2C24126E000EB8
:1064F4002D20136E2A50125C1350800A146E2B50F8
:10650400800A1458D8A089EF32F08BEF32F0A0EF54
:1065140032F0C80E2A24126E000E2B20136E2C505B
:10652400125C1350800A146E2D50800A1458D8B08F
:106534009EEF32F0A0EF32F0A2EF32F0010E246EA3
:106544002B6A000E2A6E2D6A000E2C6E020E126E3D
:10655400000E136E2E50125E000E135A030E12021A
:10656400F3CF14F0F4CF15F01302F3501526D8909E
:10657400143615362FC001F0026A046A030E036E46
:106584004BEC5AF0D8900136023601501824166E9E
:1065940002501920176E14501624D96E1550172066
:1065A400DA6EDECF25F0DDCF26F0040E265CD8B0FF
:1065B400DEEF32F0E0EF32F003EF33F02FC001F002
:1065C400026A046A030E036E82EC54F0015006085A
:1065D400076E0250D8A0E82A0008086E25C009F00A
:1065E40026C00AF02E5042EC52F0050E136E0F0E28
:1065F400126EF10EE82EFED7122EFCD7132EFAD708
:10660400000024501200216A000E206E2B6A2B50C9
:10661400840FD96EDA6ADF50D8A413EF33F015EF84
:1066240033F057EF34F0266A2B50040DF350620F09
:10663400D96EDA6A2B50040DF350600FE16EE26AF2
:10664400DE50E65CDE50E658D8B02BEF33F02DEF89
:1066540033F050EF33F02B50040DF350600FD96E2C
:10666400DA6ADECF1AF0DDCF1BF02B50040DF350A5
:10667400620FD96EDA6ADECF1CF0DDCF1DF01A503E
:106684001C5C226E1B501D58236E246AD8A024065D
:106694002450256E010E266E6FEF33F02B50040D3F
:1066A400F350620FD96EDA6ADECF1AF0DDCF1BF039
:1066B4002B50040DF350600FD96EDA6ADECF1CF054
:1066C400DDCF1DF01A501C5C226E1B501D58236E2A
:1066D400246AD8A024062450256E2B50020D4C0E9B
:1066E400F324D96E010EF420DA6EDECF1AF0DDCF7A
:1066F4001BF01A501C6E1B501D6E1E6A1F6A020E80
:10670400D8901C361D361E361F36E82E82EF33F025
:106714001CC001F01DC002F01EC003F01FC004F035
:10672400190E056E000E066E000E076E000E086E42
:10673400AFEC59F001C00DF002C00EF003C00FF031
:1067440004C010F0E80E116E030E126E000E136EEC
:10675400000E146ED4EC55F00DC027F00EC028F0D6
:106764000FC029F010C02AF0540E2B24D96EDA6A17
:10677400010EDA22DF50D8A4C2EF33F0C4EF33F0B5
:106784003AEF34F02250275C2350285824502958DB
:1067940025502A58D8A0D1EF33F0D3EF33F005EFCA
:1067A40034F02B50040DF350620FD96EDA6A2B507B
:1067B400040DF350600FE16EE26ADECFE6FFDDCF39
:1067C400E5FF4E0E2B24016E026A000E02222FEC0E
:1067D4005EF00009D8A4F1EF33F0F3EF33F0FBEFF0
:1067E40033F02B50840FD96EDA6A010EDF6E29EF75
:1067F40034F0540E2B24D96EDA6A010EDA22010E1B
:10680400DF6E29EF34F02604D8A40BEF34F00DEF3B
:1068140034F017EF34F02B50040DF350600FD96EA1
:10682400DA6A2750DE262850DD222650D8A41DEF30
:1068340034F01FEF34F029EF34F02B50040DF350F3
:10684400600FD96EDA6A2750DE5E2850DD5A2B506D
:10685400040DF350600FD96EDA6ADECF08F0DDCF95
:1068640009F02B50100DF3501FEC58F057EF34F093
:106874002B50040DF350600FD96EDA6A2B50040DBF
:10688400F350620FE16EE26ADECFE6FFDDCFE5FF93
:106894002B50840FD96EDA6A010EDF6E540E2B244E
:1068A400D96EDA6A010EDA22DF6A2B2A030E2B6410
:1068B4005EEF34F060EF34F009EF33F01200010EB4
:1068C4000001D06F52C0D9FF53C0DAFF410EDE1869
:1068D400D8B46FEF34F071EF34F07EEF34F052C07F
:1068E400D9FF53C0DAFF420EDE18D8A47CEF34F08F
:1068F4007EEF34F08DEF34F020EE01F05250D926C3
:106904005350DA22DF50D8A48AEF34F08CEF34F0FD
:106914008DEF34F0D06BD051D8A493EF34F095EFD1
:1069240034F08AEF35F052C0D9FF53C0DAFF410E7C
:10693400DE18D8A4A0EF34F0A2EF34F0ACEF34F0BA
:10694400086A000E076E010ED9EC54F007C0D1F0AE
:1069540008C0D2F052C0D9FF53C0DAFF420EDE188D
:10696400D8A4B7EF34F0B9EF34F0C3EF34F0086AC9
:10697400000E076E020ED9EC54F007C0D1F008C027
:10698400D2F0D1C056F0D2C057F00F0E586ED89046
:1069940057325632582EC9EF34F05650010B0001CD
:1069A400CC6FD1C056F0D2C057F00B0E586ED890B1
:1069B40057325632582ED9EF34F00F0E5616000EB9
:1069C4005716DC0E5624CA6F070E5720CB6FD1C062
:1069D40056F0D2C057F0070E586ED8905732563240
:1069E400582EEFEF34F056500F0BCD6FD1C056F048
:1069F400D2C057F0D89057325632D89057325632C8
:106A040056501F0BCE6FD151030BCF6F54C0D9FF1B
:106A140055C0DAFF300EDF6E20EE01F05450D92657
:106A24005550DA227C0EDF6E20EE02F05450D92647
:106A34005550DA22DF6A54C001F055C002F0310E1D
:106A4400036E000E046ECDEC53F054C001F055C03B
:106A540002F00001CC51410F036E2C0E046E9BEC2E
:106A640058F054C001F055C002F0360E036E000E0B
:106A7400046ECDEC53F054C008F055C009F0CEC0FC
:106A84000AF00B6A2C0E0C6EEBEC2FF054C001F0E4
:106A940055C002F0240E036E000E046ECDEC53F0CC
:106AA40054C008F055C009F0CDC00AF00B6A2C0E92
:106AB4000C6EEBEC2FF054C001F055C002F02B0E1D
:106AC400036E000E046ECDEC53F054C008F055C0B4
